:020000040000FA
:1000000029EF31F0C96E120062EF2DF0E5EC0CF033
:10001000D9EC11F0FDD712005EEF2FF0D9CFE5FF3C
:10002000E1CFD9FF00C0E5FF01C0E5FF02C0E5FF59
:1000300003C0E5FF04C0E5FF05C0E5FF06C0E5FF1E
:1000400007C0E5FF08C0E5FF09C0E5FF0AC0E5FFFE
:100050000BC0E5FF0CC0E5FF0DC0E5FF0EC0E5FFDE
:100060000FC0E5FF10C0E5FF11C0E5FF12C0E5FFBE
:1000700013C0E5FF14C0E5FF15C0E5FF16C0E5FF9E
:1000800017C0E5FF18C0E5FF19C0E5FF1AC0E5FF7E
:100090001BC0E5FF1CC0E5FF1DC0E5FF1EC0E5FF5E
:1000A0001FC0E5FF20C0E5FF21C0E5FF22C0E5FF3E
:1000B00023C0E5FF24C0E5FF25C0E5FF26C0E5FF1E
:1000C00027C0E5FF020EDBCF00F0030EDBCF01F00F
:1000D000040EDBCF02F00250086E0150076E005094
:1000E000066EE56A100EE56E0850E56E0750E56E87
:1000F0000650E56E800EE56E040EE56EE80EE56EC8
:1001000026EC24F0080EE126F0C403F0F1C404F05C
:10011000F2C405F0F3C406F003C007F004C008F011
:1001200005C009F006C00AF0D8800AAED8900AE3EC
:100130000A1E091E081E076C05E1082A03E1092AA8
:10014000D8B40A2AE8C40BF0E9C40CF0E86A040148
:10015000E9BFFF0E0D6E0E6ED890EC31106EEB31D4
:100160000F6ED89010320F32ED51E840E840C00BCE
:100170001012ED41E8403F0BE8BAC009116E126A57
:1001800011BE12680F500B5C0F6E10500C58106EA1
:1001900011500D58116E12500E58126E800F810FB3
:1001A00008E1FF0E115C05E1FF0E105C02E1FE0E9E
:1001B0000F5CD8A04ED01250800F800F08E1000EC7
:1001C000115C05E1000E105C02E1030E0F5CD8B07B
:1001D00040D00A340A30166E0930156E0830146E9D
:1001E0000730136EF6C417F0F7C418F0E86A04017C
:1001F000F7BFFF0E196E800FF36E1650800FF35C81
:1002000008E11550195C05E11450185C02E1135027
:10021000175C1FE30C50156E15260D34166ED89022
:10022000153616360B44E844FC0B146E0B50E844AC
:10023000E844030B15120401EA6B1450EB6F1550E0
:10024000EC6F1650ED6FF06BF16BF26BF36BF3EF3D
:1002500004F0D89009300C6E08300B6ED8900C3238
:100260000B32D8900C320B320A50E838E844E00BDD
:100270000C120A38E8441F0BE8B8E0090E6A08506F
:10028000076E0950086ED89008320732D8900832AD
:1002900007320A50E840E840C00B08120A40E84024
:1002A0003F0B0BC009F00CC00AF0E86A0CBEFF0E51
:1002B0000D6E0E6E07C013F008C014F0E86A08BE99
:1002C000FF0E156EE56E1550E56E1450E56E135079
:1002D000E56E0E50E56E0D50E56E0A50E56E095064
:1002E000E56E3EEC19F0096EF3CF0AF0F4CF0DF095
:1002F000E9CF0EF0080EE126F6C413F0F7C414F0AF
:10030000E86A0401F7BFFF0E156E166EE56E155014
:10031000E56E1450E56E1350E56E0E50E56E0D500F
:10032000E56E0A50E56E0950E56E0DEC1DF0096EA4
:10033000F3CF0AF0080EE126EEC40DF0EFC40EF084
:10034000E86A0401EFBFFF0E176E0E501B6E1B26EE
:1003500017341C6ED8901B361C360D44E844FC0B39
:100360001A6E0D50E844E844030B1B12196AD8803A
:1003700006AED890D8B07AD109C00DF00AC00EF000
:10038000E86A0ABEFF0E176E800FF36E1250800FE0
:10039000F35C08E11150175C05E110500E5C02E1BE
:1003A0000F500D5CD8B03AD10650800FF36E1C5040
:1003B000800FF35C08E11B50055C05E11A50045CFA
:1003C00002E11950035CD8B002D1F4C40DF0F5C4B9
:1003D0000EF0E86A0401F5BFFF0E176E186E0350A9
:1003E0000D2604500E2205501722065018220D50DB
:1003F0000401F06F0E50F16F1750F26F1850F36F49
:10040000F6C40DF0F7C40EF0F4C417F0F5C418F0FC
:100410000E50800FF36E1850800FF35C02E11750FE
:100420000D5CD8B0B8D0F0C41DF0F1C41EF0F2C419
:100430001FF0F3C420F0D8901F30226E1E30216EC2
:10044000D89022322132D890223221322050E838FE
:10045000E844E00B22122038E8441F0BE8B8E0091A
:10046000246A21500B6E22500C6ED8901F30226EE1
:100470001E30216ED890223221322050E840E840D0
:10048000C00B22122040E8403F0B2150076E225043
:10049000086E0BC021F00CC022F0E86A0CBEFF0E03
:1004A000236E246E07C025F008C026F0E86A08BE57
:1004B000FF0E276EE56E2750E56E2650E56E25503F
:1004C000E56E2450E56E2350E56E2250E56E215016
:1004D000E56E3EEC19F0216EF3CF22F0F4CF23F05D
:1004E000E9CF24F0080EE1260DC025F00EC026F05D
:1004F000E86A0EBEFF0E276EE56E2750E56E2650A9
:10050000E56E2550E56E2450E56E2350E56E2250D1
:10051000E56E2150E56E0DEC1DF0216EF3CF22F05B
:10052000080EE1262150096E22500A6E09C021F002
:100530000AC022F0E86A0ABEFF0E236E246E125033
:10054000800FF36E2450800FF35C08E12350115CA0
:1005500005E12250105C02E121500F5C1CE20D50BD
:10056000175C0D6E0E5018580E6EE86A0EBEFF0E28
:10057000176E186E0D501D5E0E501E5A17501F5AE2
:100580001850205A1D500401F06F1E50F16F1F507B
:10059000F26F2050F36F1C50800FF36E0401F35183
:1005A000800FF35C08E1F2511B5C05E1F1511A5C2C
:1005B00002E1F051195CD8B0EFD119500401F06F8D
:1005C0001A50F16F1B50F26F1C50F36FE5D11C50A5
:1005D000800FF36E0650800FF35C08E105501B5C42
:1005E00005E104501A5C02E10350195CD8B0D4D183
:1005F0001350035C0D6E145004580E6E15500558C0
:10060000176E16500658186E0D500401F06F0E50FC
:10061000F16F1750F26F1850F36FBED1F4C40DF0A4
:10062000F5C40EF0E86A0401F5BFFF0E176E186EF0
:1006300013500D2614500E22155017221650182252
:100640000D50035C0D6E0E5004580E6E1750055879
:10065000176E18500658186E0D500401F06F0E50AA
:10066000F16F1750F26F1850F36F96D10A1E096C94
:10067000D8B40A2A09C00DF00AC00EF0E86A0ABE12
:10068000FF0E176E186E1250800FF36E1850800F09
:10069000F35C08E11750115C05E10E50105C02E1BB
:1006A0000D500F5CD8B055D11C1C186E1B1C176E5A
:1006B0001A1C0E6E191C0D6E0D2A04E10E2A02E1A1
:1006C000174A182A1850800FF36E0650800FF35CFB
:1006D00008E10550175C05E104500E5C02E103508F
:1006E0000D5CD8B00FD1F4C419F0F5C41AF0E86A63
:1006F0000401F5BFFF0E1B6E1C6E1950035C196ED2
:100700001A5004581A6E1B5005581B6E1C50065880
:100710001C6E19500401F06F1A50F16F1B50F26FEC
:100720001C50F36FF6C419F0F7C41AF0F4C41BF0B0
:10073000F5C41CF01A50800FF36E1C50800FF35C50
:1007400002E11B50195CD8B0C1D0F0C41DF0F1C457
:100750001EF0F2C41FF0F3C420F0D8901F30226EB8
:100760001E30216ED89022322132D890223221328E
:100770002050E838E844E00B22122038E8441F0BF0
:10078000E8B8E009236E246A23BE2468241E231ED1
:10079000221E216C05E1222A03E1232AD8B4242A4F
:1007A00021500B6E22500C6ED8901F30226E1E30DE
:1007B000216ED890223221322050E840E840C00B10
:1007C00022122040E8403F0B221E216C02E1222A27
:1007D00000E12150076E2250086EE86A0CBEFF0E41
:1007E000216E226EE86A08BEFF0E236EE56E23506E
:1007F000E56E0850E56E0750E56E2250E56E21501B
:10080000E56E0C50E56E0B50E56E3EEC19F0076E90
:10081000F3CF08F0F4CF0BF0E9CF0CF0080EE1268F
:1008200019C021F01AC022F0E86A1ABEFF0E236E2A
:10083000E56E2350E56E2250E56E2150E56E0C50BA
:10084000E56E0B50E56E0850E56E0750E56E0DEC59
:100850001DF0076EF3CF08F0080EE126081E076CA6
:1008600002E1082A00E10750096E08500A6EE86AA2
:100870000ABEFF0E076E800FF36E1250800FF35CFE
:1008800008E11150075C05E110500A5C02E10F50CD
:10089000095C1CE219501B5C196E1A501C581A6E28
:1008A000E86A1ABEFF0E076E086E19501D261A5010
:1008B0001E2207501F22085020221D500401F06FF5
:1008C0001E50F16F1F50F26F2050F36F0401F3516F
:1008D000800FF36E1850800FF35C08E11750F25D43
:1008E00005E10E50F15D02E10D50F05DD8B054D03D
:1008F0000D500401F06F0E50F16F1750F26F185049
:10090000F36F4AD00650800FF36E1850800FF35CDF
:1009100008E11750055C05E10E50045C02E10D5042
:10092000035CD8B039D013500324076E1450042050
:10093000086E15500520096E165006200A6E0750E5
:100940000401F06F0850F16F0950F26F0A50F36F15
:1009500023D0F4C407F0F5C408F0E86A0401F5BF39
:10096000FF0E096E0A6E0750132608501422095014
:1009700015220A5016221350032614500422155033
:1009800005221650062203500401F06F0450F16F47
:100990000550F26F0650F36FD8900401F231046EE7
:1009A000F131036ED89004320332F351E840E8404D
:1009B000C00B0412F341E8403F0BE8BAC009056ED2
:1009C000066A05BE0668EA510326EB510422EC5183
:1009D0000522ED5106220350EA6F0450EB6F0550DB
:1009E000EC6F0650ED6FE56A100EE56E800EE56E59
:1009F000040EE56EE80EE56E0250E56E0150E56E00
:100A00000050E56E26EC24F0080EE126E4CF27F036
:100A1000E4CF26F0E4CF25F0E4CF24F0E4CF23F0B8
:100A2000E4CF22F0E4CF21F0E4CF20F0E4CF1FF0B8
:100A3000E4CF1EF0E4CF1DF0E4CF1CF0E4CF1BF0B8
:100A4000E4CF1AF0E4CF19F0E4CF18F0E4CF17F0B8
:100A5000E4CF16F0E4CF15F0E4CF14F0E4CF13F0B8
:100A6000E4CF12F0E4CF11F0E4CF10F0E4CF0FF0B8
:100A7000E4CF0EF0E4CF0DF0E4CF0CF0E4CF0BF0B8
:100A8000E4CF0AF0E4CF09F0E4CF08F0E4CF07F0B8
:100A9000E4CF06F0E4CF05F0E4CF04F0E4CF03F0B8
:100AA000E4CF02F0E4CF01F0E4CF00F0E4CFD9FFCF
:100AB0001200D9CFE5FFE1CFD9FF00C0E5FF01C0AB
:100AC000E5FF02C0E5FF03C0E5FF04C0E5FF05C088
:100AD000E5FF06C0E5FF07C0E5FF08C0E5FF09C068
:100AE000E5FF0AC0E5FF0BC0E5FF0CC0E5FF0DC048
:100AF000E5FF0EC0E5FF0FC0E5FF10C0E5FF11C028
:100B0000E5FF12C0E5FF13C0E5FF14C0E5FF15C007
:100B1000E5FF16C0E5FF17C0E5FF18C0E5FF19C0E7
:100B2000E5FF1AC0E5FF1BC0E5FF1CC0E5FF1DC0C7
:100B3000E5FF1EC0E5FF020EDBCF00F0030EDBCFAA
:100B400001F0040EDBCF02F0050EDBCF03F0060E42
:100B5000DBCF04F0070EDBCF05F0080EDBCF06F08D
:100B6000090EDBCF07F00A0EDBCF08F0096A0A6A2C
:100B700002C00DF00D50800A0DE102500501756FA5
:100B80000150746F0050736F050E016E730E006E8E
:100B9000800E026E03C0E9FF04C0F3FF055073EC42
:100BA00031F00B6E0B50D8B40FEF09F00B50250A43
:100BB00002E0F6EF08F00C6A0D6A0E6A0F6A106A1E
:100BC0000A0E116E126A136A146A200E156E1668E8
:100BD000176A2B0E186E032A02E3044A052A03C083
:100BE000E9FF04C0F3FF055073EC31F0196E250ADC
:100BF00013E11950E56E0250E56E0150E56E0050AC
:100C0000E56E8DEC22F0040EE126094A0A2A032A39
:100C100002E3044A052ABED71950300A06E1300E15
:100C2000156E032A02E3044A052A03C0E9FF04C043
:100C3000F3FF055073EC31F02D0A06E1010E146E3E
:100C4000032A02E3044A052A03C0E9FF04C0F3FFB4
:100C5000055073EC31F0200A08E1010E176E200EEA
:100C6000186E032A02E3044A052A03C0E9FF04C000
:100C7000F3FF055073EC31F02B0A06E1010E176EFD
:100C8000032A02E3044A052A03C0E9FF04C0F3FF74
:100C9000055073EC31F0196E310E195C2BE33A0EEE
:100CA000195C28E203C019F004C01AF005C01BF05B
:100CB00019C0E9FF1AC0F3FF1B5073EC31F01C6E32
:100CC000300E1C5C11E33A0E1C5C0EE213500A0D50
:100CD000F3CF1DF01C501D26D00E1D24136E192AB3
:100CE00002E31A4A1B2AE4D719C003F01AC004F021
:100CF0001BC005F003C0E9FF04C0F3FF055073EC0F
:100D000031F02E0A2DE1032A02E3044A052A166A6D
:100D100003C019F004C01AF005C01BF019C0E9FFA8
:100D20001AC0F3FF1B5073EC31F01C6E300E1C5CCC
:100D300011E33A0E1C5C0EE216500A0DF3CF1DF0C3
:100D40001C501D26D00E1D24166E192A02E31A4AC5
:100D50001B2AE4D719C003F01AC004F01BC005F029
:100D600003C0E9FF04C0F3FF055073EC31F0196EC6
:100D70006C0A07E1010E0C6E032A02E3044A052AFD
:100D800009D01950680A06E1010E0E6E032A02E32B
:100D9000044A052A03C0E9FF04C0F3FF055073ECC1
:100DA00031F0750A06E1010E106E032A02E3044ACF
:100DB000052A03C0E9FF04C0F3FF055073EC31F0CE
:100DC000196E730A05E1010E0D6E200E156E3FD0EF
:100DD0001950780A03E1100E116E39D01950580AD3
:100DE00005E1100E116E010E126E31D01950630A1A
:100DF00002E1116A2CD019506F0A03E1080E116E3E
:100E000026D01950660A03E1010E0F6E20D019504A
:100E1000640A1DE01950690A1AE0105005E0FF0E3F
:100E200003260422052213D01950E56E0250E56E08
:100E30000150E56E0050E56E8DEC22F0040EE126C7
:100E4000094A0A2A032A02E3044A052AA3D60D50B6
:100E500021E00650030F0D6E000E0720196E000EE4
:100E600008201A6E0DC006F019C007F01AC008F06D
:100E7000FD0E0D26FF0E19221A220DC0E9FF19C022
:100E8000F3FF1A503EEC30F00D6EF3CF19F0F4CFB3
:100E90001AF0FDD00F500DE0000E1A6E120E196EF2
:100EA000A60E0D6E040E0626000E072208221668F6
:100EB000EED016680C5023E00650040F0C6E000EA6
:100EC00007200F6E000E08201B6E0CC006F00FC02E
:100ED00007F01BC008F0FC0E0C26FF0E0F221B2291
:100EE0000CC0E9FF0FC0F3FF1B50A7EC2FF00C6EF6
:100EF000F3CF0FF0F4CF1BF0E9CF1CF067D00E500A
:100F00002FE00650020F0E6E000E07201D6E000E21
:100F100008201E6E0EC006F01DC007F01EC008F0AF
:100F2000FE0E0E26FF0E1D221E220EC0E9FF1DC062
:100F3000F3FF1E50FDEC30F00E6E0EC00CF00F6A89
:100F40001B6A1C6A11500A0A03E11050D8B43ED043
:100F50000C500E6E0EC00CF00F6A1B6A1C6A36D065
:100F60000650020F0E6E000E07201D6E000E0820A8
:100F70001E6E0EC006F01DC007F01EC008F0FE0E6B
:100F80000E26FF0E1D221E220EC0E9FF1DC0F3FF1C
:100F90001E50FDEC30F00E6EF3CF1DF00EC00CF0C5
:100FA0001DC00FF0E86A1DBEFF0E1B6E1C6E1150B7
:100FB0000A0A02E110500AE00C500E6E0F501D6E2E
:100FC0000EC00CF01DC00FF01B6A1C6A040E196ED7
:100FD000620E0D6E800E1A6E1150D8B440D01050B3
:100FE00013E01150E56E040EE56E620EE56E1C50C6
:100FF000E56E1B50E56E0F50E56E0C50E56E31EC62
:101000001CF0070EE12612D01150E56E040EE56EBD
:10101000620EE56E1C50E56E1B50E56E0F50E56EDE
:101020000C50E56E36EC27F0070EE12617502FE046
:101030000DC0E9FF19C0F3FF1A5073EC31F02D0A0F
:1010400026E0FF0E0D2619221A2218C0E5FF0DC05A
:10105000E9FF19C0F3FF1A50E0EC31F018D00CC0D2
:10106000E5FF0DC0E9FF19C0F3FF1A50E0EC31F0C5
:101070000D50010F0C6E000E19200E6E000E1A207E
:10108000E56A0CC0E9FF0EC0F3FFE0EC31F00DC0E3
:101090000CF019C00EF01AC00FF013C010F0105071
:1010A00010E00CC0E9FF0EC0F3FF0F5073EC31F0FD
:1010B000176E175006E00C2A02E30E4A0F2A10069C
:1010C000EED710C013F014501EE109C00CF00AC096
:1010D0000EF010C00FF00F5010E01550E56E0250EA
:1010E000E56E0150E56E0050E56E8DEC22F0040EC9
:1010F000E1260C4A0E2A0F06EED70CC009F00EC0EE
:101100000AF00FC013F016C00CF00DC00DF019C09E
:101110000EF01AC00FF009C010F00AC015F00DC093
:10112000E9FF0EC0F3FF0F5073EC31F0166E16504E
:10113000D8B43ED00CC016F0176A161E171E1650F3
:10114000171005E00CC016F00C06165031E00DC06B
:10115000E9FF0EC0F3FF0F5073EC31F0116E125027
:1011600010E01150E56EBAEC30F0166EE6521650F3
:1011700004E0DF0E1114166E02D011C016F016C076
:1011800011F01150E56E0250E56E0150E56E005011
:10119000E56E8DEC22F0040EE1260D2A02E30E4AE4
:1011A0000F2A104A152A1350D8B4B9D71306B7D747
:1011B00010C009F015C00AF014502BE010C00CF05C
:1011C00015C00DF013C00EF00E501FE0200EE56E9E
:1011D0000250E56E0150E56E0050E56E8DEC22F098
:1011E000040EE1260C4A0D2A0E06EED70B50E56ED2
:1011F0000250E56E0150E56E0050E56E8DEC22F078
:10120000040EE126094A0A2A04D00CC009F00DC0D8
:101210000AF0032A02E3044A052ACAEF05F00AC0CD
:10122000F3FF0950E4CF1EF0E4CF1DF0E4CF1CF033
:10123000E4CF1BF0E4CF1AF0E4CF19F0E4CF18F0BC
:10124000E4CF17F0E4CF16F0E4CF15F0E4CF14F0BC
:10125000E4CF13F0E4CF12F0E4CF11F0E4CF10F0BC
:10126000E4CF0FF0E4CF0EF0E4CF0DF0E4CF0CF0BC
:10127000E4CF0BF0E4CF0AF0E4CF09F0E4CF08F0BC
:10128000E4CF07F0E4CF06F0E4CF05F0E4CF04F0BC
:10129000E4CF03F0E4CF02F0E4CF01F0E4CF00F0BC
:1012A000E4CFD9FF12003C4E4F20464C4F41543EF4
:1012B0000000D9CFE5FFE1CFD9FF00C0E5FF01C0B5
:1012C000E5FF02C0E5FF03C0E5FF04C0E5FF05C080
:1012D000E5FF06C0E5FF07C0E5FF08C0E5FF09C060
:1012E000E5FF0AC0E5FF0BC0E5FF0CC0E5FF0DC040
:1012F000E5FF020EDBCF00F0030EDBCF01F0040EA2
:10130000DBCF02F00050090F066E000E0120076EC1
:10131000000E0220086E0B6E07500A6E0650096E12
:10132000E56A0D0EE56E0B50E56E0A50E56E09504C
:10133000E56E800EE56E040EE56E470EE56E26EC5A
:1013400024F0080EE12600C009F001C00AF002C036
:101350000BF0E56AE56E0B50E56E0A50E56E09503C
:10136000E56E800EE56E040EE56E810EE56E26ECF0
:1013700024F0080EE12681C403F00350010A04E0C2
:101380000350030A01E019D104015C51036E5D5161
:10139000046E04014F51056E5051096E0550035CF7
:1013A00005017C6F095004587D6F04015C510401F4
:1013B0004F6F04015D510401506F04015E5104013F
:1013C000516F04015F510401526F05017C517D1181
:1013D000D8A47FD094EC2EF0036EF3CF04F0F4CFBA
:1013E00005F0E9CF09F0040154510A6E55510B6E16
:1013F00056510C6E57510D6E0A50035E0B50045A35
:101400000C50055A0D50095A03500401FC6F04504A
:10141000FD6F0550FE6F7F0E0914FF6F040153B17D
:1014200025D00401FD35FF31046EFE31036E043416
:1014300004320332000E04BEFF0E096E056E86C430
:101440000AF00B6A0C6A0D6A0D50800FF36E09509A
:10145000800FF35C08E105500C5C05E104500B5C67
:1014600002E103500A5C02E204015381040153B11A
:101470004AD04BC403F04CC404F04DC405F04EC434
:1014800009F00401FF51800FF36E0950800FF35CE7
:1014900008E10550FE5D05E10450FD5D02E10350E9
:1014A000FC5D08E203C0FCF404C0FDF405C0FEF4DA
:1014B00009C0FFF4040160A303D0010E036E01D044
:1014C000036803C07CF505017D6B03AE01D07D6927
:1014D0001AD00401539158C4FCF459C4FDF45AC401
:1014E000FEF45BC4FFF40401FC5104014B6F0401E2
:1014F000FD5104014C6F0401FE5104014D6F0401C4
:10150000FF5104014E6F0401FF51800F800F08E16D
:10151000000EFE5D05E1000EFD5D02E1010EFC5DC9
:1015200006E204016E6B6F6B706B716B46D0040149
:10153000FC51036EFD51046EFE51056EFF51E56EC8
:101540000550E56E0450E56E0350E56E010EE56E44
:10155000000EE56AE56AE56A56EC20F0036EF3CF0B
:1015600004F0F4CF05F0E9CF09F0080EE1267CC5C0
:101570000AF07DC50BF0E86A05017DBFFF0E0C6E19
:101580000D6E0950E56E0550E56E0450E56E035092
:10159000E56E0D50E56E0C50E56E0B50E56E0A5091
:1015A000E56E3EEC19F004016E6FF3CF6FF4F4CFEB
:1015B00070F4E9CF71F4080EE126020E0401815D9A
:1015C000D8A045D1040160A142D10050230F036E81
:1015D000000E0120046E000E0220E56E0450E56E40
:1015E0000350E56E0EEC00F0030EE1260050230FD1
:1015F000036E000E0120046E000E0220056E020E26
:101600000326000E0422052203C0E9FF04C0F3FFF5
:101610000550A7EC2FF0F3CF04F0F4CF05F0E9CF9D
:1016200009F00450036E0550046ED8900432033262
:10163000D890043203320950E840E840C00B04124D
:101640000940E8403F0BE8BAC009056E096A05BECB
:10165000096804015C51035C0401726F04015D516F
:1016600004580401736F04015E5105580401746F3E
:1016700004015F5109580401756FD88075AFD89087
:1016800022E30401831D046E821D036E034A042AB3
:10169000E86A04BEFF0E056E096E04017551800FE5
:1016A000F36E0950800FF35C08E10550745D05E1AD
:1016B0000450735D02E10350725D05E30401726B37
:1016C000736B746B756B04017551800F800F08E1AB
:1016D000000E745D05E1000E735D02E1010E725DA6
:1016E0001EE382C403F083C404F0E86A040183BFEC
:1016F000FF0E056E800FF36E04017551800FF35CD1
:1017000008E17451055C05E17351045C02E172511A
:10171000035C05E30401726B736B746B756B0401FE
:10172000875109E0E86CD890040172377337743739
:101730007537010FF9E304017551800F800F08E13F
:10174000000E745D05E1800E735D02E1000E725DB6
:1017500007E3040172697F0E736F746B756B14D0AD
:1017600004017551800F810F08E1FF0E745D05E1E2
:10177000800E735D02E1000E725D06E20401726B81
:10178000800E736F746975690050330F036E000E1D
:101790000120046E000E0220056E04017251096ED4
:1017A0007351E56E0950E56E0550E56E0450E56E27
:1017B0000350E56E1CEC14F0050EE1260401815186
:1017C000030A23E10050330F036E000E0120046E64
:1017D000000E0220056E0B0E0326000E04220522C9
:1017E00003C0E9FF04C0F3FF0550A7EC2FF0F3CFCF
:1017F00004F0F4CF05F00450036E0550046E03505E
:101800000401476F0450486F22D00050330F036E1D
:10181000000E0120046E000E0220056E0B0E032642
:10182000000E0422052203C0E9FF04C0F3FF0550A7
:10183000A7EC2FF0F3CF04F0F4CF05F00450036EC3
:101840000550046E03500401496F04504A6F81C46F
:1018500003F00350010A04E00350030A01E07DD0C5
:1018600047C403F048C404F0E86A040148BFFF0E0F
:10187000056E096E04016E51035C0401726F040170
:101880006F5104580401736F04017051055804012D
:10189000746F0401715109580401756F800F800F36
:1018A00008E1000E745D05E1800E735D02E1000E3B
:1018B000725D07E3040172697F0E736F746B756B61
:1018C00014D004017551800F810F08E1FF0E745D83
:1018D00005E1800E735D02E1000E725D06E2040117
:1018E000726B800E736F746975690050440F036EDC
:1018F000000E0120046E000E0220056E04017251DC
:10190000096E7351E56E0950E56E0550E56E0450A1
:10191000E56E0350E56E1CEC14F0050EE126440E56
:101920000026000E012202220B0E0026000E0122CC
:10193000022200C0E9FF01C0F3FF0250A7EC2FF024
:10194000F3CF01F0F4CF02F00150006E0250016EAF
:1019500000500401496F01504A6F0850086EE56A53
:101960000D0EE56E800EE56E040EE56E470EE56E1B
:101970000850E56E0750E56E0650E56E26EC24F043
:10198000080EE126E4CF0DF0E4CF0CF0E4CF0BF02D
:10199000E4CF0AF0E4CF09F0E4CF08F0E4CF07F099
:1019A000E4CF06F0E4CF05F0E4CF04F0E4CF03F099
:1019B000E4CF02F0E4CF01F0E4CF00F0E4CFD9FFB0
:1019C000120025642025640A000000C0E5FF01C064
:1019D000E5FF02C0E5FF03C0E5FF04C0E5FF11EC31
:1019E00032F094EC2EF0F3CF01F0F4CF02F0E9CF17
:1019F00003F0880F0401346F130E0120356F000EC1
:101A00000220366F000E0320376F8A9293928A92DB
:101A100028EC2BF09380810E006E0F0E016E0F0EDE
:101A2000036E380E0026035001220F0E036E800E47
:101A3000005E0350015A810E026E0F0E036E0F0EF0
:101A4000046E380E0226045003220F0E046E800E20
:101A5000025E0450035A02C0E9FF03C0EAFFEFCF61
:101A600002F0029000C0E9FF01C0EAFF02C0EFFFF0
:101A7000E56A800EE56E0F0EE56E810EE56E000ED6
:101A8000E56A6FEC2BF0050EE126948E820E006E57
:101A90000F0E016E0F0E036E380E0026035001224A
:101AA0000F0E036E800E005E0350015A820E026E0E
:101AB0000F0E036E0F0E046E380E02260450032222
:101AC0000F0E046E800E025E0450035A02C0E9FF3E
:101AD00003C0EAFFEFCF02F0029E00C0E9FF01C0A1
:101AE000EAFF02C0EFFF070EE56E800EE56E0F0EF7
:101AF000E56E820EE56E010EE56E6FEC2BF0050EC5
:101B0000E1269384810E006E0F0E016E0F0E036EA0
:101B1000380E0026035001220F0E036E800E005E69
:101B20000350015A810E026E0F0E036E0F0E046EEB
:101B3000380E0226045003220F0E046E800E025E41
:101B40000450035A02C0E9FF03C0EAFFEFCF02F0DE
:101B5000029400C0E9FF01C0EAFF02C0EFFF020EDD
:101B6000E56E800EE56E0F0EE56E810EE56E020EDF
:101B7000E56E6FEC2BF0050EE1268A98899C8B842C
:101B8000040189859398929C949404019295928380
:101B9000800E006E040E016E0F0E036E380E0026CE
:101BA000035001220F0E036E800E005E0350015A97
:101BB000800E026E040E036E0F0E046E380E0226A7
:101BC000045003220F0E046E800E025E0450035A6E
:101BD00002C0E9FF03C0EAFFEFCF02F0029200C0AB
:101BE000E9FF01C0EAFF02C0EFFF9283800E006EA2
:101BF000040E016E0F0E036E380E002603500122F4
:101C00000F0E036E800E005E0350015A800E026EAE
:101C1000040E036E0F0E046E380E022604500322CB
:101C20000F0E046E800E025E0450035A02C0E9FFDC
:101C300003C0EAFFEFCF02F0029200C0E9FF01C04B
:101C4000EAFF02C0EFFF9283800E006E040E016E69
:101C50000F0E036E380E0026035001220F0E036E86
:101C6000800E005E0350015A800E026E040E036E59
:101C70000F0E046E380E0226045003220F0E046E5F
:101C8000800E025E0450035A02C0E9FF03C0EAFF5F
:101C9000EFCF02F0029200C0E9FF01C0EAFF02C0EC
:101CA000EFFF0C0EBD6EBD9ABD98BE6AB96AB986CB
:101CB0000401936B020E946F956B0A0E966F976BEF
:101CC000100E986F070E996F9A919A83800EE56EA9
:101CD000040EE56EB60EE56E08EC29F0030EE12663
:101CE000800EE56E040EE56ED70EE56EC2EC1FF0B9
:101CF000030EE126800EE56E040EE56EC60EE56E5F
:101D0000C2EC1FF0030EE1260401B16BB26BB36BA2
:101D1000B46BB591B5959C6B9D6B9E6B9F6BA46BE3
:101D2000A56BA66BA76B8A96899E8B80040189851B
:101D30009396929E9490040192959283800E006EE9
:101D4000040E016E0F0E036E380E002603500122A2
:101D50000F0E036E800E005E0350015A800E026E5D
:101D6000040E036E0F0E046E380E0226045003227A
:101D70000F0E046E800E025E0450035A02C0E9FF8B
:101D800003C0EAFFEFCF02F0029200C0E9FF01C0FA
:101D9000EAFF02C0EFFF9283800E006E040E016E18
:101DA0000F0E036E380E0026035001220F0E036E35
:101DB000800E005E0350015A800E026E040E036E08
:101DC0000F0E046E380E0226045003220F0E046E0E
:101DD000800E025E0450035A02C0E9FF03C0EAFF0E
:101DE000EFCF02F0029200C0E9FF01C0EAFF02C09B
:101DF000EFFF9283800E006E040E016E0F0E036ED5
:101E0000380E0026035001220F0E036E800E005E76
:101E10000350015A800E026E040E036E0F0E046E04
:101E2000380E0226045003220F0E046E800E025E4E
:101E30000450035A02C0E9FF03C0EAFFEFCF02F0EB
:101E4000029200C0E9FF01C0EAFF02C0EFFF0C0EE2
:101E5000666E669A6698676A0501006B020E016FEE
:101E6000026B0A0E036F046B100E056F070E066FF0
:101E700007910783800EE56E050EE56E230EE56E75
:101E800008EC29F0030EE126800EE56E050EE56EE6
:101E9000440EE56EC2EC1FF0030EE126800EE56EE7
:101EA000050EE56E330EE56EC2EC1FF0030EE12663
:101EB00005011E6B1F6B206B216B22912295096B14
:101EC0000A6B0B6B0C6B116B126B136B146B65EC69
:101ED0002EF0E4CF04F0E4CF03F0E4CF02F0E4CF3F
:101EE00001F0E4CF00F01200437320256420256444
:101EF0000A00430025630000D9CFE5FFE1CFD9FFF9
:101F000000C0E5FF01C0E5FF02C0E5FF03C0E5FF3B
:101F100004C0E5FF05C0E5FF06C0E5FF07C0E5FF1B
:101F200008C0E5FF09C0E5FF0AC0E5FF0BC0E5FFFB
:101F30000CC0E5FF020EDBCF00F0030EDBCF01F09B
:101F4000040EDBCF02F0036A046ABEEC2EF0056ECD
:101F5000FE0A01E077D05BEC29F0BEEC2EF0066EB5
:101F6000030E065CD8A05AD0060E065CD8B056D038
:101F7000FD0E0624076EFA6AFB6A0734FA36E83467
:101F8000FA36FC0B940FE56E1F0EFA22000EFB22B0
:101F9000E450F96ED0EF0FF0E2EF0FF0FBEF0FF02F
:101FA0000050090F076E000E0120086E000E02207F
:101FB00007C0E9FF08C0F3FFFDEC30F0036EF3CF7C
:101FC00004F02CD00050090F076E000E0120086E9F
:101FD000000E0220096E020E0726000E08220922BA
:101FE00007C0E9FF08C0F3FF0950FDEC30F0036EB5
:101FF000F3CF04F013D00050070F076E000E01203E
:10200000086E000E022007C0E9FF08C0F3FF73EC62
:1020100031F0010B076E07C003F0046A06C007F039
:102020000450E56E0350E56EE56A0750E56E000E5C
:10203000E56E190EE56EC20EE56EF5EC2BF0070E9F
:10204000E1269AD1080E055CD8B096D1FA6AFB6AEF
:102050000534FA36E834FA36FC0B6A0FE56E200ECA
:10206000FA22000EFB22E450F96E45EF10F060EF0B
:1020700010F072EF10F084EF10F0B6EF10F0ECEF0C
:1020800010F00BEF11F068EF11F00050230F056E08
:10209000000E0120076E000E0220E56E0750E56E6F
:1020A0000550E56E49EC16F0030EE126020EE56ED2
:1020B00000C0E9FF01C0F3FF0250E0EC31F05CD159
:1020C0000050330F056E000E0120076E000E022037
:1020D000E56E0750E56E0550E56E00EC18F0030E56
:1020E000E1264AD10050440F056E000E0120076E14
:1020F000000E0220E56E0750E56E0550E56E00EC1F
:1021000018F0030EE12638D10050090F056E000EBD
:102110000120076E000E0220086EBEEC2EF00C6E41
:102120000B6AE56A0CC0F4FF05C0E9FF07C0F3FFC6
:102130000850BDEC31F0BEEC2EF00A6A0B260A50B6
:102140000C220BC0E5FF0CC0F4FF05C0E9FF07C07F
:10215000F3FF0850BDEC31F0010EE56E00C0E9FF61
:1021600001C0F3FF0250E0EC31F006D10050090F3E
:10217000056E000E0120076E000E0220086E020E92
:102180000526000E07220822BEEC2EF00C6E0B6A0C
:10219000E56A0CC0F4FF05C0E9FF07C0F3FF085073
:1021A000BDEC31F0BEEC2EF00A6A0B260A500C2270
:1021B0000BC0E5FF0CC0F4FF05C0E9FF07C0F3FF4B
:1021C0000850BDEC31F0E56A00C0E9FF01C0F3FF43
:1021D0000250E0EC31F0D0D00050070F056E000E39
:1021E0000120076E000E0220086EBEEC2EF0010BDF
:1021F000F46E05C0E9FF07C0F3FF085073EC31F03F
:10220000FE0BF410E56E05C0E9FF07C0F3FF0850B0
:10221000E0EC31F0B1D0BEEC2EF0066E0050160F9F
:10222000056E000E0120076E000E0220086E05509C
:102230000C0F096E000E07200A6E000E08200B6EB0
:102240000650D880E866D8900C6A0C360C50D880BE
:10225000E866D8900C6A0C360C50010BF46E09C07D
:10226000E9FF0AC0F3FF0B5073EC31F0FE0BF410E2
:10227000E56E09C0E9FF0AC0F3FF0B50E0EC31F056
:102280000650010A01E078D0080E0526000E07224C
:102290000822E56AF46AF66AF76A05C0E9FF07C032
:1022A000F3FF085062EC31F00050230F056E000E72
:1022B0000120066E000E0220E56AE56AE56E065012
:1022C000E56E0550E56E00EC22F0050EE12654D0D7
:1022D000BEEC2EF0046E036ABEEC2EF0066A0326F6
:1022E000065004220050160F056E000E0120066EE7
:1022F000000E0220076E05500C0F086E000E06201F
:10230000096E000E07200A6E08C0E9FF09C0F3FF3E
:1023100073EC31F0E880E56E08C0E9FF09C0F3FF17
:102320000A50E0EC31F0080E0526000E06220722C6
:1023300003C008F004C009F008C0E5FF09C0F4FFBD
:10234000F66AF76A05C0E9FF06C0F3FF075062ECC2
:1023500031F0230E0026000E012202220450E56E09
:102360000350E56E0250E56E0150E56E0050E56EDB
:10237000FEEC25F0050EE126E4CF0CF0E4CF0BF0E7
:10238000E4CF0AF0E4CF09F0E4CF08F0E4CF07F09F
:10239000E4CF06F0E4CF05F0E4CF04F0E4CF03F09F
:1023A000E4CF02F0E4CF01F0E4CF00F0E4CFD9FFB6
:1023B000120000C0E5FF01C0E5FF02C0E5FF03C059
:1023C000E5FF73EC21F085EC1EF0DCEC1DF094ECE5
:1023D0002EF0006EF3CF01F0F4CF02F0E9CF03F05E
:1023E00004013451005E3551015A3651025A3751B9
:1023F000035A039E3F0E035C08E1FF0E025C05E1F9
:10240000FF0E015C02E1FF0E005CD8B013EF14F088
:1024100094EC2EF0F3CF01F0F4CF02F0E9CF03F00B
:10242000880F0401346F130E0120356F000E022057
:10243000366F000E0320376F4AEC1BF005C0E5FF36
:10244000F2CF05F0F29E0401A9510401546F04017A
:10245000AA510401556F0401AB510401566F0401E8
:10246000AC510401576F0401AD510401586F0401D0
:10247000AE510401596F0401AF5104015A6F0401B8
:10248000B05104015B6F0401B15104015C6F0401A0
:10249000B25104015D6F0401B35104015E6F040188
:1024A000B45104015F6F0401B5510401606F040170
:1024B000AD6BAE6BAF6BB06B05BEF28EE4CF05F0CB
:1024C000800EE56E040EE56E930EE56E59EC09F094
:1024D000030EE1269EC47EF59FC47FF505017F5162
:1024E000800F7C0F02E1000E7E5D04E305017E6932
:1024F000030E7F6F05017F51800F840F02E1010EF3
:102500007E5D05E2010E05017E6FFC0E7F6F050109
:102510007F51800F800F02E1010E7E5D10E3050107
:102520007F51800FF36E04019751800FF35C03E13C
:10253000965105017E5D03E205017E6B7F6BD880BD
:1025400005017FAFD89015E30401971D016E961D1C
:10255000006E004A012A0150800FF36E05017F5181
:10256000800FF35C02E17E51005C03E205017E6BAB
:102570007F6B04019AA309D0B5A507D0D8800501C7
:102580007FAFD89002E37E6B7F6BD88005017FAF71
:10259000D89007E37E51FF0F006E030E7F21016E7E
:1025A00004D07EC500F07FC501F000C080F501C0F9
:1025B00081F505018051020BE840010BE838E84441
:1025C000F46EBD50DF0BF410BD6E8051010B010B9A
:1025D000E838F46EBD50EF0BF410BD6E81358131DB
:1025E000016E8031006E0134013200320050BE6E47
:1025F000D88005017FAFD89002E3898C01D0899CF7
:1026000005C0E5FFF2CF05F0F29E05011651040169
:10261000546F050117510401556F0501185104014C
:10262000566F050119510401576F05011A51040134
:10263000586F05011B510401596F05011C5104011C
:102640005A6F05011D5104015B6F05011E51040104
:102650005C6F05011F5104015D6F050120510401EC
:102660005E6F0501215104015F6F050122510401D4
:10267000606F05011A6B1B6B1C6B1D6B05BEF28E28
:10268000E4CF05F0800EE56E050EE56E000EE56EFA
:1026900059EC09F0030EE1260BC57EF50CC57FF55C
:1026A00005017F51800F7C0F02E1000E7E5D04E387
:1026B00005017E69030E7F6F05017F51800F840F36
:1026C00002E1010E7E5D05E2010E05017E6FFC0E4A
:1026D0007F6F05017F51800F800F02E1010E7E5D4B
:1026E00010E305017F51800FF36E05010451800F47
:1026F000F35C03E1035105017E5D03E205017E6B9E
:102700007F6BD88005017FAFD89015E30501041DCC
:10271000016E031D006E004A012A0150800FF36E06
:1027200005017F51800FF35C02E17E51005C03E202
:1027300005017E6B7F6B050107A309D022A507D099
:10274000D88005017FAFD89002E37E6B7F6BD88085
:1027500005017FAFD89007E37E51FF0F006E030E97
:102760007F21016E04D07EC500F07FC501F000C05E
:1027700080F501C081F505018051020BE840010B95
:10278000E838E844F46E6650DF0BF410666E805152
:10279000010B010BE838F46E6650EF0BF410666E17
:1027A00081358131016E8031006E01340132003299
:1027B0000050676ED88005017FAFD89002E3898E04
:1027C00001D0899E0401393F01D03A2B04013951CF
:1027D000C80A02E13A5101E026D00401396B3A6B94
:1027E000006A0050E56EFBEC29F0016EE6520150E4
:1027F00003E1016A012A01D0016A00C003F0E56A21
:102800000150E56EE56A0350E56E000EE56E1E0EA2
:10281000E56EE80EE56EF5EC2BF0070EE126002ADA
:10282000030E005CDEE3E4CF03F0E4CF02F0E4CF7C
:1028300001F0E4CF00F01200D9CFE5FFE1CFD9FFDE
:1028400000C0E5FF01C0E5FF02C0E5FF03C0E5FFF2
:1028500004C0E5FF05C0E5FF06C0E5FF07C0E5FFD2
:1028600008C0E5FF09C0E5FF0AC0E5FF0BC0E5FFB2
:10287000020EDBCF00F0030EDBCF01F0040EDBCF46
:1028800002F0050EDBCF03F0060EDBCF04F00250A2
:102890000A6E0150096E0050086EE56A110EE56E71
:1028A0000A50E56E0950E56E0850E56E800EE56E43
:1028B000040EE56E230EE56E26EC24F0080EE126EC
:1028C00032C405F033C406F0E86A040133BFFF0EDA
:1028D000076E04017D6F06507C6F05507B6F7A6B2D
:1028E00003C005F004C006F0E86A04BEFF0E076EE0
:1028F000086E23C409F0E56AE56AE56A0950E56EE9
:102900000850E56E0750E56E0650E56E0550E56E21
:102910003EEC19F00401766FF3CF77F4F4CF78F43E
:10292000E9CF79F4080EE12604012451D8B4AFD0E0
:102930000450800F800F02E1010E035C25E30401C7
:102940002951800F7C0F08E1000E285D05E1000E83
:10295000275D02E1000E265D17E204013151800F70
:10296000F36E04017D51800FF35C0DE17C51040195
:10297000305D09E104017B5104012F5D04E1040194
:102980007A5104012E5D33E3D88004AED890D8A0EC
:1029900043D004012951800F840F08E1000E285D07
:1029A00005E1000E275D02E1010E265D35E304011D
:1029B0007D1D0A6E7C1D096E7B1D046E7A1D036EE3
:1029C000032A04E1042A02E1094A0A2A0A50800F74
:1029D000F36E04013151800FF35C08E13051095C62
:1029E00005E12F51045C02E12E51035C15E2055014
:1029F00004012625036E06502721046E0750282166
:102A0000096E085029210A6E0350266F0450276F63
:102A10000950286F0A50296F040126390F0B036EE5
:102A20002739046EF00B041A03262851E838F00BFE
:102A3000041228390F0B096E29390A6EF00B0A1A95
:102A40000926F00E0AB60A2624C40BF0E56AE56AE8
:102A5000E56A0B50E56E0A50E56E0950E56E0450CC
:102A6000E56E0350E56E3EEC19F0036EF3CF04F013
:102A7000F4CF09F0E9CF0AF0080EE1260350040173
:102A8000762704507723095078230A5079230401CC
:102A90002551D8B465D02A51055C0501556F040154
:102AA0002B5106580501566F04012C51075805019A
:102AB000576F04012D5108580501586F800F800F82
:102AC00008E1010E575D05E1000E565D02E1000EC2
:102AD000555D06E3050155695669576B586B13D070
:102AE00005015851800F810F08E1FF0E575D05E188
:102AF000000E565D02E1000E555D05E20501556BC5
:102B0000566B57695869050155515525036E563561
:102B1000046E5735096E58350A6E25C40BF0E56A08
:102B2000E56AE56A0B50E56E0A50E56E0950E56E00
:102B30000450E56E0350E56E3EEC19F0036EF3CFE2
:102B400004F0F4CF09F0E9CF0AF0080EE1260350B3
:102B50000401762704507723095078230A507923FB
:102B6000055004012A6F06502B6F07502C6F085038
:102B70002D6F04017D51800FF36E04017951800F98
:102B8000F35C0DE1785104017C5D09E104017751AA
:102B900004017B5D04E10401765104017A5D11E2D8
:102BA00004017A5104012E6F04017B5104012F6F3F
:102BB00004017C510401306F04017D510401316F27
:102BC0003AD004017D1D066E7C1D056E7B1D046ED2
:102BD0007A1D036E032A04E1042A02E1054A062A4B
:102BE00004017951800FF36E0650800FF35C08E109
:102BF0000550785D05E10450775D02E10350765D94
:102C00000AE2035004012E6F04502F6F0550306FFD
:102C10000650316F10D00401765104012E6F04016B
:102C2000775104012F6F040178510401306F0401C2
:102C300079510401316FE56A110EE56E800EE56E83
:102C4000040EE56E230EE56E0250E56E0150E56E52
:102C50000050E56E26EC24F0080EE126E4CF0BF0E0
:102C6000E4CF0AF0E4CF09F0E4CF08F0E4CF07F0B6
:102C7000E4CF06F0E4CF05F0E4CF04F0E4CF03F0B6
:102C8000E4CF02F0E4CF01F0E4CF00F0E4CFD9FFCD
:102C90001200D9CFE5FFE1CFD9FF00C0E5FF01C0A9
:102CA000E5FF02C0E5FF03C0E5FF04C0E5FF05C086
:102CB000E5FF06C0E5FF07C0E5FF08C0E5FF09C066
:102CC000E5FF0AC0E5FF0BC0E5FF020EDBCF00F019
:102CD000030EDBCF01F0040EDBCF02F0036A046ABF
:102CE000BEEC2EF0056EFE0A01E094D05BEC29F0FC
:102CF000BEEC2EF0066E06500EE00650010A1DE0F6
:102D00000650020A2CE006500A0A3BE006500B0A65
:102D100001E142D06DD00050060F076E000E012079
:102D2000086E000E022007C0E9FF08C0F3FFFDECAB
:102D300030F0036EF3CF04F05BD000500C0F076E41
:102D4000000E0120086E000E022007C0E9FF08C037
:102D5000F3FFFDEC30F0036EF3CF04F049D00050E8
:102D60000E0F076E000E0120086E000E022007C035
:102D7000E9FF08C0F3FFFDEC30F0036EF3CF04F081
:102D800037D000C0E9FF01C0F3FF0250FDEC30F086
:102D9000036EF3CF04F02CD00050020F076E000E2C
:102DA0000120086E000E0220096E07C0E9FF08C06E
:102DB000F3FF0950A7EC2FF0F3CF08F0F4CF09F0A0
:102DC000E9CF0AF00850076E0950086ED890083213
:102DD0000732D890083207320A50E840E840C00B6A
:102DE00008120A40E8403F0B0750036E0850046E7B
:102DF0000450E56E0350E56EE56A0650E56E000E80
:102E0000E56E520EE56EAE0EE56EF5EC2BF0070E9C
:102E1000E126DBD0055014E00550010A3AE00550E8
:102E2000020A01E15FD005500A0A01E184D0055091
:102E30000B0A01E199D005500C0A01E1AED0C5D0D2
:102E40000050060F056E000E0120066E000E0220D7
:102E5000076EBEEC2EF00B6E0A6AE56A0BC0F4FF3B
:102E600005C0E9FF06C0F3FF0750BDEC31F0BEEC32
:102E70002EF0096A0A2609500B220AC0E5FF0BC092
:102E8000F4FF05C0E9FF06C0F3FF0750BDEC31F0C9
:102E90009CD000500C0F056E000E0120066E000E37
:102EA0000220076EBEEC2EF00B6E0A6AE56A0BC0BC
:102EB000F4FF05C0E9FF06C0F3FF0750BDEC31F099
:102EC000BEEC2EF0096A0A2609500B220AC0E5FF63
:102ED0000BC0F4FF05C0E9FF06C0F3FF0750BDECCF
:102EE00031F073D000500E0F056E000E0120066EFB
:102EF000000E0220076EBEEC2EF00B6E0A6AE56A29
:102F00000BC0F4FF05C0E9FF06C0F3FF0750BDEC9E
:102F100031F0BEEC2EF0096A0A2609500B220AC0D5
:102F2000E5FF0BC0F4FF05C0E9FF06C0F3FF075043
:102F3000BDEC31F04AD0BEEC2EF0046E036ABEEC5C
:102F40002EF0066A0326065004220450E56E035054
:102F5000E56E0250E56E0150E56E0050E56E9AECAC
:102F60002DF0050EE12631D0BEEC2EF0046E036A82
:102F7000BEEC2EF0066A0326065004220450E56ECD
:102F80000350E56E0250E56E0150E56E0050E56EAF
:102F900000EC22F0050EE12618D0BEEC2EF0046EF7
:102FA000036ABEEC2EF0066A032606500422045083
:102FB000E56E0350E56E0250E56E0150E56E00507F
:102FC000E56EFEEC25F0050EE126E4CF0BF0E4CF34
:102FD0000AF0E4CF09F0E4CF08F0E4CF07F0E4CF43
:102FE00006F0E4CF05F0E4CF04F0E4CF03F0E4CF43
:102FF00002F0E4CF01F0E4CF00F0E4CFD9FF1200FB
:10300000D9CFE5FFE1CFD9FF00C0E5FF01C0E5FF63
:1030100002C0E5FF03C0E5FF04C0E5FF05C0E5FF12
:1030200006C0E5FF07C0E5FF08C0E5FF020EDBCFE5
:1030300000F0030EDBCF01F0040EDBCF02F0036AD9
:10304000046ABEEC2EF0056EFE0A01E075D05BEC62
:1030500029F0BEEC2EF0066E040E065CD8B05AD0F5
:10306000FA6AFB6A0634FA36E834FA36FC0B7E0F4D
:10307000E56E300EFA22000EFB22E450F96E47EFA7
:1030800018F053EF18F066EF18F079EF18F000C061
:10309000E9FF01C0F3FF025073EC31F0076E07C087
:1030A00003F0046A37D00050010F076E000E0120B4
:1030B000086E000E022007C0E9FF08C0F3FF73ECA2
:1030C00031F0076E07C003F0046A24D00050020FED
:1030D000076E000E0120086E000E022007C0E9FFF7
:1030E00008C0F3FF73EC31F0076E07C003F0046A09
:1030F00011D000500F0F076E000E0120086E000E59
:10310000022007C0E9FF08C0F3FFFDEC30F0036EBA
:10311000F3CF04F00450E56E0350E56EE56A065007
:10312000E56E000EE56E400EE56EA40EE56EF5EC64
:103130002BF0070EE1268DD0040E055CD8B089D0A7
:10314000FA6AFB6A0534FA36E834FA36FC0B5E0F8D
:10315000E56E310EFA22000EFB22E450F96EB7EF55
:1031600018F0C4EF18F0EFEF18F005EF19F0BEEC0F
:103170002EF0036E03C0E5FF00C0E9FF01C0F3FFBE
:103180000250E0EC31F065D00050010F036E000EEC
:103190000120046E000E0220056EBEEC2EF0066EBD
:1031A00006C0E5FF03C0E9FF04C0F3FF0550E0ECF3
:1031B00031F00650D8A44DD00050030F036E000E1E
:1031C0000120046E000E0220E56AF46AF66AF76ACE
:1031D00003C0E9FF04C0F3FF62EC31F03AD00050C5
:1031E000020F036E000E0120046E000E0220056E19
:1031F000BEEC2EF0066E06C0E5FF03C0E9FF04C07A
:10320000F3FF0550E0EC31F024D00F0E0026000E45
:1032100001220222BEEC2EF0066E056AE56A06C0A7
:10322000F4FF00C0E9FF01C0F3FF0250BDEC31F034
:10323000BEEC2EF0046A05260450062205C0E5FF08
:1032400006C0F4FF00C0E9FF01C0F3FF0250BDEC6F
:1032500031F0E4CF08F0E4CF07F0E4CF06F0E4CF9C
:1032600005F0E4CF04F0E4CF03F0E4CF02F0E4CFC4
:1032700001F0E4CF00F0E4CFD9FF1200D9CFE5FF91
:10328000E1CFD9FF00C0E5FF01C0E5FF02C0E5FFC7
:1032900003C0E5FF04C0E5FF05C0E5FF06C0E5FF8C
:1032A00007C0E5FF020EDBCF00F0030EDBCF01F01D
:1032B000040EDBCF02F0050EDBCF03F0060EDBCFF2
:1032C00004F0070EDBCF05F0080EDBCF06F0090E89
:1032D000DBCF07F000500501596F01505A6F0250C3
:1032E0005B6F03505C6F045005015D6F05505E6FAE
:1032F00006505F6F0750606F0501595105015F036C
:10330000F4CF01F0F3CF00F000500501636F0150DE
:10331000646F0501595105015D03F4CF01F0F3CF4E
:1033200000F000500501616F0150626F05015C51B2
:1033300005015D03F3CF00F0050164510026005044
:10334000646F05015B5105015E03F3CF01F001508D
:10335000002600500501646F05015B5105015D0306
:10336000F4CF01F0F3CF00F0050163510026645162
:1033700001220050636F0150646F05015A5105012D
:103380005E03F4CF03F0F3CF02F0025000260350A7
:10339000012200500501636F0150646F05015A510D
:1033A00005015F03F3CF00F000500501686F0501D0
:1033B0005A5105015D03F4CF01F0F3CF00F0005046
:1033C0000501666F0150676F0501595105016003E2
:1033D000F3CF00F0005005016C6F05015951050154
:1033E0005E03F4CF01F0F3CF00F0005005016A6FE7
:1033F00001506B6F0501656B0501696B0501655136
:1034000005016125006E0501665105016221016E0D
:103410000501675105016321026E0501685105012F
:103420006421036E0050616F0150626F0250636F40
:103430000350646F0501695105016125006E0501A6
:103440006A5105016221016E05016B51050163217D
:10345000026E05016C5105016421036E03C0E9FF92
:1034600002C0F4FF01C0F3FF0050E4CF07F0E4CF47
:1034700006F0E4CF05F0E4CF04F0E4CF03F0E4CFAE
:1034800002F0E4CF01F0E4CF00F0E4CFD9FF120066
:1034900000C0E5FF01C0E5FF04014051D8B4F5D0FC
:1034A000A3A81DD0A4A81BD005018E5105018B191E
:1034B00005E1A1EC31F005018B6BE7D0000E0501B1
:1034C0008E25006E016A040E012200C0E9FF01C0D2
:1034D000EAFFEFCF87F58E2B87C573FFD6D0A4AA5E
:1034E000D4D071A205D005018C81A1EC31F0CDD0F2
:1034F00071A405D005018C83A1EC31F0C6D071A078
:103500003ED074CF87F5800E040141110501871963
:1035100004E105018C897196B8D00501875104E05A
:1035200087510401411927E105018C997196050124
:10353000875103E005018C9702D005018C8787C570
:1035400090F589C591F5050189050501926F600E19
:1035500005019125006E016A000E012200C0E9FFFD
:1035600001C0EAFF87C5EFFF912B9151800A02E16C
:103570000501916B8AD005018C99718686D074CF34
:1035800087F505018CA919D0800E040141110501B0
:10359000871911E1929AA39A719805018B5104E160
:1035A000736AA1EC31F007D000C473FF010E05016E
:1035B0008E6FA3886AD0718668D005018751050196
:1035C000902705019151050192191BE105019051C8
:1035D0000CE191C589F505018CB712D0929AA39A96
:1035E0007198736AA1EC31F00BD005018C858CB712
:1035F00007D0929AA39A7198010E736EA1EC31F0E4
:1036000044D00501915105018A1908E105018A514B
:103610000501891903E0A1EC31F037D089C500F02C
:10362000016A004A012AE56A800EE56E0150E56EE6
:103630000050E56E23EC25F0006E040EE1260050EC
:103640000501886F050191190CE11F0E0501871511
:103650000501926F922B922B05018951050192274A
:10366000929F91C500F00501912B016A600E002622
:10367000000E012200C0E9FF01C0EAFF87C5EFFF8D
:103680009151800A02E10501916BE4CF01F0E4CF92
:1036900000F0120000C0E5FF01C0E5FF02C0E5FF39
:1036A00003C0E5FF04C0E5FF05C0E5FF06C0E5FF78
:1036B00007C0E5FF08C0E5FF09C0E5FF0AC0E5FF58
:1036C000006A016A040E015CD8B0B3D0230E040175
:1036D0004325026E036A0F0E032202C0E9FF03C0F6
:1036E000EAFFEFCF02F00250FF0A01E19BD0040194
:1036F0004339E8441F0B026E780E0224036E046AFD
:10370000050E042203C0E9FF04C0EAFFEFCF03F077
:10371000070E4315046E010E056E000E066E045072
:1037200006E0E86CD89005360636010FFCE3076A20
:10373000055003160650071603500710D880E86698
:10374000D890036A03360350D880E866D890036A9D
:103750000336076A760E0226050E072202C0E9FF2D
:1037600007C0EAFFEFCF08F008C009F00A6A095065
:1037700005160A50061605500610D880E866D8903F
:10378000056A05360550D880E866D890056A053682
:103790000350051801E146D0035012E0010E056EFA
:1037A000045005E0E86CD8900536010FFDE30550A4
:1037B000081202C0E9FF07C0EAFF08C0EFFF17D0F8
:1037C00002C0E9FF07C0EAFFEFCF05F0010E066E69
:1037D000045005E0E86CD8900636010FFDE3061CA6
:1037E000051602C0E9FF07C0EAFF05C0EFFF03505E
:1037F00003E1036A032A01D0036A43C404F0E56AC3
:103800000350E56EE56A0450E56E000EE56E560E57
:10381000E56ED20EE56EF5EC2BF0070EE126012ADF
:1038200001C000F00401432B100E435DD8A04AD71D
:10383000436B0050E4CF0AF0E4CF09F0E4CF08F086
:10384000E4CF07F0E4CF06F0E4CF05F0E4CF04F0D6
:10385000E4CF03F0E4CF02F0E4CF01F0E4CF00F0D6
:103860001200D9CFE5FFE1CFD9FF00C0E5FF01C0CD
:10387000E5FF02C0E5FF03C0E5FF04C0E5FF05C0AA
:10388000E5FF06C0E5FF07C0E5FF08C0E5FF09C08A
:10389000E5FF0AC0E5FF0BC0E5FF0CC0E5FF0DC06A
:1038A000E5FF0EC0E5FF0FC0E5FF020EDBCF00F025
:1038B000030EDBCF01F0040EDBCF02F0050EDBCFF1
:1038C00003F0060EDBCF04F0070EDBCF05F0080E89
:1038D000DBCF06F0200E076E086A06C009F00A6A00
:1038E0000B6A0C6AE56AE56AE56A0950E56E035001
:1038F000E56E0250E56E0150E56E0050E56E25EC78
:103900001FF00D6E080EE126300E0D263A0E0D5CEE
:1039100005E30D500E6E270E0E240D6EFF0E0726CA
:103920000822E00E07240E6E000E08200F6E0EC057
:10393000E9FF0FC0EAFF0DC0EFFF0C50E56E0B5022
:10394000E56E0A50E56E0950E56E0350E56E0250D3
:10395000E56E0150E56E0050E56E56EC20F0006E0D
:10396000F3CF01F0F4CF02F0E9CF03F0080EE12627
:103970000050011002100310D8A4AFD707C000F008
:1039800008C001F004C002F005C003F000C004F05C
:1039900001C005F0004A012AE00E0426000E0522AF
:1039A00004C0E9FF05C0EAFFEFCF04F002C0E9FF61
:1039B00003C0EAFF04C0EFFF024A032A000E015CC5
:1039C00002E1200E005CE2E302C0E9FF03C0EAFF6F
:1039D000000EEF6AE4CF0FF0E4CF0EF0E4CF0DF06D
:1039E000E4CF0CF0E4CF0BF0E4CF0AF0E4CF09F021
:1039F000E4CF08F0E4CF07F0E4CF06F0E4CF05F021
:103A0000E4CF04F0E4CF03F0E4CF02F0E4CF01F020
:103A1000E4CF00F0E4CFD9FF1200D9CFE5FFE1CF2A
:103A2000D9FF00C0E5FF01C0E5FF02C0E5FF03C00C
:103A3000E5FF04C0E5FF05C0E5FF06C0E5FF07C0E0
:103A4000E5FF08C0E5FF09C0E5FF0AC0E5FF0BC0C0
:103A5000E5FF0CC0E5FF0DC0E5FF020EDBCF00F077
:103A6000030EDBCF01F0040EDBCF02F0050EDBCF3F
:103A700003F0060EDBCF04F0070EDBCF05F0080ED7
:103A8000DBCF06F0090EDBCF07F0D88003AED8906D
:103A9000086A083608500FE0031C0C6E021C0B6EFF
:103AA000011C0A6E001C096E092A0DE10A2A0BE1AD
:103AB0000B4A0C2A08D000C009F001C00AF002C06D
:103AC0000BF003C00CF0D88007AED890006A003627
:103AD00000500FE0071C0D6E061C036E051C026EE5
:103AE000041C016E012A0DE1022A0BE1034A0D2A92
:103AF00008D004C001F005C002F006C003F007C002
:103B00000DF00D50E56E0350E56E0250E56E01506C
:103B1000E56E0C50E56E0B50E56E0A50E56E0950EF
:103B2000E56E56EC20F0016EF3CF02F0F4CF03F017
:103B3000E9CF04F0080EE1260050081A085016E0FC
:103B4000041C076E031C066E021C056E011C006E31
:103B5000002A04E1052A02E1064A072A07C0E9FF14
:103B600006C0F4FF05C0F3FF005007D004C0E9FF12
:103B700003C0F4FF02C0F3FF0150E4CF0DF0E4CF27
:103B80000CF0E4CF0BF0E4CF0AF0E4CF09F0E4CF7F
:103B900008F0E4CF07F0E4CF06F0E4CF05F0E4CF7F
:103BA00004F0E4CF03F0E4CF02F0E4CF01F0E4CF7F
:103BB00000F0E4CFD9FF120000C0E5FF01C0E5FF2F
:103BC00002C0E5FF03C0E5FF04C0E5FF05C0E5FF57
:103BD00006C0E5FF07C0E5FFACA286D09EA884D052
:103BE00004014451FD0A03E14551FF0A01E009D0F7
:103BF00016EC32F0AD6AFE0E0401446FFF0E45690B
:103C000073D004014451FE0A03E14551FF0A01E06B
:103C10000DD094EC2EF0F3CF01F00501826F01502E
:103C2000836FFF0E0401446945695ED0040144516D
:103C3000FF0A03E14551FF0A01E02CD094EC2EF07D
:103C4000006EF3CF01F0F4CF02F0E9CF03F082C5AC
:103C500004F083C505F0E86A050183BFFF0E066E18
:103C6000076E0450005E0550015A0650025A075074
:103C7000035A039E000E035C08E1000E025C05E19E
:103C8000000E015C02E1090E005C2EE30401446BAE
:103C9000456B2AD004014451451108E11AEC32F079
:103CA000AD6A010E0401446F456B1ED044C400F0A0
:103CB00045C401F00401443F01D0452B000E00260D
:103CC000020E012200C0E9FF01C0EAFFEFCFADFF05
:103CD0000401445103E14551010A01E005D0FD0E04
:103CE0000401446FFF0E4569E4CF07F0E4CF06F00E
:103CF000E4CF05F0E4CF04F0E4CF03F0E4CF02F02A
:103D0000E4CF01F0E4CF00F0120000C0E5FF01C0F5
:103D1000E5FF02C0E5FF03C0E5FF04C0E5FF05C005
:103D2000E5FF006A230E0024016E026A0F0E0222D4
:103D300001C0E9FF02C0EAFFEFCF01F00150FF0A26
:103D400001E171D001380F0B026E036A800E02266A
:103D50000F0E032202C0E9FF03C0EAFFEFCF02F01B
:103D6000070E0116010E036E000E046E015006E0F0
:103D7000E86CD89003360436010FFCE3056A025064
:103D800003160550041603500410D880E866D89036
:103D9000036A0336035024E10038E8441F0B016E28
:103DA000026A780E0126050E022201C0E9FF02C058
:103DB000EAFFEFCF03F0070E0014046E010E056E4C
:103DC000045005E0E86CD8900536010FFDE305507E
:103DD000031201C0E9FF02C0EAFF03C0EFFF23D0D6
:103DE0000038E8441F0B016E026A780E0126050EAA
:103DF000022201C0E9FF02C0EAFFEFCF03F0070E85
:103E00000014046E010E056E045005E0E86CD890B5
:103E10000536010FFDE3051C031601C0E9FF02C0D2
:103E2000EAFF03C0EFFF002A100E005CD8A07AD78B
:103E3000E4CF05F0E4CF04F0E4CF03F0E4CF02F0E8
:103E4000E4CF01F0E4CF00F01200D9CFE5FFE1CFDD
:103E5000D9FF00C0E5FF01C0E5FF02C0E5FF03C0D8
:103E6000E5FF04C0E5FF05C0E5FF06C0E5FF07C0AC
:103E7000E5FF08C0E5FF09C0E5FF0AC0E5FF020E47
:103E8000DBCF00F0030EDBCF01F0040EDBCF02F03E
:103E9000050EDBCF03F0060EDBCF04F0070EDBCF01
:103EA00005F0080EDBCF06F0090EDBCF07F0086A3D
:103EB000045005100610071005E1E968F468F3687E
:103EC000E86847D0096A0750800BE8440A6E0A5038
:103ED0001BE1045004260536063607360750035CFE
:103EE00008E10650025C05E10550015C02E1045066
:103EF000005C06E2D890073206320532043204D064
:103F0000092A09C008F0DFD70750035C08E1065012
:103F1000025C05E10550015C02E10450005C08E32D
:103F20000450005E0550015A0650025A0750035AC9
:103F3000D890073206320532043208C009F008066C
:103F40000950E2E103C0E9FF02C0F4FF01C0F3FF42
:103F50000050E4CF0AF0E4CF09F0E4CF08F0E4CF5A
:103F600007F0E4CF06F0E4CF05F0E4CF04F0E4CFAF
:103F700003F0E4CF02F0E4CF01F0E4CF00F0E4CFAF
:103F8000D9FF1200D9CFE5FFE1CFD9FF00C0E5FF8F
:103F900001C0E5FF02C0E5FF03C0E5FF04C0E5FF87
:103FA00005C0E5FF06C0E5FF07C0E5FF020EDBCF59
:103FB00000F0030EDBCF01F0040EDBCF02F0005067
:103FC0000B0F036E000E0120046E000E0220E56A46
:103FD000F46AF66AF76A03C0E9FF04C0F3FF62EC13
:103FE00031F00050070F036E000E0120046E000E2A
:103FF0000220056E0050030F066E000E0120076EB2
:10400000000E0220E56AF46AF66AF76A06C0E9FF64
:1040100007C0F3FF62EC31F0E56AF46AF66AF76A0A
:1040200003C0E9FF04C0F3FF055062EC31F000501B
:10403000010F036E000E0120046E000E0220056EBB
:104040000050020F066E000E0120076E000E0220C7
:10405000E56A06C0E9FF07C0F3FFE0EC31F0E56A6E
:1040600003C0E9FF04C0F3FF0550E0EC31F0E56A5E
:1040700000C0E9FF01C0F3FF0250E0EC31F0E4CFF3
:1040800007F0E4CF06F0E4CF05F0E4CF04F0E4CF8E
:1040900003F0E4CF02F0E4CF01F0E4CF00F0E4CF8E
:1040A000D9FF120025642025640A0000D9CFE5FF5E
:1040B000E1CFD9FF00C0E5FF01C0E5FF02C0E5FF89
:1040C00003C0E5FF04C0E5FF05C0E5FF06C0E5FF4E
:1040D00007C0E5FF08C0E5FF09C0E5FF0AC0E5FF2E
:1040E0000BC0E5FF0CC0E5FF0DC0E5FF020EDBCF06
:1040F00000F0030EDBCF01F0040EDBCF02F0050E63
:10410000DBCF03F0060EDBCF04F0070EDBCF05F0AC
:10411000080EDBCF06F0090EDBCF07F0086A096A4C
:104120000A6A0B6A200E0C6E0350800BE8440D6E79
:10413000005000260136023603360850082609369C
:104140000A360B360D50D8A4088007500B5C08E1E6
:1041500006500A5C05E10550095C02E10450085C68
:1041600009E30450085E0550095A06500A5A0750E0
:104170000B5A00800C040D6E0DC00CF00D50D4E1F4
:1041800003C0E9FF02C0F4FF01C0F3FF0050E4CF19
:104190000DF0E4CF0CF0E4CF0BF0E4CF0AF0E4CF65
:1041A00009F0E4CF08F0E4CF07F0E4CF06F0E4CF65
:1041B00005F0E4CF04F0E4CF03F0E4CF02F0E4CF65
:1041C00001F0E4CF00F0E4CFD9FF120000C0E5FF1A
:1041D00001C0E5FF03C0E5FF04C0E5FF05C0E5FF42
:1041E00006C0E5FF07C0E5FF08C0E5FF09C0E5FF21
:1041F0000AC0E5FF0BC0E5FF7EC400F07FC401F0FC
:1042000004017E3F01D07F2B0050E56E93EC31F02E
:10421000E652076E046A056A066A7EC400F07FC42F
:1042200001F004017E3F01D07F2B0050E56E93EC3E
:1042300031F0E6520B6A0A6E086A08500412051241
:104240000A5006120B5007127EC400F07FC401F022
:1042500004017E3F01D07F2B0050E56E93EC31F0DE
:10426000E652036E006A03C001F0E86A03BEFF0E67
:10427000086E096E00500412015005120850061213
:10428000095007127EC400F07FC401F004017E3F94
:1042900001D07F2B0050E56E93EC31F0E652016ABD
:1042A0000412015005120612071207C0E9FF06C0EA
:1042B000F4FF05C0F3FF0450E4CF0BF0E4CF0AF0A5
:1042C000E4CF09F0E4CF08F0E4CF07F0E4CF06F044
:1042D000E4CF05F0E4CF04F0E4CF03F0E4CF01F045
:1042E000E4CF00F0120000C0E5FF01C0E5FF02C00E
:1042F000E5FF03C0E5FF04C0E5FF05018A510501A4
:10430000891901E15FD08AC500F0002A009E600E85
:104310000024016E026A000E022201C0E9FF02C001
:10432000EAFFEFCF94F51F0E050194178AC593F5A8
:10433000945105019327932B932B939FBEEC2EF062
:10434000016E015003E1016A012A01D0016ABEEC4D
:104350002EF00501946F800E9415026E1F0E9415B9
:10436000036E03C004F003C094F5045003E189C553
:104370008AF53BD001501BE0025022E0BEEC2EF04B
:10438000006E050194070050420A1AE000504E0AE0
:1043900003E1B3EC2BF014D00050460A03E1D5EC56
:1043A00031F00ED00050490A0BE1FF0009D08AC558
:1043B00095F5025003E097EC2AF002D0E0EC2AF0E9
:1043C00093C58AF504013D5104013E1906E005013B
:1043D0008B5103E119EC23F008D092BA06D0050105
:1043E0008B5103E172B2A1EC31F0E4CF04F0E4CFE1
:1043F00003F0E4CF02F0E4CF01F0E4CF00F01200CC
:10440000D9CFE5FFE1CFD9FF00C0E5FF01C0E5FF4F
:1044100002C0E5FF03C0E5FF04C0E5FF05C0E5FFFE
:1044200006C0E5FF07C0E5FF08C0E5FF0BC0E5FFDC
:104430000CC0E5FF0DC0E5FF020EDBCF00F0030E60
:10444000DBCF01F0040EDBCF02F0050EDBCF03F073
:10445000060EDBCF04F003C0E5FF04C0F4FF00C08C
:10446000E9FF01C0F3FF0250BDEC31F00050020F34
:10447000056E000E0120066E000E0220076EE86A2F
:1044800004BEFF0E086E04500C6E0C2608340D6E30
:10449000D8900C360D360344E844FC0B0B6E0350E9
:1044A000E844E844030B0C12E56A0BC0F4FF0CC0AF
:1044B000F6FF0DC0F7FF05C0E9FF06C0F3FF075088
:1044C00062EC31F0080E0026000E01220222E56A9D
:1044D000F46AF66AF76A00C0E9FF01C0F3FF025010
:1044E00062EC31F0E4CF0DF0E4CF0CF0E4CF0BF050
:1044F000E4CF08F0E4CF07F0E4CF06F0E4CF05F016
:10450000E4CF04F0E4CF03F0E4CF02F0E4CF01F015
:10451000E4CF00F0E4CFD9FF1200D9CFE5FFE1CF1F
:10452000D9FF00C0E5FF01C0E5FF02C0E5FF03C001
:10453000E5FF04C0E5FF05C0E5FF06C0E5FF07C0D5
:10454000E5FF020EDBCF00F0030EDBCF01F0040E1F
:10455000DBCF02F0050EDBCF03F002C006F0065001
:10456000046E800A33E100C0E9FF01C0F3FF02508E
:104570003EEC30F0056EF3CF06F0F4CF07F003C049
:10458000E5FF05C0E9FF06C0F3FF0750E0EC31F09E
:1045900000C0E9FF01C0F3FF02503EEC30F0056EB1
:1045A000F3CF06F0F4CF07F0052A02E3064A072A04
:1045B00005C0E5FF06C0F4FF07C0F6FF00C0E9FF35
:1045C00001C0F3FF025084EC31F020D004C000F0B1
:1045D00000AA1CD0007A0050046E04E103501EECC7
:1045E00032F014D00450010A04E1035002EC00F050
:1045F0000DD004500F0A04E1035003EC2EF006D056
:1046000004500E0A03E103502EEC32F0E4CF07F021
:10461000E4CF06F0E4CF05F0E4CF04F0E4CF03F0FC
:10462000E4CF02F0E4CF01F0E4CF00F0E4CFD9FF13
:10463000120000C0E5FF01C0E5FF02C0E5FF03C0B6
:10464000E5FF72A276D0C7EC2FF0006E005005E1B6
:1046500004013E6B04013D6B6CD03EC401F0005080
:104660000126C7EC2FF0026E00060250230A1FE15C
:10467000010E005CD8A05BD0C7EC2FF0026E690A77
:1046800003E134EC2EF053D00250720A03E1A1ECA6
:1046900031F04DD00250730A01E049D0928A718600
:1046A000A38AA398745074507198718840D00250B6
:1046B000430A05E00250420A01E039D001D0008EE1
:1046C00000C08DF500500401006F010E05018E6FD2
:1046D00004013E51011814E0C7EC2FF0026E0501F1
:1046E0008D27000E05018E25006E036A040E03223D
:1046F00000C0E9FF03C0EAFF02C0EFFF8E2BE8D73E
:10470000000E05018E25006E026A040E02220501CC
:104710008D1D036E032A00C0E9FF02C0EAFF03C03B
:10472000EFFF05018E2B8EC58BF50501856B01C052
:104730003EF4E4CF03F0E4CF02F0E4CF01F0E4CFA5
:1047400000F01200D9CFE5FFE1CFD9FF00C0E5FFAF
:1047500001C0E5FF02C0E5FF03C0E5FF04C0E5FFBF
:1047600005C0E5FF06C0E5FF020EDBCF00F0030E3B
:10477000DBCF01F0040EDBCF02F0050EDBCF03F040
:1047800003C004F0056A0350D8B44FD000C0E9FF5D
:1047900001C0F3FF025073EC31F0066E430A03E1EF
:1047A000010E056E038E0406002A02E3014A022A66
:1047B000929AA39A7198A398A4A8FED77280736A5C
:1047C0000000A4A8FED7729003C073FF0000A4A845
:1047D000FED7055004E0420E736E032604D0620E2D
:1047E000736E620E0326045015E00000A4A8FED7E5
:1047F00000C0E9FF01C0F3FF025073EC31F0056E19
:1048000005C073FF055003260406002A02E3014A8F
:10481000022AE9D70000A4A8FED7031C736E732AEE
:104820000000A4A8FED7A1EC31F0E4CF06F0E4CF5D
:1048300005F0E4CF04F0E4CF03F0E4CF02F0E4CFDE
:1048400001F0E4CF00F0E4CFD9FF1200D9CFE5FFAB
:10485000E1CFD9FF00C0E5FF01C0E5FF02C0E5FFE1
:1048600003C0E5FF04C0E5FF05C0E5FF06C0E5FFA6
:1048700007C0E5FF08C0E5FF09C0E5FF0AC0E5FF86
:104880000BC0E5FF0CC0E5FF020EDBCF00F0030E0E
:10489000DBCF01F0040EDBCF02F0050EDBCF03F01F
:1048A000060EDBCF04F0070EDBCF05F0080EDBCFE2
:1048B00006F0090EDBCF07F002500A6E0150096EB8
:1048C0000050086E06C00BF007C00CF0FF0E062665
:1048D00007220B500C101AE003C0E9FF04C0F3FFDD
:1048E000055073EC31F00B6E032A02E3044A052AEB
:1048F0000BC0E5FF08C0E9FF09C0F3FF0A50E0EC78
:1049000031F0082ADFE3094A0A2ADCD702C0F4FFA3
:1049100001C0F3FF0050E4CF0CF0E4CF0BF0E4CF84
:104920000AF0E4CF09F0E4CF08F0E4CF07F0E4CFD9
:1049300006F0E4CF05F0E4CF04F0E4CF03F0E4CFD9
:1049400002F0E4CF01F0E4CF00F0E4CFD9FF120091
:10495000D9CFE5FFE1CFD9FF00C0E5FF01C0E5FFFA
:1049600002C0E5FF03C0E5FF04C0E5FF05C0E5FFA9
:1049700006C0E5FF07C0E5FF020EDBCF00F0030E27
:10498000DBCF01F0040EDBCF02F0050EDBCF03F02E
:104990003EC43FF404013D5104013F5F3F0703C0A3
:1049A00004F0056A030E0426D8B0052A3FC406F0B9
:1049B000076A0750800FF36E0550800FF35C02E129
:1049C0000450065C02E2E8682BD0020E035C02E2AF
:1049D000E86A26D003060350E56EB1EC2CF0E652EF
:1049E000046A0350045C14E204500024056EE86A73
:1049F0000120066EE86A022005C0E9FF06C0F3FF49
:104A000073EC31F0042AE56EB1EC2CF0E652E9D7F4
:104A10003EC43FF404013D5104013F5F3F07E86A93
:104A2000E4CF07F0E4CF06F0E4CF05F0E4CF04F0E4
:104A3000E4CF03F0E4CF02F0E4CF01F0E4CF00F0E4
:104A4000E4CFD9FF1200D9CFE5FFE1CFD9FF00C0F5
:104A5000E5FF01C0E5FF02C0E5FF03C0E5FF04C0BC
:104A6000E5FF05C0E5FF06C0E5FF020EDBCF00F065
:104A7000030EDBCF01F0040EDBCF02F0050EDBCF1F
:104A800003F0D88001AED890046A0436045007E0E1
:104A9000011C066E001C056E054A062A04D000C0E3
:104AA00005F001C006F0D88003AED89007E3031CE0
:104AB000016E021C006E004A012A04D002C000F000
:104AC00003C001F00150E56E0050E56E0650E56E42
:104AD0000550E56E56EC28F0006EF3CF01F0040EA1
:104AE000E12604500AE0011C036E001C026E024A1B
:104AF000032A03C0F3FF025003D001C0F3FF0050AC
:104B0000E4CF06F0E4CF05F0E4CF04F0E4CF03F007
:104B1000E4CF02F0E4CF01F0E4CF00F0E4CFD9FF1E
:104B20001200D9CFE5FFE1CFD9FF00C0E5FF01C0FA
:104B3000E5FF02C0E5FF03C0E5FF04C0E5FF05C0D7
:104B4000E5FF020EDBCF00F0030EDBCF01F0040E19
:104B5000DBCF02F0050EDBCF03F07EC404F07FC490
:104B600005F004017E3F01D07F2B0350E56E045019
:104B7000E56E83EC2FF0E652E6527EC404F07FC46B
:104B800005F004017E3F01D07F2B0250056EE56EDB
:104B90000450E56E83EC2FF0E652E6527EC404F03A
:104BA0007FC405F004017E3F01D07F2B0150056ECC
:104BB000E56E0450E56E83EC2FF0E652E6527EC4BB
:104BC00004F07FC405F004017E3F01D07F2B00502C
:104BD000E56E0450E56E83EC2FF0E652E652E4CF2A
:104BE00005F0E4CF04F0E4CF03F0E4CF02F0E4CF2B
:104BF00001F0E4CF00F0E4CFD9FF1200D9CFE5FFF8
:104C0000E1CFD9FF00C0E5FF01C0E5FF02C0E5FF2D
:104C100003C0E5FF04C0E5FF05C0E5FF08C0E5FFF0
:104C200009C0E5FF0AC0E5FF020EDBCF00F0030E6E
:104C3000DBCF01F0040EDBCF02F0050EDBCF03F07B
:104C4000060EDBCF04F003C0E5FF04C0F4FF00C094
:104C5000E9FF01C0F3FF0250BDEC31F0020E002667
:104C6000000E0122022204BEFF0E056E0450096EE2
:104C7000092605340A6ED89009360A360344E844FA
:104C8000FC0B086E0350E844E844030B0912E56A84
:104C900008C0F4FF09C0F6FF0AC0F7FF00C0E9FF33
:104CA00001C0F3FF025062EC31F0E4CF0AF0E4CF30
:104CB00009F0E4CF08F0E4CF05F0E4CF04F0E4CF4E
:104CC00003F0E4CF02F0E4CF01F0E4CF00F0E4CF52
:104CD000D9FF1200D9CFE5FFE1CFD9FF00C0E5FF32
:104CE00001C0E5FF02C0E5FF03C0E5FF04C0E5FF2A
:104CF00005C0E5FF06C0E5FF020EDBCF00F0030EA6
:104D0000DBCF01F0040EDBCF02F00501845119E185
:104D1000E6EC20F0036EF3CF04F0F4CF05F0E9CF1A
:104D200006F003C0E5FF04C0F4FF05C0F6FF06C0AF
:104D3000F7FF00C0E9FF01C0F3FF025062EC31F061
:104D40001ED005018451010A1AE100C0E9FF01C02B
:104D5000F3FF0250A7EC2FF0006EF3CF01F0F4CF79
:104D600002F0E9CF03F00350E56E0250E56E01500A
:104D7000E56E0050E56E91EC25F0040EE126E4CFDF
:104D800006F0E4CF05F0E4CF04F0E4CF03F0E4CF85
:104D900002F0E4CF01F0E4CF00F0E4CFD9FF12003D
:104DA000D9CFE5FFE1CFD9FF00C0E5FF01C0E5FFA6
:104DB00002C0E5FF03C0E5FF04C0E5FF020EDBCF44
:104DC00000F0030EDBCF01F0040EDBCF02F0005049
:104DD000070F036E000E0120046E000E0220E56E28
:104DE0000450E56E0350E56E35EC2CF0030EE12621
:104DF0000050230F036E000E0120046E000E0220EF
:104E0000E56E0450E56E0350E56EB3EC28F0030E3A
:104E1000E1260050330F036E000E0120046E000ED9
:104E20000220E56E0450E56E0350E56E99EC27F024
:104E3000030EE126440E0026000E0122022202503B
:104E4000E56E0150E56E0050E56E99EC27F0030E1B
:104E5000E126E4CF04F0E4CF03F0E4CF02F0E4CFA6
:104E600001F0E4CF00F0E4CFD9FF1200D9CFE5FF85
:104E7000E1CFD9FF00C0E5FF01C0E5FF02C0E5FFBB
:104E800003C0E5FF04C0E5FF05C0E5FF06C0E5FF80
:104E9000020EDBCF00F0030EDBCF01F0040EDBCF00
:104EA00002F0050EDBCF03F0060EDBCF04F0070E99
:104EB000DBCF05F0080EDBCF06F0D88003AED8902C
:104EC00015E306500A0A12E104C0E9FF05C0EAFF33
:104ED0002D0EEF6E044A052A031E021E011E006CF1
:104EE00005E1012A03E1022AD8B4032A0650E56E3F
:104EF0000550E56E0450E56E0350E56E0250E56E18
:104F00000150E56E0050E56E31EC1CF0070EE12615
:104F1000E4CF06F0E4CF05F0E4CF04F0E4CF03F0F3
:104F2000E4CF02F0E4CF01F0E4CF00F0E4CFD9FF0A
:104F30001200D9CFE5FFE1CFD9FF00C0E5FF01C0E6
:104F4000E5FF02C0E5FF03C0E5FF04C0E5FF020E78
:104F5000DBCF00F0030EDBCF01F0040EDBCF02F05D
:104F60000250E56E0150E56E0050E56E35EC2CF018
:104F7000030EE1260050010F036E000E0120046EA7
:104F8000000E0220E56E0450E56E0350E56E35EC30
:104F90002CF0030EE1260050020F036E000E0120DC
:104FA000046E000E0220E56E0450E56E0350E56EBF
:104FB00035EC2CF0030EE1260F0E0026000E012228
:104FC00002220250E56E0150E56E0050E56EADEC38
:104FD00029F0030EE126E4CF04F0E4CF03F0E4CFA0
:104FE00002F0E4CF01F0E4CF00F0E4CFD9FF1200EB
:104FF000D9CFE5FFE1CFD9FF00C0E5FF01C0E5FF54
:1050000002C0E5FF03C0E5FF04C0E5FF05C0E5FF02
:10501000020EDBCF00F0030EDBCF01F0040EDBCF7E
:1050200002F000500B0F036E000E0120046E000E04
:105030000220E56AF46AF66AF76A03C0E9FF04C071
:10504000F3FF62EC31F00050070F036E000E0120F9
:10505000046E000E0220056E030E0026000E0122D3
:105060000222E56AF46AF66AF76A00C0E9FF01C045
:10507000F3FF025062EC31F0E56AF46AF66AF76A0F
:1050800003C0E9FF04C0F3FF055062EC31F0E4CF48
:1050900005F0E4CF04F0E4CF03F0E4CF02F0E4CF76
:1050A00001F0E4CF00F0E4CFD9FF1200D9CFE5FF43
:1050B000E1CFD9FF00C0E5FF01C0E5FF02C0E5FF79
:1050C00003C0E5FF04C0E5FF05C0E5FF06C0E5FF3E
:1050D000020EDBCF00F0030EDBCF01F0040EDBCFBE
:1050E00002F0050EDBCF03F0046A056A0350800B63
:1050F000E844066E065011E10250022603360350C2
:10510000015C02E10250005C04E2D89003320232FA
:1051100004D0052A05C004F0E9D70350015C02E180
:105120000250005C04E30250005E0350015AD89024
:105130000332023204C005F004060550EEE101C05E
:10514000F3FF0050E4CF06F0E4CF05F0E4CF04F025
:10515000E4CF03F0E4CF02F0E4CF01F0E4CF00F0BD
:10516000E4CFD9FF1200D9CFE5FFE1CFD9FF00C0CE
:10517000E5FF01C0E5FF02C0E5FF03C0E5FF04C095
:10518000E5FF020EDBCF00F0030EDBCF01F0040ED3
:10519000DBCF02F00050060F036E000E0120046EFC
:1051A000000E0220E56E0450E56E0350E56EADEC96
:1051B00029F0030EE12600500C0F036E000E0120B3
:1051C000046E000E0220E56E0450E56E0350E56E9D
:1051D000ADEC29F0030EE1260E0E0026000E012292
:1051E00002220250E56E0150E56E0050E56EADEC16
:1051F00029F0030EE126E4CF04F0E4CF03F0E4CF7E
:1052000002F0E4CF01F0E4CF00F0E4CFD9FF1200C8
:10521000D9CFE5FFE1CFD9FF00C0E5FF01C0E5FF31
:1052200002C0E5FF03C0E5FF04C0E5FF020EDBCFCF
:1052300000F0030EDBCF01F0040EDBCF02F0E56AD5
:10524000F46A00C0E9FF01C0F3FF0250BDEC31F089
:105250000050020F036E000E0120046E000E0220AB
:10526000E56AF46AF66AF76A03C0E9FF04C0F3FF6F
:1052700062EC31F0080E0026000E01220222E56ADF
:10528000F46AF66AF76A00C0E9FF01C0F3FF025052
:1052900062EC31F0E4CF04F0E4CF03F0E4CF02F0AD
:1052A000E4CF01F0E4CF00F0E4CFD9FF1200256491
:1052B0002025640A000000C0E5FF01C0E5FF02C030
:1052C000E5FF03C0E5FF8AC500F0016A95C502F05D
:1052D000036A0250005E0350015AE56A800EE56ED3
:1052E0000150E56E0050E56E23EC25F0006E040ED3
:1052F000E126000695C501F0430E03EC2EF0200ECA
:1053000003EC2EF0005020E0600E0124026E036AD0
:10531000000E032202C0E9FF03C0EAFFEFCF02F054
:10532000E56A0250E56E000EE56E630EE56E5A0EFC
:10533000E56EF5EC2BF0050EE126012A0150800AFE
:1053400001E1016A0006DED7E4CF03F0E4CF02F00A
:10535000E4CF01F0E4CF00F01200D9CFE5FFE1CFB8
:10536000D9FF00C0E5FF01C0E5FF02C0E5FF03C0B3
:10537000E5FF04C0E5FF020EDBCF00F0030EDBCF3C
:1053800001F0040EDBCF02F00501845111E1CFECF6
:105390002DF0036EF3CF04F003C0E5FF04C0F4FF6B
:1053A00000C0E9FF01C0F3FF0250BDEC31F016D0A0
:1053B00005018451010A12E100C0E9FF01C0F3FFB9
:1053C0000250FDEC30F0006EF3CF01F00150E56EBD
:1053D0000050E56E74EC2CF0E652E652E4CF04F097
:1053E000E4CF03F0E4CF02F0E4CF01F0E4CF00F02B
:1053F000E4CFD9FF1200D9CFE5FFE1CFD9FF00C03C
:10540000E5FF01C0E5FF02C0E5FF03C0E5FF04C002
:10541000E5FF020EDBCF00F00038E8441F0B016E01
:10542000026A780E0126050E022201C0E9FF02C0C1
:10543000EAFFEFCF01F0070E0016010E026E000E1C
:10544000036E005006E0E86CD89002360336010F78
:10545000FCE3046A015002160450031602500310C4
:10546000D880E866D890026A02360250D880E86692
:10547000D890026A02360250E4CF04F0E4CF03F081
:10548000E4CF02F0E4CF01F0E4CF00F0E4CFD9FFA5
:105490001200140EF66E640EF76E000EF86E090020
:1054A000F550056E0900F550066E04E1056702D05F
:1054B00096EF2AF00900F550006E0900F550016ED4
:1054C0000900F550026E09000900F550E96E090067
:1054D000F550EA6E090009000900F550036E090055
:1054E000F550046E09000900F6CF07F0F7CF08F079
:1054F000F8CF09F000C0F6FF01C0F7FF02C0F8FFC7
:10550000035002E1045007E00900F550EE6E030677
:10551000F8E20406F9D707C0F6FF08C0F7FF09C094
:10552000F8FF050601E2060655EF2AF0120000C05A
:10553000E5FF01C0E5FF02C0E5FFBEEC2EF0006E06
:105540004C0A03E1BEEC2EF034D00050450A27E1AE
:10555000000EE56E1E0EE56EF20EE56EF5EC2BF01C
:10556000030EE12628EC32F0006E00C001F001C00D
:1055700002F0010602500FE0BEEC2EF0E56AE56E87
:10558000000EE56E1E0EE56EF40EE56EF5EC2BF0EA
:10559000050EE126ECD70A0E03EC2EF00AD00050DF
:1055A000430A07E1BEEC2EF0300A02E08A8201D005
:1055B0008A92E4CF02F0E4CF01F0E4CF00F01200D1
:1055C00000C0E5FF01C0E5FF02C0E5FF03C0E5FF45
:1055D000BEEC2EF0006E1E0A07E00050780A1AE0BA
:1055E0000050790A22E02BD0BEEC2EF0036E026A46
:1055F000BEEC2EF0016A022601500322BEEC2EF012
:10560000E56E0350E56E0250E56EE8EC2EF0030EF9
:10561000E12615D0800EE56E040EE56E930EE56E64
:105620007CEC0FF0030EE1260AD0800EE56E050E2D
:10563000E56E000EE56E7CEC0FF0030EE126E4CF84
:1056400003F0E4CF02F0E4CF01F0E4CF00F0120069
:1056500000C0E5FF01C0E5FF02C0E5FF03C0E5FFB4
:1056600004C0E5FF006A760E0024016E026A050E92
:105670000222780E0024036E046A050E042203C081
:10568000E9FF04C0EAFF010EEF6E01C0E9FF02C0AE
:10569000EAFFEF6E002A020E005CE5E3006A230ECB
:1056A0000024016E026A0F0E022201C0E9FF02C04F
:1056B000EAFFEF68002A100E005CF1E3E4CF04F08B
:1056C000E4CF03F0E4CF02F0E4CF01F0E4CF00F048
:1056D00012004320732025642025640A0000D9CFDE
:1056E000E5FFE1CFD9FF00C0E5FF01C0E5FF02C043
:1056F000E5FF03C0E5FF04C0E5FF05C0E5FF020EBE
:10570000DBCF00F0030EDBCF01F0040EDBCF02F0A5
:10571000050EDBCF03F0060EDBCF04F0056A230E87
:1057200000260F0E0522800E015E070E01160138BD
:10573000F00B026E070E04160450022600C0E9FFAB
:1057400005C0EAFF02C0EFFFE4CF05F0E4CF04F0AC
:10575000E4CF03F0E4CF02F0E4CF01F0E4CF00F0B7
:10576000E4CFD9FF120000C0E5FF01C0E5FF02C091
:10577000E5FFBEEC2EF0006EBEEC2EF0016E005088
:10578000026ED00E0224006E0A0E005C05E300508B
:10579000026EF90E0224006E0150026ED00E022439
:1057A000016E0A0E015C05E30150026EF90E02243F
:1057B000016E080E005C12E2100E015CD8B00ED033
:1057C0000038F00B0124006E28EC2DF0016E015022
:1057D00005E10050E56E73EC30F0E652E4CF02F0E4
:1057E000E4CF01F0E4CF00F01200D9CFE5FFE1CF24
:1057F000D9FF00C0E5FF01C0E5FF02C0E5FF020ED2
:10580000D924006E000EDA20016E800E026E030EA7
:105810000026000E012202220250E56E0150E56EC4
:105820000050E56E040EDBCFE5FF030EDBCFE5FF96
:10583000020EDBCFE5FF05016F51E56E6E51E56E9F
:105840006D51E56E59EC05F0006EF3CF01F0090ED5
:10585000E12601C0F3FF0050E4CF02F0E4CF01F0F5
:10586000E4CF00F0E4CFD9FF1200D9CFE5FFE1CFBC
:10587000D9FF00C0E5FF01C0E5FF02C0E5FF03C09E
:10588000E5FF020EDBCF00F0030EDBCF01F0040ECC
:10589000DBCF02F0050184510DE1D1EC30F0036E55
:1058A00003C0E5FF00C0E9FF01C0F3FF0250E0ECD8
:1058B00031F00FD005018451010A0BE100C0E9FF6E
:1058C00001C0F3FF025073EC31F0E56E38EC2FF0BD
:1058D000E652E4CF03F0E4CF02F0E4CF01F0E4CFEE
:1058E00000F0E4CFD9FF1200D9CFE5FFE1CFD9FF17
:1058F00000C0E5FF01C0E5FF02C0E5FF03C0E5FF12
:10590000020EDBCF00F0030EDBCF01F07EC402F00D
:105910007FC403F004017E3F01D07F2B0150E56E70
:105920000250E56E83EC2FF0E652E6527EC402F0A0
:105930007FC403F004017E3F01D07F2B0050E56E51
:105940000250E56E83EC2FF0E652E652E4CF03F00E
:10595000E4CF02F0E4CF01F0E4CF00F0E4CFD9FFD0
:105960001200D9CFE5FFE1CFD9FF00C0E5FF01C0AC
:10597000E5FF02C0E5FF03C0E5FF04C0E5FF020E3E
:10598000DBCF00F03DC401F0026A014A022A3EC4A6
:1059900003F0046A0150031803E10250041801E007
:1059A00001D00ED0000E04013D25016E026A010EE9
:1059B000022201C0E9FF02C0EAFF00C0EFFF3D2B59
:1059C000E4CF04F0E4CF03F0E4CF02F0E4CF01F041
:1059D000E4CF00F0E4CFD9FF1200D9CFE5FFE1CF4B
:1059E000D9FF00C0E5FF01C0E5FF02C0E5FF03C02D
:1059F000E5FF020EDBCF00F0016A95C502F0036AF5
:105A00000250002603500122E56A800EE56E015027
:105A1000E56E0050E56E23EC25F0006EF3CF01F04B
:105A2000040EE126600E0026000E012200C0E9FFF0
:105A300001C0EAFFEFCF00F00050E4CF03F0E4CF65
:105A400002F0E4CF01F0E4CF00F0E4CFD9FF120080
:105A500000C0E5FF01C0E5FF02C0E5FF010E006EDA
:105A6000BEEC2EF0016E01C002F0015023E00050A8
:105A7000E56E93EC31F0016EE652015010E10A0E32
:105A8000005C0BE20A0E006EE56E93EC31F0016EE5
:105A9000E652015004E1E8680ED0E8680CD00150ED
:105AA000021802E0E86807D0002A1B0E005CD8E369
:105AB000E86801D0E86AE4CF02F0E4CF01F0E4CF77
:105AC00000F01200F3CFE5FFF4CFE5FFE9CFE5FFEB
:105AD000EACFE5FFFACFE5FFFBCFE5FF04013B513D
