:020000040000FA
:1000000091EF30F0C96E1200A3EF27F0191900002C
:100010000000FF00000000009DEF2BF0D9CFE5FFAE
:10002000E1CFD9FF00C0E5FF01C0E5FF02C0E5FF59
:1000300003C0E5FF04C0E5FF05C0E5FF06C0E5FF1E
:1000400007C0E5FF08C0E5FF09C0E5FF0AC0E5FFFE
:100050000BC0E5FF0CC0E5FF0DC0E5FF0EC0E5FFDE
:100060000FC0E5FF10C0E5FF11C0E5FF12C0E5FFBE
:1000700013C0E5FF14C0E5FF15C0E5FF16C0E5FF9E
:1000800017C0E5FF18C0E5FF19C0E5FF1AC0E5FF7E
:100090001BC0E5FF1CC0E5FF1DC0E5FF1EC0E5FF5E
:1000A0001FC0E5FF20C0E5FF21C0E5FF22C0E5FF3E
:1000B00023C0E5FF24C0E5FF25C0E5FF020EDBCF2E
:1000C00000F0030EDBCF01F0040EDBCF02F0025094
:1000D000086E0150076E0050066EE56A100EE56E60
:1000E0000850E56E0750E56E0650E56E800EE56E31
:1000F0000F0EE56E230EE56ED3EC23F0080EE1261D
:100100002BCF03F02CCF04F02DCF05F02ECF06F02F
:1001100003C007F004C008F005C009F006C00AF0EB
:10012000D8800AAED8900AE30A1E091E081E076C82
:1001300005E1082A03E1092AD8B40A2A23CF0BF0E3
:1001400024CF0CF0E86A0F0124BFFF0E0D6E0E6E77
:100150002535106E26350F6E10360F361034030B12
:10016000106E2751E844E844FC0B10122735126E3C
:100170002835116E123611361234030B12B0FC09F9
:10018000126E0F500B5C0F6E10500C58106E115009
:100190000D58116E12500E58126ED89012AED880B3
:1001A000D8A05BD01250800F800F08E1000E115CC8
:1001B00005E1000E105C02E1010E0F5CD8B04DD0DD
:1001C0000A340A30166E0930156E0830146E073086
:1001D000136E31CF17F032CF18F0E86A0F0132BF3B
:1001E000FF0E196E800FF36E1650800FF35C08E15E
:1001F0001550195C05E11450185C02E11350175CAE
:100200002CE30D40156E15420E40166E1642C00EC0
:100210001616151415181612151A0C50E840E84059
:100220003F0B15120B40136E13420C40146E144218
:10023000C00E1416131413181412131A13500F01AE
:10024000256F1450266F1550276F1650286F2B6B93
:100250002C6B2D6B2E6BA3EF04F007360836073698
:1002600008360734030B0818081A0818076E0950D7
:10027000E844E844FC0B081207C009F008C00AF083
:1002800009C00BF00AC00CF0E86A0ABEFF0E0D6E42
:100290000E6EE86A08BEFF0E136EE56E1350E56E33
:1002A0000850E56E0750E56E0E50E56E0D50E56E98
:1002B0000C50E56E0B50E56E2EEC18F0076EF3CF88
:1002C00008F0F4CF0BF0E9CF0CF0080EE12631CFA7
:1002D0000DF032CF0EF0E86A0F0132BFFF0E136E41
:1002E000146EE56E1350E56E0E50E56E0D50E56E22
:1002F0000C50E56E0B50E56E0850E56E0750E56E4C
:10030000BFEC1CF0076EF3CF08F0080EE12629CFF2
:100310000BF02ACF0CF0E86A0F012ABFFF0E156E12
:10032000166E1638F00B1A6E1538196E0F0B191A57
:100330001A2619361A360C50E838E8441F0B1912E1
:100340000C38F00B186E0B38176E0F0B171A182697
:1003500017361836D88006AED890D8B05AD107C014
:100360000BF008C00CF0E86A08BEFF0E156E800F97
:10037000F36E1250800FF35C08E11150155C05E13B
:1003800010500C5C02E10F500B5CD8B01AD1065033
:10039000800FF36E1A50800FF35C08E11950055C72
:1003A00005E11850045C02E11750035CD8B0E2D0BC
:1003B0002FCF0BF030CF0CF0E86A0F0130BFFF0EEB
:1003C000156E166E03500B2604500C220550152294
:1003D000065016220B500F012B6F0C502C6F15502E
:1003E0002D6F16502E6F31CF0BF032CF0CF02FCF78
:1003F00015F030CF16F00C50800FF36E1650800FB2
:10040000F35C02E115500B5CD8B098D02BCF1BF0F9
:100410002CCF1CF02DCF1DF02ECF1EF01B34206EE4
:100420001C341F6E20361F362034030B206E1D50E7
:10043000E844E844FC0B20121FC009F020C00AF079
:1004400009C021F00AC022F0E86A0ABEFF0E236E3E
:10045000246EE86A20BEFF0E256EE56E2550E56E1F
:100460002050E56E1F50E56E2450E56E2350E56E7A
:100470002250E56E2150E56E2EEC18F01F6EF3CF82
:1004800020F0F4CF21F0E9CF22F0080EE1260BC0D6
:1004900023F00CC024F0E86A0CBEFF0E256EE56E5A
:1004A0002550E56E2450E56E2350E56E2250E56E32
:1004B0002150E56E2050E56E1F50E56EBFEC1CF03C
:1004C0001F6EF3CF20F0080EE1261F50076E20505C
:1004D000086E07C01FF008C020F0E86A08BEFF0ED3
:1004E000216E226E1250800FF36E2250800FF35C4B
:1004F00008E12150115C05E12050105C02E11F5021
:100500000F5C1CE20B50155C0B6E0C5016580C6EF9
:10051000E86A0CBEFF0E156E166E0B501B5E0C507B
:100520001C5A15501D5A16501E5A1B500F012B6F86
:100530001C502C6F1D502D6F1E502E6F1A50800FA7
:10054000F36E0F012E51800FF35C08E12D51195C01
:1005500005E12C51185C02E12B51175CD8B0C6D1D3
:1005600017500F012B6F18502C6F19502D6F1A5008
:100570002E6FBCD11A50800FF36E0650800FF35CC3
:1005800008E10550195C05E10450185C02E10350D4
:10059000175CD8B0ABD10D50035C0B6E0E500458F5
:1005A0000C6E13500558156E14500658166E0B50ED
:1005B0000F012B6F0C502C6F15502D6F16502E6F96
:1005C00095D12FCF0BF030CF0CF0E86A0F0130BF80
:1005D000FF0E156E166E0D500B260E500C2213508A
:1005E0001522145016220B50035C0B6E0C5004584D
:1005F0000C6E15500558156E16500658166E0B5099
:100600000F012B6F0C502C6F15502D6F16502E6F45
:100610006DD1081E076CD8B4082A07C00BF008C0BB
:100620000CF0E86A08BEFF0E156E166E1250800FB1
:10063000F36E1650800FF35C08E11550115C05E174
:100640000C50105C02E10B500F5CD8B02CD11A1C7E
:10065000166E191C156E181C0C6E171C0B6E0B2ACF
:1006600004E10C2A02E1154A162A1650800FF36E97
:100670000650800FF35C08E10550155C05E104505D
:100680000C5C02E103500B5CD8B0E6D02FCF17F022
:1006900030CF18F0E86A0F0130BFFF0E196E1A6EE6
:1006A0001750035C176E18500458186E19500558EF
:1006B000196E1A5006581A6E17500F012B6F1850EA
:1006C0002C6F19502D6F1A502E6F31CF17F032CF7B
:1006D00018F02FCF19F030CF1AF01850800FF36EAA
:1006E0001A50800FF35C02E11950175CD8B098D013
:1006F0002BCF1BF02CCF1CF02DCF1DF02ECF1EF0DA
:100700001B34206E1C341F6E20361F362034030B22
:10071000206E1D50E844E844FC0B2012201E1F6C84
:1007200002E1202A00E11FC009F020C00AF0E86AB7
:100730000ABEFF0E216E226EE86A20BEFF0E236EF7
:10074000E56E2350E56E2050E56E1F50E56E225099
:10075000E56E2150E56E0A50E56E0950E56E2EEC0F
:1007600018F0096EF3CF0AF0F4CF1FF0E9CF20F0B4
:10077000080EE12617C021F018C022F0E86A18BE62
:10078000FF0E236EE56E2350E56E2250E56E21507C
:10079000E56E2050E56E1F50E56E0A50E56E09507B
:1007A000E56EBFEC1CF0096EF3CF0AF0080EE126EF
:1007B0000A1E096C02E10A2A00E10950076E0A507C
:1007C000086EE86A08BEFF0E096E800FF36E1250C5
:1007D000800FF35C08E11150095C05E11050085CE2
:1007E00002E10F50075C1CE21750195C176E18509D
:1007F0001A58186EE86A18BEFF0E076E086E17507A
:100800001B2618501C2207501D2208501E221B5068
:100810000F012B6F1C502C6F1D502D6F1E502E6F13
:100820000F012E51800FF36E1650800FF35C08E11C
:1008300015502D5D05E10C502C5D02E10B502B5D38
:10084000D8B054D00B500F012B6F0C502C6F15509B
:100850002D6F16502E6F4AD00650800FF36E165033
:10086000800FF35C08E11550055C05E10C50045C59
:1008700002E10B50035CD8B039D00D500324076E51
:100880000E500420086E13500520096E14500620E7
:100890000A6E07500F012B6F08502C6F09502D6FF7
:1008A0000A502E6F23D02FCF07F030CF08F0E86A20
:1008B0000F0130BFFF0E096E0A6E07500D2608505B
:1008C0000E22095013220A5014220D5003260E50F6
:1008D0000422135005221450062203500F012B6FDF
:1008E00004502C6F05502D6F06502E6F0F012B39C1
:1008F0000F0B036E2C39046EF00B041A032604321E
:1009000003322D51E838E840F80B04122D390F0B53
:10091000056E2E39066EF00B061A052606320532D4
:10092000F80E06B406262551032626510422275127
:100930000522285106220350256F0450266F0550CA
:10094000276F0650286FE56A100EE56E800EE56E83
:100950000F0EE56E230EE56E0250E56E0150E56E5A
:100960000050E56ED3EC23F0080EE126E4CF25F02D
:10097000E4CF24F0E4CF23F0E4CF22F0E4CF21F061
:10098000E4CF20F0E4CF1FF0E4CF1EF0E4CF1DF061
:10099000E4CF1CF0E4CF1BF0E4CF1AF0E4CF19F061
:1009A000E4CF18F0E4CF17F0E4CF16F0E4CF15F061
:1009B000E4CF14F0E4CF13F0E4CF12F0E4CF11F061
:1009C000E4CF10F0E4CF0FF0E4CF0EF0E4CF0DF061
:1009D000E4CF0CF0E4CF0BF0E4CF0AF0E4CF09F061
:1009E000E4CF08F0E4CF07F0E4CF06F0E4CF05F061
:1009F000E4CF04F0E4CF03F0E4CF02F0E4CF01F061
:100A0000E4CF00F0E4CFD9FF1200D9CFE5FFE1CF6A
:100A1000D9FF00C0E5FF01C0E5FF02C0E5FF03C04C
:100A2000E5FF04C0E5FF05C0E5FF06C0E5FF07C020
:100A3000E5FF08C0E5FF09C0E5FF0AC0E5FF0BC000
:100A4000E5FF0CC0E5FF0DC0E5FF0EC0E5FF0FC0E0
:100A5000E5FF10C0E5FF11C0E5FF12C0E5FF13C0C0
:100A6000E5FF14C0E5FF15C0E5FF16C0E5FF17C0A0
:100A7000E5FF18C0E5FF19C0E5FF1AC0E5FF1BC080
:100A8000E5FF1CC0E5FF1DC0E5FF1EC0E5FF020E2F
:100A9000DBCF00F0030EDBCF01F0040EDBCF02F062
:100AA000050EDBCF03F0060EDBCF04F0070EDBCF25
:100AB00005F0080EDBCF06F0090EDBCF07F00A0EBB
:100AC000DBCF08F0096A0A6A02C00DF00D50800AF7
:100AD0000DE102500301716F0150706F00506F6F94
:100AE000030E016E6F0E006E800E026E03C0E9FFF2
:100AF00004C0F3FF0550DBEC30F00B6E0B50D8B4A4
:100B0000BBEF08F00B50250A02E0A2EF08F00C6AD8
:100B10000D6A0E6A0F6A106A0A0E116E126A136A63
:100B2000146A200E156E1668176A2B0E186E032AAB
:100B300002E3044A052A03C0E9FF04C0F3FF05509D
:100B4000DBEC30F0196E250A13E11950E56E025006
:100B5000E56E0150E56E0050E56EB8EC21F0040E34
:100B6000E126094A0A2A032A02E3044A052ABED7D3
:100B70001950300A06E1300E156E032A02E3044ACA
:100B8000052A03C0E9FF04C0F3FF0550DBEC30F099
:100B90002D0A06E1010E146E032A02E3044A052A17
:100BA00003C0E9FF04C0F3FF0550DBEC30F0200A7E
:100BB00008E1010E176E200E186E032A02E3044AA4
:100BC000052A03C0E9FF04C0F3FF0550DBEC30F059
:100BD0002B0A06E1010E176E032A02E3044A052AD6
:100BE00003C0E9FF04C0F3FF0550DBEC30F0196EE1
:100BF000310E195C2BE33A0E195C28E203C019F0A0
:100C000004C01AF005C01BF019C0E9FF1AC0F3FFB9
:100C10001B50DBEC30F01C6E300E1C5C11E33A0E06
:100C20001C5C0EE213500A0DF3CF1DF01C501D2664
:100C3000D00E1D24136E192A02E31A4A1B2AE4D788
:100C400019C003F01AC004F01BC005F003C0E9FF8F
:100C500004C0F3FF0550DBEC30F02E0A2DE1032A2F
:100C600002E3044A052A166A03C019F004C01AF008
:100C700005C01BF019C0E9FF1AC0F3FF1B50DBECE5
:100C800030F01C6E300E1C5C11E33A0E1C5C0EE260
:100C900016500A0DF3CF1DF01C501D26D00E1D243A
:100CA000166E192A02E31A4A1B2AE4D719C003F068
:100CB0001AC004F01BC005F003C0E9FF04C0F3FF35
:100CC0000550DBEC30F0196E6C0A07E1010E0C6E7A
:100CD000032A02E3044A052A09D01950680A06E1EA
:100CE000010E0E6E032A02E3044A052A03C0E9FF3F
:100CF00004C0F3FF0550DBEC30F0750A06E1010E8D
:100D0000106E032A02E3044A052A03C0E9FF04C067
:100D1000F3FF0550DBEC30F0196E730A05E1010EAC
:100D20000D6E200E156E3FD01950780A03E1100E9B
:100D3000116E39D01950580A05E1100E116E010ECE
:100D4000126E31D01950630A02E1116A2CD0195089
:100D50006F0A03E1080E116E26D01950660A03E1EE
:100D6000010E0F6E20D01950640A1DE01950690A57
:100D70001AE0105005E0FF0E03260422052213D0CE
:100D80001950E56E0250E56E0150E56E0050E56EBB
:100D9000B8EC21F0040EE126094A0A2A032A02E3EC
:100DA000044A052AA3D60D5021E00650030F0D6E0C
:100DB000000E0720196E000E08201A6E0DC006F0F6
:100DC00019C007F01AC008F0FD0E0D26FF0E1922FB
:100DD0001A220DC0E9FF19C0F3FF1A50A6EC2FF03C
:100DE0000D6EF3CF19F0F4CF1AF0FDD00F500DE0D7
:100DF000000E1A6E110E196EFE0E0D6E040E0626F2
:100E0000000E072208221668EED016680C5023E068
:100E10000650040F0C6E000E07200F6E000E082007
:100E20001B6E0CC006F00FC007F01BC008F0FC0ED4
:100E30000C26FF0E0F221B220CC0E9FF0FC0F3FF90
:100E40001B500DEC2FF00C6EF3CF0FF0F4CF1BF016
:100E5000E9CF1CF067D00E502FE00650020F0E6E47
:100E6000000E07201D6E000E08201E6E0EC006F03C
:100E70001DC007F01EC008F0FE0E0E26FF0E1D223C
:100E80001E220EC0E9FF1DC0F3FF1E5065EC30F0BE
:100E90000E6E0EC00CF00F6A1B6A1C6A11500A0A13
:100EA00003E11050D8B43ED00C500E6E0EC00CF0C2
:100EB0000F6A1B6A1C6A36D00650020F0E6E000EB7
:100EC00007201D6E000E08201E6E0EC006F01DC00D
:100ED00007F01EC008F0FE0E0E26FF0E1D221E2279
:100EE0000EC0E9FF1DC0F3FF1E5065EC30F00E6E22
:100EF000F3CF1DF00EC00CF01DC00FF0E86A1DBE50
:100F0000FF0E1B6E1C6E11500A0A02E110500AE01F
:100F10000C500E6E0F501D6E0EC00CF01DC00FF069
:100F20001B6A1C6A030E196E0E0E0D6E800E1A6E71
:100F30001150D8B440D0105013E01150E56E030E9C
:100F4000E56E0E0EE56E1C50E56E1B50E56E0F5003
:100F5000E56E0C50E56E3CEC1AF0070EE12612D05F
:100F60001150E56E030EE56E0E0EE56E1C50E56E3B
:100F70001B50E56E0F50E56E0C50E56E40EC27F00F
:100F8000070EE12617502FE00DC0E9FF19C0F3FF4F
:100F90001A50DBEC30F02D0A26E0FF0E0D26192248
:100FA0001A2218C0E5FF0DC0E9FF19C0F3FF1A505F
:100FB00056EC31F018D00CC0E5FF0DC0E9FF19C0A8
:100FC000F3FF1A5056EC31F00D50010F0C6E000E6D
:100FD00019200E6E000E1A20E56A0CC0E9FF0EC043
:100FE000F3FF56EC31F00DC00CF019C00EF01AC032
:100FF0000FF013C010F0105010E00CC0E9FF0EC04D
:10100000F3FF0F50DBEC30F0176E175006E00C2AA0
:1010100002E30E4A0F2A1006EED710C013F0145048
:101020001EE109C00CF00AC00EF010C00FF00F5006
:1010300010E01550E56E0250E56E0150E56E00506F
:10104000E56EB8EC21F0040EE1260C4A0E2A0F06DC
:10105000EED70CC009F00EC00AF00FC013F016C096
:101060000CF00DC00DF019C00EF01AC00FF009C041
:1010700010F00AC015F00DC0E9FF0EC0F3FF0F50CD
:10108000DBEC30F0166E1650D8B43ED00CC016F023
:10109000176A161E171E1650171005E00CC016F022
:1010A0000C06165031E00DC0E9FF0EC0F3FF0F50E3
:1010B000DBEC30F0116E125010E01150E56E22ECB6
:1010C00030F0166EE652165004E0DF0E1114166E64
:1010D00002D011C016F016C011F01150E56E02508A
:1010E000E56E0150E56E0050E56EB8EC21F0040E9F
:1010F000E1260D2A02E30E4A0F2A104A152A135040
:10110000D8B4B9D71306B7D710C009F015C00AF084
:1011100014502BE010C00CF015C00DF013C00EF0F1
:101120000E501FE0200EE56E0250E56E0150E56E98
:101130000050E56EB8EC21F0040EE1260C4A0D2AB1
:101140000E06EED70B50E56E0250E56E0150E56ECF
:101150000050E56EB8EC21F0040EE126094A0A2A97
:1011600004D00CC009F00DC00AF0032A02E3044ABF
:10117000052A76EF05F00AC0F3FF0950E4CF1EF010
:10118000E4CF1DF0E4CF1CF0E4CF1BF0E4CF1AF065
:10119000E4CF19F0E4CF18F0E4CF17F0E4CF16F065
:1011A000E4CF15F0E4CF14F0E4CF13F0E4CF12F065
:1011B000E4CF11F0E4CF10F0E4CF0FF0E4CF0EF065
:1011C000E4CF0DF0E4CF0CF0E4CF0BF0E4CF0AF065
:1011D000E4CF09F0E4CF08F0E4CF07F0E4CF06F065
:1011E000E4CF05F0E4CF04F0E4CF03F0E4CF02F065
:1011F000E4CF01F0E4CF00F0E4CFD9FF12003C4E81
:101200004F20464C4F41543E0000D9CFE5FFE1CF7F
:10121000D9FF00C0E5FF01C0E5FF02C0E5FF03C044
:10122000E5FF04C0E5FF05C0E5FF06C0E5FF07C018
:10123000E5FF08C0E5FF09C0E5FF0AC0E5FF0BC0F8
:10124000E5FF0CC0E5FF0DC0E5FF020EDBCF00F0AF
:10125000030EDBCF01F0040EDBCF02F00050090FCC
:10126000066E000E0120076E000E0220086E0B6E47
:1012700007500A6E0650096EE56A0D0EE56E0B50BA
:10128000E56E0A50E56E0950E56E800EE56E040EBF
:10129000E56E690EE56ED3EC23F0080EE12600C082
:1012A00009F001C00AF002C00BF0E56AE56E0B50D0
:1012B000E56E0A50E56E0950E56E800EE56E040E8F
:1012C000E56E8A0EE56ED3EC23F0080EE1268AC4A3
:1012D00003F00350010A04E00350030A01E019D1AE
:1012E00003010851036E0951046E04017151056E2A
:1012F0007251096E0550035C0301766F0950045862
:10130000776F030108510401716F03010951040152
:10131000726F03010A510401736F03010B51040141
:10132000746F030176517711D8A47FD048EC2EF06A
:10133000036EF3CF04F0F4CF05F0E9CF09F0030119
:1013400000510A6E01510B6E02510C6E03510D6E6D
:101350000A50035E0B50045A0C50055A0D50095A9E
:1013600003500301426F0450436F0550446F7F0EDA
:101370000914456F040175B125D00301433545318A
:10138000046E4431036E043404320332000E04BE92
:10139000FF0E096E056E8FC40AF00B6A0C6A0D6AA7
:1013A0000D50800FF36E0950800FF35C08E105507B
:1013B0000C5C05E104500B5C02E103500A5C02E2A4
:1013C00004017581040175B14AD06DC403F06EC487
:1013D00004F06FC405F070C409F003014551800F9B
:1013E000F36E0950800FF35C08E10550445D05E1A0
:1013F0000450435D02E10350425D08E203C042F342
:1014000004C043F305C044F309C045F303010CA332
:1014100003D0010E036E01D0036803C076F303010D
:10142000776B03AE01D077691AD00401759104C3BC
:1014300042F305C343F306C344F307C345F3030173
:10144000425104016D6F0301435104016E6F0301AA
:10145000445104016F6F030145510401706F030192
:101460004551800F800F08E1000E445D05E1000E3C
:10147000435D02E1010E425D06E20301466B476BEC
:10148000486B496B46D003014251036E4351046ED1
:101490004451056E4551E56E0550E56E0450E56E0C
:1014A0000350E56E010EE56E000EE56AE56AE56A39
:1014B0000EEC20F0036EF3CF04F0F4CF05F0E9CF8B
:1014C00009F0080EE12676C30AF077C30BF0E86A4C
:1014D000030177BFFF0E0C6E0D6E0950E56E0550CF
:1014E000E56E0450E56E0350E56E0D50E56E0C5050
:1014F000E56E0B50E56E0A50E56E2EEC18F0030118
:10150000466FF3CF47F3F4CF48F3E9CF49F3080E22
:10151000E126020E04018A5DD8A049D103010CA185
:1015200046D10050230F036E000E0120046E000E02
:101530000220E56E0450E56E0350E56E0EEC00F0FF
:10154000030EE1260050230F036E000E0120046EEF
:10155000000E0220056E020E0326000E0422052254
:1015600003C0E9FF04C0F3FF05500DEC2FF0036E3C
:10157000F3CF04F0F4CF05F0E9CF09F003360436D9
:10158000033604360334030B0418041A0418036EDC
:101590000550E844E844FC0B0412053609360536CC
:1015A00009360534030B05B0FC090918091A091896
:1015B000056E03010851035C03014A6F03010951E1
:1015C000045803014B6F03010A51055803014C6F86
:1015D00003010B51095803014D6FD8804DAFD890CE
:1015E00022E304018C1D046E8B1D036E034A042A42
:1015F000E86A04BEFF0E056E096E03014D51800FAF
:10160000F36E0950800FF35C08E105504C5D05E175
:1016100004504B5D02E103504A5D05E303014A6B50
:101620004B6B4C6B4D6B03014D51800F800F08E1EC
:10163000000E4C5D05E1000E4B5D02E1010E4A5DBE
:101640001EE38BC403F08CC404F0E86A04018CBF71
:10165000FF0E056E800FF36E03014D51800FF35C9A
:1016600008E14C51055C05E14B51045C02E14A5133
:10167000035C05E303014A6B4B6B4C6B4D6B040140
:10168000905109E0E86CD89003014A374B374C374A
:101690004D37010FF9E303014D51800F800F08E131
:1016A000000E4C5D05E1800E4B5D02E1000E4A5DCF
:1016B00007E303014A697F0E4B6F4C6B4D6B14D0EF
:1016C00003014D51800F810F08E1FF0E4C5D05E1D4
:1016D000800E4B5D02E1000E4A5D06E203014A6B9B
:1016E000800E4B6F4C694D690050330F036E000E36
:1016F0000120046E000E0220056E03014A51096E9E
:101700004B51E56E0950E56E0550E56E0450E56EEF
:101710000350E56E95EC0CF0050EE12604018A51AC
:10172000030A23E10050330F036E000E0120046E04
:10173000000E0220056E0B0E0326000E0422052269
:1017400003C0E9FF04C0F3FF05500DEC2FF0F3CF09
:1017500004F0F4CF05F00450036E0550046E0350FE
:101760000401696F04506A6F22D00050330F036E7A
:10177000000E0120046E000E0220056E0B0E0326E3
:10178000000E0422052203C0E9FF04C0F3FF055048
:101790000DEC2FF0F3CF04F0F4CF05F00450036EFE
:1017A0000550046E035004016B6F04506C6F8AC4C3
:1017B00003F00350010A04E00350030A01E07DD066
:1017C00069C403F06AC404F0E86A04016ABFFF0E4A
:1017D000056E096E03014651035C03014A6F030164
:1017E0004751045803014B6F030148510558030149
:1017F0004C6F03014951095803014D6F800F800F51
:1018000008E1000E4C5D05E1800E4B5D02E1000E2B
:101810004A5D07E303014A697F0E4B6F4C6B4D6BCA
:1018200014D003014D51800F810F08E1FF0E4C5D74
:1018300005E1800E4B5D02E1000E4A5D06E2030108
:101840004A6B800E4B6F4C694D690050440F036E1C
:10185000000E0120046E000E0220056E03014A51A5
:10186000096E4B51E56E0950E56E0550E56E04506A
:10187000E56E0350E56E95EC0CF0050EE126440E86
:101880000026000E012202220B0E0026000E01226D
:10189000022200C0E9FF01C0F3FF02500DEC2FF05F
:1018A000F3CF01F0F4CF02F00150006E0250016E50
:1018B000005004016B6F01506C6F0850086EE56AB0
:1018C0000D0EE56E800EE56E040EE56E690EE56E9A
:1018D0000850E56E0750E56E0650E56ED3EC23F038
:1018E000080EE126E4CF0DF0E4CF0CF0E4CF0BF0CE
:1018F000E4CF0AF0E4CF09F0E4CF08F0E4CF07F03A
:10190000E4CF06F0E4CF05F0E4CF04F0E4CF03F039
:10191000E4CF02F0E4CF01F0E4CF00F0E4CFD9FF50
:10192000120025642025640A0000D9CFE5FFE1CF2D
:10193000D9FF00C0E5FF01C0E5FF02C0E5FF03C01D
:10194000E5FF04C0E5FF05C0E5FF06C0E5FF07C0F1
:10195000E5FF08C0E5FF09C0E5FF0AC0E5FF0BC0D1
:10196000E5FF020EDBCF00F0030EDBCF01F0040E2B
:10197000DBCF02F0050EDBCF03F0060EDBCF04F069
:1019800002500A6E0150096E0050086EE56A110E91
:10199000E56E0A50E56E0950E56E0850E56E800E62
:1019A000E56E040EE56E230EE56ED3EC23F0080E13
:1019B000E12632C405F033C406F0E86A040133BFFF
:1019C000FF0E076E0301356F0650346F0550336FFD
:1019D000326B03C005F004C006F0E86A04BEFF0ED7
:1019E000076E086E23C409F0E56AE56AE56A0950E6
:1019F000E56E0850E56E0750E56E0650E56E055041
:101A0000E56E2EEC18F003012E6FF3CF2FF3F4CF19
:101A100030F3E9CF31F3080EE12604012451D8B4A4
:101A2000AFD00450800F800F02E1010E035C25E36C
:101A300004012951800F7C0F08E1000E285D05E1AB
:101A4000000E275D02E1000E265D17E20401315110
:101A5000800FF36E03013551800FF35C0DE13451BB
:101A60000401305D09E10301335104012F5D04E1FC
:101A70000301325104012E5D33E3D88004AED890C7
:101A8000D8A043D004012951800F840F08E1000E33
:101A9000285D05E1000E275D02E1010E265D35E3BC
:101AA0000301351D0A6E341D096E331D046E321D8F
:101AB000036E032A04E1042A02E1094A0A2A0A50B1
:101AC000800FF36E04013151800FF35C08E1305157
:101AD000095C05E12F51045C02E12E51035C15E223
:101AE000055004012625036E06502721046E075079
:101AF0002821096E085029210A6E0350266F0450D0
:101B0000276F0950286F0A50296F040126390F0BDF
:101B1000036E2739046EF00B041A03262851E838A7
:101B2000F00B041228390F0B096E29390A6EF00BDD
:101B30000A1A0926F00E0AB60A2624C40BF0E56A32
:101B4000E56AE56A0B50E56E0A50E56E0950E56EF0
:101B50000450E56E0350E56E2EEC18F0036EF3CFE3
:101B600004F0F4CF09F0E9CF0AF0080EE1260350A3
:101B700003012E2704502F23095030230A5031230C
:101B800004012551D8B465D02A51055C0301366F94
:101B900004012B5106580301376F04012C510758DB
:101BA0000301386F04012D5108580301396F800F6C
:101BB000800F08E1010E385D05E1000E375D02E19E
:101BC000000E365D06E3030136693769386B396B01
:101BD00013D003013951800F810F08E1FF0E385DEA
:101BE00005E1000E375D02E1000E365D05E20301FE
:101BF000366B376B38693969030136513625036E08
:101C00003735046E3835096E39350A6E25C40BF048
:101C1000E56AE56AE56A0B50E56E0A50E56E095023
:101C2000E56E0450E56E0350E56E2EEC18F0036E81
:101C3000F3CF04F0F4CF09F0E9CF0AF0080EE12663
:101C4000035003012E2704502F23095030230A503C
:101C50003123055004012A6F06502B6F07502C6F5B
:101C600008502D6F03013551800FF36E0301315180
:101C7000800FF35C0DE130510301345D09E1030194
:101C80002F510301335D04E103012E510301325D45
:101C900011E20301325104012E6F0301335104019B
:101CA0002F6F030134510401306F030135510401DA
:101CB000316F3AD00301351D066E341D056E331D9C
:101CC000046E321D036E032A04E1042A02E1054A70
:101CD000062A03013151800FF36E0650800FF35C2A
:101CE00008E10550305D05E104502F5D02E103502D
:101CF0002E5D0AE2035004012E6F04502F6F055031
:101D0000306F0650316F10D003012E5104012E6F39
:101D100003012F5104012F6F030130510401306F73
:101D2000030131510401316FE56A110EE56E800E39
:101D3000E56E040EE56E230EE56E0250E56E015071
:101D4000E56E0050E56ED3EC23F0080EE126E4CFFB
:101D50000BF0E4CF0AF0E4CF09F0E4CF08F0E4CFD1
:101D600007F0E4CF06F0E4CF05F0E4CF04F0E4CFD1
:101D700003F0E4CF02F0E4CF01F0E4CF00F0E4CFD1
:101D8000D9FF1200D9CFE5FFE1CFD9FF00C0E5FFB1
:101D900001C0E5FF02C0E5FF03C0E5FF04C0E5FFA9
:101DA00005C0E5FF06C0E5FF07C0E5FF08C0E5FF89
:101DB00009C0E5FF0AC0E5FF020EDBCF00F0030E0D
:101DC000DBCF01F0040EDBCF02F0036A046A72EC91
:101DD0002EF0056EFE0A01E077D01EEC2AF072ECC0
:101DE0002EF0066E030E065CD8A05AD0060E065CD6
:101DF000D8B056D0FD0E0624076EFA6AFB6A073487
:101E0000FA36E834FA36FC0B180FE56E1E0EFA228D
:101E1000000EFB22E450F96E12EF0FF024EF0FF0EA
:101E20003DEF0FF00050090F076E000E0120086E05
:101E3000000E022007C0E9FF08C0F3FF65EC30F098
:101E4000036EF3CF04F02CD00050090F076E000E84
:101E50000120086E000E0220096E020E0726000EF9
:101E60000822092207C0E9FF08C0F3FF095065EC0A
:101E700030F0036EF3CF04F013D00050070F076E5D
:101E8000000E0120086E000E022007C0E9FF08C006
:101E9000F3FFDBEC30F0010B076E07C003F0046AC0
:101EA00006C007F00450E56E0350E56EE56A075082
:101EB000E56E000EE56E190EE56E220EE56EDEECA7
:101EC0002BF0070EE12671D1080E055CD8B06DD15C
:101ED000FA6AFB6A0534FA36E834FA36FC0BEE0F80
:101EE000E56E1E0EFA22000EFB22E450F96E87EF1B
:101EF0000FF0A2EF0FF0B4EF0FF0C6EF0FF0F8EF16
:101F00000FF02EEF10F04DEF10F0AAEF10F0005090
:101F1000230F036E000E0120046E000E0220E56EFA
:101F20000450E56E0350E56EEEEC10F0030EE12672
:101F3000020EE56E00C0E9FF01C0F3FF025056EC4F
:101F400031F033D10050330F036E000E0120046EC8
:101F5000000E0220E56E0450E56E0350E56EBAEC0B
:101F600015F0030EE12621D10050440F036E000E40
:101F70000120046E000E0220E56E0450E56E035051
:101F8000E56EBAEC15F0030EE1260FD10050090FF3
:101F9000036E000E0120046E000E0220056E72EC2E
:101FA0002EF00A6E096AE56A0AC0F4FF03C0E9FF71
:101FB00004C0F3FF055033EC31F072EC2EF0086AE8
:101FC000092608500A2209C0E5FF0AC0F4FF03C031
:101FD000E9FF04C0F3FF055033EC31F0010EE56E6C
:101FE00000C0E9FF01C0F3FF025056EC31F0DDD034
:101FF0000050090F036E000E0120046E000E022037
:10200000056E020E0326000E0422052272EC2EF04D
:102010000A6E096AE56A0AC0F4FF03C0E9FF04C05A
:10202000F3FF055033EC31F072EC2EF0086A09260C
:1020300008500A2209C0E5FF0AC0F4FF03C0E9FF07
:1020400004C0F3FF055033EC31F0E56A00C0E9FF4E
:1020500001C0F3FF025056EC31F0A7D00050070F3B
:10206000036E000E0120046E000E0220056E72EC5D
:102070002EF0010BF46E03C0E9FF04C0F3FF05501E
:10208000DBEC30F0FE0BF410E56E03C0E9FF04C09A
:10209000F3FF055056EC31F088D072EC2EF0066E4E
:1020A0000050160F036E000E0120046E000E022079
:1020B000056E03500C0F076E000E0420086E000E14
:1020C0000520096E0650D880E866D8900A6A0A365C
:1020D0000A50D880E866D8900A6A0A360A50010B7E
:1020E000F46E07C0E9FF08C0F3FF0950DBEC30F0E5
:1020F000FE0BF410E56E07C0E9FF08C0F3FF0950BE
:1021000056EC31F00650010A01E04FD0080E0326CC
:10211000000E04220522E56AF46AF66AF76A03C033
:10212000E9FF04C0F3FF0550CAEC30F00050230F64
:10213000036E000E0120046E000E0220E56AE56ABF
:10214000E56E0450E56E0350E56E3AEC1EF0050EA8
:10215000E1262BD00050230F036E000E0120046EE9
:10216000000E0220056E160E0026000E012202222D
:10217000080E0026000E0122022200C0E9FF01C065
:10218000F3FF02500DEC2FF0006EF3CF01F0015081
:10219000E56E0050E56E0550E56E0450E56E0350A7
:1021A000E56E3AEC1EF0050EE126E4CF0AF0E4CF2E
:1021B00009F0E4CF08F0E4CF07F0E4CF06F0E4CF75
:1021C00005F0E4CF04F0E4CF03F0E4CF02F0E4CF75
:1021D00001F0E4CF00F0E4CFD9FF1200D9CFE5FF42
:1021E000E1CFD9FF00C0E5FF01C0E5FF02C0E5FF78
:1021F00003C0E5FF04C0E5FF05C0E5FF06C0E5FF3D
:1022000007C0E5FF08C0E5FF09C0E5FF0AC0E5FF1C
:102210000BC0E5FF020EDBCF00F0030EDBCF01F0B9
:10222000040EDBCF02F0036A046A72EC2EF0056E36
:10223000FE0A01E090D01EEC2AF072EC2EF0066E41
:1022400006500EE00650010A1DE00650020A2CE07E
:1022500006500A0A3BE006500B0A01E142D069D061
:102260000050060F076E000E0120086E000E0220BF
:1022700007C0E9FF08C0F3FF65EC30F0036EF3CF51
:1022800004F057D000500C0F076E000E0120086EAE
:10229000000E022007C0E9FF08C0F3FF65EC30F034
:1022A000036EF3CF04F045D000500E0F076E000E02
:1022B0000120086E000E022007C0E9FF08C0F3FFEE
:1022C00065EC30F0036EF3CF04F033D000C0E9FFCB
:1022D00001C0F3FF025065EC30F0036EF3CF04F061
:1022E00028D00050020F076E000E0120086E000E6D
:1022F0000220096E07C0E9FF08C0F3FF09500DEC8A
:102300002FF0076EF3CF08F0F4CF09F00736083648
:10231000073608360734030B0818081A0818076E22
:102320000950E844E844FC0B08120750036E0850BB
:10233000046E0450E56E0350E56EE56A0650E56EE6
:10234000000EE56E540EE56E340EE56EDEEC2BF0FD
:10235000070EE126DBD0055014E00550010A3AE0F3
:102360000550020A01E15FD005500A0A01E184D05C
:1023700005500B0A01E199D005500C0A01E1AED0DD
:10238000C5D00050060F056E000E0120066E000E2F
:102390000220076E72EC2EF00B6E0A6AE56A0BC023
:1023A000F4FF05C0E9FF06C0F3FF075033EC31F03E
:1023B00072EC2EF0096A0A2609500B220AC0E5FFCA
:1023C0000BC0F4FF05C0E9FF06C0F3FF075033EC74
:1023D00031F09CD000500C0F056E000E0120066EEF
:1023E000000E0220076E72EC2EF00B6E0A6AE56A90
:1023F0000BC0F4FF05C0E9FF06C0F3FF075033EC44
:1024000031F072EC2EF0096A0A2609500B220AC03C
:10241000E5FF0BC0F4FF05C0E9FF06C0F3FF07505E
:1024200033EC31F073D000500E0F056E000E01201A
:10243000066E000E0220076E72EC2EF00B6E0A6A1A
:10244000E56A0BC0F4FF05C0E9FF06C0F3FF0750C3
:1024500033EC31F072EC2EF0096A0A2609500B2297
:102460000AC0E5FF0BC0F4FF05C0E9FF06C0F3FF9B
:10247000075033EC31F04AD072EC2EF0046E036A50
:1024800072EC2EF0066A0326065004220450E56E14
:102490000350E56E0250E56E0150E56E0050E56EAA
:1024A0004BEC2DF0050EE12631D072EC2EF0046ECF
:1024B000036A72EC2EF0066A0326065004220450CA
:1024C000E56E0350E56E0250E56E0150E56E00507A
:1024D000E56E3AEC1EF0050EE12618D072EC2EF0F7
:1024E000046E036A72EC2EF0066A0326065004227C
:1024F0000450E56E0350E56E0250E56E0150E56E46
:102500000050E56E51EC23F0050EE126E4CF0BF010
:10251000E4CF0AF0E4CF09F0E4CF08F0E4CF07F00D
:10252000E4CF06F0E4CF05F0E4CF04F0E4CF03F00D
:10253000E4CF02F0E4CF01F0E4CF00F0E4CFD9FF24
:10254000120000C0E5FF01C0E5FF02C0E5FF03C0C7
:10255000E5FF04C0E5FF05C0E5FF06C0E5FF2BEC85
:1025600021F08EEC1DF048EC2EF0006EF3CF01F060
:10257000F4CF02F0E9CF03F004013451005E35518D
:10258000015A3651025A3751035A039E3F0E035CDB
:1025900008E1FF0E025C05E1FF0E015C02E1FF0EA7
:1025A000005CD8B05CD148EC2EF0F3CF01F0F4CF52
:1025B00002F0E9CF03F0880F0401346F130E0120FD
:1025C000356F000E0220366F000E0320376F0BC0F0
:1025D000E5FFF2CF0BF0F29E0401A9510301006F59
:1025E0000401AA510301016F0401AB510301026F01
:1025F0000401AC510301036F0401AD510301046FE9
:102600000401AE510301056F0401AF510301066FD0
:102610000401B0510301076F0401B1510301086FB8
:102620000401B2510301096F0401B35103010A6FA0
:102630000401B45103010B6F0401B55103010C6F88
:102640000401AD6BAE6BAF6BB06B0BBEF28EE4CF23
:102650000BF0800EE56E040EE56E930EE56E05EC54
:1026600009F0030EE1269EC478F39FC479F30301B9
:102670007951800F7C0F02E1000E785D04E30301C5
:102680007869030E796F03017951800F840F02E19D
:10269000010E785D05E2010E0301786FFC0E796F83
:1026A00003017951800F800F02E1010E785D10E384
:1026B00003017951800FF36E04019751800FF35C91
:1026C00003E196510301785D03E20301786B796BB6
:1026D000D880030179AFD89015E30401971D016EEE
:1026E000961D006E004A012A0150800FF36E03010F
:1026F0007951800FF35C02E17851005C03E2030141
:10270000786B796B04019AA309D0B5A507D0D8805E
:10271000030179AFD89002E3786B796BD88003011D
:1027200079AFD89007E37851FF0F006E030E79213F
:10273000016E04D078C300F079C301F000C07AF3D1
:1027400001C07BF303017A51020BE840010BE8382A
:10275000E844F46E6650DF0BF410666E7A51010B9C
:10276000010BE838F46E6650EF0BF410666E7B35A3
:102770007B31016E7A31006E01340132003200503B
:10278000676ED880030179AFD89002E3898E01D0BB
:10279000899E0401B5A507D003017C5104E1040121
:1027A0009E6B9F6B936B0401B5A504D0010E0301D2
:1027B0007C6F02D003017C6B000EE56AF8EC16F02A
:1027C000E652010EE56EF8EC16F0E65203011B0727
:1027D0001B51D8A444D00401B835016EB935006E40
:1027E000013600360134030B016EBA51E844E84467
:1027F000FC0B0112BA35036EBB35026E033602368E
:102800000334030B03B0FC09036E046AB5B5042A54
:10281000056A066AB5B1062A0350E56E0250E56EF8
:102820000150E56E0050E56E0550E56E0450E56E12
:10283000E56A0650E56EB451E56EB351E56EB251EE
:10284000E56EB151E56E000EE56E370EE56EC60E13
:10285000E56EDEEC2BF00F0EE1261AC31BF3E4CF7E
:1028600006F0E4CF05F0E4CF04F0E4CF03F0E4CFCA
:1028700002F0E4CF01F0E4CF00F0120000C0E5FF69
:1028800001C0E5FF02C0E5FF03C0E5FF05C0E5FFAD
:102890008AEC31F0330ECD6E9D809F808A96899EA2
:1028A0008B80040189859396929E94900401929561
:1028B0009488820E006E0F0E016E0F0E036E380E9E
:1028C0000026035001220F0E036E800E005E03509F
:1028D000015A820E026E0F0E036E0F0E056E380E39
:1028E0000226055003220F0E056E800E025E055073
:1028F000035A02C0E9FF03C0EAFFEFCF02F00298DB
:1029000000C0E9FF01C0EAFF02C0EFFF9482820E1F
:10291000006E0F0E016E0F0E036E380E0026035070
:1029200001220F0E036E800E005E0350015A820ECC
:10293000026E0F0E036E0F0E056E380E0226055046
:1029400003220F0E056E800E025E0550035A02C070
:10295000E9FF03C0EAFFEFCF02F0029200C0E9FFF7
:1029600001C0EAFF02C0EFFF9486820E006E0F0ED8
:10297000016E0F0E036E380E0026035001220F0E5B
:10298000036E800E005E0350015A820E026E0F0E1F
:10299000036E0F0E056E380E0226055003220F0E31
:1029A000056E800E025E0550035A02C0E9FF03C0A7
:1029B000EAFFEFCF02F0029600C0E9FF01C0EAFF94
:1029C00002C0EFFF0C0E666E669A6698676A040195
:1029D000936B020E946F956B0A0E966F976B100EA9
:1029E000986F070E996F9A919A83800EE56E040E88
:1029F000E56EB60EE56ECBEC29F0030EE126800EF7
:102A0000E56E040EE56ED70EE56E7AEC1FF0030E50
:102A1000E126800EE56E040EE56EC60EE56E7AECDC
:102A20001FF0030EE1260401B16BB26BB36BB46B04
:102A3000B591B5959C6B9D6B9E6B9F6BA46BA56BC5
:102A4000A66BA76B1DEC29F08B9A949A200EE56E6D
:102A5000800EE56E0F0EE56E8B0EE56E000EE56ADC
:102A6000DDEC26F0050EE1268B9C949C400EE56E75
:102A7000800EE56E0F0EE56E8B0EE56E010EE56EB7
:102A8000DDEC26F0050EE1260F015D9B5D990F013F
:102A90005E6B0F01579B57990F01586BBD9ABD98FC
:102AA000BE6A949E0F015A6B0F015A830C0E0F01E0
:102AB0005D6F93900F01576F9392B96AB984BD6EA1
:102AC000800EE56E000EE56EE00EE56ECBEC29F0B3
:102AD000030EE126800EE56E000EE56EF00EE56E4B
:102AE000CBEC29F0030EE126270EE56E100EE56E05
:102AF000800EE56E000EE56EE00EE56E3AEC1EF01F
:102B0000050EE126270EE56E100EE56E800EE56ED1
:102B1000000EE56EF00EE56E3AEC1EF0050EE126B5
:102B20006BEC31F004019A83040E996F0A0E946FD6
:102B3000956B03017C6B48EC2EF0F3CF01F0F4CFE2
:102B400002F0E9CF03F0880F0401346F130E012067
:102B5000356F000E0220366F000E0320376FE4CF72
:102B600005F0E4CF03F0E4CF02F0E4CF01F0E4CFCE
:102B700000F01200D9CFE5FFE1CFD9FF00C0E5FF9B
:102B800001C0E5FF02C0E5FF03C0E5FF04C0E5FFAB
:102B900005C0E5FF06C0E5FF07C0E5FF08C0E5FF8B
:102BA000020EDBCF00F0030EDBCF01F0040EDBCF13
:102BB00002F0036A046A72EC2EF0056EFE0A01E070
:102BC00075D01EEC2AF072EC2EF0066E040E065C38
:102BD000D8B05AD0FA6AFB6A0634FA36E834FA36C4
:102BE000FC0BF20FE56E2B0EFA22000EFB22E450D6
:102BF000F96E01EF16F00DEF16F020EF16F033EF3F
:102C000016F000C0E9FF01C0F3FF0250DBEC30F02A
:102C1000076E07C003F0046A37D00050010F076E3B
:102C2000000E0120086E000E022007C0E9FF08C058
:102C3000F3FFDBEC30F0076E07C003F0046A24D02A
:102C40000050020F076E000E0120086E000E0220D9
:102C500007C0E9FF08C0F3FFDBEC30F0076E07C0E8
:102C600003F0046A11D000500F0F076E000E012010
:102C7000086E000E022007C0E9FF08C0F3FF65ECF4
:102C800030F0036EF3CF04F00450E56E0350E56EB0
:102C9000E56A0650E56E000EE56E400EE56E140E18
:102CA000E56EDEEC2BF0070EE1268DD0040E055C00
:102CB000D8B089D0FA6AFB6A0534FA36E834FA36B5
:102CC000FC0BD20FE56E2C0EFA22000EFB22E45014
:102CD000F96E71EF16F07EEF16F0A9EF16F0BFEF68
:102CE00016F072EC2EF0036E03C0E5FF00C0E9FFA2
:102CF00001C0F3FF025056EC31F065D00050010FD7
:102D0000036E000E0120046E000E0220056E72ECB0
:102D10002EF0066E06C0E5FF03C0E9FF04C0F3FF16
:102D2000055056EC31F00650D8A44DD00050030F9A
:102D3000036E000E0120046E000E0220E56AF46AA4
:102D4000F66AF76A03C0E9FF04C0F3FFCAEC30F08B
:102D50003AD00050020F036E000E0120046E000EE8
:102D60000220056E72EC2EF0066E06C0E5FF03C071
:102D7000E9FF04C0F3FF055056EC31F024D00F0EEC
:102D80000026000E0122022272EC2EF0066E056A69
:102D9000E56A06C0F4FF00C0E9FF01C0F3FF02507E
:102DA00033EC31F072EC2EF0046A05260450062252
:102DB00005C0E5FF06C0F4FF00C0E9FF01C0F3FF56
:102DC000025033EC31F0E4CF08F0E4CF07F0E4CF69
:102DD00006F0E4CF05F0E4CF04F0E4CF03F0E4CF55
:102DE00002F0E4CF01F0E4CF00F0E4CFD9FF12000D
:102DF000D9CFE5FFE1CFD9FF00C0E5FF01C0E5FF76
:102E000002C0E5FF03C0E5FF04C0E5FF05C0E5FF24
:102E100006C0E5FF07C0E5FF08C0E5FF09C0E5FF04
:102E20000AC0E5FF0BC0E5FF0CC0E5FF020EDBCFDB
:102E300000F00050100DF450026EF3CF01F0E00EE0
:102E40000126000E02220250046E0150036E800E15
:102E5000E56E0450E56E0350E56E0EEC00F0030ED7
:102E6000E1260050020DF450046EF3CF03F0330E50
:102E700003260F0E042203C0E9FF04C0EAFFEECFD1
:102E800005F0EFCF06F0020E0126D8B0022A01C0ED
:102E9000E9FF02C0EAFFEECF07F0EECF08F0EECF79
:102EA00009F0EFCF0AF00736083607360836073440
:102EB000030B0818081A0818076E0950E844E8447C
:102EC000FC0B081209360A3609360A360934030B98
:102ED00009B0FC090A180A1A0A18096EE86A06BE3F
:102EE000FF0E0B6E0C6E055007180AE1065008180D
:102EF00007E10B50091804E10C500A1801E155D004
:102F000003C0E9FF04C0EAFF07C0EEFF08C0EFFFFF
:102F100001C0E9FF02C0EAFFEECF01F0EECF02F000
:102F2000EECF03F0EFCF04F0013602360136023661
:102F30000134030B0218021A0218016E0350E84410
:102F4000E844FC0B02120250E56E0150E56E0050A1
:102F5000E56EB4EC2DF0030EE1260050040DF450A4
:102F6000026EF3CF01F0810E0126040E022248EC1E
:102F70002EF0036EF3CF04F0F4CF05F0E9CF06F0A6
:102F8000400E03260D0E0422030E0522000E06221B
:102F900001C0E9FF02C0EAFF03C0EEFF04C0EEFF7C
:102FA00005C0EEFF06C0EFFF3CD048EC2EF0016EEE
:102FB000F3CF02F0F4CF03F0E9CF04F00050040D9A
:102FC000F450066EF3CF05F0810E0526040E06229E
:102FD00005C0E9FF06C0EAFFEECF05F0EECF06F030
:102FE000EECF07F0EFCF08F00550015E0650025A11
:102FF0000750035A0850045A049E3F0E045C08E12F
:10300000FF0E035C05E1FF0E025C02E1FF0E015CB6
:1030100008E2E56AE56A0050E56EB4EC2DF0030EB7
:10302000E126E4CF0CF0E4CF0BF0E4CF0AF0E4CFDC
:1030300009F0E4CF08F0E4CF07F0E4CF06F0E4CFE6
:1030400005F0E4CF04F0E4CF03F0E4CF02F0E4CFE6
:1030500001F0E4CF00F0E4CFD9FF1200D9CFE5FFB3
:10306000E1CFD9FF00C0E5FF01C0E5FF02C0E5FFE9
:1030700003C0E5FF04C0E5FF05C0E5FF06C0E5FFAE
:1030800007C0E5FF020EDBCF00F0030EDBCF01F03F
:10309000040EDBCF02F0050EDBCF03F0060EDBCF14
:1030A00004F0070EDBCF05F0080EDBCF06F0090EAB
:1030B000DBCF07F000500301526F0150536F0250F5
:1030C000546F0350556F04500301566F0550576FEE
:1030D0000650586F0750596F0301525103015803AE
:1030E000F4CF01F0F3CF00F0005003015C6F01500A
:1030F0005D6F0301525103015603F4CF01F0F3CF8A
:1031000000F0005003015A6F01505B6F03015551ED
:1031100003015603F3CF00F003015D510026005078
:103120005D6F0301545103015703F3CF01F00150C8
:103130000026005003015D6F030154510301560343
:10314000F4CF01F0F3CF00F003015C5100265D5194
:10315000012200505C6F01505D6F03015351030168
:103160005703F4CF03F0F3CF02F0025000260350D0
:103170000122005003015C6F01505D6F0301535148
:1031800003015803F3CF00F000500301616F030106
:10319000535103015603F4CF01F0F3CF00F0005078
:1031A00003015F6F0150606F030152510301590326
:1031B000F3CF00F000500301656F0301525103018A
:1031C0005703F4CF01F0F3CF00F000500301636F19
:1031D0000150646F03015E6B0301626B03015E517A
:1031E00003015A25006E03015F5103015B21016E4B
:1031F0000301605103015C21026E0301615103016F
:103200005D21036E00505A6F01505B6F02505C6F7E
:1032100003505D6F0301625103015A25006E0301E3
:10322000635103015B21016E0301645103015C21C1
:10323000026E0301655103015D21036E03C0E9FFC6
:1032400002C0F4FF01C0F3FF0050E4CF07F0E4CF69
:1032500006F0E4CF05F0E4CF04F0E4CF03F0E4CFD0
:1032600002F0E4CF01F0E4CF00F0E4CFD9FF120088
:1032700000C0E5FF01C0E5FF03012151D8B4F7D03C
:10328000A3A81DD0A4A81BD0030187510301841952
:1032900005E109EC31F00301846BE9D0000E030174
:1032A0008725006E016A040E012200C0E9FF01C0FB
:1032B000EAFFEFCF80F3872B80C373FFD8D0A3AA98
:1032C000D6D0A4AAD4D071A205D00301858109EC7F
:1032D00031F0CDD071A405D00301858309EC31F024
:1032E000C6D071A03ED074CF80F3800E03012211AE
:1032F0000301801904E1030185897196B8D00301A7
:10330000805104E080510301221927E103018599CE
:1033100071960301805103E00301859702D00301F8
:10332000858780C389F382C38AF303018205030181
:103330008B6F600E03018A25006E016A000E012268
:1033400000C0E9FF01C0EAFF80C3EFFF8A2B8A516A
:10335000800A02E103018A6B8AD003018599718694
:1033600086D074CF80F3030185A919D0800E0301A4
:1033700022110301801911E1A39A7198929A030115
:10338000845104E1736A09EC31F007D000C473FF83
:10339000010E0301876FA3886AD0718668D003018C
:1033A00080510301892703018A5103018B191BE115
:1033B000030189510CE18AC382F3030185B712D05E
:1033C000A39A7198929A736A09EC31F00BD00301B9
:1033D000858585B707D0A39A7198929A010E736E6E
:1033E00009EC31F044D003018A510301831908E14B
:1033F000030183510301821903E009EC31F037D056
:1034000082C300F0016A004A012AE56A800EE56E77
:103410000150E56E0050E56ED0EC24F0006E040E15
:10342000E12600500301816F03018A190CE11F0E90
:103430000301801503018B6F8B2B8B2B03018251B2
:1034400003018B278B9F8AC300F003018A2B016A3B
:10345000600E0026000E012200C0E9FF01C0EAFF55
:1034600080C3EFFF8A51800A02E103018A6BE4CF37
:1034700001F0E4CF00F01200D9CFE5FFE1CFD9FF92
:1034800000C0E5FF01C0E5FF02C0E5FF03C0E5FFA6
:1034900004C0E5FF05C0E5FF06C0E5FF07C0E5FF86
:1034A00008C0E5FF09C0E5FF0AC0E5FF0BC0E5FF66
:1034B0000CC0E5FF0DC0E5FF0EC0E5FF0FC0E5FF46
:1034C000020EDBCF00F0030EDBCF01F0040EDBCFEA
:1034D00002F0050EDBCF03F0060EDBCF04F0070E83
:1034E000DBCF05F0080EDBCF06F0200E076E086A72
:1034F00006C009F00A6A0B6A0C6AE56AE56AE56AC1
:103500000950E56E0350E56E0250E56E0150E56E20
:103510000050E56EDDEC1EF00D6E080EE126300E5B
:103520000D263A0E0D5C05E30D500E6E270E0E248F
:103530000D6EFF0E07260822390E07240E6E040EAC
:1035400008200F6E0EC0E9FF0FC0EAFF0DC0EFFFAD
:103550000C50E56E0B50E56E0A50E56E0950E56EB5
:103560000350E56E0250E56E0150E56E0050E56EC9
:103570000EEC20F0006EF3CF01F0F4CF02F0E9CFB3
:1035800003F0080EE1260050011002100310D8A429
:10359000AFD707C000F008C001F004C002F005C0BA
:1035A00003F000C004F001C005F0004A012A390E02
:1035B0000426040E052204C0E9FF05C0EAFFEFCF90
:1035C00004F002C0E9FF03C0EAFF04C0EFFF024AB3
:1035D000032A000E015C02E1200E005CE2E302C05F
:1035E000E9FF03C0EAFF000EEF6AE4CF0FF0E4CF7B
:1035F0000EF0E4CF0DF0E4CF0CF0E4CF0BF0E4CF0D
:103600000AF0E4CF09F0E4CF08F0E4CF07F0E4CF0C
:1036100006F0E4CF05F0E4CF04F0E4CF03F0E4CF0C
:1036200002F0E4CF01F0E4CF00F0E4CFD9FF1200C4
:1036300000C0E5FF01C0E5FF02C0E5FF03C0E5FFF4
:1036400017EC31F09EA0B6D0006A82B2002A00507A
:10365000010BF46E04019B51FE0BF4109B6F82B8BA
:103660000AD0B5B105D0B16BB26BB36BB46BB58199
:103670000401B58502D00401B595006A04019BB12F
:10368000002A016A9BB5012A0050011801E18ED081
:10369000006A04019BB1002A0050010BE844E84491
:1036A000F46E9B51FB0BF4109B6FA951AD5D006E46
:1036B000AA51AE59016EAB51AF59026EAC51B0591F
:1036C000036E0050AD6F0150AE6F0250AF6F0350EC
:1036D000B06F030126510401A96F030127510401B2
:1036E000AA6F030128510401AB6F030129510401A2
:1036F000AC6F0301265100262751012228510222D6
:103700002951032200500401AD6F0150AE6F0250E9
:10371000AF6F0350B06F006A82B6002A0050010BF1
:10372000E844F46E9B51FD0BF4109B6F006A9BB153
:10373000002A016A9BB3012A0150D880E866D8901C
:10374000016A01360150001A005019E0B1C400F0BE
:10375000B2C401F0B3C402F0B4C403F0002A04E31D
:10376000012A02E3024A032A00500401B16F01500A
:10377000B26F0250B36F0350B46FB58317D0B1C4AA
:1037800000F0B2C401F0B3C402F0B4C403F0FF0E01
:10379000002601220222032200500401B16F0150D1
:1037A000B26F0250B36F0350B46FB593CF68C10EC0
:1037B000CE6E9E90E4CF03F0E4CF02F0E4CF01F0B0
:1037C000E4CF00F01200434D20256C6420256420D6
:1037D000256420256C640A0043002563000000C0B6
:1037E000E5FF01C0E5FF02C0E5FF03C0E5FF72ECA5
:1037F0002EF0006E020A18E00050330A1AE0005062
:10380000340A01E141D00050350A01E168D000508E
:10381000650A01E18BD00050660A01E192D00050A8
:10382000780A01E199D0A2D072EC2EF003011A6F50
:103830009DD072EC2EF0036E026A72EC2EF0016ADB
:103840000226015003220250020BE840010BE83827
:10385000E844F46E0F015D51DF0BF4105D6F025010
:10386000010B010BE838F46E5D51EF0BF4105D6F46
:10387000D8900330016E0230006ED89001320032D1
:1038800000500F015E6F72D072EC2EF0036E026A70
:1038900072EC2EF0016A0226015003220250020B44
:1038A000E840010BE838E844F46E0F015751DF0B94
:1038B000F410576F0250010B010BE838F46E5751AA
:1038C000EF0BF410576FD8900330016E0230006E8A
:1038D000D8900132003200500F01586F47D072EC7F
:1038E0002EF0036E026A72EC2EF0016A022601507D
:1038F00003220250020BE840010BE838E844F46E62
:10390000BD50DF0BF410BD6E0250010B010BE83807
:10391000F46EBD50EF0BF410BD6ED890033202323E
:10392000D890033202320250BE6E20D0800EE56E77
:10393000000EE56EE00EE56EEEEC10F0030EE126F3
:1039400015D0800EE56E000EE56EF00EE56EEEEC25
:1039500010F0030EE1260AD0800EE56E040EE56E2F
:10396000930EE56EC2EC0EF0030EE126E4CF03F0F9
:10397000E4CF02F0E4CF01F0E4CF00F01200D9CFA1
:10398000E5FFE1CFD9FF00C0E5FF01C0E5FF02C0C0
:10399000E5FF03C0E5FF04C0E5FF05C0E5FF06C085
:1039A000E5FF07C0E5FF08C0E5FF09C0E5FF0AC065
:1039B000E5FF0BC0E5FF0CC0E5FF0DC0E5FF020E03
:1039C000DBCF00F0030EDBCF01F0040EDBCF02F003
:1039D000050EDBCF03F0060EDBCF04F0070EDBCFC6
:1039E00005F0080EDBCF06F0090EDBCF07F0D8801C
:1039F00003AED890086A083608500FE0031C0C6E1E
:103A0000021C0B6E011C0A6E001C096E092A0DE1D6
:103A10000A2A0BE10B4A0C2A08D000C009F001C0A9
:103A20000AF002C00BF003C00CF0D88007AED890AB
:103A3000006A003600500FE0071C0D6E061C036E76
:103A4000051C026E041C016E012A0DE1022A0BE125
:103A5000034A0D2A08D004C001F005C002F006C0D8
:103A600003F007C00DF00D50E56E0350E56E0250F7
:103A7000E56E0150E56E0C50E56E0B50E56E0A5098
:103A8000E56E0950E56E0EEC20F0016EF3CF02F00A
:103A9000F4CF03F0E9CF04F0080EE1260050081A35
:103AA000085016E0041C076E031C066E021C056E0F
:103AB000011C006E002A04E1052A02E1064A072AD9
:103AC00007C0E9FF06C0F4FF05C0F3FF005007D0B0
:103AD00004C0E9FF03C0F4FF02C0F3FF0150E4CFCC
:103AE0000DF0E4CF0CF0E4CF0BF0E4CF0AF0E4CF1C
:103AF00009F0E4CF08F0E4CF07F0E4CF06F0E4CF1C
:103B000005F0E4CF04F0E4CF03F0E4CF02F0E4CF1B
:103B100001F0E4CF00F0E4CFD9FF120000C0E5FFD0
:103B200001C0E5FF02C0E5FF03C0E5FF0F014EB194
:103B300098D048EC2EF0006EF3CF01F0F4CF02F0F5
:103B4000E9CF03F003014E51005E4F51015A50512D
:103B5000025A5151035A039E3F0E035C08E1FF0EC7
:103B6000025C05E1FF0E015C02E1FF0E005C16E263
:103B70009FEC31F048EC2EF0F3CF01F0F4CF02F0DF
:103B8000E9CF03F0500F03014E6F460E01204F6F37
:103B9000000E0220506F000E0320516F080E03012B
:103BA000245DD8B05ED02451020DF450016EF3CFE5
:103BB00000F0590E0026040E012200C0E9FF01C0EA
:103BC000EAFFEECF02F0EFCF03F00250031002E164
:103BD000242B47D003012451030DF450036EF3CF7F
:103BE00002F0E80E0226040E032202C0E9FF03C021
:103BF000EAFFEECF66F3EECF67F3EFCF68F3760E12
:103C00002425026E036A040E032202C0E9FF03C0EA
:103C1000EAFFEFCF8FF300C0E9FF01C0EAFFEECF6C
:103C200000F0EFCF01F0001E011E01500F01506F98
:103C300000500F014F6F7E9204C0E5FFF2CF04F0F9
:103C4000F29E03016651E96E6751EA6E03018F51DE
:103C5000EF120F014E8104BEF28EE4CF04F0030197
:103C6000242BE4CF03F0E4CF02F0E4CF01F0E4CF63
:103C700000F01200D9CFE5FFE1CFD9FF00C0E5FF8A
:103C800001C0E5FF02C0E5FF03C0E5FF04C0E5FF9A
:103C900005C0E5FF06C0E5FF07C0E5FF08C0E5FF7A
:103CA00009C0E5FF0AC0E5FF0BC0E5FF0CC0E5FF5A
:103CB0000DC0E5FF020EDBCF00F0030EDBCF01F0FD
:103CC000040EDBCF02F0050EDBCF03F0060EDBCFD8
:103CD00004F003C0E5FF04C0F4FF00C0E9FF01C029
:103CE000F3FF025033EC31F00050020F056E000E6E
:103CF0000120066E000E0220076EE86A04BEFF0E69
:103D0000086E096E08400C6E0C4209400D6E0D42A3
:103D1000C00E0D160C140C180D120C1A0450E840AD
:103D2000E8403F0B0C1203400A6E0A4204400B6E3F
:103D30000B42C00E0B160A140A180B120A1A0AC0FC
:103D4000E5FF0BC0F4FF0CC0F6FF0DC0F7FF05C088
:103D5000E9FF06C0F3FF0750CAEC30F0080E00265A
:103D6000000E01220222E56AF46AF66AF76A00C0D0
:103D7000E9FF01C0F3FF0250CAEC30F0E4CF0DF0D0
:103D8000E4CF0CF0E4CF0BF0E4CF0AF0E4CF09F07D
:103D9000E4CF08F0E4CF07F0E4CF06F0E4CF05F07D
:103DA000E4CF04F0E4CF03F0E4CF02F0E4CF01F07D
:103DB000E4CF00F0E4CFD9FF1200D9CFE5FFE1CF87
:103DC000D9FF00C0E5FF01C0E5FF02C0E5FF03C069
:103DD000E5FF04C0E5FF05C0E5FF06C0E5FF07C03D
:103DE000E5FF08C0E5FF09C0E5FF0AC0E5FF020ED8
:103DF000DBCF00F0030EDBCF01F0040EDBCF02F0CF
:103E0000050EDBCF03F0060EDBCF04F0070EDBCF91
:103E100005F0080EDBCF06F0090EDBCF07F0086ACD
:103E2000045005100610071005E1E968F468F3680E
:103E3000E86847D0096A0750800BE8440A6E0A50C8
:103E40001BE1045004260536063607360750035C8E
:103E500008E10650025C05E10550015C02E10450F6
:103E6000005C06E2D890073206320532043204D0F4
:103E7000092A09C008F0DFD70750035C08E10650A3
:103E8000025C05E10550015C02E10450005C08E3BE
:103E90000450005E0550015A0650025A0750035A5A
:103EA000D890073206320532043208C009F00806FD
:103EB0000950E2E103C0E9FF02C0F4FF01C0F3FFD3
:103EC0000050E4CF0AF0E4CF09F0E4CF08F0E4CFEB
:103ED00007F0E4CF06F0E4CF05F0E4CF04F0E4CF40
:103EE00003F0E4CF02F0E4CF01F0E4CF00F0E4CF40
:103EF000D9FF1200D9CFE5FFE1CFD9FF00C0E5FF20
:103F000001C0E5FF02C0E5FF03C0E5FF04C0E5FF17
:103F100005C0E5FF06C0E5FF07C0E5FF020EDBCFE9
:103F200000F0030EDBCF01F0040EDBCF02F00050F7
:103F30000B0F036E000E0120046E000E0220E56AD6
:103F4000F46AF66AF76A03C0E9FF04C0F3FFCAEC3B
:103F500030F00050070F036E000E0120046E000EBB
:103F60000220056E0050030F066E000E0120076E42
:103F7000000E0220E56AF46AF66AF76A06C0E9FFF5
:103F800007C0F3FFCAEC30F0E56AF46AF66AF76A34
:103F900003C0E9FF04C0F3FF0550CAEC30F0005045
:103FA000010F036E000E0120046E000E0220056E4C
:103FB0000050020F066E000E0120076E000E022058
:103FC000E56A06C0E9FF07C0F3FF56EC31F0E56A89
:103FD00003C0E9FF04C0F3FF055056EC31F0E56A79
:103FE00000C0E9FF01C0F3FF025056EC31F0E4CF0E
:103FF00007F0E4CF06F0E4CF05F0E4CF04F0E4CF1F
:1040000003F0E4CF02F0E4CF01F0E4CF00F0E4CF1E
:10401000D9FF120025642025640A0000D9CFE5FFEE
:10402000E1CFD9FF00C0E5FF01C0E5FF02C0E5FF19
:1040300003C0E5FF04C0E5FF05C0E5FF06C0E5FFDE
:1040400007C0E5FF08C0E5FF09C0E5FF0AC0E5FFBE
:104050000BC0E5FF0CC0E5FF0DC0E5FF020EDBCF96
:1040600000F0030EDBCF01F0040EDBCF02F0050EF3
:10407000DBCF03F0060EDBCF04F0070EDBCF05F03D
:10408000080EDBCF06F0090EDBCF07F0086A096ADD
:104090000A6A0B6A200E0C6E0350800BE8440D6E0A
:1040A000005000260136023603360850082609362D
:1040B0000A360B360D50D8A4088007500B5C08E177
:1040C00006500A5C05E10550095C02E10450085CF9
:1040D00009E30450085E0550095A06500A5A075071
:1040E0000B5A00800C040D6E0DC00CF00D50D4E185
:1040F00003C0E9FF02C0F4FF01C0F3FF0050E4CFAA
:104100000DF0E4CF0CF0E4CF0BF0E4CF0AF0E4CFF5
:1041100009F0E4CF08F0E4CF07F0E4CF06F0E4CFF5
:1041200005F0E4CF04F0E4CF03F0E4CF02F0E4CFF5
:1041300001F0E4CF00F0E4CFD9FF120000C0E5FFAA
:1041400001C0E5FF03C0E5FF04C0E5FF05C0E5FFD2
:1041500006C0E5FF07C0E5FF08C0E5FF09C0E5FFB1
:104160000AC0E5FF0BC0E5FF72C300F073C301F0A6
:104170000301723F01D0732B0050E56EFBEC30F071
:10418000E652076E046A056A066A72C300F073C3DA
:1041900001F00301723F01D0732B0050E56EFBEC80
:1041A00030F0E6520B6A0A6E086A085004120512D3
:1041B0000A5006120B50071272C300F073C301F0CD
:1041C0000301723F01D0732B0050E56EFBEC30F021
:1041D000E652036E006A03C001F0E86A03BEFF0EF8
:1041E000086E096E005004120150051208500612A4
:1041F0000950071272C300F073C301F00301723F4C
:1042000001D0732B0050E56EFBEC30F0E652016AF2
:104210000412015005120612071207C0E9FF06C07A
:10422000F4FF05C0F3FF0450E4CF0BF0E4CF0AF035
:10423000E4CF09F0E4CF08F0E4CF07F0E4CF06F0D4
:10424000E4CF05F0E4CF04F0E4CF03F0E4CF01F0D5
:10425000E4CF00F0120000C0E5FF01C0E5FF02C09E
:10426000E5FF03C0E5FF04C0E5FF0301835103013F
:10427000821901E15FD083C300F0002A009E600E26
:104280000024016E026A000E022201C0E9FF02C092
:10429000EAFFEFCF8DF31F0E03018D1783C38CF35D
:1042A0008D5103018C278C2B8C2B8C9F72EC2EF064
:1042B000016E015003E1016A012A01D0016A72EC2A
:1042C0002EF003018D6F800E8D15026E1F0E8D1561
:1042D000036E03C004F003C08DF3045003E182C3F6
:1042E00083F33BD001501BE0025022E072EC2EF031
:1042F000006E03018D070050420A1AE000504E0A7A
:1043000003E15BEC2BF014D00050460A03E14BECC8
:1043100031F00ED00050490A0BE1FF0009D083C3F1
:104320008EF3025003E070EC2AF002D0EFEC1BF0A9
:104330008CC383F303011E5103011F1906E003011F
:10434000845103E144EC22F008D092BA06D0030174
:10435000845103E172B209EC31F0E4CF04F0E4CF10
:1043600003F0E4CF02F0E4CF01F0E4CF00F012005C
:10437000D9CFE5FFE1CFD9FF00C0E5FF01C0E5FFE0
:1043800002C0E5FF03C0E5FF04C0E5FF05C0E5FF8F
:1043900006C0E5FF07C0E5FF020EDBCF00F0030E0D
:1043A000DBCF01F0040EDBCF02F0050EDBCF03F014
:1043B00002C006F00650046E800A33E100C0E9FF37
:1043C00001C0F3FF0250A6EC2FF0056EF3CF06F00C
:1043D000F4CF07F003C0E5FF05C0E9FF06C0F3FF17
:1043E000075056EC31F000C0E9FF01C0F3FF025066
:1043F000A6EC2FF0056EF3CF06F0F4CF07F0052AF8
:1044000002E3064A072A05C0E5FF06C0F4FF07C01D
:10441000F6FF00C0E9FF01C0F3FF0250ECEC30F002
:1044200020D004C000F000AA1CD0007A0050046E16
:1044300004E103508FEC31F014D00450010A04E180
:10444000035002EC00F00DD004500F0A04E10350B9
:10445000E6EC2DF006D004500E0A03E10350A2EC66
:1044600031F0E4CF07F0E4CF06F0E4CF05F0E4CF7D
:1044700004F0E4CF03F0E4CF02F0E4CF01F0E4CFA6
:1044800000F0E4CFD9FF120000C0E5FF01C0E5FF56
:1044900002C0E5FF03C0E5FF72A276D04CEC2FF01E
:1044A000006E005005E103011F6B03011E6B6CD011
:1044B0001FC301F0005001264CEC2FF0026E0006E5
:1044C0000250230A1FE1010E005CD8A05BD04CEC27
:1044D0002FF0026E690A03E117EC2EF053D0025060
:1044E000720A03E109EC31F04DD00250730A01E089
:1044F00049D0928A7186A38AA39874507450719897
:10450000718840D00250430A05E00250420A01E09F
:1045100039D001D0008E00C086F300500401006F36
:10452000010E0301876F03011F51011814E04CECC9
:104530002FF0026E03018627000E03018725006E0F
:10454000036A040E032200C0E9FF03C0EAFF02C0B1
:10455000EFFF872BE8D7000E03018725006E026A64
:10456000040E02220301861D036E032A00C0E9FF28
:1045700002C0EAFF03C0EFFF0301872B87C384F368
:1045800003017E6B01C01FF3E4CF03F0E4CF02F020
:10459000E4CF01F0E4CF00F01200D9CFE5FFE1CF86
:1045A000D9FF00C0E5FF01C0E5FF02C0E5FF03C081
:1045B000E5FF04C0E5FF05C0E5FF06C0E5FF020E0C
:1045C000DBCF00F0030EDBCF01F0040EDBCF02F0F7
:1045D000050EDBCF03F003C004F0056A0350D8B426
:1045E0004FD000C0E9FF01C0F3FF0250DBEC30F018
:1045F000066E430A03E1010E056E038E0406002ACF
:1046000002E3014A022AA39A7198929AA398A4A855
:10461000FED77280736A0000A4A8FED7729003C010
:1046200073FF0000A4A8FED7055004E0420E736E8D
:10463000032604D0620E736E620E0326045015E04A
:104640000000A4A8FED700C0E9FF01C0F3FF02509C
:10465000DBEC30F0056E05C073FF05500326040641
:10466000002A02E3014A022AE9D70000A4A8FED7E3
:10467000031C736E732A0000A4A8FED709EC31F066
:10468000E4CF06F0E4CF05F0E4CF04F0E4CF03F08C
:10469000E4CF02F0E4CF01F0E4CF00F0E4CFD9FFA3
:1046A0001200D9CFE5FFE1CFD9FF00C0E5FF01C07F
:1046B000E5FF02C0E5FF03C0E5FF04C0E5FF05C05C
:1046C000E5FF06C0E5FF07C0E5FF08C0E5FF09C03C
:1046D000E5FF0AC0E5FF020EDBCF00F0030EDBCFE3
:1046E00001F0040EDBCF02F0050EDBCF03F0060E67
:1046F000DBCF04F003C0E5FF04C0F4FF00C0E9FF16
:1047000001C0F3FF025033EC31F0020E0026000E20
:104710000122022204BEFF0E056E066E0540096EE0
:10472000094206400A6E0A42C00E0A160914091808
:104730000A12091A0450E840E8403F0B09120340EE
:10474000076E07420440086E0842C00E08160714A0
:1047500007180812071A07C0E5FF08C0F4FF09C0D0
:10476000F6FF0AC0F7FF00C0E9FF01C0F3FF0250E7
:10477000CAEC30F0E4CF0AF0E4CF09F0E4CF08F05F
:10478000E4CF07F0E4CF06F0E4CF05F0E4CF04F087
:10479000E4CF03F0E4CF02F0E4CF01F0E4CF00F087
:1047A000E4CFD9FF1200D9CFE5FFE1CFD9FF00C098
:1047B000E5FF01C0E5FF02C0E5FF03C0E5FF04C05F
:1047C000E5FF05C0E5FF06C0E5FF07C0E5FF08C03F
:1047D000E5FF09C0E5FF0AC0E5FF0BC0E5FF0CC01F
:1047E000E5FF020EDBCF00F0030EDBCF01F0040E7D
:1047F000DBCF02F0050EDBCF03F0060EDBCF04F0BB
:10480000070EDBCF05F0080EDBCF06F0090EDBCF7D
:1048100007F002500A6E0150096E0050086E06C083
:104820000BF007C00CF0FF0E062607220B500C10F1
:104830001AE003C0E9FF04C0F3FF0550DBEC30F0E1
:104840000B6E032A02E3044A052A0BC0E5FF08C0E9
:10485000E9FF09C0F3FF0A5056EC31F0082ADFE304
:10486000094A0A2ADCD702C0F4FF01C0F3FF005056
:10487000E4CF0CF0E4CF0BF0E4CF0AF0E4CF09F082
:10488000E4CF08F0E4CF07F0E4CF06F0E4CF05F082
:10489000E4CF04F0E4CF03F0E4CF02F0E4CF01F082
:1048A000E4CF00F0E4CFD9FF1200D9CFE5FFE1CF8C
:1048B000D9FF00C0E5FF01C0E5FF02C0E5FF03C06E
:1048C000E5FF04C0E5FF05C0E5FF06C0E5FF07C042
:1048D000E5FF020EDBCF00F0030EDBCF01F0040E8C
:1048E000DBCF02F0050EDBCF03F01FC320F3030183
:1048F0001E510301205F200703C004F0056A030E68
:104900000426D8B0052A20C306F0076A0750800F96
:10491000F36E0550800FF35C02E10450065C02E286
:10492000E8682BD0020E035C02E2E86A26D0030698
:104930000350E56E9AEC2CF0E652046A0350045CD6
:1049400014E204500024056EE86A0120066EE86A4D
:10495000022005C0E9FF06C0F3FFDBEC30F0042ABB
:10496000E56E9AEC2CF0E652E9D71FC320F3030161
:104970001E510301205F2007E86AE4CF07F0E4CF6F
:1049800006F0E4CF05F0E4CF04F0E4CF03F0E4CF89
:1049900002F0E4CF01F0E4CF00F0E4CFD9FF120041
:1049A000D9CFE5FFE1CFD9FF00C0E5FF01C0E5FFAA
:1049B00002C0E5FF03C0E5FF04C0E5FF05C0E5FF59
:1049C00006C0E5FF020EDBCF00F0030EDBCF01F0E7
:1049D000040EDBCF02F0050EDBCF03F0D88001AE72
:1049E000D890046A0436045007E0011C066E001CCF
:1049F000056E054A062A04D000C005F001C006F085
:104A0000D88003AED89007E3031C016E021C006E31
:104A1000004A012A04D002C000F003C001F0015096
:104A2000E56E0050E56E0650E56E0550E56EC0EC93
:104A300028F0006EF3CF01F0040EE12604500AE0E6
:104A4000011C036E001C026E024A032A03C0F3FF1E
:104A5000025003D001C0F3FF0050E4CF06F0E4CFD2
:104A600005F0E4CF04F0E4CF03F0E4CF02F0E4CFAC
:104A700001F0E4CF00F0E4CFD9FF1200D9CFE5FF79
:104A8000E1CFD9FF00C0E5FF01C0E5FF02C0E5FFAF
:104A900003C0E5FF04C0E5FF05C0E5FF020EDBCF64
:104AA00000F0030EDBCF01F0040EDBCF02F0050EA9
:104AB000DBCF03F072C304F073C305F00301723F50
:104AC00001D0732B0350E56E0450E56EE9EC2EF037
:104AD000E652E65272C304F073C305F00301723F5D
:104AE00001D0732B0250056EE56E0450E56EE9ECC3
:104AF0002EF0E652E65272C304F073C305F00301D0
:104B0000723F01D0732B0150056EE56E0450E56EC7
:104B1000E9EC2EF0E652E65272C304F073C305F0DE
:104B20000301723F01D0732B0050E56E0450E56E17
:104B3000E9EC2EF0E652E652E4CF05F0E4CF04F0C3
:104B4000E4CF03F0E4CF02F0E4CF01F0E4CF00F0D3
:104B5000E4CFD9FF1200D9CFE5FFE1CFD9FF00C0E4
:104B6000E5FF01C0E5FF02C0E5FF03C0E5FF04C0AB
:104B7000E5FF05C0E5FF06C0E5FF020EDBCF00F054
:104B8000030EDBCF01F0040EDBCF02F003017D51F9
:104B900019E19EEC20F0036EF3CF04F0F4CF05F0A2
:104BA000E9CF06F003C0E5FF04C0F4FF05C0F6FF3F
:104BB00006C0F7FF00C0E9FF01C0F3FF0250CAECD6
:104BC00030F01ED003017D51010A1AE100C0E9FF57
:104BD00001C0F3FF02500DEC2FF0006EF3CF01F097
:104BE000F4CF02F0E9CF03F00350E56E0250E56E1A
:104BF0000150E56E0050E56E3EEC25F0040EE12616
:104C0000E4CF06F0E4CF05F0E4CF04F0E4CF03F006
:104C1000E4CF02F0E4CF01F0E4CF00F0E4CFD9FF1D
:104C20001200D9CFE5FFE1CFD9FF00C0E5FF01C0F9
:104C3000E5FF02C0E5FF03C0E5FF04C0E5FF020E8B
:104C4000DBCF00F0030EDBCF01F0040EDBCF02F070
:104C50000050070F036E000E0120046E000E0220AC
:104C6000E56E0450E56E0350E56E1EEC2CF0030E6D
:104C7000E1260050230F036E000E0120046E000E8B
:104C80000220E56E0450E56E0350E56E76EC29F0E7
:104C9000030EE1260050330F036E000E0120046E58
:104CA000000E0220E56E0450E56E0350E56E03EC45
:104CB00028F0030EE126440E0026000E01220222F7
:104CC0000250E56E0150E56E0050E56E03EC28F0F1
:104CD000030EE126E4CF04F0E4CF03F0E4CF02F0CA
:104CE000E4CF01F0E4CF00F0E4CFD9FF120000C020
:104CF000E5FF01C0E5FF02C0E5FF03C0E5FF04C01A
:104D0000E5FF72EC2EF0006EFE0A2DE11EEC2AF09B
:104D100072EC2EF0016E080E015CD8B043D0015049
:104D2000020DF450036EF3CF02F0590E0226040E6A
:104D3000032202C0E9FF03C0EAFFEECF02F0EFCF8B
:104D400003F00350E56E0250E56EE56A0150E56E32
:104D5000000EE56E520EE56EE40EE56EDEEC2BF015
:104D6000070EE1261FD0080E005C1CE272EC2EF04C
:104D7000046E036A72EC2EF0026A032602500422CB
:104D80000050020DF450016EF3CF00F0590E0026D2
:104D9000040E012200C0E9FF01C0EAFF03C0EEFFDC
:104DA00004C0EFFFE4CF04F0E4CF03F0E4CF02F05F
:104DB000E4CF01F0E4CF00F01200D9CFE5FFE1CF5E
:104DC000D9FF00C0E5FF01C0E5FF02C0E5FF03C059
:104DD000E5FF04C0E5FF05C0E5FF06C0E5FF020EE4
:104DE000DBCF00F0030EDBCF01F0040EDBCF02F0CF
:104DF000050EDBCF03F0060EDBCF04F00050030DF1
:104E0000F450066EF3CF05F0E80E0526040E0622D8
:104E100005C0E9FF06C0EAFF01C0EEFF02C0EEFFD9
:104E200003C0EFFF760E0024016E026A040E022218
:104E300001C0E9FF02C0EAFF04C0EFFF0050020D0D
:104E4000F450016EF3CF00F0590E0026040E01223B
:104E500000C0E9FF01C0EAFF000EEE6AEF6AE4CF8E
:104E600006F0E4CF05F0E4CF04F0E4CF03F0E4CFA4
:104E700002F0E4CF01F0E4CF00F0E4CFD9FF12005C
:104E8000D9CFE5FFE1CFD9FF00C0E5FF01C0E5FFC5
:104E900002C0E5FF03C0E5FF04C0E5FF05C0E5FF74
:104EA00006C0E5FF020EDBCF00F0030EDBCF01F002
:104EB000040EDBCF02F0050EDBCF03F0060EDBCFD6
:104EC00004F0070EDBCF05F0080EDBCF06F0D8802C
:104ED00003AED89015E306500A0A12E104C0E9FFB8
:104EE00005C0EAFF2D0EEF6E044A052A031E021EBE
:104EF000011E006C05E1012A03E1022AD8B4032A4D
:104F00000650E56E0550E56E0450E56E0350E56E03
:104F10000250E56E0150E56E0050E56E3CEC1AF073
:104F2000070EE126E4CF06F0E4CF05F0E4CF04F06D
:104F3000E4CF03F0E4CF02F0E4CF01F0E4CF00F0DF
:104F4000E4CFD9FF1200D8CFE5FFE0CFE5FFE56E53
:104F5000F3CFE5FFF4CFE5FFE9CFE5FFEACFE5FFCB
:104F6000FACFE5FFFBCFE5FFF6CFE5FFF6CFE5FF94
:104F7000F7CFE5FFF8CFE5FFF5CFE5FFE1CFE5FFA0
:104F8000E2CFE5FF03011C510301286F03011D510E
:104F90000301296FD650266FD750276FF2A411D086
:104FA00003011C3F01D01D2BF29403011C5103018E
:104FB000286F03011D510301296FD650266FD7506A
:104FC000276F18EC1BF0E4CFE2FFE4CFE1FFE4CF62
:104FD000F5FFE4CFF8FFE4CFF7FFE4CFF6FFE4CF2F
:104FE000F6FFE4CFFBFFE4CFFAFFE4CFEAFFE4CF24
:104FF000E9FFE4CFF4FFE4CFF3FFE450E4CFE0FFB8
:10500000E4CFD8FF1000D9CFE5FFE1CFD9FF00C032
:10501000E5FF01C0E5FF02C0E5FF03C0E5FF04C0F6
:10502000E5FF020EDBCF00F0030EDBCF01F0040E34
:10503000DBCF02F00250E56E0150E56E0050E56EE8
:105040001EEC2CF0030EE1260050010F036E000E43
:105050000120046E000E0220E56E0450E56E035040
:10506000E56E1EEC2CF0030EE1260050020F036EDD
:10507000000E0120046E000E0220E56E0450E56E65
:105080000350E56E1EEC2CF0030EE1260F0E0026F9
:10509000000E012202220250E56E0150E56E005022
:1050A000E56EBFEC2AF0030EE126E4CF04F0E4CF76
:1050B00003F0E4CF02F0E4CF01F0E4CF00F0E4CF5E
:1050C000D9FF1200D9CFE5FFE1CFD9FF00C0E5FF3E
:1050D00001C0E5FF02C0E5FF03C0E5FF04C0E5FF36
:1050E00005C0E5FF020EDBCF00F0030EDBCF01F0C1
:1050F000040EDBCF02F000500B0F036E000E0120F8
:10510000046E000E0220E56AF46AF66AF76A03C0CC
:10511000E9FF04C0F3FFCAEC30F00050070F036E44
:10512000000E0120046E000E0220056E030E002604
:10513000000E01220222E56AF46AF66AF76A00C0EC
:10514000E9FF01C0F3FF0250CAEC30F0E56AF46AEF
:10515000F66AF76A03C0E9FF04C0F3FF0550CAEC22
:1051600030F0E4CF05F0E4CF04F0E4CF03F0E4CF77
:1051700002F0E4CF01F0E4CF00F0E4CFD9FF120059
:10518000D9CFE5FFE1CFD9FF00C0E5FF01C0E5FFC2
:1051900002C0E5FF03C0E5FF04C0E5FF05C0E5FF71
:1051A00006C0E5FF020EDBCF00F0030EDBCF01F0FF
:1051B000040EDBCF02F0050EDBCF03F0046A056AB4
:1051C0000350800BE844066E065011E1025002269F
:1051D00003360350015C02E10250005C04E2D89007
:1051E0000332023204D0052A05C004F0E9D7035087
:1051F000015C02E10250005C04E30250005E0350D7
:10520000015AD8900332023204C005F0040605505A
:10521000EEE101C0F3FF0050E4CF06F0E4CF05F06B
:10522000E4CF04F0E4CF03F0E4CF02F0E4CF01F0E8
:10523000E4CF00F0E4CFD9FF120000C0E5FF01C0C9
:10524000E5FF02C0E5FF03C0E5FF0F014E6B0F0154
:105250004E894E837D827F827E92006A0050030DCC
:10526000F450026EF3CF01F0E80E0126040E022284
:1052700001C0E9FF02C0EAFFEE6AEE6AEF6A005081
:10528000020DF450026EF3CF01F0590E0126040E08
:10529000022201C0E9FF02C0EAFFEE6AEF6A002ABB
:1052A000080E005CDBE30301246B48EC2EF0F3CF27
:1052B00001F0F4CF02F0E9CF03F0500F03014E6F7D
:1052C000460E01204F6F000E0220506F000E03208B
:1052D000516FE4CF03F0E4CF02F0E4CF01F0E4CF6C
:1052E00000F0120025642025640A0000D9CFE5FFF4
:1052F000E1CFD9FF00C0E5FF01C0E5FF02C0E5FF37
:1053000003C0E5FF04C0E5FF020EDBCF00F0030E93
:10531000DBCF01F0040EDBCF02F00050060F036E6E
:10532000000E0120046E000E0220E56E0450E56EB2
:105330000350E56EBFEC2AF0030EE12600500C0F7F
:10534000036E000E0120046E000E0220E56E045074
:10535000E56E0350E56EBFEC2AF0030EE1260E0E5B
:105360000026000E012202220250E56E0150E56E79
:105370000050E56EBFEC2AF0030EE126E4CF04F006
:10538000E4CF03F0E4CF02F0E4CF01F0E4CF00F08B
:10539000E4CFD9FF1200D9CFE5FFE1CFD9FF00C09C
:1053A000E5FF01C0E5FF02C0E5FF03C0E5FF04C063
:1053B000E5FF020EDBCF00F0030EDBCF01F0040EA1
:1053C000DBCF02F0E56AF46A00C0E9FF01C0F3FF39
:1053D000025033EC31F00050020F036E000E01203A
:1053E000046E000E0220E56AF46AF66AF76A03C0EA
:1053F000E9FF04C0F3FFCAEC30F0080E0026000EEF
:1054000001220222E56AF46AF66AF76A00C0E9FF3F
:1054100001C0F3FF0250CAEC30F0E4CF04F0E4CF57
:1054200003F0E4CF02F0E4CF01F0E4CF00F0E4CFEA
:10543000D9FF120025642025640A000000C0E5FFA2
:1054400001C0E5FF02C0E5FF03C0E5FF83C300F034
:10545000016A8EC302F0036A0250005E0350015AD3
:10546000E56A800EE56E0150E56E0050E56ED0EC09
:1054700024F0006E040EE12600068EC301F0430EF8
:10548000E6EC2DF0200EE6EC2DF0005020E0600E52
:105490000124026E036A000E032202C0E9FF03C06A
:1054A000EAFFEFCF02F0E56A0250E56E000EE56E0E
:1054B000620EE56E2A0EE56EDEEC2BF0050EE1269F
:1054C000012A0150800A01E1016A0006DED7E4CF1B
:1054D00003F0E4CF02F0E4CF01F0E4CF00F01200DB
:1054E00000C0E5FF01C0E5FF02C0E5FF99EC31F027
:1054F000006E72EC2EF0016E4C0A03E172EC2EF09D
:1055000037D00150450A23E1000EE56E370EE56EF7
:10551000D80EE56EDEEC2BF0030EE126010E026ED6
:105520000050025C10E272EC2EF0E56AE56E000EAF
:10553000E56E370EE56EDA0EE56EDEEC2BF0050E4D
:10554000E126022AEDD70A0EE6EC2DF011D001502B
:10555000530A0EE172EC2EF0410A0AE172EC2EF0D1
:10556000560A06E172EC2EF0450A02E161EC31F0D8
:10557000E4CF02F0E4CF01F0E4CF00F01200D9CF85
:10558000E5FFE1CFD9FF00C0E5FF01C0E5FF02C0A4
:10559000E5FF03C0E5FF04C0E5FF020EDBCF00F02E
:1055A000030EDBCF01F0040EDBCF02F003017D51CF
:1055B00011E180EC2DF0036EF3CF04F003C0E5FFA2
:1055C00004C0F4FF00C0E9FF01C0F3FF025033EC58
:1055D00031F016D003017D51010A12E100C0E9FF4C
:1055E00001C0F3FF025065EC30F0006EF3CF01F024
:1055F0000150E56E0050E56E5DEC2CF0E652E6528F
:10560000E4CF04F0E4CF03F0E4CF02F0E4CF01F004
:10561000E4CF00F0E4CFD9FF1200FA0EF66E620E6E
:10562000F76E000EF86E0900F550056E0900F55092
:10563000066E04E1056702D05AEF2BF00900F55021
:10564000006E0900F550016E0900F550026E090068
:105650000900F550E96E0900F550EA6E09000900ED
:105660000900F550036E0900F550046E09000900A9
:10567000F6CF07F0F7CF08F0F8CF09F000C0F6FF3B
:1056800001C0F7FF02C0F8FF035002E1045007E039
:105690000900F550EE6E0306F8E20406F9D707C0DC
:1056A000F6FF08C0F7FF09C0F8FF050601E206068D
:1056B00019EF2BF0120000C0E5FF01C0E5FF02C0AA
:1056C000E5FF72EC2EF0006E72EC2EF0016E0050D1
:1056D000026ED00E0224006E0A0E005C05E300503C
:1056E000026EF90E0224006E0150026ED00E0224EA
:1056F000016E0A0E015C05E30150026EF90E0224F0
:10570000016E080E005C12E2100E015CD8B00ED0E3
:105710000038F00B0124006E11EC2DF0016E0150E9
:1057200005E10050E56EDBEC2FF0E652E4CF02F02D
:10573000E4CF01F0E4CF00F01200D8CFE5FFE0CFD6
:10574000E5FFE56EF3CFE5FFF4CFE5FFE9CFE5FF39
:10575000EACFE5FFFACFE5FFFBCFE5FFF6CFE5FFA8
:10576000F6CFE5FFF7CFE5FFF8CFE5FFF5CFE5FF93
:10577000E1CFE5FFE2CFE5FF38EC19F0E4CFE2FF3F
:10578000E4CFE1FFE4CFF5FFE4CFF8FFE4CFF7FF8C
:10579000E4CFF6FFE4CFF6FFE4CFFBFFE4CFFAFF60
:1057A000E4CFEAFFE4CFE9FFE4CFF4FFE4CFF3FF77
:1057B000E450E4CFE0FFE4CFD8FF1000D9CFE5FFFD
:1057C000E1CFD9FF00C0E5FF01C0E5FF02C0E5FF62
:1057D000020ED924006E000EDA20016E800E026ED9
:1057E000030E0026000E012202220250E56E015037
:1057F000E56E0050E56E040EDBCFE5FF030EDBCF58
:10580000E5FF020EDBCFE5FF03016B51E56E6A5148
:10581000E56E6951E56E05EC05F0006EF3CF01F021
:10582000090EE12601C0F3FF0050E4CF02F0E4CFFF
:1058300001F0E4CF00F0E4CFD9FF1200D9CFE5FFAB
:10584000E1CFD9FF00C0E5FF01C0E5FF02C0E5FFE1
:1058500003C0E5FF020EDBCF00F0030EDBCF01F04B
:10586000040EDBCF02F003017D510DE139EC30F085
:10587000036E03C0E5FF00C0E9FF01C0F3FF025063
:1058800056EC31F00FD003017D51010A0BE100C04D
:10589000E9FF01C0F3FF0250DBEC30F0E56EC3EC32
:1058A0002EF0E652E4CF03F0E4CF02F0E4CF01F0B3
:1058B000E4CF00F0E4CFD9FF1200D9CFE5FFE1CF6C
:1058C000D9FF00C0E5FF01C0E5FF02C0E5FF03C04E
:1058D000E5FF020EDBCF00F0030EDBCF01F072C359
:1058E00002F073C303F00301723F01D0732B015028
:1058F000E56E0250E56EE9EC2EF0E652E65272C318
:1059000002F073C303F00301723F01D0732B005008
:10591000E56E0250E56EE9EC2EF0E652E652E4CF79
:1059200003F0E4CF02F0E4CF01F0E4CF00F0E4CFE5
:10593000D9FF1200D9CFE5FFE1CFD9FF00C0E5FFC5
:1059400001C0E5FF02C0E5FF03C0E5FF04C0E5FFBD
:10595000020EDBCF00F01EC301F0026A014A022AE8
:105960001FC303F0046A0150031803E10250041836
:1059700001E001D00ED0000E03011E25016E026A67
:10598000010E022201C0E9FF02C0EAFF00C0EFFFE2
:105990001E2BE4CF04F0E4CF03F0E4CF02F0E4CF19
:1059A00001F0E4CF00F0E4CFD9FF1200D9CFE5FF3A
:1059B000E1CFD9FF00C0E5FF01C0E5FF02C0E5FF70
:1059C00003C0E5FF020EDBCF00F0016A8EC302F0D8
:1059D000036A0250002603500122E56A800EE56E3C
:1059E0000150E56E0050E56ED0EC24F0006EF3CF70
:1059F00001F0040EE126600E0026000E012200C018
:105A0000E9FF01C0EAFFEFCF00F00050E4CF03F060
:105A1000E4CF02F0E4CF01F0E4CF00F0E4CFD9FF0F
:105A2000120000C0E5FF01C0E5FF02C0E5FF010E66
:105A3000006E72EC2EF0016E01C002F0015023E006
:105A40000050E56EFBEC30F0016EE652015010E1C3
:105A50000A0E005C0BE20A0E006EE56EFBEC30F005
:105A6000016EE652015004E1E8680ED0E8680CD0FF
:105A70000150021802E0E86807D0002A1B0E005C03
:105A8000D8E3E86801D0E86AE4CF02F0E4CF01F09F
:105A9000E4CF00F01200D9CFE5FFE1CFD9FF00C07D
:105AA000E5FF01C0E5FF02C0E5FF03C0E5FF04C05C
:105AB000E5FF020EDBCF00F0030EDBCF01F0040E9A
:105AC000DBCF02F0050EDBCF03F0060EDBCF04F0D8
:105AD00003C0E5FF04C0F4FF00C0E9FF01C0F3FF0D
