:020000040000FA
:1000000009EF15F0C96E120036EF0EF021EC10F07A
:100010000EEC04F0FDD7120062EF10F0D9CFE5FF2F
:10002000E1CFD9FF00C0E5FF01C0E5FF02C0E5FF59
:1000300003C0E5FF04C0E5FF05C0E5FF06C0E5FF1E
:1000400007C0E5FF08C0E5FF09C0E5FF0AC0E5FFFE
:100050000BC0E5FF0CC0E5FF0DC0E5FF0EC0E5FFDE
:100060000FC0E5FF10C0E5FF11C0E5FF12C0E5FFBE
:1000700013C0E5FF14C0E5FF15C0E5FF16C0E5FF9E
:1000800017C0E5FF18C0E5FF19C0E5FF1AC0E5FF7E
:100090001BC0E5FF1CC0E5FF1DC0E5FF1EC0E5FF5E
:1000A000020EDBCF00F0030EDBCF01F0040EDBCF3E
:1000B00002F0050EDBCF03F0060EDBCF04F0070ED7
:1000C000DBCF05F0080EDBCF06F0090EDBCF07F023
:1000D0000A0EDBCF08F0096A0A6A02C00DF00D5063
:1000E000800A0DE1025004018F6F01508E6F0050A5
:1000F0008D6F040E016E8D0E006E800E026E03C0B9
:10010000E9FF04C0F3FF055053EC15F00B6E0B50E4
:10011000D8B4C4EF03F00B50250A02E0ABEF03F0B4
:100120000C6A0D6A0E6A0F6A106A0A0E116E126A64
:10013000136A146A200E156E1668176A2B0E186E55
:10014000032A02E3044A052A03C0E9FF04C0F3FFBF
:10015000055053EC15F0196E250A13E11950E56EA0
:100160000250E56E0150E56E0050E56E7EEC0AF03F
:10017000040EE126094A0A2A032A02E3044A052A50
:10018000BED71950300A06E1300E156E032A02E37D
:10019000044A052A03C0E9FF04C0F3FF055053ECED
:1001A00015F02D0A06E1010E146E032A02E3044A3B
:1001B000052A03C0E9FF04C0F3FF055053EC15F016
:1001C000200A08E1010E176E200E186E032A02E3C2
:1001D000044A052A03C0E9FF04C0F3FF055053ECAD
:1001E00015F02B0A06E1010E176E032A02E3044AFA
:1001F000052A03C0E9FF04C0F3FF055053EC15F0D6
:10020000196E310E195C2BE33A0E195C28E203C01B
:1002100019F004C01AF005C01BF019C0E9FF1AC09C
:10022000F3FF1B5053EC15F01C6E300E1C5C11E3F9
:100230003A0E1C5C0EE213500A0DF3CF1DF01C5059
:100240001D26D00E1D24136E192A02E31A4A1B2AFA
:10025000E4D719C003F01AC004F01BC005F003C0B6
:10026000E9FF04C0F3FF055053EC15F02E0A2DE111
:10027000032A02E3044A052A166A03C019F004C0DF
:100280001AF005C01BF019C0E9FF1AC0F3FF1B509C
:1002900053EC15F01C6E300E1C5C11E33A0E1C5C26
:1002A0000EE216500A0DF3CF1DF01C501D26D00E85
:1002B0001D24166E192A02E31A4A1B2AE4D719C014
:1002C00003F01AC004F01BC005F003C0E9FF04C02E
:1002D000F3FF055053EC15F0196E6C0A07E1010E9F
:1002E0000C6E032A02E3044A052A09D01950680A51
:1002F00006E1010E0E6E032A02E3044A052A03C03A
:10030000E9FF04C0F3FF055053EC15F0750A06E150
:10031000010E106E032A02E3044A052A03C0E9FF16
:1003200004C0F3FF055053EC15F0196E730A05E194
:10033000010E0D6E200E156E3FD01950780A03E1A4
:10034000100E116E39D01950580A05E1100E116EB9
:10035000010E126E31D01950630A02E1116A2CD0DD
:1003600019506F0A03E1080E116E26D01950660A63
:1003700003E1010E0F6E20D01950640A1DE01950E0
:10038000690A1AE0105005E0FF0E03260422052238
:1003900013D01950E56E0250E56E0150E56E005025
:1003A000E56E7EEC0AF0040EE126094A0A2A032AC9
:1003B00002E3044A052AA3D60D5021E00650030F9C
:1003C0000D6E000E0720196E000E08201A6E0DC06B
:1003D00006F019C007F01AC008F0FD0E0D26FF0E3A
:1003E00019221A220DC0E9FF19C0F3FF1A501EECA2
:1003F00014F00D6EF3CF19F0F4CF1AF0FDD00F50BA
:100400000DE0000E1A6E080E196E100E0D6E040E21
:100410000626000E072208221668EED016680C5039
:1004200023E00650040F0C6E000E07200F6E000E26
:1004300008201B6E0CC006F00FC007F01BC008F0B0
:10044000FC0E0C26FF0E0F221B220CC0E9FF0FC072
:10045000F3FF1B50A4EC13F00C6EF3CF0FF0F4CFAE
:100460001BF0E9CF1CF067D00E502FE00650020FB2
:100470000E6E000E07201D6E000E08201E6E0EC0B0
:1004800006F01DC007F01EC008F0FE0E0E26FF0E7F
:100490001D221E220EC0E9FF1DC0F3FF1E50DDEC21
:1004A00014F00E6E0EC00CF00F6A1B6A1C6A11501D
:1004B0000A0A03E11050D8B43ED00C500E6E0EC0A4
:1004C0000CF00F6A1B6A1C6A36D00650020F0E6EC3
:1004D000000E07201D6E000E08201E6E0EC006F0D6
:1004E0001DC007F01EC008F0FE0E0E26FF0E1D22D6
:1004F0001E220EC0E9FF1DC0F3FF1E50DDEC14F0FC
:100500000E6EF3CF1DF00EC00CF01DC00FF0E86AA8
:100510001DBEFF0E1B6E1C6E11500A0A02E1105028
:100520000AE00C500E6E0F501D6E0EC00CF01DC078
:100530000FF01B6A1C6A040E196E240E0D6E800EDD
:100540001A6E1150D8B440D0105013E01150E56E1F
:10055000040EE56E240EE56E1C50E56E1B50E56E34
:100560000F50E56E0C50E56EC3EC06F0070EE12669
:1005700012D01150E56E040EE56E240EE56E1C508F
:10058000E56E1B50E56E0F50E56E0C50E56ED3EC3A
:100590000DF0070EE12617502FE00DC0E9FF19C03E
:1005A000F3FF1A5053EC15F02D0A26E0FF0E0D262E
:1005B00019221A2218C0E5FF0DC0E9FF19C0F3FF88
:1005C0001A50C0EC15F018D00CC0E5FF0DC0E9FFC3
:1005D00019C0F3FF1A50C0EC15F00D50010F0C6E4E
:1005E000000E19200E6E000E1A20E56A0CC0E9FFFD
:1005F0000EC0F3FFC0EC15F00DC00CF019C00EF0EA
:100600001AC00FF013C010F0105010E00CC0E9FF3A
:100610000EC0F3FF0F5053EC15F0176E175006E0A5
:100620000C2A02E30E4A0F2A1006EED710C013F070
:1006300014501EE109C00CF00AC00EF010C00FF0FB
:100640000F5010E01550E56E0250E56E0150E56E5A
:100650000050E56E7EEC0AF0040EE1260C4A0E2AEC
:100660000F06EED70CC009F00EC00AF00FC013F051
:1006700016C00CF00DC00DF019C00EF01AC00FF02E
:1006800009C010F00AC015F00DC0E9FF0EC0F3FF5D
:100690000F5053EC15F0166E1650D8B43ED00CC067
:1006A00016F0176A161E171E1650171005E00CC01C
:1006B00016F00C06165031E00DC0E9FF0EC0F3FF36
:1006C0000F5053EC15F0116E125010E01150E56E02
:1006D0009AEC14F0166EE652165004E0DF0E111478
:1006E000166E02D011C016F016C011F01150E56E52
:1006F0000250E56E0150E56E0050E56E7EEC0AF0AA
:10070000040EE1260D2A02E30E4A0F2A104A152A8A
:100710001350D8B4B9D71306B7D710C009F015C015
:100720000AF014502BE010C00CF015C00DF013C0EF
:100730000EF00E501FE0200EE56E0250E56E0150E7
:10074000E56E0050E56E7EEC0AF0040EE1260C4AE0
:100750000D2A0E06EED70B50E56E0250E56E0150E5
:10076000E56E0050E56E7EEC0AF0040EE126094AC3
:100770000A2A04D00CC009F00DC00AF0032A02E3D3
:10078000044A052A7FEF00F00AC0F3FF0950E4CFC6
:100790001EF0E4CF1DF0E4CF1CF0E4CF1BF0E4CF5B
:1007A0001AF0E4CF19F0E4CF18F0E4CF17F0E4CF5B
:1007B00016F0E4CF15F0E4CF14F0E4CF13F0E4CF5B
:1007C00012F0E4CF11F0E4CF10F0E4CF0FF0E4CF5B
:1007D0000EF0E4CF0DF0E4CF0CF0E4CF0BF0E4CF5B
:1007E0000AF0E4CF09F0E4CF08F0E4CF07F0E4CF5B
:1007F00006F0E4CF05F0E4CF04F0E4CF03F0E4CF5B
:1008000002F0E4CF01F0E4CF00F0E4CFD9FF120012
:100810003C4E4F20464C4F41543E000000C0E5FF87
:1008200001C0E5FF02C0E5FF03C0E5FF04C0E5FF2E
:1008300005C0E5FF06C0E5FFF1EC09F0DFEC12F0C2
:10084000006EF3CF01F0F4CF02F0E9CF03F0040122
:100850003051005E3151015A3251025A3351035A1C
:10086000039E3F0E035C08E1FF0E025C05E1FF0EF4
:10087000015C02E1FF0E005CD8B072D1DFEC12F037
:10088000F3CF01F0F4CF02F0E9CF03F0880F0401B9
:10089000306F130E0120316F000E0220326F000EF8
:1008A0000320336F006A050E005CD8B043D00050BF
:1008B000020DF450026EF3CF01F0230E0124036EFB
:1008C0000F0E0220046E03C0E9FF04C0EAFFEECF62
:1008D00005F0EFCF06F02D0E01260F0E022201C00B
:1008E000E9FF02C0EAFFEECF01F0EFCF02F00150C6
:1008F00005260250062203C0E9FF04C0EAFFEECF3E
:1009000001F0EFCF02F0023402320132023402323F
:1009100001320234023201320150055E0250065AA1
:1009200003C0E9FF04C0EAFF05C0EEFF06C0EFFF09
:10093000002AB9D70F0124352431016E2331006E0E
:100940000134013200320134013200320050020B16
:10095000E840010BE838E844F46EBD50DF0BF410BA
:10096000BD6E2351080BD8A4010E010BE838F46EBC
:10097000BD50EF0BF410BD6E24352431016E2331D0
:10098000006E013401320032013401320032013490
:10099000013200320134013200320050BE6E263581
:1009A0002631016E2531006E0134013200320134EE
:1009B000013200320050020BE840010BE838E844F5
:1009C000F46E6650DF0BF410666E2551080BD8A448
:1009D000010E010BE838F46E6650EF0BF410666EF2
:1009E00026352631016E2531006E01340132003288
:1009F000013401320032013401320032013401325B
:100A000000320050676E28352831016E2731006EA4
:100A10000134013200320134013200320050020B45
:100A2000E840010BE838E844F46E0F015D51DF0B3C
:100A3000F4105D6F0F012751080BD8A4010E010BB4
:100A4000E838F46E0F015D51EF0BF4105D6F0F018C
:100A500028352831016E2731006E01340132003211
:100A600001340132003201340132003201340132EA
:100A7000003200500F015E6F0F012A352A31016EDE
:100A80002931006E0134013200320134013200326A
:100A90000050020BE840010BE838E844F46E0F0107
:100AA0005751DF0BF410576F0F012951080BD8A4D1
:100AB000010E010BE838F46E0F015751EF0BF410E3
:100AC000576F0F012A352A31016E2931006E01342A
:100AD000013200320134013200320134013200327D
:100AE00001340132003200500F01586F0F012C35D4
:100AF0002C31016E2B31006E013401320032013491
:100B0000013200320050020BE840010BE838E844A3
:100B1000F46E0F015451DF0BF410546F0F012B5181
:100B2000080BD8A4010E010BE838F46E0F015451E4
:100B3000EF0BF410546F0F012C352C31016E2B315B
:100B4000006E0134013200320134013200320134CE
:100B50000132003201340132003200500F01556F72
:100B6000E4CF06F0E4CF05F0E4CF04F0E4CF03F0E7
:100B7000E4CF02F0E4CF01F0E4CF00F0120000C0B7
:100B8000E5FF01C0E5FF04013E51D8B4F7D09DA8B0
:100B90001DD09EA81BD004014B510401481905E14A
:100BA00081EC15F00401486BE9D0000E04014B25DF
:100BB000006E016A040E012200C0E9FF01C0EAFFD5
:100BC000EFCF44F44B2B44C4ADFFD8D09DAAD6D070
:100BD0009EAAD4D0ABA205D00401498181EC15F0C6
:100BE000CDD0ABA405D00401498381EC15F0C6D06B
:100BF000ABA03ED0AECF44F4800E04013F110401FF
:100C0000441904E104014989AB96B8D00401445168
:100C100004E0445104013F1927E104014999AB96CE
:100C20000401445103E00401499702D004014987BB
:100C300044C44DF446C44EF40401460504014F6F0C
:100C4000600E04014E25006E016A000E012200C0F4
:100C5000E9FF01C0EAFF44C4EFFF4E2B4E51800A6A
:100C600002E104014E6B8AD004014999AB8686D01B
:100C7000AECF44F4040149A919D0800E04013F11FC
:100C80000401441911E19D9AAB98949004014851D4
:100C900004E1AD6A81EC15F007D000C4ADFF010E90
:100CA00004014B6F9D886AD0AB8668D00401445123
:100CB00004014D2704014E5104014F191BE10401A9
:100CC0004D510CE14EC446F4040149B712D09D9A2F
:100CD000AB989490AD6A81EC15F00BD00401498576
:100CE00049B707D09D9AAB989490010EAD6E81ECF8
:100CF00015F044D004014E510401471908E10401E4
:100D000047510401461903E081EC15F037D046C481
:100D100000F0016A004A012AE56A800EE56E015082
:100D2000E56E0050E56E92EC0CF0006E040EE126CC
:100D300000500401456F04014E190CE11F0E04011F
:100D4000441504014F6F4F2B4F2B040146510401F2
:100D50004F274F9F4EC400F004014E2B016A600ED6
:100D60000026000E012200C0E9FF01C0EAFF44C4D2
:100D7000EFFF4E51800A02E104014E6BE4CF01F017
:100D8000E4CF00F01200D9CFE5FFE1CFD9FF00C0DA
:100D9000E5FF01C0E5FF02C0E5FF03C0E5FF04C0B9
:100DA000E5FF05C0E5FF06C0E5FF07C0E5FF08C099
:100DB000E5FF09C0E5FF0AC0E5FF0BC0E5FF0CC079
:100DC000E5FF0DC0E5FF0EC0E5FF0FC0E5FF020E19
:100DD000DBCF00F0030EDBCF01F0040EDBCF02F01F
:100DE000050EDBCF03F0060EDBCF04F0070EDBCFE2
:100DF00005F0080EDBCF06F0200E076E086A06C06D
:100E000009F00A6A0B6A0C6AE56AE56AE56A095044
:100E1000E56E0350E56E0250E56E0150E56E005040
:100E2000E56E9FEC07F00D6E080EE126300E0D26E4
:100E30003A0E0D5C05E30D500E6E270E0E240D6E5E
:100E4000FF0E07260822E00E07240E6E000E082073
:100E50000F6E0EC0E9FF0FC0EAFF0DC0EFFF0C5090
:100E6000E56E0B50E56E0A50E56E0950E56E0350D5
:100E7000E56E0250E56E0150E56E0050E56ED4EC73
:100E800008F0006EF3CF01F0F4CF02F0E9CF03F0E9
:100E9000080EE1260050011002100310D8A4AFD7AD
:100EA00007C000F008C001F004C002F005C003F064
:100EB00000C004F001C005F0004A012AE00E04263B
:100EC000000E052204C0E9FF05C0EAFFEFCF04F0E1
:100ED00002C0E9FF03C0EAFF04C0EFFF024A032A91
:100EE000000E015C02E1200E005CE2E302C0E9FFBB
:100EF00003C0EAFF000EEF6AE4CF0FF0E4CF0EF07C
:100F0000E4CF0DF0E4CF0CF0E4CF0BF0E4CF0AF027
:100F1000E4CF09F0E4CF08F0E4CF07F0E4CF06F027
:100F2000E4CF05F0E4CF04F0E4CF03F0E4CF02F027
:100F3000E4CF01F0E4CF00F0E4CFD9FF1200D9CF25
:100F4000E5FFE1CFD9FF00C0E5FF01C0E5FF02C02A
:100F5000E5FF03C0E5FF04C0E5FF05C0E5FF06C0EF
:100F6000E5FF07C0E5FF08C0E5FF09C0E5FF0AC0CF
:100F7000E5FF020EDBCF00F0030EDBCF01F0040E25
:100F8000DBCF02F0050EDBCF03F0060EDBCF04F063
:100F9000070EDBCF05F0080EDBCF06F0090EDBCF26
:100FA00007F0086A045005100610071005E1E9680B
:100FB000F468F368E86847D0096A0750800BE84492
:100FC0000A6E0A501BE10450042605360636073621
:100FD0000750035C08E10650025C05E10550015C26
:100FE00002E10450005C06E2D89007320632053276
:100FF000043204D0092A09C008F0DFD70750035C87
:1010000008E10650025C05E10550015C02E1045074
:10101000005C08E30450005E0550015A0650025A75
:101020000750035AD890073206320532043208C0FE
:1010300009F008060950E2E103C0E9FF02C0F4FF2D
:1010400001C0F3FF0050E4CF0AF0E4CF09F0E4CF91
:1010500008F0E4CF07F0E4CF06F0E4CF05F0E4CFEA
:1010600004F0E4CF03F0E4CF02F0E4CF01F0E4CFEA
:1010700000F0E4CFD9FF120000C0E5FF01C0E5FF9A
:1010800002C0E5FF03C0E5FF09EC13F0006E320A71
:1010900013E00050330A20E00050340A2DE00050E5
:1010A000350A01E139D00050360A01E145D000503F
:1010B000640A01E151D06FD009EC13F0036E026AAB
:1010C00009EC13F0016A02260150032202500F01BD
:1010D0002D6F03502E6F5FD009EC13F0036E026A80
:1010E00009EC13F0016A02260150032202500F019D
:1010F0002F6F0350306F4FD009EC13F0036E026A6C
:1011000009EC13F0016A02260150032202500F017C
:10111000316F0350326F3FD009EC13F0036E026A57
:1011200009EC13F0016A02260150032202500F015C
:10113000336F0350346F2FD009EC13F0036E026A43
:1011400009EC13F0016A02260150032202500F013C
:10115000356F0350366F1FD00F012C51E56E2B51A8
:10116000E56E2A51E56E2951E56E2851E56E27514D
:10117000E56E2651E56E2551E56E2451E56E23514D
:10118000E56E000EE56E200EE56EB20EE56EA3EC88
:1011900010F00D0EE126E4CF03F0E4CF02F0E4CF2F
:1011A00001F0E4CF00F01200D9CFE5FFE1CFD9FF85
:1011B00000C0E5FF01C0E5FF02C0E5FF03C0E5FF99
:1011C00004C0E5FF05C0E5FF06C0E5FF07C0E5FF79
:1011D00008C0E5FF09C0E5FF0AC0E5FF0BC0E5FF59
:1011E0000CC0E5FF0DC0E5FF020EDBCF00F0030EE3
:1011F000DBCF01F0040EDBCF02F0050EDBCF03F0F6
:10120000060EDBCF04F0070EDBCF05F0080EDBCFB8
:1012100006F0090EDBCF07F0086A096A0A6A0B6A52
:10122000200E0C6E0350800BE8440D6E005000261B
:101230000136023603360850082609360A360B36C0
:101240000D50D8A4088007500B5C08E106500A5CDA
:1012500005E10550095C02E10450085C09E3045013
:10126000085E0550095A06500A5A07500B5A00806A
:101270000C040D6E0DC00CF00D50D4E103C0E9FF5D
:1012800002C0F4FF01C0F3FF0050E4CF0DF0E4CF43
:101290000CF0E4CF0BF0E4CF0AF0E4CF09F0E4CF98
:1012A00008F0E4CF07F0E4CF06F0E4CF05F0E4CF98
:1012B00004F0E4CF03F0E4CF02F0E4CF01F0E4CF98
:1012C00000F0E4CFD9FF120000C0E5FF01C0E5FF48
:1012D00003C0E5FF04C0E5FF05C0E5FF06C0E5FF6C
:1012E00007C0E5FF08C0E5FF09C0E5FF0AC0E5FF4C
:1012F0000BC0E5FF90C400F091C401F00401903FE1
:1013000001D0912B0050E56E73EC15F0E652076E9C
:10131000046A056A066A90C400F091C401F00401F1
:10132000903F01D0912B0050E56E73EC15F0E65222
:101330000B6A0A6E086A0850041205120A50061257
:101340000B50071290C400F091C401F00401903FCB
:1013500001D0912B0050E56E73EC15F0E652036E50
:10136000006A03C001F0E86A03BEFF0E086E096E52
:1013700000500412015005120850061209500712BD
:1013800090C400F091C401F00401903F01D0912B72
:101390000050E56E73EC15F0E652016A041201503C
:1013A00005120612071207C0E9FF06C0F4FF05C0C8
:1013B000F3FF0450E4CF0BF0E4CF0AF0E4CF09F0E0
:1013C000E4CF08F0E4CF07F0E4CF06F0E4CF05F077
:1013D000E4CF04F0E4CF03F0E4CF01F0E4CF00F079
:1013E000120000C0E5FF01C0E5FF02C0E5FF03C039
:1013F000E5FF04C0E5FF040147510401461901E17E
:101400005FD047C400F0002A009E600E0024016EE9
:10141000026A000E022201C0E9FF02C0EAFFEFCF1C
:1014200051F41F0E0401511747C450F451510401E7
:101430005027502B502B509F09EC13F0016E015098
:1014400003E1016A012A01D0016A09EC13F00401E9
:10145000516F800E5115026E1F0E5115036E03C0A1
:1014600004F003C051F4045003E146C447F43BD0F8
:1014700001501BE0025022E009EC13F0006E040161
:1014800051070050420A1AE000504E0A03E1DFEC17
:101490000FF014D00050460A03E1B5EC15F00ED061
:1014A0000050490A0BE1FF0009D047C452F4025032
:1014B00003E010EC12F002D03CEC08F050C447F40A
:1014C00004013B5104013C1906E00401485103E1C9
:1014D0000AEC0BF008D094B006D00401485103E1A7
:1014E000ACB281EC15F0E4CF04F0E4CF03F0E4CF2C
:1014F00002F0E4CF01F0E4CF00F01200D9CFE5FF15
:10150000E1CFD9FF00C0E5FF01C0E5FF02C0E5FF64
:1015100003C0E5FF04C0E5FF05C0E5FF06C0E5FF29
:1015200007C0E5FF020EDBCF00F0030EDBCF01F0BA
:10153000040EDBCF02F0050EDBCF03F002C006F095
:101540000650046E800A33E100C0E9FF01C0F3FFDA
:1015500002501EEC14F0056EF3CF06F0F4CF07F046
:1015600003C0E5FF05C0E9FF06C0F3FF0750C0EC6C
:1015700015F000C0E9FF01C0F3FF02501EEC14F0AB
:10158000056EF3CF06F0F4CF07F0052A02E3064A12
:10159000072A05C0E5FF06C0F4FF07C0F6FF00C03C
:1015A000E9FF01C0F3FF025064EC15F020D004C045
:1015B00000F000AA1CD0007A0050046E04E1035031
:1015C000F8EC15F014D00450010A04E1035002ECC9
:1015D00000F00DD004500F0A04E103507DEC12F02E
:1015E00006D004500E0A03E1035008EC16F0E4CFD5
:1015F00007F0E4CF06F0E4CF05F0E4CF04F0E4CF49
:1016000003F0E4CF02F0E4CF01F0E4CF00F0E4CF48
:10161000D9FF120000C0E5FF01C0E5FF02C0E5FFF1
:1016200003C0E5FFACA276D0C4EC13F0006E00500E
:1016300005E104013C6B04013B6B6CD03CC401F040
:1016400000500126C4EC13F0026E00060250230A7B
:101650001FE1010E005CD8A05BD0C4EC13F0026E59
:10166000690A03E1AEEC12F053D00250720A03E1B2
:1016700081EC15F04DD00250730A01E049D09480FE
:10168000AB869D8A9D98AE50AE50AB98AB8840D04B
:101690000250430A05E00250420A01E039D001D06D
:1016A000008E00C04AF400500401006F010E0401D6
:1016B0004B6F04013C51011814E0C4EC13F0026EAE
:1016C00004014A27000E04014B25006E036A040E34
:1016D000032200C0E9FF03C0EAFF02C0EFFF4B2B6B
:1016E000E8D7000E04014B25006E026A040E0222A8
:1016F00004014A1D036E032A00C0E9FF02C0EAFF8D
:1017000003C0EFFF04014B2B4BC448F40401426BB0
:1017100001C03CF4E4CF03F0E4CF02F0E4CF01F0E9
:10172000E4CF00F01200D9CFE5FFE1CFD9FF00C030
:10173000E5FF01C0E5FF02C0E5FF03C0E5FF04C00F
:10174000E5FF05C0E5FF06C0E5FF020EDBCF00F0B8
:10175000030EDBCF01F0040EDBCF02F0050EDBCF72
:1017600003F003C004F0056A0350D8B44FD000C0A2
:10177000E9FF01C0F3FF025053EC15F0066E430A77
:1017800003E1010E056E038E0406002A02E3014AFE
:10179000022A9D9AAB9894909D989EA8FED7AC8003
:1017A000AD6A00009EA8FED7AC9003C0ADFF00005C
:1017B0009EA8FED7055004E0420EAD6E032604D06D
:1017C000620EAD6E620E0326045015E000009EA866
:1017D000FED700C0E9FF01C0F3FF025053EC15F043
:1017E000056E05C0ADFF055003260406002A02E37E
:1017F000014A022AE9D700009EA8FED7031CAD6E5D
:10180000AD2A00009EA8FED781EC15F0E4CF06F0CB
:10181000E4CF05F0E4CF04F0E4CF03F0E4CF02F02E
:10182000E4CF01F0E4CF00F0E4CFD9FF1200D9CF2C
:10183000E5FFE1CFD9FF00C0E5FF01C0E5FF02C031
:10184000E5FF03C0E5FF04C0E5FF05C0E5FF06C0F6
:10185000E5FF07C0E5FF020EDBCF00F0030EDBCF94
:1018600001F0040EDBCF02F0050EDBCF03F03CC429
:101870003DF404013B5104013D5F3D0703C004F00A
:10188000056A030E0426D8B0052A3DC406F0076A8F
:101890000750800FF36E0550800FF35C02E1045097
:1018A000065C02E2E8682BD0020E035C02E2E86A02
:1018B00026D003060350E56E5FEC11F0E652046A91
:1018C0000350045C14E204500024056EE86A012011
:1018D000066EE86A022005C0E9FF06C0F3FF53EC7C
:1018E00015F0042AE56E5FEC11F0E652E9D73CC42E
:1018F0003DF404013B5104013D5F3D07E86AE4CF3C
:1019000007F0E4CF06F0E4CF05F0E4CF04F0E4CF35
:1019100003F0E4CF02F0E4CF01F0E4CF00F0E4CF35
:10192000D9FF1200D9CFE5FFE1CFD9FF00C0E5FF15
:1019300001C0E5FF02C0E5FF03C0E5FF04C0E5FF0D
:1019400005C0E5FF06C0E5FF020EDBCF00F0030E89
:10195000DBCF01F0040EDBCF02F0050EDBCF03F08E
:10196000D88001AED890046A0436045007E0011C08
:10197000066E001C056E054A062A04D000C005F05C
:1019800001C006F0D88003AED89007E3031C016EB7
:10199000021C006E004A012A04D002C000F003C0FD
:1019A00001F00150E56E0050E56E0650E56E055001
:1019B000E56E94EC0EF0006EF3CF01F0040EE1261C
:1019C00004500AE0011C036E001C026E024A032A46
:1019D00003C0F3FF025003D001C0F3FF0050E4CF77
:1019E00006F0E4CF05F0E4CF04F0E4CF03F0E4CF59
:1019F00002F0E4CF01F0E4CF00F0E4CFD9FF120011
:101A0000D9CFE5FFE1CFD9FF00C0E5FF01C0E5FF79
:101A100002C0E5FF03C0E5FF04C0E5FF05C0E5FF28
:101A2000020EDBCF00F0030EDBCF01F0040EDBCFA4
:101A300002F0050EDBCF03F090C404F091C405F072
:101A40000401903F01D0912B0350E56E0450E56EE8
:101A500080EC13F0E652E65290C404F091C405F015
:101A60000401903F01D0912B0250056EE56E0450A9
:101A7000E56E80EC13F0E652E65290C404F091C497
:101A800005F00401903F01D0912B0150056EE56EE9
:101A90000450E56E80EC13F0E652E65290C404F078
:101AA00091C405F00401903F01D0912B0050E56EE8
:101AB0000450E56E80EC13F0E652E652E4CF05F0F8
:101AC000E4CF04F0E4CF03F0E4CF02F0E4CF01F080
:101AD000E4CF00F0E4CFD9FF1200D9CFE5FFE1CF8A
:101AE000D9FF00C0E5FF01C0E5FF02C0E5FF03C06C
:101AF000E5FF04C0E5FF05C0E5FF06C0E5FF020EF7
:101B0000DBCF00F0030EDBCF01F0040EDBCF02F0E1
:101B10000401885119E164EC09F0036EF3CF04F07D
:101B2000F4CF05F0E9CF06F003C0E5FF04C0F4FFF1
:101B300005C0F6FF06C0F7FF00C0E9FF01C0F3FFD4
:101B4000025042EC15F01ED004018851010A1AE13E
:101B500000C0E9FF01C0F3FF0250A4EC13F0006ED7
:101B6000F3CF01F0F4CF02F0E9CF03F00350E56EBC
:101B70000250E56E0150E56E0050E56E00EC0DF090
:101B8000040EE126E4CF06F0E4CF05F0E4CF04F044
:101B9000E4CF03F0E4CF02F0E4CF01F0E4CF00F0B3
:101BA000E4CFD9FF1200D9CFE5FFE1CFD9FF00C0C4
:101BB000E5FF01C0E5FF02C0E5FF03C0E5FF04C08B
:101BC000E5FF05C0E5FF06C0E5FF020EDBCF00F034
:101BD000030EDBCF01F0040EDBCF02F0050EDBCFEE
:101BE00003F0060EDBCF04F0070EDBCF05F0080E86
:101BF000DBCF06F0D88003AED89015E306500A0A72
:101C000012E104C0E9FF05C0EAFF2D0EEF6E044AA1
:101C1000052A031E021E011E006C05E1012A03E1D4
:101C2000022AD8B4032A0650E56E0550E56E04502A
:101C3000E56E0350E56E0250E56E0150E56E005012
:101C4000E56EC3EC06F0070EE126E4CF06F0E4CF24
:101C500005F0E4CF04F0E4CF03F0E4CF02F0E4CFEA
:101C600001F0E4CF00F0E4CFD9FF1200D8CFE5FFB8
:101C7000E0CFE5FFE56EF3CFE5FFF4CFE5FFE9CF79
:101C8000E5FFEACFE5FFFACFE5FFFBCFE5FFF6CFB3
:101C9000E5FFF6CFE5FFF7CFE5FFF8CFE5FFF5CF9E
:101CA000E5FFE1CFE5FFE2CFE5FF04013951040193
:101CB000366F04013A510401376FD650346FD75054
:101CC000356FF2A411D00401393F01D03A2BF294C0
:101CD000040139510401366F04013A510401376F90
:101CE000D650346FD750356FE4CFE2FFE4CFE1FF39
:101CF000E4CFF5FFE4CFF8FFE4CFF7FFE4CFF6FF42
:101D0000E4CFF6FFE4CFFBFFE4CFFAFFE4CFEAFF36
:101D1000E4CFE9FFE4CFF4FFE4CFF3FFE450E4CFF6
:101D2000E0FFE4CFD8FF1000D9CFE5FFE1CFD9FF26
:101D300000C0E5FF01C0E5FF02C0E5FF03C0E5FF0D
:101D400004C0E5FF05C0E5FF06C0E5FF020EDBCFDE
:101D500000F0030EDBCF01F0040EDBCF02F0050E26
:101D6000DBCF03F0046A056A0350800BE844066E7B
:101D7000065011E10250022603360350015C02E1D5
:101D80000250005C04E2D8900332023204D0052AEB
:101D900005C004F0E9D70350015C02E10250005C89
:101DA00004E30250005E0350015AD890033202321D
:101DB00004C005F004060550EEE101C0F3FF005039
:101DC000E4CF06F0E4CF05F0E4CF04F0E4CF03F075
:101DD000E4CF02F0E4CF01F0E4CF00F0E4CFD9FF8C
:101DE000120000C0E5FF01C0E5FF02C0E5FF03C02F
:101DF000E5FF47C400F0016A52C402F0036A0250D2
:101E0000005E0350015AE56A800EE56E0150E56EF2
:101E10000050E56E92EC0CF0006E040EE126000618
:101E200052C401F0430E7DEC12F0200E7DEC12F056
:101E3000005020E0600E0124026E036A000E0322AF
:101E400002C0E9FF03C0EAFFEFCF02F0E56A0250EB
:101E5000E56E000EE56E2B0EE56E1A0EE56EA3EC38
:101E600010F0050EE126012A0150800A01E1016A05
:101E70000006DED7E4CF03F0E4CF02F0E4CF01F0B8
:101E8000E4CF00F01200D9CFE5FFE1CFD9FF00C0C9
:101E9000E5FF01C0E5FF02C0E5FF03C0E5FF04C0A8
:101EA000E5FF020EDBCF00F0030EDBCF01F0040EE6
:101EB000DBCF02F00401885111E149EC12F0036E0E
:101EC000F3CF04F003C0E5FF04C0F4FF00C0E9FF56
:101ED00001C0F3FF02509DEC15F016D004018851AB
:101EE000010A12E100C0E9FF01C0F3FF0250DDEC7E
:101EF00014F0006EF3CF01F00150E56E0050E56E76
:101F000022EC11F0E652E652E4CF04F0E4CF03F005
:101F1000E4CF02F0E4CF01F0E4CF00F0E4CFD9FF4A
:101F20001200CE0EF66E2B0EF76E000EF86E090044
:101F3000F550056E0900F550066E04E1056702D004
:101F4000DEEF0FF00900F550006E0900F550016E4C
:101F50000900F550026E09000900F550E96E09000C
:101F6000F550EA6E090009000900F550036E0900FA
:101F7000F550046E09000900F6CF07F0F7CF08F01E
:101F8000F8CF09F000C0F6FF01C0F7FF02C0F8FF6C
:101F9000035002E1045007E00900F550EE6E03061D
:101FA000F8E20406F9D707C0F6FF08C0F7FF09C03A
:101FB000F8FF050601E206069DEF0FF0120000C0D3
:101FC000E5FF01C0E5FF02C0E5FF09EC13F0006E7C
:101FD00009EC13F0016E0050026ED00E0224006E68
:101FE0000A0E005C05E30050026EF90E0224006E3A
:101FF0000150026ED00E0224016E0A0E015C05E350
:102000000150026EF90E0224016E080E005C12E20D
:10201000100E015CD8B00ED00038F00B0124006E19
:10202000D6EC11F0016E015005E10050E56E53EC65
:1020300014F0E652E4CF02F0E4CF01F0E4CF00F078
:10204000120001C0E5FF02C0E5FF03C0E5FFEEECB2
:1020500015F09394B96AB9820C0EBD6E9396636ABB
:102060006380666E939A0F015D6F93900F01576FB7
:1020700092980F01546FDFEC12F0F3CF01F0F4CF20
:1020800002F0E9CF03F0880F0401306F130E012036
:10209000316F000E0220326F000E0320336FE4CF49
:1020A00003F0E4CF02F0E4CF01F012004300256317
:1020B0000000432564202564202564202564202514
:1020C000640A0000D8CFE5FFE0CFE5FFE56EF3CF6F
:1020D000E5FFF4CFE5FFE9CFE5FFEACFE5FFFACF73
:1020E000E5FFFBCFE5FFF6CFE5FFF6CFE5FFF7CF46
:1020F000E5FFF8CFE5FFF5CFE5FFE1CFE5FFE2CF64
:10210000E5FFBFEC05F0E4CFE2FFE4CFE1FFE4CF71
:10211000F5FFE4CFF8FFE4CFF7FFE4CFF6FFE4CF1D
:10212000F6FFE4CFFBFFE4CFFAFFE4CFEAFFE4CF12
:10213000E9FFE4CFF4FFE4CFF3FFE450E4CFE0FFA6
:10214000E4CFD8FF1000D9CFE5FFE1CFD9FF00C021
:10215000E5FF01C0E5FF02C0E5FF020ED924006ED5
:10216000000EDA20016E800E026E030E0026000EB5
:10217000012202220250E56E0150E56E0050E56E2C
:10218000040EDBCFE5FF030EDBCFE5FF020EDBCF56
:10219000E5FF04018751E56E8651E56E8551E56ED8
:1021A0000EEC00F0006EF3CF01F0090EE12601C045
:1021B000F3FF0050E4CF02F0E4CF01F0E4CF00F0F1
:1021C000E4CFD9FF1200D9CFE5FFE1CFD9FF00C09E
:1021D000E5FF01C0E5FF02C0E5FF03C0E5FF020E19
:1021E000DBCF00F0030EDBCF01F0040EDBCF02F0FB
:1021F000040188510DE1B1EC14F0036E03C0E5FF5A
:1022000000C0E9FF01C0F3FF0250C0EC15F00FD091
:1022100004018851010A0BE100C0E9FF01C0F3FF8E
:10222000025053EC15F0E56E5AEC13F0E652E4CF91
:1022300003F0E4CF02F0E4CF01F0E4CF00F0E4CF0C
:10224000D9FF1200D9CFE5FFE1CFD9FF00C0E5FFEC
:1022500001C0E5FF02C0E5FF03C0E5FF020EDBCFD2
:1022600000F0030EDBCF01F090C402F091C403F044
:102270000401903F01D0912B0150E56E0250E56EB4
:1022800080EC13F0E652E65290C402F091C403F0E1
:102290000401903F01D0912B0050E56E0250E56E95
:1022A00080EC13F0E652E652E4CF03F0E4CF02F004
:1022B000E4CF01F0E4CF00F0E4CFD9FF1200D9CF92
:1022C000E5FFE1CFD9FF00C0E5FF01C0E5FF02C097
:1022D000E5FF03C0E5FF04C0E5FF020EDBCF00F021
:1022E0003BC401F0026A014A022A3CC403F0046ABA
:1022F0000150031803E10250041801E001D00ED090
:10230000000E04013B25016E026A010E022201C08B
:10231000E9FF02C0EAFF00C0EFFF3B2BE4CF04F06F
:10232000E4CF03F0E4CF02F0E4CF01F0E4CF00F01B
:10233000E4CFD9FF1200D9CFE5FFE1CFD9FF00C02C
:10234000E5FF01C0E5FF02C0E5FF03C0E5FF020EA7
:10235000DBCF00F0016A52C402F0036A025000268B
:1023600003500122E56A800EE56E0150E56E0050D3
:10237000E56E92EC0CF0006EF3CF01F0040EE12656
:10238000600E0026000E012200C0E9FF01C0EAFF36
:10239000EFCF00F00050E4CF03F0E4CF02F0E4CF41
:1023A00001F0E4CF00F0E4CFD9FF120000C0E5FF58
:1023B00001C0E5FF02C0E5FF010E006E09EC13F05D
:1023C000016E01C002F0015023E00050E56E73EC95
:1023D00015F0016EE652015010E10A0E005C0BE2AE
:1023E0000A0E006EE56E73EC15F0016EE6520150B8
:1023F00004E1E8680ED0E8680CD00150021802E051
:10240000E86807D0002A1B0E005CD8E3E86801D01A
:10241000E86AE4CF02F0E4CF01F0E4CF00F012006C
:1024200000C0E5FF01C0E5FF02EC16F0006E09EC0C
:1024300013F0016E4C0A03E109EC13F025D00150B2
:10244000450A22E1000EE56E200EE56EAC0EE56E4B
:10245000A3EC10F0030EE126010E016E0050015CAA
:1024600010E209EC13F0E56AE56E000EE56E200E51
:10247000E56EAE0EE56EA3EC10F0050EE126012A26
:10248000EDD70A0E7DEC12F0E4CF01F0E4CF00F0BE
:10249000120000C0E5FF01C0E5FF02C0E5FF03C078
:1024A000E5FF90C400F091C401F00401903F01D019
:1024B000912B0050E56E73EC15F0E652036E026A44
:1024C00090C400F091C401F00401903F01D0912B21
:1024D0000050E56E73EC15F0E652016A02120150ED
:1024E000031203C0F3FF0250E4CF03F0E4CF02F085
:1024F000E4CF01F0E4CF00F0120000C0E5FF01C01E
:10250000E5FF02C0E5FF006E000E04014025016EEC
:10251000026A0F0E022201C0E9FF02C0EAFF00C0FA
:10252000EFFF220E405D01E2402B00500A0A0FE14E
:1025300004014051E56E800EE56E0F0EE56E000E53
:10254000E56E17EC0CF0040EE1260401406BE4CFBD
:1025500002F0E4CF01F0E4CF00F0120004013B6B85
:1025600004013C6B04013D6994808B909480B06AB7
:102570003F0EAF6EB886AC8AAC84AC8CAC90AB8CA2
:10258000AB8E0401496B0401436B0401466B0401EB
:10259000476B0401486B000EE56A73EC15F004010B
:1025A0003F6FE6529F989F9A010E04013E6F04010F
:1025B000856B866B2F0E876F81EC15F0120004017E
:1025C00039510401836F04013A510401846FD650DC
:1025D000816FD750826F83510401391905E10401DD
:1025E000845104013A190CE0040139510401836F4C
:1025F00004013A510401846FD650816FD750826F25
:1026000084C4E9FF83C4F4FF82C4F3FF0401815151
:10261000120000C0E5FF01C0E5FF040147510401BD
:10262000501905E0040147510401461902E1E86A26
:1026300015D047C400F00401472B016A600E002644
:10264000000E012200C0E9FF01C0EAFFEFCF00F059
:102650004751800A02E10401476B0050E4CF01F0CA
:10266000E4CF00F0120000C0E5FFFCEC15F004011F
:10267000896B806B8983006A89B3002A0050010B43
:10268000E844F46E8051FD0BF410806FD58ED59C1C
:10269000D59AD588D596D594D582D580F28AF184FD
:1026A000D08EF28EF28CBA80FF0EBB68BA84E4CF73
:1026B00000F01200D9CFE5FFE1CFD9FF00C0E5FF60
:1026C00001C0E5FF02C0E5FF020EDBCF00F090C4C1
:1026D00001F091C402F00401903F01D0912B005011
:1026E000E56E0150E56E80EC13F0E652E652E4CF61
:1026F00002F0E4CF01F0E4CF00F0E4CFD9FF120004
:10270000D9CFE5FFE1CFD9FF00C0E5FF020EDBCF57
:1027100000F0030EDBCFA8FF00C0A9FFA69EA69C79
:10272000A684F29EF29C550EA76EAA0EA76EA682F4
:10273000A6A202D00000FCD7A694F28EF28CE4CFC1
:1027400000F0E4CFD9FF1200E8AE0AD0F3CFEAFFE1
:10275000EE50EECFF3FFEECFF4FFEECFE9FF120025
:10276000E8BC0FEF16F0E9CFF6FFF3CFF7FFF86EF6
:102770000900F5500900F5CFF3FF0900F5CFF4FF8C
:102780000900F5CFE9FF120000C0E5FF01C0E5FF39
:1027900004013B5104013C1902E1E86A0FD0000E2C
:1027A00004013C25006E016A010E012200C0E9FF10
:1027B00001C0EAFFEFCF00F03C2B0050E4CF01F066
:1027C000E4CF00F01200F2CFEAFFF29EA69EA69C94
:1027D000A684E9CFA9FFF3CFAAFFE4CFA8FFDEECE0
:1027E00015F0F4CFA8FFDEEC15F0F6CFA8FFDEEC75
:1027F00015F0F7CFA8FFDEEC15F0A694EABEF28E36
:102800001200F2CFF6FFF29EA69EA69CE9CFA9FF8A
:10281000F3CFAAFFA680A850A94AAA2AA680A8CFCB
:10282000F3FFA94AAA2AA680A8CFF4FFA94AAA2A98
:10283000A680A8CFEAFFF6BEF28E1200E8AE08D05E
:10284000F3CFEAFFEE50EECFF3FFEECFF4FF12002E
:10285000E8BC17EF16F0E9CFF6FFF3CFF7FFF86EFD
:102860000900F5500900F5CFF3FF0900F5CFF4FF9B
:102870001200F2CFEAFFF29EA69EA69CA684E9CFA4
:10288000A9FFF3CFAAFFE4CFA8FFDEEC15F0F4CF49
:10289000A8FFDEEC15F0F6CFA8FFDEEC15F0A6944D
:1028A000EABEF28E1200D9CFE5FFE1CFD9FF00C01A
:1028B000E5FF020EDBCF00F000C03FF40050E56EF4
:1028C000000EE56A80EC13F0E652E652E4CF00F029
:1028D000E4CFD9FF1200F2CFF6FFF29EA69EA69C8F
:1028E000E9CFA9FFF3CFAAFFA680A850A94AAA2A38
:1028F000A680A8CFF3FFA94AAA2AA680A8CFF4FFF2
:10290000F6BEF28E120000C0E5FF01C0E5FF600ECA
:1029100004014725006E016A000E012200C0E9FF94
:1029200001C0EAFFEFCF00F00050E4CF01F0E4CFA8
:1029300000F01200D9CFE5FFE1CFD9FF00C0E5FFDD
:10294000020EDBCF00F0610E005C05E37B0E005C45
:1029500002E2010E01D0E86AE4CF00F0E4CFD9FF33
:10296000120000C0E5FF01C0E5FF90C400F091C473
:1029700001F00401903F01D0912B0050E56E73EC03
:1029800015F0E652E4CF01F0E4CF00F01200D9CF09
:10299000E5FFE1CFD9FF00C0E5FF020EDBCF00F07D
:1029A00000C03EF4005004E181EC15F09D9A9D9822
:1029B000E4CF00F0E4CFD9FF1200E8AE06D0F3CFA9
:1029C000EAFFEE50EECFF3FF1200E8BC0DEF16F079
:1029D000E9CFF6FFF3CFF7FFF86E0900F5500900D5
:1029E000F5CFF3FF1200F2CFEAFFF29EA69EA69C5F
:1029F000A684E9CFA9FFF3CFAAFFE4CFA8FFDEECBE
:102A000015F0F4CFA8FFDEEC15F0A694EABEF28E26
:102A1000120012EEFFF022EEFFF0F86AA68EA69CDE
:102A2000E9680E0EEA6E0068000EED6A0050FDE1E6
:102A300091EC0FF006EC00F0FFD7F2CFF6FFF29E1C
:102A4000A69EA69CE9CFA9FFF3CFAAFFA680A85017
:102A5000A94AAA2AA680A8CFF3FFF6BEF28E1200DA
:102A6000F2CFEAFFF29EA69EA69CA684E9CFA9FF1C
:102A7000F3CFAAFFE4CFA8FFDEEC15F0A694EABEE0
:102A8000F28E1200E8AE0BD0F3CFEAFFE4CFEEFFF8
:102A9000F4CFEEFFF6CFEEFFF7CFEEFF1200E8BC6B
:102AA00011EF16F01200E8AE04D0F3CFEAFFEE50BB
:102AB0001200E8BC0BEF16F0E9CFF6FFF3CFF7FFFB
:102AC000F86E0900F5501200E8AE09D0F3CFEAFF26
:102AD000E4CFEEFFF4CFEEFFF6CFEEFF1200E8BC3E
:102AE00019EF16F01200D9CFE5FFE1CFD9FF020EA2
:102AF000DBCFA9FFA69CA69EA680A850E4CFD9FF55
:102B00001200ACA2FED79480AE500000AE50AB983D
:102B1000AB88AB869D8A9D98120025642000F2CF79
:102B2000F6FFF29EA69EA69CE9CFA9FFF3CFAAFFCF
:102B3000A680A850F6BEF28E1200E8AE07D0F3CF02
:102B4000EAFFE4CFEEFFF4CFEEFF1200E8BC15EF92
:102B500016F01200700ED36E9B8CFF0E9268936875
:102B600094689668626AF19E120000C0E5FFD6EC98
:102B700011F0006E005001E1FF00E4CF00F0120000
:102B8000E8AE05D0F3CFEAFFE4CFEEFF1200E8BCD9
:102B900013EF16F01200010E0401886F1C0E0401E1
:102BA000906F916B1BEC16F012000401886B1C0EE9
:102BB0000401906F916B1BEC16F01200550EA76E7E
:102BC000AA0EA76EA682A6B2FED7A94AAA2A01001B
:102BD000E62B0000390400000900000033EC13F07C
:102BE000AEEC12F0120000000000FF000000000038
:102BF000ACA2FED7AD6E1200AAEC15F012000401D3
:102C00004751120004015151120004013E511200BB
:102C1000E8CF7FFF12008FEF15F01DEF15F001EFE9
:102C200014F0E3EF13F030EF15F0F3EF14F06BEF67
:082C300014F039EF14F012005A
:020000040030CA
:010006008574
:00000001FF
