:020000040000FA
:10000000E2EF31F0C96E12007DEF28F0E4EC0CF065
:10001000D5EC11F0FDD712008FEF2CF0D9CFE5FF12
:10002000E1CFD9FF00C0E5FF01C0E5FF02C0E5FF59
:1000300003C0E5FF04C0E5FF05C0E5FF06C0E5FF1E
:1000400007C0E5FF08C0E5FF09C0E5FF0AC0E5FFFE
:100050000BC0E5FF0CC0E5FF0DC0E5FF0EC0E5FFDE
:100060000FC0E5FF10C0E5FF11C0E5FF12C0E5FFBE
:1000700013C0E5FF14C0E5FF15C0E5FF16C0E5FF9E
:1000800017C0E5FF18C0E5FF19C0E5FF1AC0E5FF7E
:100090001BC0E5FF1CC0E5FF1DC0E5FF1EC0E5FF5E
:1000A0001FC0E5FF20C0E5FF21C0E5FF22C0E5FF3E
:1000B00023C0E5FF24C0E5FF25C0E5FF26C0E5FF1E
:1000C00027C0E5FF020EDBCF00F0030EDBCF01F00F
:1000D000040EDBCF02F00250086E0150076E005094
:1000E000066EE56A100EE56E0850E56E0750E56E87
:1000F0000650E56E800EE56E040EE56EE80EE56EC8
:1001000027EC25F0080EE126F0C403F0F1C404F05A
:10011000F2C405F0F3C406F003C007F004C008F011
:1001200005C009F006C00AF0D8800AAED8900AE3EC
:100130000A1E091E081E076C05E1082A03E1092AA8
:10014000D8B40A2AE8C40BF0E9C40CF0E86A040148
:10015000E9BFFF0E0D6E0E6ED890EC31106EEB31D4
:100160000F6ED89010320F32ED51E840E840C00BCE
:100170001012ED41E8403F0BE8BAC009116E126A57
:1001800011BE12680F500B5C0F6E10500C58106EA1
:1001900011500D58116E12500E58126E800F810FB3
:1001A00008E1FF0E115C05E1FF0E105C02E1FE0E9E
:1001B0000F5CD8A04ED01250800F800F08E1000EC7
:1001C000115C05E1000E105C02E1030E0F5CD8B07B
:1001D00040D00A340A30166E0930156E0830146E9D
:1001E0000730136EF6C417F0F7C418F0E86A04017C
:1001F000F7BFFF0E196E800FF36E1650800FF35C81
:1002000008E11550195C05E11450185C02E1135027
:10021000175C1FE30C50156E15260D34166ED89022
:10022000153616360B44E844FC0B146E0B50E844AC
:10023000E844030B15120401EA6B1450EB6F1550E0
:10024000EC6F1650ED6FF06BF16BF26BF36BF3EF3D
:1002500004F0D89009300C6E08300B6ED8900C3238
:100260000B32D8900C320B320A50E838E844E00BDD
:100270000C120A38E8441F0BE8B8E0090E6A08506F
:10028000076E0950086ED89008320732D8900832AD
:1002900007320A50E840E840C00B08120A40E84024
:1002A0003F0B0BC009F00CC00AF0E86A0CBEFF0E51
:1002B0000D6E0E6E07C013F008C014F0E86A08BE99
:1002C000FF0E156EE56E1550E56E1450E56E135079
:1002D000E56E0E50E56E0D50E56E0A50E56E095064
:1002E000E56E6DEC1BF0096EF3CF0AF0F4CF0DF064
:1002F000E9CF0EF0080EE126F6C413F0F7C414F0AF
:10030000E86A0401F7BFFF0E156E166EE56E155014
:10031000E56E1450E56E1350E56E0E50E56E0D500F
:10032000E56E0A50E56E0950E56E53EC1DF0096E5E
:10033000F3CF0AF0080EE126EEC40DF0EFC40EF084
:10034000E86A0401EFBFFF0E176E0E501B6E1B26EE
:1003500017341C6ED8901B361C360D44E844FC0B39
:100360001A6E0D50E844E844030B1B12196AD8803A
:1003700006AED890D8B07AD109C00DF00AC00EF000
:10038000E86A0ABEFF0E176E800FF36E1250800FE0
:10039000F35C08E11150175C05E110500E5C02E1BE
:1003A0000F500D5CD8B03AD10650800FF36E1C5040
:1003B000800FF35C08E11B50055C05E11A50045CFA
:1003C00002E11950035CD8B002D1F4C40DF0F5C4B9
:1003D0000EF0E86A0401F5BFFF0E176E186E0350A9
:1003E0000D2604500E2205501722065018220D50DB
:1003F0000401F06F0E50F16F1750F26F1850F36F49
:10040000F6C40DF0F7C40EF0F4C417F0F5C418F0FC
:100410000E50800FF36E1850800FF35C02E11750FE
:100420000D5CD8B0B8D0F0C41DF0F1C41EF0F2C419
:100430001FF0F3C420F0D8901F30226E1E30216EC2
:10044000D89022322132D890223221322050E838FE
:10045000E844E00B22122038E8441F0BE8B8E0091A
:10046000246A21500B6E22500C6ED8901F30226EE1
:100470001E30216ED890223221322050E840E840D0
:10048000C00B22122040E8403F0B2150076E225043
:10049000086E0BC021F00CC022F0E86A0CBEFF0E03
:1004A000236E246E07C025F008C026F0E86A08BE57
:1004B000FF0E276EE56E2750E56E2650E56E25503F
:1004C000E56E2450E56E2350E56E2250E56E215016
:1004D000E56E6DEC1BF0216EF3CF22F0F4CF23F02C
:1004E000E9CF24F0080EE1260DC025F00EC026F05D
:1004F000E86A0EBEFF0E276EE56E2750E56E2650A9
:10050000E56E2550E56E2450E56E2350E56E2250D1
:10051000E56E2150E56E53EC1DF0216EF3CF22F015
:10052000080EE1262150096E22500A6E09C021F002
:100530000AC022F0E86A0ABEFF0E236E246E125033
:10054000800FF36E2450800FF35C08E12350115CA0
:1005500005E12250105C02E121500F5C1CE20D50BD
:10056000175C0D6E0E5018580E6EE86A0EBEFF0E28
:10057000176E186E0D501D5E0E501E5A17501F5AE2
:100580001850205A1D500401F06F1E50F16F1F507B
:10059000F26F2050F36F1C50800FF36E0401F35183
:1005A000800FF35C08E1F2511B5C05E1F1511A5C2C
:1005B00002E1F051195CD8B0EFD119500401F06F8D
:1005C0001A50F16F1B50F26F1C50F36FE5D11C50A5
:1005D000800FF36E0650800FF35C08E105501B5C42
:1005E00005E104501A5C02E10350195CD8B0D4D183
:1005F0001350035C0D6E145004580E6E15500558C0
:10060000176E16500658186E0D500401F06F0E50FC
:10061000F16F1750F26F1850F36FBED1F4C40DF0A4
:10062000F5C40EF0E86A0401F5BFFF0E176E186EF0
:1006300013500D2614500E22155017221650182252
:100640000D50035C0D6E0E5004580E6E1750055879
:10065000176E18500658186E0D500401F06F0E50AA
:10066000F16F1750F26F1850F36F96D10A1E096C94
:10067000D8B40A2A09C00DF00AC00EF0E86A0ABE12
:10068000FF0E176E186E1250800FF36E1850800F09
:10069000F35C08E11750115C05E10E50105C02E1BB
:1006A0000D500F5CD8B055D11C1C186E1B1C176E5A
:1006B0001A1C0E6E191C0D6E0D2A04E10E2A02E1A1
:1006C000174A182A1850800FF36E0650800FF35CFB
:1006D00008E10550175C05E104500E5C02E103508F
:1006E0000D5CD8B00FD1F4C419F0F5C41AF0E86A63
:1006F0000401F5BFFF0E1B6E1C6E1950035C196ED2
:100700001A5004581A6E1B5005581B6E1C50065880
:100710001C6E19500401F06F1A50F16F1B50F26FEC
:100720001C50F36FF6C419F0F7C41AF0F4C41BF0B0
:10073000F5C41CF01A50800FF36E1C50800FF35C50
:1007400002E11B50195CD8B0C1D0F0C41DF0F1C457
:100750001EF0F2C41FF0F3C420F0D8901F30226EB8
:100760001E30216ED89022322132D890223221328E
:100770002050E838E844E00B22122038E8441F0BF0
:10078000E8B8E009236E246A23BE2468241E231ED1
:10079000221E216C05E1222A03E1232AD8B4242A4F
:1007A00021500B6E22500C6ED8901F30226E1E30DE
:1007B000216ED890223221322050E840E840C00B10
:1007C00022122040E8403F0B221E216C02E1222A27
:1007D00000E12150076E2250086EE86A0CBEFF0E41
:1007E000216E226EE86A08BEFF0E236EE56E23506E
:1007F000E56E0850E56E0750E56E2250E56E21501B
:10080000E56E0C50E56E0B50E56E6DEC1BF0076E5F
:10081000F3CF08F0F4CF0BF0E9CF0CF0080EE1268F
:1008200019C021F01AC022F0E86A1ABEFF0E236E2A
:10083000E56E2350E56E2250E56E2150E56E0C50BA
:10084000E56E0B50E56E0850E56E0750E56E53EC13
:100850001DF0076EF3CF08F0080EE126081E076CA6
:1008600002E1082A00E10750096E08500A6EE86AA2
:100870000ABEFF0E076E800FF36E1250800FF35CFE
:1008800008E11150075C05E110500A5C02E10F50CD
:10089000095C1CE219501B5C196E1A501C581A6E28
:1008A000E86A1ABEFF0E076E086E19501D261A5010
:1008B0001E2207501F22085020221D500401F06FF5
:1008C0001E50F16F1F50F26F2050F36F0401F3516F
:1008D000800FF36E1850800FF35C08E11750F25D43
:1008E00005E10E50F15D02E10D50F05DD8B054D03D
:1008F0000D500401F06F0E50F16F1750F26F185049
:10090000F36F4AD00650800FF36E1850800FF35CDF
:1009100008E11750055C05E10E50045C02E10D5042
:10092000035CD8B039D013500324076E1450042050
:10093000086E15500520096E165006200A6E0750E5
:100940000401F06F0850F16F0950F26F0A50F36F15
:1009500023D0F4C407F0F5C408F0E86A0401F5BF39
:10096000FF0E096E0A6E0750132608501422095014
:1009700015220A5016221350032614500422155033
:1009800005221650062203500401F06F0450F16F47
:100990000550F26F0650F36FD8900401F231046EE7
:1009A000F131036ED89004320332F351E840E8404D
:1009B000C00B0412F341E8403F0BE8BAC009056ED2
:1009C000066A05BE0668EA510326EB510422EC5183
:1009D0000522ED5106220350EA6F0450EB6F0550DB
:1009E000EC6F0650ED6FE56A100EE56E800EE56E59
:1009F000040EE56EE80EE56E0250E56E0150E56E00
:100A00000050E56E27EC25F0080EE126E4CF27F034
:100A1000E4CF26F0E4CF25F0E4CF24F0E4CF23F0B8
:100A2000E4CF22F0E4CF21F0E4CF20F0E4CF1FF0B8
:100A3000E4CF1EF0E4CF1DF0E4CF1CF0E4CF1BF0B8
:100A4000E4CF1AF0E4CF19F0E4CF18F0E4CF17F0B8
:100A5000E4CF16F0E4CF15F0E4CF14F0E4CF13F0B8
:100A6000E4CF12F0E4CF11F0E4CF10F0E4CF0FF0B8
:100A7000E4CF0EF0E4CF0DF0E4CF0CF0E4CF0BF0B8
:100A8000E4CF0AF0E4CF09F0E4CF08F0E4CF07F0B8
:100A9000E4CF06F0E4CF05F0E4CF04F0E4CF03F0B8
:100AA000E4CF02F0E4CF01F0E4CF00F0E4CFD9FFCF
:100AB0001200D9CFE5FFE1CFD9FF00C0E5FF01C0AB
:100AC000E5FF02C0E5FF03C0E5FF04C0E5FF05C088
:100AD000E5FF06C0E5FF07C0E5FF08C0E5FF09C068
:100AE000E5FF0AC0E5FF0BC0E5FF0CC0E5FF0DC048
:100AF000E5FF0EC0E5FF0FC0E5FF10C0E5FF11C028
:100B0000E5FF12C0E5FF13C0E5FF14C0E5FF15C007
:100B1000E5FF16C0E5FF17C0E5FF18C0E5FF19C0E7
:100B2000E5FF1AC0E5FF1BC0E5FF1CC0E5FF1DC0C7
:100B3000E5FF1EC0E5FF020EDBCF00F0030EDBCFAA
:100B400001F0040EDBCF02F0050EDBCF03F0060E42
:100B5000DBCF04F0070EDBCF05F0080EDBCF06F08D
:100B6000090EDBCF07F00A0EDBCF08F0096A0A6A2C
:100B700002C00DF00D50800A0DE102500501756FA5
:100B80000150746F0050736F050E016E730E006E8E
:100B9000800E026E03C0E9FF04C0F3FF05502CEC89
:100BA00032F00B6E0B50D8B40FEF09F00B50250A42
:100BB00002E0F6EF08F00C6A0D6A0E6A0F6A106A1E
:100BC0000A0E116E126A136A146A200E156E1668E8
:100BD000176A2B0E186E032A02E3044A052A03C083
:100BE000E9FF04C0F3FF05502CEC32F0196E250A22
:100BF00013E11950E56E0250E56E0150E56E0050AC
:100C0000E56E18EC24F0040EE126094A0A2A032AAC
:100C100002E3044A052ABED71950300A06E1300E15
:100C2000156E032A02E3044A052A03C0E9FF04C043
:100C3000F3FF05502CEC32F02D0A06E1010E146E84
:100C4000032A02E3044A052A03C0E9FF04C0F3FFB4
:100C500005502CEC32F0200A08E1010E176E200E30
:100C6000186E032A02E3044A052A03C0E9FF04C000
:100C7000F3FF05502CEC32F02B0A06E1010E176E43
:100C8000032A02E3044A052A03C0E9FF04C0F3FF74
:100C900005502CEC32F0196E310E195C2BE33A0E34
:100CA000195C28E203C019F004C01AF005C01BF05B
:100CB00019C0E9FF1AC0F3FF1B502CEC32F01C6E78
:100CC000300E1C5C11E33A0E1C5C0EE213500A0D50
:100CD000F3CF1DF01C501D26D00E1D24136E192AB3
:100CE00002E31A4A1B2AE4D719C003F01AC004F021
:100CF0001BC005F003C0E9FF04C0F3FF05502CEC56
:100D000032F02E0A2DE1032A02E3044A052A166A6C
:100D100003C019F004C01AF005C01BF019C0E9FFA8
:100D20001AC0F3FF1B502CEC32F01C6E300E1C5C12
:100D300011E33A0E1C5C0EE216500A0DF3CF1DF0C3
:100D40001C501D26D00E1D24166E192A02E31A4AC5
:100D50001B2AE4D719C003F01AC004F01BC005F029
:100D600003C0E9FF04C0F3FF05502CEC32F0196E0C
:100D70006C0A07E1010E0C6E032A02E3044A052AFD
:100D800009D01950680A06E1010E0E6E032A02E32B
:100D9000044A052A03C0E9FF04C0F3FF05502CEC08
:100DA00032F0750A06E1010E106E032A02E3044ACE
:100DB000052A03C0E9FF04C0F3FF05502CEC32F014
:100DC000196E730A05E1010E0D6E200E156E3FD0EF
:100DD0001950780A03E1100E116E39D01950580AD3
:100DE00005E1100E116E010E126E31D01950630A1A
:100DF00002E1116A2CD019506F0A03E1080E116E3E
:100E000026D01950660A03E1010E0F6E20D019504A
:100E1000640A1DE01950690A1AE0105005E0FF0E3F
:100E200003260422052213D01950E56E0250E56E08
:100E30000150E56E0050E56E18EC24F0040EE1263A
:100E4000094A0A2A032A02E3044A052AA3D60D50B6
:100E500021E00650030F0D6E000E0720196E000EE4
:100E600008201A6E0DC006F019C007F01AC008F06D
:100E7000FD0E0D26FF0E19221A220DC0E9FF19C022
:100E8000F3FF1A50F7EC30F00D6EF3CF19F0F4CFFA
:100E90001AF0FDD00F500DE0000E1A6E120E196EF2
:100EA000A60E0D6E040E0626000E072208221668F6
:100EB000EED016680C5023E00650040F0C6E000EA6
:100EC00007200F6E000E08201B6E0CC006F00FC02E
:100ED00007F01BC008F0FC0E0C26FF0E0F221B2291
:100EE0000CC0E9FF0FC0F3FF1B5060EC30F00C6E3C
:100EF000F3CF0FF0F4CF1BF0E9CF1CF067D00E500A
:100F00002FE00650020F0E6E000E07201D6E000E21
:100F100008201E6E0EC006F01DC007F01EC008F0AF
:100F2000FE0E0E26FF0E1D221E220EC0E9FF1DC062
:100F3000F3FF1E50B6EC31F00E6E0EC00CF00F6ACF
:100F40001B6A1C6A11500A0A03E11050D8B43ED043
:100F50000C500E6E0EC00CF00F6A1B6A1C6A36D065
:100F60000650020F0E6E000E07201D6E000E0820A8
:100F70001E6E0EC006F01DC007F01EC008F0FE0E6B
:100F80000E26FF0E1D221E220EC0E9FF1DC0F3FF1C
:100F90001E50B6EC31F00E6EF3CF1DF00EC00CF00B
:100FA0001DC00FF0E86A1DBEFF0E1B6E1C6E1150B7
:100FB0000A0A02E110500AE00C500E6E0F501D6E2E
:100FC0000EC00CF01DC00FF01B6A1C6A040E196ED7
:100FD000620E0D6E800E1A6E1150D8B440D01050B3
:100FE00013E01150E56E040EE56E620EE56E1C50C6
:100FF000E56E1B50E56E0F50E56E0C50E56E77EC1C
:101000001CF0070EE12612D01150E56E040EE56EBD
:10101000620EE56E1C50E56E1B50E56E0F50E56EDE
:101020000C50E56EBBEC27F0070EE12617502FE0C1
:101030000DC0E9FF19C0F3FF1A502CEC32F02D0A55
:1010400026E0FF0E0D2619221A2218C0E5FF0DC05A
:10105000E9FF19C0F3FF1A5099EC32F018D00CC018
:10106000E5FF0DC0E9FF19C0F3FF1A5099EC32F00B
:101070000D50010F0C6E000E19200E6E000E1A207E
:10108000E56A0CC0E9FF0EC0F3FF99EC32F00DC029
:101090000CF019C00EF01AC00FF013C010F0105071
:1010A00010E00CC0E9FF0EC0F3FF0F502CEC32F043
:1010B000176E175006E00C2A02E30E4A0F2A10069C
:1010C000EED710C013F014501EE109C00CF00AC096
:1010D0000EF010C00FF00F5010E01550E56E0250EA
:1010E000E56E0150E56E0050E56E18EC24F0040E3C
:1010F000E1260C4A0E2A0F06EED70CC009F00EC0EE
:101100000AF00FC013F016C00CF00DC00DF019C09E
:101110000EF01AC00FF009C010F00AC015F00DC093
:10112000E9FF0EC0F3FF0F502CEC32F0166E165094
:10113000D8B43ED00CC016F0176A161E171E1650F3
:10114000171005E00CC016F00C06165031E00DC06B
:10115000E9FF0EC0F3FF0F502CEC32F0116E12506D
:1011600010E01150E56E73EC31F0166EE652165039
:1011700004E0DF0E1114166E02D011C016F016C076
:1011800011F01150E56E0250E56E0150E56E005011
:10119000E56E18EC24F0040EE1260D2A02E30E4A57
:1011A0000F2A104A152A1350D8B4B9D71306B7D747
:1011B00010C009F015C00AF014502BE010C00CF05C
:1011C00015C00DF013C00EF00E501FE0200EE56E9E
:1011D0000250E56E0150E56E0050E56E18EC24F00B
:1011E000040EE1260C4A0D2A0E06EED70B50E56ED2
:1011F0000250E56E0150E56E0050E56E18EC24F0EB
:10120000040EE126094A0A2A04D00CC009F00DC0D8
:101210000AF0032A02E3044A052ACAEF05F00AC0CD
:10122000F3FF0950E4CF1EF0E4CF1DF0E4CF1CF033
:10123000E4CF1BF0E4CF1AF0E4CF19F0E4CF18F0BC
:10124000E4CF17F0E4CF16F0E4CF15F0E4CF14F0BC
:10125000E4CF13F0E4CF12F0E4CF11F0E4CF10F0BC
:10126000E4CF0FF0E4CF0EF0E4CF0DF0E4CF0CF0BC
:10127000E4CF0BF0E4CF0AF0E4CF09F0E4CF08F0BC
:10128000E4CF07F0E4CF06F0E4CF05F0E4CF04F0BC
:10129000E4CF03F0E4CF02F0E4CF01F0E4CF00F0BC
:1012A000E4CFD9FF12003C4E4F20464C4F41543EF4
:1012B0000000D9CFE5FFE1CFD9FF00C0E5FF01C0B5
:1012C000E5FF02C0E5FF03C0E5FF04C0E5FF05C080
:1012D000E5FF06C0E5FF07C0E5FF08C0E5FF09C060
:1012E000E5FF0AC0E5FF0BC0E5FF0CC0E5FF0DC040
:1012F000E5FF020EDBCF00F0030EDBCF01F0040EA2
:10130000DBCF02F00050090F066E000E0120076EC1
:10131000000E0220086E0B6E07500A6E0650096E12
:10132000E56A0D0EE56E0B50E56E0A50E56E09504C
:10133000E56E800EE56E040EE56E470EE56E27EC59
:1013400025F0080EE12600C009F001C00AF002C035
:101350000BF0E56AE56E0B50E56E0A50E56E09503C
:10136000E56E800EE56E040EE56E810EE56E27ECEF
:1013700025F0080EE12681C403F00350010A04E0C1
:101380000350030A01E018D104015C51036E5D5162
:10139000046E04014F51056E5051096E0550035CF7
:1013A00005017C6F095004587D6F04015C510401F4
:1013B0004F6F04015D510401506F04015E5104013F
:1013C000516F04015F510401526F05017C517D1181
:1013D000D8A47ED072EC2FF0036EF3CF04F0F4CFDC
:1013E00005F0E9CF09F0040154510A6E55510B6E16
:1013F00056510C6E57510D6E0A50035E0B50045A35
:101400000C50055A0D50095A03500401FC6F04504A
:10141000FD6F0550FE6F7F0E0914FF6F040153B17D
:1014200025D00401FD35FF31046EFE31036E043416
:1014300004320332000E04BEFF0E096E056E86C430
:101440000AF00B6A0C6A0D6A0D50800FF36E09509A
:10145000800FF35C08E105500C5C05E104500B5C67
:1014600002E103500A5C02E204015381040153B11A
:1014700049D04BC403F04CC404F04DC405F04EC435
:1014800009F00401FF51800FF36E0950800FF35CE7
:1014900008E10550FE5D05E10450FD5D02E10350E9
:1014A000FC5D08E203C0FCF404C0FDF405C0FEF4DA
:1014B00009C0FFF4040160A304D0010E036E046AA6
:1014C00002D00368046803C07CF504C07DF51AD01F
:1014D0000401539158C4FCF459C4FDF45AC4FEF4F9
:1014E0005BC4FFF40401FC5104014B6F0401FD5186
:1014F00004014C6F0401FE5104014D6F0401FF51C2
:1015000004014E6F0401FF51800F800F08E1000EAF
:10151000FE5D05E1000EFD5D02E1010EFC5D06E2EF
:1015200004016E6B6F6B706B716B46D00401FC51E4
:10153000036EFD51046EFE51056EFF51E56E0550C0
:10154000E56E0450E56E0350E56E010EE56E000E8B
:10155000E56AE56AE56AE1EC21F0036EF3CF04F099
:10156000F4CF05F0E9CF09F0080EE1267CC50AF0BA
:101570007DC50BF0E86A05017DBFFF0E0C6E0D6E98
:101580000950E56E0550E56E0450E56E0350E56EBA
:101590000D50E56E0C50E56E0B50E56E0A50E56E91
:1015A0006DEC1BF004016E6FF3CF6FF4F4CF70F4A9
:1015B000E9CF71F4080EE126020E0401815DD8A086
:1015C00045D1040160A142D10050230F036E000EEB
:1015D0000120046E000E0220E56E0450E56E0350FB
:1015E000E56E0EEC00F0030EE1260050230F036EB3
:1015F000000E0120046E000E0220056E020E03266E
:10160000000E0422052203C0E9FF04C0F3FF0550C9
:1016100060EC30F0F3CF04F0F4CF05F0E9CF09F03F
:101620000450036E0550046ED89004320332D890F3
:10163000043203320950E840E840C00B041209406C
:10164000E8403F0BE8BAC009056E096A05BE0968A3
:1016500004015C51035C0401726F04015D51045884
:101660000401736F04015E5105580401746F040195
:101670005F5109580401756FD88075AFD89022E387
:101680000401831D046E821D036E034A042AE86A66
:1016900004BEFF0E056E096E04017551800FF36ED6
:1016A0000950800FF35C08E10550745D05E10450BA
:1016B000735D02E10350725D05E30401726B736BAD
:1016C000746B756B04017551800F800F08E1000E7B
:1016D000745D05E1000E735D02E1010E725D1EE3B3
:1016E00082C403F083C404F0E86A040183BFFF0EE0
:1016F000056E800FF36E04017551800FF35C08E1F5
:101700007451055C05E17351045C02E17251035CA4
:1017100005E30401726B736B746B756B0401875185
:1017200009E0E86CD8900401723773377437753765
:10173000010FF9E304017551800F800F08E1000EDD
:10174000745D05E1800E735D02E1000E725D07E3DA
:10175000040172697F0E736F746B756B14D0040192
:101760007551800F810F08E1FF0E745D05E1800E59
:10177000735D02E1000E725D06E20401726B800E81
:10178000736F746975690050330F036E000E01208A
:10179000046E000E0220056E04017251096E735131
:1017A000E56E0950E56E0550E56E0450E56E035098
:1017B000E56E18EC14F0050EE12604018151030AD0
:1017C00023E10050330F036E000E0120046E000E63
:1017D0000220056E0B0E0326000E0422052203C014
:1017E000E9FF04C0F3FF055060EC30F0F3CF04F0E4
:1017F000F4CF05F00450036E0550046E035004014D
:10180000476F0450486F22D00050330F036E000E14
:101810000120046E000E0220056E0B0E0326000E42
:101820000422052203C0E9FF04C0F3FF055060EC69
:1018300030F0F3CF04F0F4CF05F00450036E055000
:10184000046E03500401496F04504A6F81C403F0D1
:101850000350010A04E00350030A01E07DD047C4AD
:1018600003F048C404F0E86A040148BFFF0E056EA7
:10187000096E04016E51035C0401726F04016F5123
:1018800004580401736F0401705105580401746F0A
:101890000401715109580401756F800F800F08E130
:1018A000000E745D05E1800E735D02E1000E725D55
:1018B00007E3040172697F0E736F746B756B14D04C
:1018C00004017551800F810F08E1FF0E745D05E181
:1018D000800E735D02E1000E725D06E20401726B20
:1018E000800E736F746975690050440F036E000EAB
:1018F0000120046E000E0220056E04017251096E73
:101900007351E56E0950E56E0550E56E0450E56EC5
:101910000350E56E18EC14F0050EE126440E002687
:10192000000E012202220B0E0026000E01220222CE
:1019300000C0E9FF01C0F3FF025060EC30F0F3CFCC
:1019400001F0F4CF02F00150006E0250016E005021
:101950000401496F01504A6F0850086EE56A0D0E88
:10196000E56E800EE56E040EE56E470EE56E0850DE
:10197000E56E0750E56E0650E56E27EC25F0080E83
:10198000E126E4CF0DF0E4CF0CF0E4CF0BF0E4CF90
:101990000AF0E4CF09F0E4CF08F0E4CF07F0E4CF99
:1019A00006F0E4CF05F0E4CF04F0E4CF03F0E4CF99
:1019B00002F0E4CF01F0E4CF00F0E4CFD9FF120051
:1019C00025642025640A000000C0E5FF01C0E5FF92
:1019D00002C0E5FF03C0E5FF04C0E5FFCAEC32F03A
:1019E00072EC2FF0F3CF01F0F4CF02F0E9CF03F067
:1019F000880F0401346F130E0120356F000E022092
:101A0000366F000E0320376FC2EC2BF09380810EEF
:101A1000006E0F0E016E0F0E036E380E002603507F
:101A200001220F0E036E800E005E0350015A810EDC
:101A3000026E0F0E036E0F0E046E380E0226045057
:101A400003220F0E046E800E025E0450035A02C081
:101A5000E9FF03C0EAFFEFCF02F0029000C0E9FF08
:101A600001C0EAFF02C0EFFFE56A800EE56E0F0ECF
:101A7000E56E810EE56E000EE56A09EC2CF0050EB0
:101A8000E126948E820E006E0F0E016E0F0E036E15
:101A9000380E0026035001220F0E036E800E005EEA
:101AA0000350015A820E026E0F0E036E0F0E046E6B
:101AB000380E0226045003220F0E046E800E025EC2
:101AC0000450035A02C0E9FF03C0EAFFEFCF02F05F
:101AD000029E00C0E9FF01C0EAFF02C0EFFF070E4F
:101AE000E56E800EE56E0F0EE56E820EE56E010E60
:101AF000E56E09EC2CF0050EE1269384810E006E54
:101B00000F0E016E0F0E036E380E002603500122D9
:101B10000F0E036E800E005E0350015A810E026E9E
:101B20000F0E036E0F0E046E380E022604500322B1
:101B30000F0E046E800E025E0450035A02C0E9FFCD
:101B400003C0EAFFEFCF02F0029400C0E9FF01C03A
:101B5000EAFF02C0EFFF020EE56E800EE56E0F0E8B
:101B6000E56E810EE56E020EE56E09EC2CF0050EB9
:101B7000E1268A98899C8B84040189859398929C9C
:101B80009494040192959283800E006E040E016E6F
:101B90000F0E036E380E0026035001220F0E036E47
:101BA000800E005E0350015A800E026E040E036E1A
:101BB0000F0E046E380E0226045003220F0E046E20
:101BC000800E025E0450035A02C0E9FF03C0EAFF20
:101BD000EFCF02F0029200C0E9FF01C0EAFF02C0AD
:101BE000EFFF9283800E006E040E016E0F0E036EE7
:101BF000380E0026035001220F0E036E800E005E89
:101C00000350015A800E026E040E036E0F0E046E16
:101C1000380E0226045003220F0E046E800E025E60
:101C20000450035A02C0E9FF03C0EAFFEFCF02F0FD
:101C3000029200C0E9FF01C0EAFF02C0EFFF9283F9
:101C4000800E006E040E016E0F0E036E380E00261D
:101C5000035001220F0E036E800E005E0350015AE6
:101C6000800E026E040E036E0F0E046E380E0226F6
:101C7000045003220F0E046E800E025E0450035ABD
:101C800002C0E9FF03C0EAFFEFCF02F0029200C0FA
:101C9000E9FF01C0EAFF02C0EFFF0C0EBD6EBD9A66
:101CA000BD98BE6AB96AB9860401936B020E946F3F
:101CB000956B0A0E966F976B100E986F070E996FC3
:101CC0009A919A83800EE56E040EE56EB60EE56E6F
:101CD000EBEC29F0030EE126800EE56E040EE56EB6
:101CE000D70EE56E4DEC21F0030EE126800EE56E79
:101CF000040EE56EC60EE56E4DEC21F0030EE126F6
:101D00000401B16BB26BB36BB46BB591B5959C6BC1
:101D10009D6B9E6B9F6BA46BA56BA66BA76B8A9646
:101D2000899E8B80040189859396929E94900401EC
:101D300092959283800E006E040E016E0F0E036E5C
:101D4000380E0026035001220F0E036E800E005E37
:101D50000350015A800E026E040E036E0F0E046EC5
:101D6000380E0226045003220F0E046E800E025E0F
:101D70000450035A02C0E9FF03C0EAFFEFCF02F0AC
:101D8000029200C0E9FF01C0EAFF02C0EFFF9283A8
:101D9000800E006E040E016E0F0E036E380E0026CC
:101DA000035001220F0E036E800E005E0350015A95
:101DB000800E026E040E036E0F0E046E380E0226A5
:101DC000045003220F0E046E800E025E0450035A6C
:101DD00002C0E9FF03C0EAFFEFCF02F0029200C0A9
:101DE000E9FF01C0EAFF02C0EFFF9283800E006EA0
:101DF000040E016E0F0E036E380E002603500122F2
:101E00000F0E036E800E005E0350015A800E026EAC
:101E1000040E036E0F0E046E380E022604500322C9
:101E20000F0E046E800E025E0450035A02C0E9FFDA
:101E300003C0EAFFEFCF02F0029200C0E9FF01C049
:101E4000EAFF02C0EFFF0C0E666E669A6698676A3C
:101E50000501006B020E016F026B0A0E036F046B2B
:101E6000100E056F070E066F07910783800EE56E53
:101E7000050EE56E230EE56EEBEC29F0030EE12670
:101E8000800EE56E050EE56E440EE56E4DEC21F01C
:101E9000030EE126800EE56E050EE56E330EE56E4F
:101EA0004DEC21F0030EE12605011E6B1F6B206B2C
:101EB000216B22912295096B0A6B0B6B0C6B116BDA
:101EC000126B136B146BDEEC2EF0E4CF04F0E4CF56
:101ED00003F0E4CF02F0E4CF01F0E4CF00F0120011
:101EE00043732025642025640A0043002563000015
:101EF000D9CFE5FFE1CFD9FF00C0E5FF01C0E5FF85
:101F000002C0E5FF03C0E5FF04C0E5FF05C0E5FF33
:101F100006C0E5FF07C0E5FF08C0E5FF09C0E5FF13
:101F20000AC0E5FF0BC0E5FF0CC0E5FF020EDBCFEA
:101F300000F0030EDBCF01F0040EDBCF02F0036AEA
:101F4000046A9CEC2FF0056EFE0A01E077D03EECAF
:101F50002AF09CEC2FF0066E030E065CD8A05AD037
:101F6000060E065CD8B056D0FD0E0624076EFA6A3F
:101F7000FB6A0734FA36E834FA36FC0B8C0FE56E50
:101F80001F0EFA22000EFB22E450F96ECCEF0FF088
:101F9000DEEF0FF0F7EF0FF00050090F076E000EA5
:101FA0000120086E000E022007C0E9FF08C0F3FF01
:101FB000B6EC31F0036EF3CF04F02CD00050090FD3
:101FC000076E000E0120086E000E0220096E020E40
:101FD0000726000E0822092207C0E9FF08C0F3FF08
:101FE0000950B6EC31F0036EF3CF04F013D000507B
:101FF000070F076E000E0120086E000E022007C0BA
:10200000E9FF08C0F3FF2CEC32F0010B076E07C0AC
:1020100003F0046A06C007F00450E56E0350E56E55
:10202000E56A0750E56E000EE56E190EE56EC00E0E
:10203000E56ED0EC2CF0070EE1269AD1080E055C77
:10204000D8B096D1FA6AFB6A0534FA36E834FA3623
:10205000FC0B620FE56E200EFA22000EFB22E4500C
:10206000F96E41EF10F05CEF10F06EEF10F080EFC2
:1020700010F0B2EF10F0E8EF10F007EF11F064EF9E
:1020800011F00050230F056E000E0120076E000EA8
:102090000220E56E0750E56E0550E56E45EC16F042
:1020A000030EE126020EE56E00C0E9FF01C0F3FF5A
:1020B000025099EC32F05CD10050330F056E000EE7
:1020C0000120076E000E0220E56E0750E56E0550F8
:1020D000E56EFCEC17F0030EE1264AD10050440FE8
:1020E000056E000E0120076E000E0220E56E0750FF
:1020F000E56E0550E56EFCEC17F0030EE12638D1D5
:102100000050090F056E000E0120076E000E022020
:10211000086E9CEC2FF00C6E0B6AE56A0CC0F4FFA5
:1021200005C0E9FF07C0F3FF085076EC32F09CECE5
:102130002FF00A6A0B260A500C220BC0E5FF0CC0D8
:10214000F4FF05C0E9FF07C0F3FF085076EC32F05A
:10215000010EE56E00C0E9FF01C0F3FF025099ECEB
:1021600032F006D10050090F056E000E0120076EF7
:10217000000E0220086E020E0526000E072208221D
:102180009CEC2FF00C6E0B6AE56A0CC0F4FF05C0E6
:10219000E9FF07C0F3FF085076EC32F09CEC2FF01B
:1021A0000A6A0B260A500C220BC0E5FF0CC0F4FF94
:1021B00005C0E9FF07C0F3FF085076EC32F0E56A8E
:1021C00000C0E9FF01C0F3FF025099EC32F0D0D01B
:1021D0000050070F056E000E0120076E000E022052
:1021E000086E9CEC2FF0010BF46E05C0E9FF07C0F0
:1021F000F3FF08502CEC32F0FE0BF410E56E05C036
:10220000E9FF07C0F3FF085099EC32F0B1D09CEC25
:102210002FF0066E0050160F056E000E0120076E9F
:10222000000E0220086E05500C0F096E000E0720EC
:102230000A6E000E08200B6E0650D880E866D89013
:102240000C6A0C360C50D880E866D8900C6A0C36B4
:102250000C50010BF46E09C0E9FF0AC0F3FF0B50EC
:102260002CEC32F0FE0BF410E56E09C0E9FF0AC059
:10227000F3FF0B5099EC32F00650010A01E078D0E0
:10228000080E0526000E07220822E56AF46AF66A9F
:10229000F76A05C0E9FF07C0F3FF08501BEC32F0F6
:1022A0000050230F056E000E0120066E000E022066
:1022B000E56AE56AE56E0650E56E0550E56E8BEC65
:1022C00023F0050EE12654D09CEC2FF0046E036A37
:1022D0009CEC2FF0066A0326065004220050160FCD
:1022E000056E000E0120066E000E0220076E0550DE
:1022F0000C0F086E000E0620096E000E07200A6EF5
:1023000008C0E9FF09C0F3FF2CEC32F0E880E56E6D
:1023100008C0E9FF09C0F3FF0A5099EC32F0080E3B
:102320000526000E0622072203C008F004C009F0AB
:1023300008C0E5FF09C0F4FFF66AF76A05C0E9FFC7
:1023400006C0F3FF07501BEC32F0230E0026000EF0
:10235000012202220450E56E0350E56E0250E56E44
:102360000150E56E0050E56E83EC26F0050EE12687
:10237000E4CF0CF0E4CF0BF0E4CF0AF0E4CF09F0A7
:10238000E4CF08F0E4CF07F0E4CF06F0E4CF05F0A7
:10239000E4CF04F0E4CF03F0E4CF02F0E4CF01F0A7
:1023A000E4CF00F0E4CFD9FF120000C0E5FF01C088
:1023B000E5FF02C0E5FF03C0E5FF20EC20F022ECC2
:1023C0001EF0D6EC1EF072EC2FF0006EF3CF01F091
:1023D000F4CF02F0E9CF03F004013451005E35512F
:1023E000015A3651025A3751035A039E3F0E035C7D
:1023F00008E1FF0E025C05E1FF0E015C02E1FF0E49
:10240000005CD8B00FEF14F072EC2FF0F3CF01F0B6
:10241000F4CF02F0E9CF03F0880F0401346F130EFC
:102420000120356F000E0220366F000E0320376F3B
:102430005BEC1AF005C0E5FFF2CF05F0F29E040157
:10244000A9510401546F0401AA510401556F0401FC
:10245000AB510401566F0401AC510401576F0401E4
:10246000AD510401586F0401AE510401596F0401CC
:10247000AF5104015A6F0401B05104015B6F0401B4
:10248000B15104015C6F0401B25104015D6F04019C
:10249000B35104015E6F0401B45104015F6F040184
:1024A000B5510401606F0401AD6BAE6BAF6BB06BE7
:1024B00005BEF28EE4CF05F0800EE56E040EE56EEB
:1024C000930EE56E59EC09F0030EE1269EC47EF5ED
:1024D0009FC47FF505017F51800F7C0F02E1000E44
:1024E0007E5D04E305017E69030E7F6F05017F5168
:1024F000800F840F02E1010E7E5D05E2010E0501F1
:102500007E6FFC0E7F6F05017F51800F800F02E10F
:10251000010E7E5D10E305017F51800FF36E040113
:102520009751800FF35C03E1965105017E5D03E254
:1025300005017E6B7F6BD88005017FAFD89015E3D6
:102540000401971D016E961D006E004A012A01507C
:10255000800FF36E05017F51800FF35C02E17E5125
:10256000005C03E205017E6B7F6B04019AA309D036
:10257000B5A507D0D88005017FAFD89002E37E6B68
:102580007F6BD88005017FAFD89007E37E51FF0FA6
:10259000006E030E7F21016E04D07EC500F07FC562
:1025A00001F000C080F501C081F505018051020BEA
:1025B000E840010BE838E844F46EBD50DF0BF4103E
:1025C000BD6E8051010B010BE838F46EBD50EF0B6E
:1025D000F410BD6E81358131016E8031006E0134A1
:1025E000013200320050BE6ED88005017FAFD89016
:1025F00002E3898C01D0899C05C0E5FFF2CF05F08C
:10260000F29E050116510401546F05011751040192
:10261000556F050118510401566F05011951040148
:10262000576F05011A510401586F05011B51040130
:10263000596F05011C5104015A6F05011D51040118
:102640005B6F05011E5104015C6F05011F51040100
:102650005D6F0501205104015E6F050121510401E8
:102660005F6F050122510401606F05011A6B1B6B3E
:102670001C6B1D6B05BEF28EE4CF05F0800EE56E7F
:10268000050EE56E000EE56E59EC09F0030EE1262D
:102690000BC57EF50CC57FF505017F51800F7C0FC2
:1026A00002E1000E7E5D04E305017E69030E7F6F8B
:1026B00005017F51800F840F02E1010E7E5D05E26E
:1026C000010E05017E6FFC0E7F6F05017F51800FAB
:1026D000800F02E1010E7E5D10E305017F51800F46
:1026E000F36E05010451800FF35C03E10351050112
:1026F0007E5D03E205017E6B7F6BD88005017FAFB5
:10270000D89015E30501041D016E031D006E004AFB
:10271000012A0150800FF36E05017F51800FF35C99
:1027200002E17E51005C03E205017E6B7F6B0501D7
:1027300007A309D022A507D0D88005017FAFD89084
:1027400002E37E6B7F6BD88005017FAFD89007E3F3
:102750007E51FF0F006E030E7F21016E04D07EC5F7
:1027600000F07FC501F000C080F501C081F50501D2
:102770008051020BE840010BE838E844F46E6650E3
:10278000DF0BF410666E8051010B010BE838F46E1C
:102790006650EF0BF410666E81358131016E803129
:1027A000006E0134013200320050676ED88005019E
:1027B0007FAFD89002E3898E01D0899E0401393F12
:1027C00001D03A2B04013951C80A02E13A5101E023
:1027D00026D00401396B3A6B006A0050E56EDEECDE
:1027E0002AF0016EE652015003E1016A012A01D08C
:1027F000016A00C003F0E56A0150E56EE56A035026
:10280000E56E000EE56E1E0EE56EE00EE56ED0EC98
:102810002CF0070EE126002A030E005CDEE3E4CF75
:1028200003F0E4CF02F0E4CF01F0E4CF00F01200B7
:10283000D9CFE5FFE1CFD9FF00C0E5FF01C0E5FF3B
:1028400002C0E5FF03C0E5FF04C0E5FF05C0E5FFEA
:1028500006C0E5FF07C0E5FF08C0E5FF09C0E5FFCA
:102860000AC0E5FF0BC0E5FF020EDBCF00F0030E50
:10287000DBCF01F0040EDBCF02F0050EDBCF03F05F
:10288000060EDBCF04F002500A6E0150096E0050B4
:10289000086EE56A110EE56E0A50E56E0950E56EA8
:1028A0000850E56E800EE56E040EE56E230EE56EB3
:1028B00027EC25F0080EE12632C405F033C406F0FB
:1028C000E86A040133BFFF0E076E04017D6F0650F6
:1028D0007C6F05507B6F7A6B03C005F004C006F077
:1028E000E86A04BEFF0E076E086E23C409F0E56AAD
:1028F000E56AE56A0950E56E0850E56E0750E56E39
:102900000650E56E0550E56E6DEC1BF00401766F28
:10291000F3CF77F4F4CF78F4E9CF79F4080EE12619
:1029200004012451D8B4AFD00450800F800F02E1CD
:10293000010E035C25E304012951800F7C0F08E19F
:10294000000E285D05E1000E275D02E1000E265D08
:1029500017E204013151800FF36E04017D51800FA5
:10296000F35C0DE17C510401305D09E104017B5110
:1029700004012F5D04E104017A5104012E5D33E36B
:10298000D88004AED890D8A043D004012951800F3C
:10299000840F08E1000E285D05E1000E275D02E1CD
:1029A000010E265D35E304017D1D0A6E7C1D096E56
:1029B0007B1D046E7A1D036E032A04E1042A02E1E2
:1029C000094A0A2A0A50800FF36E04013151800F20
:1029D000F35C08E13051095C05E12F51045C02E130
:1029E0002E51035C15E2055004012625036E0650A6
:1029F0002721046E07502821096E085029210A6EEC
:102A00000350266F0450276F0950286F0A50296F12
:102A1000040126390F0B036E2739046EF00B041ADC
:102A200003262851E838F00B041228390F0B096EE1
:102A300029390A6EF00B0A1A0926F00E0AB60A2680
:102A400024C40BF0E56AE56AE56A0B50E56E0A50AE
:102A5000E56E0950E56E0450E56E0350E56E6DECD1
:102A60001BF0036EF3CF04F0F4CF09F0E9CF0AF0C6
:102A7000080EE126035004017627045077230950FD
:102A800078230A50792304012551D8B465D02A51FE
:102A9000055C0501556F04012B5106580501566F61
:102AA00004012C5107580501576F04012D51085896
:102AB0000501586F800F800F08E1010E575D05E199
:102AC000000E565D02E1000E555D06E305015569F5
:102AD0005669576B586B13D005015851800F810F01
:102AE00008E1FF0E575D05E1000E565D02E1000EA4
:102AF000555D05E20501556B566B5769586905012F
:102B000055515525036E5635046E5735096E5835A7
:102B10000A6E25C40BF0E56AE56AE56A0B50E56EBE
:102B20000A50E56E0950E56E0450E56E0350E56EFF
:102B30006DEC1BF0036EF3CF04F0F4CF09F0E9CF96
:102B40000AF0080EE126035004017627045077238B
:102B5000095078230A507923055004012A6F065042
:102B60002B6F07502C6F08502D6F04017D51800F83
:102B7000F36E04017951800FF35C0DE1785104018B
:102B80007C5D09E10401775104017B5D04E10401EE
:102B9000765104017A5D11E204017A5104012E6F2D
:102BA00004017B5104012F6F04017C510401306F3B
:102BB00004017D510401316F3AD004017D1D066E80
:102BC0007C1D056E7B1D046E7A1D036E032A04E1D5
:102BD000042A02E1054A062A04017951800FF36EA6
:102BE0000650800FF35C08E10550785D05E1045064
:102BF000775D02E10350765D0AE2035004012E6F17
:102C000004502F6F0550306F0650316F10D0040103
:102C1000765104012E6F0401775104012F6F0401D6
:102C200078510401306F040179510401316FE56A74
:102C3000110EE56E800EE56E040EE56E230EE56E58
:102C40000250E56E0150E56E0050E56E27EC25F070
:102C5000080EE126E4CF0BF0E4CF0AF0E4CF09F050
:102C6000E4CF08F0E4CF07F0E4CF06F0E4CF05F0BE
:102C7000E4CF04F0E4CF03F0E4CF02F0E4CF01F0BE
:102C8000E4CF00F0E4CFD9FF1200D9CFE5FFE1CFC8
:102C9000D9FF00C0E5FF01C0E5FF02C0E5FF03C0AA
:102CA000E5FF04C0E5FF05C0E5FF06C0E5FF07C07E
:102CB000E5FF08C0E5FF09C0E5FF0AC0E5FF0BC05E
:102CC000E5FF020EDBCF00F0030EDBCF01F0040EB8
:102CD000DBCF02F0036A046A9CEC2FF0056EFE0A5B
:102CE00001E094D03EEC2AF09CEC2FF0066E0650EA
:102CF0000EE00650010A1DE00650020A2CE00650C4
:102D00000A0A3BE006500B0A01E142D06DD00050A8
:102D1000060F076E000E0120086E000E022007C08D
:102D2000E9FF08C0F3FFB6EC31F0036EF3CF04F017
:102D30005BD000500C0F076E000E0120086E000ED5
:102D4000022007C0E9FF08C0F3FFB6EC31F0036EC4
:102D5000F3CF04F049D000500E0F076E000E012093
:102D6000086E000E022007C0E9FF08C0F3FFB6ECB2
:102D700031F0036EF3CF04F037D000C0E9FF01C09B
:102D8000F3FF0250B6EC31F0036EF3CF04F02CD019
:102D90000050020F076E000E0120086E000E022088
:102DA000096E07C0E9FF08C0F3FF095060EC30F07E
:102DB000F3CF08F0F4CF09F0E9CF0AF00850076E1E
:102DC0000950086ED89008320732D890083207327E
:102DD0000A50E840E840C00B08120A40E8403F0BA8
:102DE0000750036E0850046E0450E56E0350E56E04
:102DF000E56A0650E56E000EE56E540EE56E740E43
:102E0000E56ED0EC2CF0070EE126DBD0055014E087
:102E10000550010A3AE00550020A01E15FD0055071
:102E20000A0A01E184D005500B0A01E199D005504E
:102E30000C0A01E1AED0C5D00050060F056E000EA1
:102E40000120066E000E0220076E9CEC2FF00B6E28
:102E50000A6AE56A0BC0F4FF05C0E9FF06C0F3FF8C
:102E6000075076EC32F09CEC2FF0096A0A260950E4
:102E70000B220AC0E5FF0BC0F4FF05C0E9FF06C046
:102E8000F3FF075076EC32F09CD000500C0F056E2B
:102E9000000E0120066E000E0220076E9CEC2FF043
:102EA0000B6E0A6AE56A0BC0F4FF05C0E9FF06C0B5
:102EB000F3FF075076EC32F09CEC2FF0096A0A26FB
:102EC00009500B220AC0E5FF0BC0F4FF05C0E9FF63
:102ED00006C0F3FF075076EC32F073D000500E0FAF
:102EE000056E000E0120066E000E0220076E9CEC9F
:102EF0002FF00B6E0A6AE56A0BC0F4FF05C0E9FF0C
:102F000006C0F3FF075076EC32F09CEC2FF0096A14
:102F10000A2609500B220AC0E5FF0BC0F4FF05C0CA
:102F2000E9FF06C0F3FF075076EC32F04AD09CEC84
:102F30002FF0046E036A9CEC2FF0066A03260650FD
:102F400004220450E56E0350E56E0250E56E015018
:102F5000E56E0050E56E75EC2EF0050EE12631D0E1
:102F60009CEC2FF0046E036A9CEC2FF0066A03269B
:102F7000065004220450E56E0350E56E0250E56EE3
:102F80000150E56E0050E56E8BEC23F0050EE12656
:102F900018D09CEC2FF0046E036A9CEC2FF0066AAC
:102FA0000326065004220450E56E0350E56E0250DD
:102FB000E56E0150E56E0050E56E83EC26F0050EDF
:102FC000E126E4CF0BF0E4CF0AF0E4CF09F0E4CF40
:102FD00008F0E4CF07F0E4CF06F0E4CF05F0E4CF4B
:102FE00004F0E4CF03F0E4CF02F0E4CF01F0E4CF4B
:102FF00000F0E4CFD9FF1200D9CFE5FFE1CFD9FF30
:1030000000C0E5FF01C0E5FF02C0E5FF03C0E5FF2A
:1030100004C0E5FF05C0E5FF06C0E5FF07C0E5FF0A
:1030200008C0E5FF020EDBCF00F0030EDBCF01F09E
:10303000040EDBCF02F0036A046A9CEC2FF0056EED
:10304000FE0A01E075D03EEC2AF09CEC2FF0066EF3
:10305000040E065CD8B05AD0FA6AFB6A0634FA3617
:10306000E834FA36FC0B760FE56E300EFA22000ECD
:10307000FB22E450F96E43EF18F04FEF18F062EFC7
:1030800018F075EF18F000C0E9FF01C0F3FF02501F
:103090002CEC32F0076E07C003F0046A37D0005002
:1030A000010F076E000E0120086E000E022007C0FF
:1030B000E9FF08C0F3FF2CEC32F0076E07C003F005
:1030C000046A24D00050020F076E000E0120086E23
:1030D000000E022007C0E9FF08C0F3FF2CEC32F01D
:1030E000076E07C003F0046A11D000500F0F076E7F
:1030F000000E0120086E000E022007C0E9FF08C084
:10310000F3FFB6EC31F0036EF3CF04F00450E56E3C
:103110000350E56EE56A0650E56E000EE56E430E5F
:10312000E56EBA0EE56ED0EC2CF0070EE1268DD0E0
:10313000040E055CD8B089D0FA6AFB6A0534FA3609
:10314000E834FA36FC0B560FE56E310EFA22000E0B
:10315000FB22E450F96EB3EF18F0C0EF18F0EBEF7C
:1031600018F001EF19F09CEC2FF0036E03C0E5FF9F
:1031700000C0E9FF01C0F3FF025099EC32F065D0C6
:103180000050010F036E000E0120046E000E02209D
:10319000056E9CEC2FF0066E06C0E5FF03C0E9FF4C
:1031A00004C0F3FF055099EC32F00650D8A44DD07E
:1031B0000050030F036E000E0120046E000E02206B
:1031C000E56AF46AF66AF76A03C0E9FF04C0F3FF30
:1031D0001BEC32F03AD00050020F036E000E0120BB
:1031E000046E000E0220056E9CEC2FF0066E06C0E9
:1031F000E5FF03C0E9FF04C0F3FF055099EC32F08E
:1032000024D00F0E0026000E012202229CEC2FF08B
:10321000066E056AE56A06C0F4FF00C0E9FF01C05A
:10322000F3FF025076EC32F09CEC2FF0046A052696
:103230000450062205C0E5FF06C0F4FF00C0E9FF08
:1032400001C0F3FF025076EC32F0E4CF08F0E4CF97
:1032500007F0E4CF06F0E4CF05F0E4CF04F0E4CFCC
:1032600003F0E4CF02F0E4CF01F0E4CF00F0E4CFCC
:10327000D9FF120000C0E5FF01C0E5FF02C0E5FF75
:1032800003C0E5FF04014051D8B40CD1A3A81DD060
:10329000A4A81BD00501905105018D1905E15AEC38
:1032A00032F005018D6BFED0000E05019025006EF9
:1032B000016A040E012200C0E9FF01C0EAFFEFCF5E
:1032C00089F5902B89C573FFEDD0A3AAEBD0A4AAF2
:1032D000E9D071A205D005018E815AEC32F0E2D01E
:1032E00071A405D005018E835AEC32F0DBD071A0B9
:1032F00048D074CF89F541C400F0016A008E89C5B9
:1033000002F0036A0250001803E10350011801E0C3
:1033100004D005018E897196C5D00501895104E05C
:1033200089510401411929E105018E997196050120
:10333000895103E005018E9702D005018E8789C56A
:1033400092F58BC593F505018B51006E00040501C4
:10335000946F600E05019325006E016A000E012234
:1033600000C0E9FF01C0EAFF89C5EFFF932B93512D
:10337000800A02E10501936B95D005018E99718653
:1033800091D074CF89F505018EA921D041C400F0F8
:10339000016A008E89C502F0036A0250001803E139
:1033A0000350011801E011D0A39A7198929A050177
:1033B0008D5104E1736A5AEC32F007D000C473FFF8
:1033C000010E0501906FA3886DD071866BD0050149
:1033D00089510501922705019351050194191BE1BB
:1033E000050192510CE193C58BF505018EB712D002
:1033F000A39A7198929A736A5AEC32F00BD0050135
:103400008E858EB707D0A39A7198929A010E736E2B
:103410005AEC32F047D00501935105018C1908E1AF
:1034200005018C5105018B1903E05AEC32F03AD0BA
:103430008BC500F0016A004A012AE56A800EE56E3C
:103440000150E56E0050E56EA9EC25F0006E040E0B
:10345000E126005005018A6F050193190FE189C526
:1034600000F01F0E00140501946F006E020E002480
:10347000946F05018B5105019427949F93C500F02B
:103480000501932B016A600E0026000E012200C088
:10349000E9FF01C0EAFF89C5EFFF9351800A02E10D
:1034A0000501936BE4CF03F0E4CF02F0E4CF01F029
:1034B000E4CF00F0120000C0E5FF01C0E5FF02C04C
:1034C000E5FF03C0E5FF04C0E5FF05C0E5FF06C05A
:1034D000E5FF07C0E5FF08C0E5FF09C0E5FF006A9A
:1034E000016A040E015CD8B0E2D0230E040143252A
:1034F000026E036A0F0E032202C0E9FF03C0EAFF57
:10350000EFCF02F00250FF0A01E1CAD004014339B3
:10351000E8441F0B026E780E0224036E046A050E47
:10352000042203C0E9FF04C0EAFFEFCF03F043C465
:1035300004F0070E0416010E056E000E066E045010
:1035400006E0E86CD89005360636010FFCE3076A02
:10355000035005160750061605500610D880E86679
:10356000D890056A05360550D880E866D890056A77
:1035700005360550036E046A760E0226050E0422F7
:1035800002C0E9FF04C0EAFFEFCF05F043C406F034
:10359000070E0616010E076E000E086E065006E0B6
:1035A000E86CD89007360836010FFCE305C006F03A
:1035B000096A065007160950081607500810D880E7
:1035C000E866D890076A07360750D880E866D89032
:1035D000076A07360350071801E162D003501FE065
:1035E00004014351066E070E0616010E076E0650C3
:1035F0000DE006E6E86CD8900736010FFDE306D033
:10360000D89007BED8800732010FFBE305500712A0
:1036100002C0E9FF04C0EAFF07C0EFFF26D002C0E6
:10362000E9FF04C0EAFFEFCF05F004014351066E45
:10363000070E0616010E076E06500DE006E6E86C52
:10364000D8900736010FFDE306D0D89007BED8808A
:103650000732010FFBE3071C066E0550061602C079
:10366000E9FF04C0EAFF06C0EFFF035003E1036A6D
:10367000032A01D0036A43C404F0E56A0350E56EEF
:10368000E56A0450E56E000EE56E580EE56E060E16
:10369000E56ED0EC2CF0070EE126012A01C000F007
:1036A0000401432B100E435DD8A01BD7436B005081
:1036B000E4CF09F0E4CF08F0E4CF07F0E4CF06F060
:1036C000E4CF05F0E4CF04F0E4CF03F0E4CF02F060
:1036D000E4CF01F0E4CF00F01200D9CFE5FFE1CF55
:1036E000D9FF00C0E5FF01C0E5FF02C0E5FF03C050
:1036F000E5FF04C0E5FF05C0E5FF06C0E5FF07C024
:10370000E5FF020EDBCF00F0030EDBCF01F0040E6D
:10371000DBCF02F0050EDBCF03F0060EDBCF04F0AB
:10372000070EDBCF05F0080EDBCF06F0090EDBCF6E
:1037300007F000500501596F01505A6F02505B6F3E
:1037400003505C6F045005015D6F05505E6F0650BD
:103750005F6F0750606F0501595105015F03F4CF9A
:1037600001F0F3CF00F000500501636F0150646F6A
:103770000501595105015D03F4CF01F0F3CF00F0CD
:1037800000500501616F0150626F05015C51050138
:103790005D03F3CF00F00501645100260050646F13
:1037A00005015B5105015E03F3CF01F001500026D6
:1037B00000500501646F05015B5105015D03F4CF05
:1037C00001F0F3CF00F0050163510026645101229E
:1037D0000050636F0150646F05015A5105015E038B
:1037E000F4CF03F0F3CF02F0025000260350012281
:1037F00000500501636F0150646F05015A510501C6
:103800005F03F3CF00F000500501686F05015A51C6
:1038100005015D03F4CF01F0F3CF00F00050050186
:10382000666F0150676F0501595105016003F3CFC1
:1038300000F0005005016C6F0501595105015E0350
:10384000F4CF01F0F3CF00F0005005016A6F015092
:103850006B6F0501656B0501696B0501655105011C
:103860006125006E0501665105016221016E0501A9
:10387000675105016321026E05016851050164214C
:10388000036E0050616F0150626F0250636F03500E
:10389000646F0501695105016125006E05016A51DA
:1038A00005016221016E05016B5105016321026E64
:1038B00005016C5105016421036E03C0E9FF02C0DC
:1038C000F4FF01C0F3FF0050E4CF07F0E4CF06F0AF
:1038D000E4CF05F0E4CF04F0E4CF03F0E4CF02F04E
:1038E000E4CF01F0E4CF00F0E4CFD9FF1200D9CF4C
:1038F000E5FFE1CFD9FF00C0E5FF01C0E5FF02C051
:10390000E5FF03C0E5FF04C0E5FF05C0E5FF06C015
:10391000E5FF07C0E5FF08C0E5FF09C0E5FF0AC0F5
:10392000E5FF0BC0E5FF0CC0E5FF0DC0E5FF0EC0D5
:10393000E5FF0FC0E5FF020EDBCF00F0030EDBCF8B
:1039400001F0040EDBCF02F0050EDBCF03F0060E14
:10395000DBCF04F0070EDBCF05F0080EDBCF06F05F
:10396000200E076E086A06C009F00A6A0B6A0C6A24
:10397000E56AE56AE56A0950E56E0350E56E0250B6
:10398000E56E0150E56E0050E56E83EC1FF00D6EA4
:10399000080EE126300E0D263A0E0D5C05E30D50A3
:1039A0000E6E270E0E240D6EFF0E07260822E00E67
:1039B00007240E6E000E08200F6E0EC0E9FF0FC028
:1039C000EAFF0DC0EFFF0C50E56E0B50E56E0A509C
:1039D000E56E0950E56E0350E56E0250E56E01504C
:1039E000E56E0050E56EE1EC21F0006EF3CF01F0E2
:1039F000F4CF02F0E9CF03F0080EE12600500110E9
:103A000002100310D8A4AFD707C000F008C001F01F
:103A100004C002F005C003F000C004F001C005F0CE
:103A2000004A012AE00E0426000E052204C0E9FF28
:103A300005C0EAFFEFCF04F002C0E9FF03C0EAFFD0
:103A400004C0EFFF024A032A000E015C02E1200ECF
:103A5000005CE2E302C0E9FF03C0EAFF000EEF6A88
:103A6000E4CF0FF0E4CF0EF0E4CF0DF0E4CF0CF094
:103A7000E4CF0BF0E4CF0AF0E4CF09F0E4CF08F094
:103A8000E4CF07F0E4CF06F0E4CF05F0E4CF04F094
:103A9000E4CF03F0E4CF02F0E4CF01F0E4CF00F094
:103AA000E4CFD9FF1200D9CFE5FFE1CFD9FF00C0A5
:103AB000E5FF01C0E5FF02C0E5FF03C0E5FF04C06C
:103AC000E5FF05C0E5FF06C0E5FF07C0E5FF08C04C
:103AD000E5FF09C0E5FF0AC0E5FF0BC0E5FF0CC02C
:103AE000E5FF0DC0E5FF020EDBCF00F0030EDBCFDC
:103AF00001F0040EDBCF02F0050EDBCF03F0060E63
:103B0000DBCF04F0070EDBCF05F0080EDBCF06F0AD
:103B1000090EDBCF07F0D88003AED890086A0836CC
:103B200008500FE0031C0C6E021C0B6E011C0A6E89
:103B3000001C096E092A0DE10A2A0BE10B4A0C2A26
:103B400008D000C009F001C00AF002C00BF003C0A9
:103B50000CF0D88007AED890006A003600500FE015
:103B6000071C0D6E061C036E051C026E041C016E04
:103B7000012A0DE1022A0BE1034A0D2A08D004C0F4
:103B800001F005C002F006C003F007C00DF00D50B3
:103B9000E56E0350E56E0250E56E0150E56E0C5087
:103BA000E56E0B50E56E0A50E56E0950E56EE1ECEE
:103BB00021F0016EF3CF02F0F4CF03F0E9CF04F06F
:103BC000080EE1260050081A085016E0041C076E83
:103BD000031C066E021C056E011C006E002A04E127
:103BE000052A02E1064A072A07C0E9FF06C0F4FFDA
:103BF00005C0F3FF005007D004C0E9FF03C0F4FF85
:103C000002C0F3FF0150E4CF0DF0E4CF0CF0E4CF9D
:103C10000BF0E4CF0AF0E4CF09F0E4CF08F0E4CFF2
:103C200007F0E4CF06F0E4CF05F0E4CF04F0E4CFF2
:103C300003F0E4CF02F0E4CF01F0E4CF00F0E4CFF2
:103C4000D9FF120000C0E5FF01C0E5FF02C0E5FF9B
:103C500003C0E5FF04C0E5FF05C0E5FF006A230ED1
:103C60000024016E026A0F0E022201C0E9FF02C0A9
:103C7000EAFFEFCF01F00150FF0A01E185D00138E2
:103C80000F0B026E036A800E02260F0E032202C083
:103C9000E9FF03C0EAFFEFCF02F0070E0116010EA5
:103CA000036E000E046E015006E0E86CD8900336F7
:103CB0000436010FFCE3056A025003160550041692
:103CC00003500410D880E866D890036A0336035086
:103CD0002DE10038E8441F0B016E026A780E0126C0
:103CE000050E022201C0E9FF02C0EAFFEFCF03F098
:103CF0000050046E070E0416010E056E04500DE010
:103D000006E6E86CD8900536010FFDE306D0D890A2
:103D100005BED8800532010FFBE30350051201C038
:103D2000E9FF02C0EAFF05C0EFFF2ED00038E844EB
:103D30001F0B016E026A780E0126050E022201C0D9
:103D4000E9FF02C0EAFFEFCF03F00050046E070E58
:103D50000416010E056E04500DE006E6E86CD890DE
:103D60000536010FFDE306D0D89005BED880053298
:103D7000010FFBE3051C046E0350041601C0E9FFAC
:103D800002C0EAFF04C0EFFF002A100E005CD8A0BA
:103D900066D7E4CF05F0E4CF04F0E4CF03F0E4CF3E
:103DA00002F0E4CF01F0E4CF00F0120000C0E5FF24
:103DB00001C0E5FF02C0E5FF03C0E5FF04C0E5FF69
:103DC00005C0E5FF06C0E5FF07C0E5FFACA28AD04D
:103DD0009EA888D004014451FD0A0DE14551FF0A17
:103DE00001E009D0CFEC32F0AD6AFE0E0401446F61
:103DF000FF0E456977D004014451FE0A11E1455197
:103E0000FF0A01E00DD072EC2FF0F3CF01F00501B5
:103E1000826F0150836FFF0E04014469456962D0CF
:103E200004014451FF0A30E14551FF0A01E02CD062
:103E300072EC2FF0006EF3CF01F0F4CF02F0E9CF77
:103E400003F082C504F083C505F0E86A050183BF6D
:103E5000FF0E066E076E0450005E0550015A0650B4
:103E6000025A0750035A039E000E035C08E1000E3D
:103E7000025C05E1000E015C02E1090E005C32E328
:103E80000401446B456B2ED004014451451108E1F7
:103E9000D3EC32F0AD6A010E0401446F456B22D0C1
:103EA00044C400F045C401F00401443F01D0452B57
:103EB000000E0026020E012200C0E9FF01C0EAFF49
:103EC000EFCFADFF040144510DE14551010A01E07E
:103ED00009D0FD0E0401446FFF0E45690501843FC2
:103EE00001D0852BE4CF07F0E4CF06F0E4CF05F056
:103EF000E4CF04F0E4CF03F0E4CF02F0E4CF01F02C
:103F0000E4CF00F01200D9CFE5FFE1CFD9FF00C028
:103F1000E5FF01C0E5FF02C0E5FF03C0E5FF04C007
:103F2000E5FF05C0E5FF06C0E5FF07C0E5FF08C0E7
:103F3000E5FF09C0E5FF0AC0E5FF020EDBCF00F098
:103F4000030EDBCF01F0040EDBCF02F0050EDBCF5A
:103F500003F0060EDBCF04F0070EDBCF05F0080EF2
:103F6000DBCF06F0090EDBCF07F0086A045005101E
:103F70000610071005E1E968F468F368E86847D0BF
:103F8000096A0750800BE8440A6E0A501BE104508E
:103F900004260536063607360750035C08E106504E
:103FA000025C05E10550015C02E10450005C06E2A0
:103FB000D890073206320532043204D0092A09C0EB
:103FC00008F0DFD70750035C08E10650025C05E10A
:103FD0000550015C02E10450005C08E30450005EFF
:103FE0000550015A0650025A0750035AD89007321A
:103FF00006320532043208C009F008060950E2E131
:1040000003C0E9FF02C0F4FF01C0F3FF0050E4CF9A
:104010000AF0E4CF09F0E4CF08F0E4CF07F0E4CFF2
:1040200006F0E4CF05F0E4CF04F0E4CF03F0E4CFF2
:1040300002F0E4CF01F0E4CF00F0E4CFD9FF1200AA
:1040400000C0E5FF01C0E5FF02C0E5FF03C0E5FFDA
:1040500004C0E5FF05018C5105018B1901E16AD00F
:104060008CC500F00050016E0128006E009E600EAD
:104070000024016E026A000E022201C0E9FF02C0A4
:10408000EAFFEFCF96F51F0E050196178CC595F543
:104090009651050195279551016E020E0124956FE9
:1040A000959F9CEC2FF0016E015003E1016A012AFB
:1040B00001D0016A9CEC2FF00501966F96C502F0C5
:1040C000800E021696C503F01F0E031603C004F0FF
:1040D00003C096F5045003E18BC58CF53ED001502A
:1040E0001EE0025025E09CEC2FF0006E0501965179
:1040F000016E0104966F0050420A1AE000504E0A09
:1041000003E14DEC2CF014D00050460A03E18EEC94
:1041100032F00ED00050490A0BE1FF0009D08CC5E7
:1041200097F5025003E03DEC2EF002D07AEC2BF034
:1041300095C58CF504013D5104013E1906E00501C9
:104140008D5103E1B8EC20F008D092BA06D00501F9
:104150008D5103E172B25AEC32F0E4CF04F0E4CFB7
:1041600003F0E4CF02F0E4CF01F0E4CF00F012005E
:1041700000C0E5FF01C0E5FF02C0E5FF03C0E5FFA9
:1041800004C0E5FF72A27ED080EC30F0006E0050DB
:1041900005E104013E6B04013D6B74D03EC401F0A7
:1041A0000050012680EC30F0026E0050036E0304D4
:1041B000006E0250230A1FE1010E005CD8A060D0FF
:1041C00080EC30F0026E690A03E141EC2FF058D028
:1041D0000250720A03E15AEC32F052D00250730AD4
:1041E00001E04ED0928A7186A38AA39874507450CD
:1041F0007198718845D00250430A05E00250420A86
:1042000001E03ED006D000C003F0046A038E0350E4
:10421000006E00C08FF500500401006F010E050113
:10422000906F04013E51011814E080EC30F0026EF2
:1042300005018F27000E05019025006E036A040E0C
:10424000032200C0E9FF03C0EAFF02C0EFFF902B8A
:10425000E8D7000E05019025006E026A040E0222C6
:1042600005018F1D036E032A00C0E9FF02C0EAFFAB
:1042700003C0EFFF0501902B90C58DF50501876BFD
:1042800001C03EF4E4CF04F0E4CF03F0E4CF02F049
:10429000E4CF01F0E4CF00F01200D9CFE5FFE1CF89
:1042A000D9FF00C0E5FF01C0E5FF02C0E5FF03C084
:1042B000E5FF04C0E5FF05C0E5FF06C0E5FF07C058
:1042C000E5FF020EDBCF00F0030EDBCF01F0040EA2
:1042D000DBCF02F000500B0F036E000E0120046EC6
:1042E000000E0220E56AF46AF66AF76A03C0E9FF85
:1042F00004C0F3FF1BEC32F00050070F036E000EFA
:104300000120046E000E0220056E0050030F066EA1
:10431000000E0120076E000E0220E56AF46AF66ABC
:10432000F76A06C0E9FF07C0F3FF1BEC32F0E56A4D
:10433000F46AF66AF76A03C0E9FF04C0F3FF0550A8
:104340001BEC32F00050010F036E000E0120046ED2
:10435000000E0220056E0050020F066E000E0120B6
:10436000076E000E0220E56A06C0E9FF07C0F3FFF2
:1043700099EC32F0E56A03C0E9FF04C0F3FF055091
:1043800099EC32F0E56A00C0E9FF01C0F3FF02508A
:1043900099EC32F0E4CF07F0E4CF06F0E4CF05F07B
:1043A000E4CF04F0E4CF03F0E4CF02F0E4CF01F077
:1043B000E4CF00F0E4CFD9FF120025642025640A81
:1043C0000000D9CFE5FFE1CFD9FF00C0E5FF01C074
:1043D000E5FF02C0E5FF03C0E5FF04C0E5FF05C03F
:1043E000E5FF06C0E5FF07C0E5FF08C0E5FF09C01F
:1043F000E5FF0AC0E5FF0BC0E5FF0CC0E5FF0DC0FF
:10440000E5FF020EDBCF00F0030EDBCF01F0040E60
:10441000DBCF02F0050EDBCF03F0060EDBCF04F09E
:10442000070EDBCF05F0080EDBCF06F0090EDBCF61
:1044300007F0086A096A0A6A0B6A200E0C6E0350BC
:10444000800BE8440D6E005000260136023603361C
:104450000850082609360A360B360D50D8A40880B5
:1044600007500B5C08E106500A5C05E10550095C49
:1044700002E10450085C09E30450085E0550095A43
:1044800006500A5A07500B5A00800C040D6E0DC0DE
:104490000CF00D50D4E103C0E9FF02C0F4FF01C0ED
:1044A000F3FF0050E4CF0DF0E4CF0CF0E4CF0BF0BD
:1044B000E4CF0AF0E4CF09F0E4CF08F0E4CF07F04E
:1044C000E4CF06F0E4CF05F0E4CF04F0E4CF03F04E
:1044D000E4CF02F0E4CF01F0E4CF00F0E4CFD9FF65
:1044E000120000C0E5FF01C0E5FF03C0E5FF04C006
:1044F000E5FF05C0E5FF06C0E5FF07C0E5FF08C012
:10450000E5FF09C0E5FF0AC0E5FF0BC0E5FF7EC47B
:1045100000F07FC401F004017E3F01D07F2B0050EA
:10452000E56E4CEC32F0E652076E046A056A066AE4
:104530007EC400F07FC401F004017E3F01D07F2BD8
:104540000050E56E4CEC32F0E6520B6A0A6E086AD7
:104550000850041205120A5006120B5007127EC4AE
:1045600000F07FC401F004017E3F01D07F2B00509A
:10457000E56E4CEC32F0E652036E006A03C001F0C7
:10458000E86A03BEFF0E086E096E00500412015067
:10459000051208500612095007127EC400F07FC4AD
:1045A00001F004017E3F01D07F2B0050E56E4CEC02
:1045B00032F0E652016A0412015005120612071287
:1045C00007C0E9FF06C0F4FF05C0F3FF0450E4CFC5
:1045D0000BF0E4CF0AF0E4CF09F0E4CF08F0E4CF29
:1045E00007F0E4CF06F0E4CF05F0E4CF04F0E4CF29
:1045F00003F0E4CF01F0E4CF00F01200D9CFE5FFE3
:10460000E1CFD9FF00C0E5FF01C0E5FF02C0E5FF33
:1046100003C0E5FF04C0E5FF05C0E5FF06C0E5FFF8
:1046200007C0E5FF020EDBCF00F0030EDBCF01F089
:10463000040EDBCF02F0050EDBCF03F003C004F065
:10464000056A0350D8B454D000C0E9FF01C0F3FF9D
:1046500002502CEC32F0066E430A08E1010E056EA2
:1046600003C006F0076A068E0650036E0406002A91
:1046700002E3014A022AA39A7198929AA398A4A8E5
:10468000FED77280736A0000A4A8FED7729003C0A0
:1046900073FF0000A4A8FED7055004E0420E736E1D
:1046A000032604D0620E736E620E0326045015E0DA
:1046B0000000A4A8FED700C0E9FF01C0F3FF02502C
:1046C0002CEC32F0056E05C073FF0550032604067E
:1046D000002A02E3014A022AE9D70000A4A8FED773
:1046E000031C736E732A0000A4A8FED75AEC32F0A4
:1046F000E4CF07F0E4CF06F0E4CF05F0E4CF04F018
:10470000E4CF03F0E4CF02F0E4CF01F0E4CF00F017
:10471000E4CFD9FF1200D9CFE5FFE1CFD9FF00C028
:10472000E5FF01C0E5FF02C0E5FF03C0E5FF04C0EF
:10473000E5FF05C0E5FF06C0E5FF07C0E5FF08C0CF
:10474000E5FF0BC0E5FF0CC0E5FF0DC0E5FF020E65
:10475000DBCF00F0030EDBCF01F0040EDBCF02F065
:10476000050EDBCF03F0060EDBCF04F003C0E5FF40
:1047700004C0F4FF00C0E9FF01C0F3FF025076EC73
:1047800032F00050020F056E000E0120066E000E82
:104790000220076EE86A04BEFF0E086E04500C6E1D
:1047A0000C2608340D6ED8900C360D360344E844C0
:1047B000FC0B0B6E0350E844E844030B0C12E56A53
:1047C0000BC0F4FF0CC0F6FF0DC0F7FF05C0E9FFFA
:1047D00006C0F3FF07501BEC32F0080E0026000E57
:1047E00001220222E56AF46AF66AF76A00C0E9FF6C
:1047F00001C0F3FF02501BEC32F0E4CF0DF0E4CF28
:104800000CF0E4CF0BF0E4CF08F0E4CF07F0E4CFF6
:1048100006F0E4CF05F0E4CF04F0E4CF03F0E4CFFA
:1048200002F0E4CF01F0E4CF00F0E4CFD9FF1200B2
:10483000D9CFE5FFE1CFD9FF00C0E5FF01C0E5FF1B
:1048400002C0E5FF03C0E5FF04C0E5FF05C0E5FFCA
:1048500006C0E5FF07C0E5FF020EDBCF00F0030E48
:10486000DBCF01F0040EDBCF02F0050EDBCF03F04F
:1048700002C006F00650046E800A33E100C0E9FF72
:1048800001C0F3FF0250F7EC30F0056EF3CF06F0F5
:10489000F4CF07F003C0E5FF05C0E9FF06C0F3FF52
:1048A000075099EC32F000C0E9FF01C0F3FF02505D
:1048B000F7EC30F0056EF3CF06F0F4CF07F0052AE1
:1048C00002E3064A072A05C0E5FF06C0F4FF07C059
:1048D000F6FF00C0E9FF01C0F3FF02503DEC32F0EB
:1048E00020D004C000F000AA1CD0007A0050046E52
:1048F00004E10350D7EC32F014D00450010A04E173
:10490000035002EC00F00DD004500F0A04E10350F4
:1049100010EC2FF006D004500E0A03E10350E7EC30
:1049200032F0E4CF07F0E4CF06F0E4CF05F0E4CFB7
:1049300004F0E4CF03F0E4CF02F0E4CF01F0E4CFE1
:1049400000F0E4CFD9FF1200D9CFE5FFE1CFD9FFC6
:1049500000C0E5FF01C0E5FF02C0E5FF03C0E5FFC1
:1049600004C0E5FF05C0E5FF06C0E5FF07C0E5FFA1
:10497000020EDBCF00F0030EDBCF01F0040EDBCF25
:1049800002F0050EDBCF03F03EC43FF404013D51BD
:1049900004013F5F3F51046E04043F6F03C004F005
:1049A000056A030E0426D8B0052A3FC406F0076A3C
:1049B0000750800FF36E0550800FF35C02E1045046
:1049C000065C02E2E86830D0020E035C02E2E86AAC
:1049D0002BD00350046E0404036EE56E8CEC2DF0B6
:1049E000E652046A0350045C14E204500024056E8D
:1049F000E86A0120066EE86A022005C0E9FF06C0E9
:104A0000F3FF2CEC32F0042AE56E8CEC2DF0E6522C
:104A1000E9D73EC43FF404013D5104013F5F3F51DB
:104A2000006E00043F6FE86AE4CF07F0E4CF06F0C1
:104A3000E4CF05F0E4CF04F0E4CF03F0E4CF02F0DC
:104A4000E4CF01F0E4CF00F0E4CFD9FF1200D9CFDA
:104A5000E5FFE1CFD9FF00C0E5FF01C0E5FF02C0DF
:104A6000E5FF03C0E5FF04C0E5FF05C0E5FF06C0A4
:104A7000E5FF07C0E5FF08C0E5FF09C0E5FF0AC084
:104A8000E5FF0BC0E5FF0CC0E5FF020EDBCF00F039
:104A9000030EDBCF01F0040EDBCF02F0050EDBCFFF
:104AA00003F0060EDBCF04F0070EDBCF05F0080E97
:104AB000DBCF06F0090EDBCF07F002500A6E015083
:104AC000096E0050086E06C00BF007C00CF0FF0E18
:104AD000062607220B500C101AE003C0E9FF04C0A1
:104AE000F3FF05502CEC32F00B6E032A02E3044A6C
:104AF000052A0BC0E5FF08C0E9FF09C0F3FF0A5013
:104B000099EC32F0082ADFE3094A0A2ADCD702C00E
:104B1000F4FF01C0F3FF0050E4CF0CF0E4CF0BF042
:104B2000E4CF0AF0E4CF09F0E4CF08F0E4CF07F0D7
:104B3000E4CF06F0E4CF05F0E4CF04F0E4CF03F0D7
:104B4000E4CF02F0E4CF01F0E4CF00F0E4CFD9FFEE
:104B50001200D9CFE5FFE1CFD9FF00C0E5FF01C0CA
:104B6000E5FF02C0E5FF03C0E5FF04C0E5FF05C0A7
:104B7000E5FF06C0E5FF020EDBCF00F0030EDBCF42
:104B800001F0040EDBCF02F0050EDBCF03F0D8807E
:104B900001AED890046A0436045007E0011C066E8A
:104BA000001C056E054A062A04D000C005F001C0AD
:104BB00006F0D88003AED89007E3031C016E021CF8
:104BC000006E004A012A04D002C000F003C001F0C8
:104BD0000150E56E0050E56E0650E56E0550E56E3D
:104BE00039EC29F0006EF3CF01F0040EE1260450F9
:104BF0000AE0011C036E001C026E024A032A03C075
:104C0000F3FF025003D001C0F3FF0050E4CF06F0E1
:104C1000E4CF05F0E4CF04F0E4CF03F0E4CF02F0FA
:104C2000E4CF01F0E4CF00F0E4CFD9FF1200D9CFF8
:104C3000E5FFE1CFD9FF00C0E5FF01C0E5FF02C0FD
:104C4000E5FF03C0E5FF04C0E5FF05C0E5FF020E78
:104C5000DBCF00F0030EDBCF01F0040EDBCF02F060
:104C6000050EDBCF03F07EC404F07FC405F0040121
:104C70007E3F01D07F2B0350E56E0450E56E3CEC87
:104C800030F0E652E6527EC404F07FC405F0040121
:104C90007E3F01D07F2B0250056EE56E0450E56E1D
:104CA0003CEC30F0E652E6527EC404F07FC405F0DE
:104CB00004017E3F01D07F2B0150E56E0450E56E6C
:104CC0003CEC30F0E652E6527EC404F07FC405F0BE
:104CD00004017E3F01D07F2B0050E56E0450E56E4D
:104CE0003CEC30F0E652E652E4CF05F0E4CF04F0BD
:104CF000E4CF03F0E4CF02F0E4CF01F0E4CF00F022
:104D0000E4CFD9FF1200D9CFE5FFE1CFD9FF00C032
:104D1000E5FF01C0E5FF02C0E5FF03C0E5FF04C0F9
:104D2000E5FF05C0E5FF08C0E5FF09C0E5FF0AC0D3
:104D3000E5FF020EDBCF00F0030EDBCF01F0040E27
:104D4000DBCF02F0050EDBCF03F0060EDBCF04F065
:104D500003C0E5FF04C0F4FF00C0E9FF01C0F3FF9A
:104D6000025076EC32F0020E0026000E01220222E2
:104D700004BEFF0E056E0450096E092605340A6E46
:104D8000D89009360A360344E844FC0B086E0350F9
:104D9000E844E844030B0912E56A08C0F4FF09C0BF
:104DA000F6FF0AC0F7FF00C0E9FF01C0F3FF0250A1
:104DB0001BEC32F0E4CF0AF0E4CF09F0E4CF08F0C6
:104DC000E4CF05F0E4CF04F0E4CF03F0E4CF02F049
:104DD000E4CF01F0E4CF00F0E4CFD9FF1200D9CF47
:104DE000E5FFE1CFD9FF00C0E5FF01C0E5FF02C04C
:104DF000E5FF03C0E5FF04C0E5FF05C0E5FF06C011
:104E0000E5FF020EDBCF00F0030EDBCF01F0040E56
:104E1000DBCF02F00501865119E171EC22F0036E3F
:104E2000F3CF04F0F4CF05F0E9CF06F003C0E5FFBF
:104E300004C0F4FF05C0F6FF06C0F7FF00C0E9FF9D
:104E400001C0F3FF02501BEC32F01ED00501865169
:104E5000010A1AE100C0E9FF01C0F3FF025060EC53
:104E600030F0006EF3CF01F0F4CF02F0E9CF03F0A1
:104E70000350E56E0250E56E0150E56E0050E56EA0
:104E800017EC26F0040EE126E4CF06F0E4CF05F09F
:104E9000E4CF04F0E4CF03F0E4CF02F0E4CF01F07C
:104EA000E4CF00F0E4CFD9FF1200D9CFE5FFE1CF86
:104EB000D9FF00C0E5FF01C0E5FF02C0E5FF03C068
:104EC000E5FF04C0E5FF020EDBCF00F0030EDBCFF1
:104ED00001F0040EDBCF02F00050070F036E000E4E
:104EE0000120046E000E0220E56E0450E56E0350B2
:104EF000E56E10EC2DF0030EE1260050230F036E3B
:104F0000000E0120046E000E0220E56E0450E56ED6
:104F10000350E56E96EC29F0030EE1260050330FA6
:104F2000036E000E0120046E000E0220E56E045098
:104F3000E56E0350E56E1EEC28F0030EE126440EEC
:104F40000026000E012202220250E56E0150E56E9D
:104F50000050E56E1EEC28F0030EE126E4CF04F0CD
:104F6000E4CF03F0E4CF02F0E4CF01F0E4CF00F0AF
:104F7000E4CFD9FF1200D9CFE5FFE1CFD9FF00C0C0
:104F8000E5FF01C0E5FF02C0E5FF03C0E5FF04C087
:104F9000E5FF05C0E5FF06C0E5FF020EDBCF00F030
:104FA000030EDBCF01F0040EDBCF02F0050EDBCFEA
:104FB00003F0060EDBCF04F0070EDBCF05F0080E82
:104FC000DBCF06F0D88003AED89015E306500A0A6E
:104FD00012E104C0E9FF05C0EAFF2D0EEF6E044A9E
:104FE000052A031E021E011E006C05E1012A03E1D1
:104FF000022AD8B4032A0650E56E0550E56E045027
:10500000E56E0350E56E0250E56E0150E56E00500E
:10501000E56E77EC1CF0070EE126E4CF06F0E4CF56
:1050200005F0E4CF04F0E4CF03F0E4CF02F0E4CFE6
:1050300001F0E4CF00F0E4CFD9FF1200D9CFE5FFB3
:10504000E1CFD9FF00C0E5FF01C0E5FF02C0E5FFE9
:1050500003C0E5FF04C0E5FF020EDBCF00F0030E46
:10506000DBCF01F0040EDBCF02F00250E56E015001
:10507000E56E0050E56E10EC2DF0030EE1260050B9
:10508000010F036E000E0120046E000E0220E56E7B
:105090000450E56E0350E56E10EC2DF0030EE12692
:1050A0000050020F036E000E0120046E000E02205D
:1050B000E56E0450E56E0350E56E10EC2DF0030E26
:1050C000E1260F0E0026000E012202220250E56E9C
:1050D0000150E56E0050E56E90EC2AF0030EE126DB
:1050E000E4CF04F0E4CF03F0E4CF02F0E4CF01F02A
:1050F000E4CF00F0E4CFD9FF1200D8CFE5FFE0CF36
:10510000E5FFE56EF3CFE5FFF4CFE5FFE9CFE5FF7F
:10511000EACFE5FFFACFE5FFFBCFE5FFF6CFE5FFEE
:10512000F6CFE5FFF7CFE5FFF8CFE5FFF5CFE5FFD9
:10513000E1CFE5FFE2CFE5FF04013B510F01356F01
:1051400004013C510F01366FD650336FD750346F86
:10515000F2A411D004013B3F01D03C2BF294040196
:105160003B510F01356F04013C510F01366FD65092
:10517000336FD750346FE4CFE2FFE4CFE1FFE4CFE9
:10518000F5FFE4CFF8FFE4CFF7FFE4CFF6FFE4CF7D
:10519000F6FFE4CFFBFFE4CFFAFFE4CFEAFFE4CF72
:1051A000E9FFE4CFF4FFE4CFF3FFE450E4CFE0FF06
:1051B000E4CFD8FF1000D9CFE5FFE1CFD9FF00C081
:1051C000E5FF01C0E5FF02C0E5FF03C0E5FF04C045
:1051D000E5FF05C0E5FF020EDBCF00F0030EDBCFDD
:1051E00001F0040EDBCF02F000500B0F036E000E37
:1051F0000120046E000E0220E56AF46AF66AF76A7E
:1052000003C0E9FF04C0F3FF1BEC32F00050070FAE
:10521000036E000E0120046E000E0220056E030EC8
:105220000026000E01220222E56AF46AF66AF76A95
:1052300000C0E9FF01C0F3FF02501BEC32F0E56A49
:10524000F46AF66AF76A03C0E9FF04C0F3FF055089
:105250001BEC32F0E4CF05F0E4CF04F0E4CF03F030
:10526000E4CF02F0E4CF01F0E4CF00F0E4CFD9FFC7
:105270001200D9CFE5FFE1CFD9FF00C0E5FF01C0A3
:10528000E5FF02C0E5FF03C0E5FF04C0E5FF05C080
:10529000E5FF06C0E5FF020EDBCF00F0030EDBCF1B
:1052A00001F0040EDBCF02F0050EDBCF03F0046A41
:1052B000056A0350800BE844066E065011E1025067
:1052C000022603360350015C02E10250005C04E256
:1052D000D8900332023204D0052A05C004F0E9D781
:1052E0000350015C02E10250005C04E30250005EE6
:1052F0000350015AD8900332023204C005F004066C
:105300000550EEE101C0F3FF0050E4CF06F0E4CF1A
:1053100005F0E4CF04F0E4CF03F0E4CF02F0E4CFF3
:1053200001F0E4CF00F0E4CFD9FF1200D9CFE5FFC0
:10533000E1CFD9FF00C0E5FF01C0E5FF02C0E5FFF6
:1053400003C0E5FF04C0E5FF020EDBCF00F0030E53
:10535000DBCF01F0040EDBCF02F00050060F036E2E
:10536000000E0120046E000E0220E56E0450E56E72
:105370000350E56E90EC2AF0030EE12600500C0F6E
:10538000036E000E0120046E000E0220E56E045034
:10539000E56E0350E56E90EC2AF0030EE1260E0E4A
:1053A0000026000E012202220250E56E0150E56E39
:1053B0000050E56E90EC2AF0030EE126E4CF04F0F5
:1053C000E4CF03F0E4CF02F0E4CF01F0E4CF00F04B
:1053D000E4CFD9FF1200D9CFE5FFE1CFD9FF00C05C
:1053E000E5FF01C0E5FF02C0E5FF03C0E5FF04C023
:1053F000E5FF020EDBCF00F0030EDBCF01F0040E61
:10540000DBCF02F0E56AF46A00C0E9FF01C0F3FFF8
:10541000025076EC32F00050020F036E000E0120B5
:10542000046E000E0220E56AF46AF66AF76A03C0A9
:10543000E9FF04C0F3FF1BEC32F0080E0026000E5B
:1054400001220222E56AF46AF66AF76A00C0E9FFFF
:1054500001C0F3FF02501BEC32F0E4CF04F0E4CFC4
:1054600003F0E4CF02F0E4CF01F0E4CF00F0E4CFAA
:10547000D9FF120025642025640A000000C0E5FF62
:1054800001C0E5FF02C0E5FF03C0E5FF8CC500F0E9
:10549000016A97C502F0036A0250005E0350015A88
:1054A000E56A800EE56E0150E56E0050E56EA9ECF0
:1054B00025F0006E040EE126000697C501F0430EAC
:1054C00010EC2FF0200E10EC2FF0005020E0600EBA
:1054D0000124026E036A000E032202C0E9FF03C02A
:1054E000EAFFEFCF02F0E56A0250E56E000EE56ECE
:1054F000640EE56ECC0EE56ED0EC2CF0050EE126C8
:10550000012A0150800A01E1016A0006DED7E4CFDA
:1055100003F0E4CF02F0E4CF01F0E4CF00F012009A
:10552000D9CFE5FFE1CFD9FF00C0E5FF01C0E5FF1E
:1055300002C0E5FF03C0E5FF04C0E5FF020EDBCFBC
:1055400000F0030EDBCF01F0040EDBCF02F005010B
:10555000865111E1AAEC2EF0036EF3CF04F003C0E4
:10556000E5FF04C0F4FF00C0E9FF01C0F3FF0250F3
:1055700076EC32F016D005018651010A12E100C026
:10558000E9FF01C0F3FF0250B6EC31F0006EF3CF3B
:1055900001F00150E56E0050E56E4FEC2DF0E65243
:1055A000E652E4CF04F0E4CF03F0E4CF02F0E4CF1E
:1055B00001F0E4CF00F0E4CFD9FF1200D9CFE5FF2E
:1055C000E1CFD9FF00C0E5FF01C0E5FF02C0E5FF64
:1055D00003C0E5FF04C0E5FF020EDBCF00F000389A
:1055E000E8441F0B016E026A780E0126050E0222A6
:1055F00001C0E9FF02C0EAFFEFCF01F0070E00167D
:10560000010E026E000E036E005006E0E86CD890AA
:1056100002360336010FFCE3046A015002160450FF
:10562000031602500310D880E866D890026A02364A
:105630000250D880E866D890026A02360250E4CF61
:1056400004F0E4CF03F0E4CF02F0E4CF01F0E4CFC4
:1056500000F0E4CFD9FF1200860EF66E650EF76EED
:10566000000EF86E0900F550056E0900F550066E43
:1056700004E1056702D079EF2BF00900F550006EC8
:105680000900F550016E0900F550026E090009008D
:10569000F550E96E0900F550EA6E090009000900AD
:1056A000F550036E0900F550046E09000900F6CFAD
:1056B00007F0F7CF08F0F8CF09F000C0F6FF01C0FF
:1056C000F7FF02C0F8FF035002E1045007E00900B1
:1056D000F550EE6E0306F8E20406F9D707C0F6FFB0
:1056E00008C0F7FF09C0F8FF050601E2060638EF1B
:1056F0002BF0120000C0E5FF01C0E5FF02C0E5FF8E
:1057000003C0E5FF9CEC2FF0006E1E0A07E000507E
:10571000780A1AE00050790A22E02BD09CEC2FF096
:10572000036E026A9CEC2FF0016A022601500322EC
:105730009CEC2FF0E56E0350E56E0250E56EC6EC72
:105740002FF0030EE12615D0800EE56E040EE56EF7
:10575000930EE56E78EC0FF0030EE1260AD0800E72
:10576000E56E050EE56E000EE56E78EC0FF0030EAB
:10577000E126E4CF03F0E4CF02F0E4CF01F0E4CF80
:1057800000F0120000C0E5FF01C0E5FF02C0E5FF28
:1057900003C0E5FF04C0E5FF006A760E0024016E39
:1057A000026A050E0222780E0024036E046A050EBA
:1057B000042203C0E9FF04C0EAFF010EEF6E01C03E
:1057C000E9FF02C0EAFFEF6E002A020E005CE5E38B
:1057D000006A230E0024016E026A0F0E022201C02D
:1057E000E9FF02C0EAFFEF68002A100E005CF1E357
:1057F000E4CF04F0E4CF03F0E4CF02F0E4CF01F013
:10580000E4CF00F012004320732025642025640AB1
:105810000000D9CFE5FFE1CFD9FF00C0E5FF01C00F
:10582000E5FF02C0E5FF03C0E5FF04C0E5FF05C0DA
:10583000E5FF020EDBCF00F0030EDBCF01F0040E1C
:10584000DBCF02F0050EDBCF03F0060EDBCF04F05A
:10585000056A230E00260F0E0522800E015E070E3C
:1058600001160138F00B026E070E041604500226D2
:1058700000C0E9FF05C0EAFF02C0EFFFE4CF05F07A
:10588000E4CF04F0E4CF03F0E4CF02F0E4CF01F082
:10589000E4CF00F0E4CFD9FF120000C0E5FF01C063
:1058A000E5FF02C0E5FF9CEC2FF0006E9CEC2FF0B2
:1058B000016E0050026ED00E0224006E0A0E005CD3
:1058C00005E30050026EF90E0224006E0150026ED4
:1058D000D00E0224016E0A0E015C05E30150026E37
:1058E000F90E0224016E080E005C12E2100E015C3B
:1058F000D8B00ED00038F00B0124006E03EC2EF06F
:10590000016E015005E10050E56E2CEC31F0E652DD
:10591000E4CF02F0E4CF01F0E4CF00F01200D8CFE2
:10592000E5FFE0CFE5FFE56EF3CFE5FFF4CFE5FF60
:10593000E9CFE5FFEACFE5FFFACFE5FFFBCFE5FFD3
:10594000F6CFE5FFF6CFE5FFF7CFE5FFF8CFE5FFB0
:10595000F5CFE5FFE1CFE5FFE2CFE5FF3AEC19F047
:10596000E4CFE2FFE4CFE1FFE4CFF5FFE4CFF8FFBF
:10597000E4CFF7FFE4CFF6FFE4CFF6FFE4CFFBFF81
:10598000E4CFFAFFE4CFEAFFE4CFE9FFE4CFF4FF8E
:10599000E4CFF3FFE450E4CFE0FFE4CFD8FF100002
:1059A000D9CFE5FFE1CFD9FF00C0E5FF01C0E5FF9A
:1059B00002C0E5FF020ED924006E000EDA20016E4F
:1059C000800E026E030E0026000E012202220250FB
:1059D000E56E0150E56E0050E56E040EDBCFE5FF8D
:1059E000030EDBCFE5FF020EDBCFE5FF05016F51B4
:1059F000E56E6E51E56E6D51E56E59EC05F0006E89
:105A0000F3CF01F0090EE12601C0F3FF0050E4CF0F
:105A100002F0E4CF01F0E4CF00F0E4CFD9FF1200B0
:105A2000D9CFE5FFE1CFD9FF00C0E5FF01C0E5FF19
:105A300002C0E5FF03C0E5FF020EDBCF00F0030E5E
:105A4000DBCF01F0040EDBCF02F0050186510DE142
:105A50008AEC31F0036E03C0E5FF00C0E9FF01C02E
:105A6000F3FF025099EC32F00FD005018651010A84
:105A70000BE100C0E9FF01C0F3FF02502CEC32F053
:105A8000E56E16EC30F0E652E4CF03F0E4CF02F01E
:105A9000E4CF01F0E4CF00F0E4CFD9FF1200D9CF7A
:105AA000E5FFE1CFD9FF00C0E5FF01C0E5FF02C07F
:105AB000E5FF03C0E5FF020EDBCF00F0030EDBCFF6
:105AC00001F07EC402F07FC403F004017E3F01D0E8
:105AD0007F2B0150E56E0250E56E3CEC30F0E65253
