:020000040000FA
:10000000EDEF3DF0C96E120059EF35F051EC1EF0E6
:100010002FEC1CF0FDD71200A0EF38F0D9CFE5FF90
:10002000E1CFD9FF00C0E5FF01C0E5FF02C0E5FF59
:1000300003C0E5FF04C0E5FF05C0E5FF06C0E5FF1E
:1000400007C0E5FF08C0E5FF09C0E5FF0AC0E5FFFE
:100050000BC0E5FF0CC0E5FF0DC0E5FF0EC0E5FFDE
:100060000FC0E5FF10C0E5FF11C0E5FF12C0E5FFBE
:1000700013C0E5FF14C0E5FF15C0E5FF16C0E5FF9E
:1000800017C0E5FF18C0E5FF19C0E5FF1AC0E5FF7E
:100090001BC0E5FF1CC0E5FF1DC0E5FF1EC0E5FF5E
:1000A0001FC0E5FF20C0E5FF21C0E5FF22C0E5FF3E
:1000B00023C0E5FF24C0E5FF25C0E5FF26C0E5FF1E
:1000C00027C0E5FF020EDBCF00F0030EDBCF01F00F
:1000D000040EDBCF02F00250086E0150076E005094
:1000E000066EE56A160EE56E0850E56E0750E56E81
:1000F0000650E56E800EE56E050EE56E000EE56EAF
:10010000ABEC30F0080EE1260EC503F00FC504F08D
:1001100010C505F011C506F003C007F004C008F0D3
:1001200005C009F006C00AF0D8800AAED8900AE3EC
:100130000A1E091E081E076C05E1082A03E1092AA8
:10014000D8B40A2A00C50BF001C50CF002C50DF0A9
:1001500003C50EF0D89005010631106E05310F6E03
:10016000D89010320F320751E840E840C00B10120F
:100170000741E8403F0BE8BAC009116E126A11BE90
:1001800012680F500B5C0F6E10500C58106E11500F
:100190000D58116E12500E58126E08C513F009C595
:1001A00014F00AC515F00BC516F0135014101510F5
:1001B0001610D8B447D00F50176E1050186E11504B
:1001C000196E12501A6E135017261450182215501B
:1001D000192216501A22D89016301E6E15301D6E38
:1001E00014301C6E13301B6E17261C5018221D5025
:1001F00019221E501A221650E56E1550E56E145045
:10020000E56E1350E56E1A50E56E1950E56E185004
:10021000E56E1750E56E2AEC2BF0136EF3CF14F059
:10022000F4CF15F0E9CF16F0080EE1261B50135C51
:100230000F6E1C501458106E1D501558116E1E5024
:100240001658126E1250800F810F08E1FF0E115CDC
:1002500005E1FF0E105C02E1FE0E0F5CD8A050D04D
:100260001250800F800F08E1000E115C05E1000EB6
:10027000105C02E1030E0F5CD8B042D00A340A30A1
:10028000166E0930156E0830146E0730136E14C5E3
:1002900017F015C518F0E86A050115BFFF0E196EB5
:1002A000800FF36E1650800FF35C08E11550195C57
:1002B00005E11450185C02E11350175C21E30C5067
:1002C000156E15260D34166ED890153616360B445D
:1002D000E844FC0B146E0B50E844E844030B151281
:1002E000136A13500501046F1450056F1550066F03
:1002F0001650076F0E6B0F6B106B116B4AEF05F00A
:10030000D89009300C6E08300B6ED8900C320B323E
:10031000D8900C320B320A50E838E844E00B0C124B
:100320000A38E8441F0BE8B8E0090E6A0850076E67
:100330000950086ED89008320732D8900832073238
:100340000A50E840E840C00B08120A40E8403F0B62
:100350000BC009F00CC00AF0E86A0CBEFF0E0D6E6F
:100360000E6E07C013F008C014F0E86A08BEFF0E56
:10037000156EE56E1550E56E1450E56E1350E56E82
:100380000E50E56E0D50E56E0A50E56E0950E56EB3
:10039000BEEC22F0096EF3CF0AF0F4CF0DF0E9CFF6
:1003A0000EF0080EE12614C513F015C514F0E86A26
:1003B000050115BFFF0E156E166EE56E1550E56E44
:1003C0001450E56E1350E56E0E50E56E0D50E56E5F
:1003D0000A50E56E0950E56E5FEC27F0096EF3CF29
:1003E0000AF0080EE1260CC50DF00DC50EF0E86A06
:1003F00005010DBFFF0E176E0E501B6E1B26173426
:100400001C6ED8901B361C360D44E844FC0B1A6E4B
:100410000D50E844E844030B1B12196AD88006AE5D
:10042000D890D8B07AD109C00DF00AC00EF0E86AB1
:100430000ABEFF0E176E800FF36E1250800FF35C32
:1004400008E11150175C05E110500E5C02E10F50FD
:100450000D5CD8B03AD10650800FF36E1C50800F5F
:10046000F35C08E11B50055C05E11A50045C02E1F5
:100470001950035CD8B002D112C50DF013C50EF0AF
:10048000E86A050113BFFF0E176E186E03500D26A4
:1004900004500E2205501722065018220D50050157
:1004A0000E6F0E500F6F1750106F1850116F14C54C
:1004B0000DF015C50EF012C517F013C518F00E504B
:1004C000800FF36E1850800FF35C02E117500D5C43
:1004D000D8B0B8D00EC51DF00FC51EF010C51FF066
:1004E00011C520F0D8901F30226E1E30216ED8909A
:1004F00022322132D890223221322050E838E8448A
:10050000E00B22122038E8441F0BE8B8E009246A07
:1005100021500B6E22500C6ED8901F30226E1E3070
:10052000216ED890223221322050E840E840C00BA2
:1005300022122040E8403F0B2150076E2250086EE7
:100540000BC021F00CC022F0E86A0CBEFF0E236E37
:10055000246E07C025F008C026F0E86A08BEFF0E2A
:10056000276EE56E2750E56E2650E56E2550E56E48
:100570002450E56E2350E56E2250E56E2150E56E65
:10058000BEEC22F0216EF3CF22F0F4CF23F0E9CFBE
:1005900024F0080EE1260DC025F00EC026F0E86A12
:1005A0000EBEFF0E276EE56E2750E56E2650E56EF7
:1005B0002550E56E2450E56E2350E56E2250E56E21
:1005C0002150E56E5FEC27F0216EF3CF22F0080E8C
:1005D000E1262150096E22500A6E09C021F00AC09E
:1005E00022F0E86A0ABEFF0E236E246E1250800FBE
:1005F000F36E2450800FF35C08E12350115C05E199
:100600002250105C02E121500F5C1CE20D50175C7F
:100610000D6E0E5018580E6EE86A0EBEFF0E176E65
:10062000186E0D501D5E0E501E5A17501F5A18504E
:10063000205A1D5005010E6F1E500F6F1F50106F76
:100640002050116F1C50800FF36E05011151800F67
:10065000F35C08E110511B5C05E10F511A5C02E1EB
:100660000E51195CD8B0EFD1195005010E6F1A5018
:100670000F6F1B50106F1C50116FE5D11C50800F75
:10068000F36E0650800FF35C08E105501B5C05E13A
:1006900004501A5C02E10350195CD8B0D4D1135055
:1006A000035C0D6E145004580E6E15500558176EED
:1006B00016500658186E0D5005010E6F0E500F6F34
:1006C0001750106F1850116FBED112C50DF013C521
:1006D0000EF0E86A050113BFFF0E176E186E135077
:1006E0000D2614500E2215501722165018220D50A8
:1006F000035C0D6E0E5004580E6E17500558176EA1
:1007000018500658186E0D5005010E6F0E500F6FE1
:100710001750106F1850116F96D10A1E096CD8B47B
:100720000A2A09C00DF00AC00EF0E86A0ABEFF0EE0
:10073000176E186E1250800FF36E1850800FF35C16
:1007400008E11750115C05E10E50105C02E10D50FC
:100750000F5CD8B055D11C1C186E1B1C176E1A1CD0
:100760000E6E191C0D6E0D2A04E10E2A02E1174AC5
:10077000182A1850800FF36E0650800FF35C08E1C2
:100780000550175C05E104500E5C02E103500D5C5E
:10079000D8B00FD112C519F013C51AF0E86A0501D7
:1007A00013BFFF0E1B6E1C6E1950035C196E1A509E
:1007B00004581A6E1B5005581B6E1C5006581C6EB0
:1007C000195005010E6F1A500F6F1B50106F1C50FF
:1007D000116F14C519F015C51AF012C51BF013C519
:1007E0001CF01A50800FF36E1C50800FF35C02E176
:1007F0001B50195CD8B0C1D00EC51DF00FC51EF03E
:1008000010C51FF011C520F0D8901F30226E1E3089
:10081000216ED89022322132D890223221322050BB
:10082000E838E844E00B22122038E8441F0BE8B80F
:10083000E009236E246A23BE2468241E231E221E80
:10084000216C05E1222A03E1232AD8B4242A21506D
:100850000B6E22500C6ED8901F30226E1E30216E0F
:10086000D890223221322050E840E840C00B2212BA
:100870002040E8403F0B221E216C02E1222A00E1C9
:100880002150076E2250086EE86A0CBEFF0E216EE2
:10089000226EE86A08BEFF0E236EE56E2350E56EF9
:1008A0000850E56E0750E56E2250E56E2150E56E6A
:1008B0000C50E56E0B50E56EBEEC22F0076EF3CFE8
:1008C00008F0F4CF0BF0E9CF0CF0080EE12619C0C8
:1008D00021F01AC022F0E86A1ABEFF0E236EE56E00
:1008E0002350E56E2250E56E2150E56E0C50E56E0A
:1008F0000B50E56E0850E56E0750E56E5FEC27F093
:10090000076EF3CF08F0080EE126081E076C02E11F
:10091000082A00E10750096E08500A6EE86A0ABE0C
:10092000FF0E076E800FF36E1250800FF35C08E12C
:100930001150075C05E110500A5C02E10F50095CA0
:100940001CE219501B5C196E1A501C581A6EE86A8A
:100950001ABEFF0E076E086E19501D261A501E2271
:1009600007501F22085020221D5005010E6F1E50F7
:100970000F6F1F50106F2050116F05011151800F24
:10098000F36E1850800FF35C08E11750105D05E11D
:100990000E500F5D02E10D500E5DD8B054D00D50D9
:1009A00005010E6F0E500F6F1750106F1850116F1A
:1009B0004AD00650800FF36E1850800FF35C08E1A8
:1009C0001750055C05E10E50045C02E10D50035C1C
:1009D000D8B039D013500324076E14500420086E89
:1009E00015500520096E165006200A6E07500501A5
:1009F0000E6F08500F6F0950106F0A50116F23D0FF
:100A000012C507F013C508F0E86A050113BFFF0E11
:100A1000096E0A6E07501326085014220950152239
:100A20000A50162213500326145004221550052292
:100A300016500622035005010E6F04500F6F05502B
:100A4000106F0650116FD89005011031046E0F31F0
:100A5000036ED890043203321151E840E840C00BD5
:100A600004121141E8403F0BE8BAC009056E066A5E
:100A700005BE0668045103260551042206510522CD
:100A8000075106220350046F0450056F0550066F8E
:100A90000650076F08C503F009C504F00AC505F044
:100AA0000BC506F00350041005100610D8B474D01E
:100AB000D880050107AFD8902BE30450096E0926B2
:100AC00005340A6ED89009360A360344E844FC0B14
:100AD000086E0350E844E844030B0912076A045106
:100AE0000B6E05510C6E06510D6E07510E6E0B50BC
:100AF00007260C5008220D5009220E500A220750DA
:100B0000046F0850056F0950066F0A50076F44D0F4
:100B10000450096E092605340A6ED89009360A3643
:100B20000344E844FC0B086E0350E844E844030B1C
:100B30000912076A05010451036E0551046E06513E
:100B4000056E0751066E0A50065C08E10950055C07
:100B500005E10850045C02E10750035C1DE3050158
:100B60000451036E0551046E0651056E0751066E61
:100B70000750035C076E08500458086E095005586A
:100B8000096E0A5006580A6E0750046F0850056F28
:100B90000950066F0A50076FE56A160EE56E800E63
:100BA000E56E050EE56E000EE56E0250E56E015035
:100BB000E56E0050E56EABEC30F0080EE126E4CFB8
:100BC00027F0E4CF26F0E4CF25F0E4CF24F0E4CF03
:100BD00023F0E4CF22F0E4CF21F0E4CF20F0E4CF03
:100BE0001FF0E4CF1EF0E4CF1DF0E4CF1CF0E4CF03
:100BF0001BF0E4CF1AF0E4CF19F0E4CF18F0E4CF03
:100C000017F0E4CF16F0E4CF15F0E4CF14F0E4CF02
:100C100013F0E4CF12F0E4CF11F0E4CF10F0E4CF02
:100C20000FF0E4CF0EF0E4CF0DF0E4CF0CF0E4CF02
:100C30000BF0E4CF0AF0E4CF09F0E4CF08F0E4CF02
:100C400007F0E4CF06F0E4CF05F0E4CF04F0E4CF02
:100C500003F0E4CF02F0E4CF01F0E4CF00F0E4CF02
:100C6000D9FF1200D9CFE5FFE1CFD9FF00C0E5FFE2
:100C700001C0E5FF02C0E5FF03C0E5FF04C0E5FFDA
:100C800005C0E5FF06C0E5FF07C0E5FF08C0E5FFBA
:100C900009C0E5FF0AC0E5FF0BC0E5FF0CC0E5FF9A
:100CA0000DC0E5FF020EDBCF00F0030EDBCF01F03D
:100CB000040EDBCF02F00050090F066E000E01207B
:100CC000076E000E0220086E0B6E07500A6E06506B
:100CD000096EE56A0D0EE56E0B50E56E0A50E56E85
:100CE0000950E56E800EE56E050EE56E260EE56E8A
:100CF000ABEC30F0080EE12600C009F001C00AF0AC
:100D000002C00BF0E56AE56E0B50E56E0A50E56E29
:100D10000950E56E800EE56E040EE56E810EE56EFF
:100D2000ABEC30F0080EE12681C403F00350010A59
:100D300004E00350030A01E019D105013B51036EA1
:100D40003C51046E05012E51056E2F51096E055060
:100D5000035C05018C6F095004588D6F05013B51F0
:100D600005012E6F05013C5105012F6F05013D5115
:100D70000501306F05013E510501316F05018C51B0
:100D80008D11D8A47FD024EC3BF0036EF3CF04F098
:100D9000F4CF05F0E9CF09F0050133510A6E345163
:100DA0000B6E35510C6E36510D6E0A50035E0B50B2
:100DB000045A0C50055A0D50095A035004018E6F05
:100DC00004508F6F0550906F7F0E0914916F0501CD
:100DD00032B125D004018F359131046E9031036E0C
:100DE000043404320332000E04BEFF0E096E056E99
:100DF00086C40AF00B6A0C6A0D6A0D50800FF36E00
:100E00000950800FF35C08E105500C5C05E10450CB
:100E10000B5C02E103500A5C02E20501328105012C
:100E200032B14AD02AC503F02BC504F02CC505F019
:100E30002DC509F004019151800FF36E0950800F08
:100E4000F35C08E10550905D05E104508F5D02E11F
:100E500003508E5D08E203C08EF404C08FF405C019
:100E600090F409C091F405013FA303D0010E036E75
:100E700001D0036803C08CF505018D6B03AE01D072
:100E80008D691AD00501329137C58EF438C58FF4BB
:100E900039C590F43AC591F404018E5105012A6FC9
:100EA00004018F5105012B6F0401905105012C6F36
:100EB0000401915105012D6F04019151800F800FA4
:100EC00008E1000E905D05E1000E8F5D02E1010E6C
:100ED0008E5D06E205014D6B4E6B4F6B506B46D03D
:100EE00004018E51036E8F51046E9051056E915125
:100EF000E56E0550E56E0450E56E0350E56E010E9B
:100F0000E56E000EE56AE56AE56A5BEC2CF0036EBF
:100F1000F3CF04F0F4CF05F0E9CF09F0080EE12695
:100F20008CC50AF08DC50BF0E86A05018DBFFF0E78
:100F30000C6E0D6E0950E56E0550E56E0450E56EC1
:100F40000350E56E0D50E56E0C50E56E0B50E56EEE
:100F50000A50E56EBEEC22F005014D6FF3CF4EF561
:100F6000F4CF4FF5E9CF50F5080EE126020E04014B
:100F7000815DD8A0C9D105013FA1C6D10050230F82
:100F8000036E000E0120046E000E0220E56E045078
:100F9000E56E0350E56E0EEC00F0030EE126005006
:100FA000230F036E000E0120046E000E0220056E5A
:100FB0000350040F096E000E04200A6E000E052077
:100FC0000B6E09C0E9FF0AC0F3FF0B505AEC3CF06E
:100FD000F3CF0AF0F4CF0BF0E9CF0CF00A50096E12
:100FE0000B500A6ED8900A320932D8900A32093270
:100FF0000C50E840E840C00B0A120C40E8403F0BA0
:10100000E8BAC0090B6E0C6A0BBE0C6805013B51B7
:10101000095C0501516F05013C510A580501526FE9
:1010200005013D510B580501536F05013E510C5808
:101030000501546F080E0326000E0422052203C08A
:10104000E9FF04C0F3FF05505AEC3CF0036EF3CF08
:1010500004F0F4CF05F0E9CF09F003500501556F16
:101060000450566F0550576F0950586F555156111F
:1010700057115811D8B45DD0555105015125036E53
:101080000501565105015221046E05015751050114
:101090005321056E0501585105015421096EE56A79
:1010A000E56AE56A020EE56E05015851E56E575195
:1010B000E56E5651E56E5551E56E5FEC27F00A6E10
:1010C000F3CF0BF0F4CF0CF0E9CF0DF0080EE126D2
:1010D0000A5003260B5004220C5005220D50092201
:1010E00005015851E56E5751E56E5651E56E555163
:1010F000E56E0950E56E0550E56E0450E56E03504F
:10110000E56EFCEC28F0036EF3CF04F0F4CF05F0AD
:10111000E9CF09F0080EE1260A50035C0501516F82
:101120000B500458526F0C500558536F0D5009580E
:10113000546FD880050154AFD89022E30401831D79
:10114000046E821D036E034A042AE86A04BEFF0E81
:10115000056E096E05015451800FF36E0950800F22
:10116000F35C08E10550535D05E10450525D02E176
:101170000350515D05E30501516B526B536B546B8A
:1011800005015451800F800F08E1000E535D05E109
:10119000000E525D02E1010E515D1EE382C403F0B8
:1011A00083C404F0E86A040183BFFF0E056E800F5C
:1011B000F36E05015451800FF35C08E15351055C57
:1011C00005E15251045C02E15151035C05E3050164
:1011D000516B526B536B546B0401875109E0E86CFF
:1011E000D89005015137523753375437010FF9E37F
:1011F00005015451800F800F08E1000E535D05E199
:10120000800E525D02E1000E515D07E30501516958
:101210007F0E526F536B546B14D005015451800FE5
:10122000810F08E1FF0E535D05E1800E525D02E182
:10123000000E515D06E20501516B800E526F53693D
:1012400054690050390F036E000E0120046E000E29
:101250000220056E05015151096E5251E56E09508B
:10126000E56E0550E56E0450E56E0350E56ED8EC72
:1012700017F0050EE12604018151030A23E1005015
:10128000390F036E000E0120046E000E0220056E61
:101290000B0E0326000E0422052203C0E9FF04C042
:1012A000F3FF05505AEC3CF0F3CF04F0F4CF05F017
:1012B0000450036E0550046E03500501266F045060
:1012C000276F22D00050390F036E000E0120046EEC
:1012D000000E0220056E0B0E0326000E04220522CE
:1012E00003C0E9FF04C0F3FF05505AEC3CF0F3CF14
:1012F00004F0F4CF05F00450036E0550046E035063
:101300000501286F0450296F81C403F00350010ABE
:1013100004E00350030A01E07DD026C503F027C591
:1013200004F0E86A050127BFFF0E056E096E05018E
:101330004D51035C0501516F05014E5104580501E3
:10134000526F05014F5105580501536F050150516A
:1013500009580501546F800F800F08E1000E535D9E
:1013600005E1800E525D02E1000E515D07E30501CB
:1013700051697F0E526F536B546B14D00501545159
:10138000800F810F08E1FF0E535D05E1800E525D75
:1013900002E1000E515D06E20501516B800E526FB5
:1013A0005369546900504A0F036E000E0120046E09
:1013B000000E0220056E05015151096E5251E56E75
:1013C0000950E56E0550E56E0450E56E0350E56E7C
:1013D000D8EC17F0050EE1264A0E0026000E012279
:1013E00002220B0E0026000E0122022200C0E9FF9D
:1013F00001C0F3FF02505AEC3CF0F3CF01F0F4CF00
:1014000002F00150006E0250016E00500501286F7D
:101410000150296F0850086EE56A0D0EE56E800ECA
:10142000E56E050EE56E260EE56E0850E56E07507A
:10143000E56E0650E56EABEC30F0080EE126E4CF29
:101440000DF0E4CF0CF0E4CF0BF0E4CF0AF0E4CFE2
:1014500009F0E4CF08F0E4CF07F0E4CF06F0E4CFE2
:1014600005F0E4CF04F0E4CF03F0E4CF02F0E4CFE2
:1014700001F0E4CF00F0E4CFD9FF1200256420256D
:10148000640A0000D9CFE5FFE1CFD9FF00C0E5FF36
:1014900001C0E5FF02C0E5FF03C0E5FF04C0E5FFB2
:1014A00005C0E5FF06C0E5FF07C0E5FF08C0E5FF92
:1014B00009C0E5FF0AC0E5FF0BC0E5FF0CC0E5FF72
:1014C0000DC0E5FF0EC0E5FF0FC0E5FF10C0E5FF52
:1014D00011C0E5FF12C0E5FF13C0E5FF14C0E5FF32
:1014E00015C0E5FF16C0E5FF17C0E5FF18C0E5FF12
:1014F00019C0E5FF1AC0E5FF1BC0E5FF1CC0E5FFF2
:101500001DC0E5FF1EC0E5FF020EDBCF00F0030E9D
:10151000DBCF01F0040EDBCF02F0050EDBCF03F0D2
:10152000060EDBCF04F0070EDBCF05F0080EDBCF95
:1015300006F0090EDBCF07F00A0EDBCF08F0096AD0
:101540000A6A02C00DF00D50800A0DE1025005013B
:10155000816F0150806F00507F6F050E016E7F0E0E
:10156000006E800E026E03C0E9FF04C0F3FF055059
:1015700037EC3EF00B6E0B50D8B4F8EF0DF00B507B
:10158000250A02E0DFEF0DF00C6A0D6A0E6A0F6AA1
:10159000106A0A0E116E126A136A146A200E156E12
:1015A0001668176A2B0E186E032A02E3044A052AEE
:1015B00003C0E9FF04C0F3FF055037EC3EF0196E9D
:1015C000250A13E11950E56E0250E56E0150E56EF3
:1015D0000050E56E05EC2EF0040EE126094A0A2AB9
:1015E000032A02E3044A052ABED71950300A06E14D
:1015F000300E156E032A02E3044A052A03C0E9FFF0
:1016000004C0F3FF055037EC3EF02D0A06E1010E51
:10161000146E032A02E3044A052A03C0E9FF04C04A
:10162000F3FF055037EC3EF0200A08E1010E176E7B
:10163000200E186E032A02E3044A052A03C0E9FFBC
:1016400004C0F3FF055037EC3EF02B0A06E1010E13
:10165000176E032A02E3044A052A03C0E9FF04C007
:10166000F3FF055037EC3EF0196E310E195C2BE399
:101670003A0E195C28E203C019F004C01AF005C044
:101680001BF019C0E9FF1AC0F3FF1B5037EC3EF006
:101690001C6E300E1C5C11E33A0E1C5C0EE2135003
:1016A0000A0DF3CF1DF01C501D26D00E1D24136E05
:1016B000192A02E31A4A1B2AE4D719C003F01AC0F8
:1016C00004F01BC005F003C0E9FF04C0F3FF0550A0
:1016D00037EC3EF02E0A2DE1032A02E3044A052AE4
:1016E000166A03C019F004C01AF005C01BF019C037
:1016F000E9FF1AC0F3FF1B5037EC3EF01C6E300EB2
:101700001C5C11E33A0E1C5C0EE216500A0DF3CF7E
:101710001DF01C501D26D00E1D24166E192A02E342
:101720001A4A1B2AE4D719C003F01AC004F01BC0E0
:1017300005F003C0E9FF04C0F3FF055037EC3EF0AD
:10174000196E6C0A07E1010E0C6E032A02E3044ACB
:10175000052A09D01950680A06E1010E0E6E032A07
:1017600002E3044A052A03C0E9FF04C0F3FF055061
:1017700037EC3EF0750A06E1010E106E032A02E313
:10178000044A052A03C0E9FF04C0F3FF055037EC03
:101790003EF0196E730A05E1010E0D6E200E156EF6
:1017A0003FD01950780A03E1100E116E39D019504C
:1017B000580A05E1100E116E010E126E31D019504B
:1017C000630A02E1116A2CD019506F0A03E1080E76
:1017D000116E26D01950660A03E1010E0F6E20D05B
:1017E0001950640A1DE01950690A1AE0105005E00A
:1017F000FF0E03260422052213D01950E56E025075
:10180000E56E0150E56E0050E56E05EC2EF0040E1D
:10181000E126094A0A2A032A02E3044A052AA3D632
:101820000D5021E00650030F0D6E000E0720196EBB
:10183000000E08201A6E0DC006F019C007F01AC07D
:1018400008F0FD0E0D26FF0E19221A220DC0E9FF29
:1018500019C0F3FF1A50D4EC3CF00D6EF3CF19F021
:10186000F4CF1AF0FDD00F500DE0000E1A6E1C0ED2
:10187000196E780E0D6E040E0626000E0722082241
:101880001668EED016680C5023E00650040F0C6E5C
:10189000000E07200F6E000E08201B6E0CC006F015
:1018A0000FC007F01BC008F0FC0E0C26FF0E0F2225
:1018B0001B220CC0E9FF0FC0F3FF1B505AEC3CF099
:1018C0000C6EF3CF0FF0F4CF1BF0E9CF1CF067D014
:1018D0000E502FE00650020F0E6E000E07201D6EF8
:1018E000000E08201E6E0EC006F01DC007F01EC0C0
:1018F00008F0FE0E0E26FF0E1D221E220EC0E9FF6E
:101900001DC0F3FF1E50ACEC3DF00E6E0EC00CF08F
:101910000F6A1B6A1C6A11500A0A03E11050D8B4FE
:101920003ED00C500E6E0EC00CF00F6A1B6A1C6A83
:1019300036D00650020F0E6E000E07201D6E000EF0
:1019400008201E6E0EC006F01DC007F01EC008F075
:10195000FE0E0E26FF0E1D221E220EC0E9FF1DC028
:10196000F3FF1E50ACEC3DF00E6EF3CF1DF00EC039
:101970000CF01DC00FF0E86A1DBEFF0E1B6E1C6E42
:1019800011500A0A02E110500AE00C500E6E0F507E
:101990001D6E0EC00CF01DC00FF01B6A1C6A050EF8
:1019A000196E410E0D6E800E1A6E1150D8B440D0D3
:1019B000105013E01150E56E050EE56E410EE56E18
:1019C0001C50E56E1B50E56E0F50E56E0C50E56E39
:1019D000AEEC25F0070EE12612D01150E56E050E93
:1019E000E56E410EE56E1C50E56E1B50E56E0F5026
:1019F000E56E0C50E56EF6EC34F0070EE12617505C
:101A00002FE00DC0E9FF19C0F3FF1A5037EC3EF08C
:101A10002D0A26E0FF0E0D2619221A2218C0E5FF16
:101A20000DC0E9FF19C0F3FF1A50AFEC3EF018D01B
:101A30000CC0E5FF0DC0E9FF19C0F3FF1A50AFEC71
:101A40003EF00D50010F0C6E000E19200E6E000EB0
:101A50001A20E56A0CC0E9FF0EC0F3FFAFEC3EF0C0
:101A60000DC00CF019C00EF01AC00FF013C010F02A
:101A7000105010E00CC0E9FF0EC0F3FF0F5037EC20
:101A80003EF0176E175006E00C2A02E30E4A0F2AAA
:101A90001006EED710C013F014501EE109C00CF070
:101AA0000AC00EF010C00FF00F5010E01550E56E98
:101AB0000250E56E0150E56E0050E56E05EC2EF02B
:101AC000040EE1260C4A0E2A0F06EED70CC009F0D0
:101AD0000EC00AF00FC013F016C00CF00DC00DF0D0
:101AE00019C00EF01AC00FF009C010F00AC015F0AE
:101AF0000DC0E9FF0EC0F3FF0F5037EC3EF0166E3D
:101B00001650D8B43ED00CC016F0176A161E171E19
:101B10001650171005E00CC016F00C06165031E0F8
:101B20000DC0E9FF0EC0F3FF0F5037EC3EF0116E11
:101B3000125010E01150E56E69EC3DF0166EE65261
:101B4000165004E0DF0E1114166E02D011C016F00C
:101B500016C011F01150E56E0250E56E0150E56EB1
:101B60000050E56E05EC2EF0040EE1260D2A02E38E
:101B70000E4A0F2A104A152A1350D8B4B9D71306A3
:101B8000B7D710C009F015C00AF014502BE010C0F0
:101B90000CF015C00DF013C00EF00E501FE0200E1B
:101BA000E56E0250E56E0150E56E0050E56E05EC05
:101BB0002EF0040EE1260C4A0D2A0E06EED70B502D
:101BC000E56E0250E56E0150E56E0050E56E05ECE5
:101BD0002EF0040EE126094A0A2A04D00CC009F0AE
:101BE0000DC00AF0032A02E3044A052AB3EF0AF003
:101BF0000AC0F3FF0950E4CF1EF0E4CF1DF0E4CF9C
:101C00001CF0E4CF1BF0E4CF1AF0E4CF19F0E4CFDE
:101C100018F0E4CF17F0E4CF16F0E4CF15F0E4CFDE
:101C200014F0E4CF13F0E4CF12F0E4CF11F0E4CFDE
:101C300010F0E4CF0FF0E4CF0EF0E4CF0DF0E4CFDE
:101C40000CF0E4CF0BF0E4CF0AF0E4CF09F0E4CFDE
:101C500008F0E4CF07F0E4CF06F0E4CF05F0E4CFDE
:101C600004F0E4CF03F0E4CF02F0E4CF01F0E4CFDE
:101C700000F0E4CFD9FF12003C4E4F20464C4F41BC
:101C8000543E0000D9CFE5FFE1CFD9FF00C0E5FF0A
:101C900001C0E5FF02C0E5FF03C0E5FF04C0E5FFAA
:101CA00005C0E5FF06C0E5FF07C0E5FF08C0E5FF8A
:101CB00009C0E5FF0AC0E5FF0BC0E5FF0CC0E5FF6A
:101CC0000DC0E5FF0EC0E5FF020EDBCF00F0030EF6
:101CD000DBCF01F0040EDBCF02F0036A046A056A71
:101CE000066A4EEC3BF0076EFE0A01E0D3D027EC0B
:101CF00037F04EEC3BF0086E085014E00850010A33
:101D00002CE00850020A01E143D008500A0A01E120
:101D10005AD008500B0A01E165D008500D0A01E1C4
:101D20008ED0A2D000500C0F096E000E01200A6E5A
:101D3000000E022009C0E9FF0AC0F3FFACEC3DF041
:101D4000096EF3CF0AF009C003F00AC004F0E86A94
:101D50000ABEFF0E056E066E87D00050120F096E88
:101D6000000E01200A6E000E022009C0E9FF0AC021
:101D7000F3FFACEC3DF0096EF3CF0AF009C003F0BD
:101D80000AC004F0E86A0ABEFF0E056E066E6CD04B
:101D90000050140F096E000E01200A6E000E022082
:101DA00009C0E9FF0AC0F3FFACEC3DF0096EF3CFC8
:101DB0000AF009C003F00AC004F0E86A0ABEFF0E88
:101DC000056E066E51D000C0E9FF01C0F3FF02505E
:101DD0005AEC3CF0036EF3CF04F0F4CF05F0E9CFFA
:101DE00006F042D00050040F096E000E01200A6E6A
:101DF000000E02200B6E09C0E9FF0AC0F3FF0B5072
:101E00005AEC3CF0F3CF0AF0F4CF0BF0E9CF0CF032
:101E1000D8900B30046E0A30036ED890043203322F
:101E20000C50E840E840C00B04120C40E8403F0B67
:101E3000E8BAC009056E066A05BE066815D00050EE
:101E4000080F096E000E01200A6E000E022009C064
:101E5000E9FF0AC0F3FF5AEC3CF0036EF3CF04F045
:101E6000F4CF05F0E9CF06F00650E56E0550E56EBB
:101E70000450E56E0350E56EE56A0850E56E000E0D
:101E8000E56E660EE56EBA0EE56E21EC39F0090ED0
:101E9000E12679D1075019E00750010A01E13ED04F
:101EA0000750020A01E163D007500A0A01E188D015
:101EB00007500B0A01E1BCD007500C0A01E1F0D039
:101EC00007500D0A01E124D15ED100500C0F076EBE
:101ED000000E0120086E000E0220096E4EEC3BF051
:101EE0000D6E0C6AE56A0DC0F4FF07C0E9FF08C07B
:101EF000F3FF095081EC3EF04EEC3BF00B6A0C26F0
:101F00000B500D220CC0E5FF0DC0F4FF07C0E9FF28
:101F100008C0F3FF095081EC3EF035D10050120F9C
:101F2000076E000E0120086E000E0220096E4EECB6
:101F30003BF00D6E0C6AE56A0DC0F4FF07C0E9FFC7
:101F400008C0F3FF095081EC3EF04EEC3BF00B6A09
:101F50000C260B500D220CC0E5FF0DC0F4FF07C08E
:101F6000E9FF08C0F3FF095081EC3EF00CD10050AE
:101F7000140F076E000E0120086E000E0220096E7D
:101F80004EEC3BF00D6E0C6AE56A0DC0F4FF07C025
:101F9000E9FF08C0F3FF095081EC3EF04EEC3BF046
:101FA0000B6A0C260B500D220CC0E5FF0DC0F4FF90
:101FB00007C0E9FF08C0F3FF095081EC3EF0E3D011
:101FC0004EEC3BF00A6E096A4EEC3BF0086A0926BB
:101FD00008500A220A500E6E09500D6E0B6A0C6AE8
:101FE0004EEC3BF00A6E086A4EEC3BF0076A08269E
:101FF00007500A22096A08500B10036E0A500C1091
:10200000046E07500D10056E09500E10E56E055058
:10201000E56E0450E56E0350E56E0250E56E01502A
:10202000E56E0050E56E80EC2AF0070EE126ABD09D
:102030004EEC3BF00A6E096A4EEC3BF0086A09264A
:1020400008500A220A500E6E09500D6E0B6A0C6A77
:102050004EEC3BF00A6E086A4EEC3BF0076A08262D
:1020600007500A22096A08500B10036E0A500C1020
:10207000046E07500D10056E09500E10E56E0550E8
:10208000E56E0450E56E0350E56E0250E56E0150BA
:10209000E56E0050E56ECCEC24F0070EE12673D01F
:1020A0004EEC3BF00A6E096A4EEC3BF0086A0926DA
:1020B00008500A220A500E6E09500D6E0B6A0C6A07
:1020C0004EEC3BF00A6E086A4EEC3BF0076A0826BD
:1020D00007500A22096A08500B10036E0A500C10B0
:1020E000046E07500D10056E09500E10E56E055078
:1020F000E56E0450E56E0350E56E0250E56E01504A
:10210000E56E0050E56E2EEC28F0070EE1263BD080
:102110004EEC3BF00A6E096A4EEC3BF0086A092669
:1021200008500A220A500E6E09500D6E0B6A0C6A96
:102130004EEC3BF00A6E086A4EEC3BF0076A08264C
:1021400007500A22096A08500B10036E0A500C103F
:10215000046E07500D10056E09500E10066E080E25
:102160000026000E0122022203C0E5FF04C0F4FF96
:1021700005C0F6FF06C0F7FF00C0E9FF01C0F3FF8E
:10218000025026EC3EF0E4CF0EF0E4CF0DF0E4CFA9
:102190000CF0E4CF0BF0E4CF0AF0E4CF09F0E4CF89
:1021A00008F0E4CF07F0E4CF06F0E4CF05F0E4CF89
:1021B00004F0E4CF03F0E4CF02F0E4CF01F0E4CF89
:1021C00000F0E4CFD9FF1200D9CFE5FFE1CFD9FF6E
:1021D00000C0E5FF01C0E5FF02C0E5FF03C0E5FF69
:1021E00004C0E5FF05C0E5FF06C0E5FF07C0E5FF49
:1021F00008C0E5FF09C0E5FF0AC0E5FF0BC0E5FF29
:102200000CC0E5FF020EDBCF00F0030EDBCF01F0C8
:10221000040EDBCF02F0036A046A4EEC3BF0056E5D
:10222000FE0A01E077D027EC37F04EEC3BF0066E6B
:10223000030E065CD8A05AD0060E065CD8B056D065
:10224000FD0E0624076EFA6AFB6A0734FA36E83494
:10225000FA36FC0B640FE56E220EFA22000EFB220A
:10226000E450F96E38EF11F04AEF11F063EF11F01E
:102270000050090F076E000E0120086E000E0220AC
:1022800007C0E9FF08C0F3FFACEC3DF0036EF3CFED
:1022900004F02CD00050090F076E000E0120086ECC
:1022A000000E0220096E020E0726000E08220922E7
:1022B00007C0E9FF08C0F3FF0950ACEC3DF0036E26
:1022C000F3CF04F013D00050070F076E000E01206B
:1022D000086E000E022007C0E9FF08C0F3FF37ECCC
:1022E0003EF0010B076E07C003F0046A06C007F05A
:1022F0000450E56E0350E56EE56A0750E56E000E8A
:10230000E56E140EE56E7C0EE56E21EC39F0070EDD
:10231000E1269ED1080E055CD8B09AD1FA6AFB6A14
:102320000534FA36E834FA36FC0B3A0FE56E230E24
:10233000FA22000EFB22E450F96EADEF11F0C8EF67
:1023400011F0DAEF11F0ECEF11F01EEF12F054EF94
:1023500012F073EF12F0D2EF12F00050230F056E5F
:10236000000E0120076E000E0220E56E0750E56E9C
:102370000550E56E42EC0EF0030EE126020EE56E0E
:1023800000C0E9FF01C0F3FF0250AFEC3EF060D1A6
:102390000050390F056E000E0120076E000E02205E
:1023A000E56E0750E56E0550E56E80EC21F0030EFA
:1023B000E1264ED100504A0F056E000E0120076E37
:1023C000000E0220E56E0750E56E0550E56E80ECCC
:1023D00021F0030EE1263CD10050090F056E000EDE
:1023E0000120076E000E0220086E4EEC3BF00C6ED2
:1023F0000B6AE56A0CC0F4FF05C0E9FF07C0F3FFF4
:10240000085081EC3EF04EEC3BF00A6A0B260A5075
:102410000C220BC0E5FF0CC0F4FF05C0E9FF07C0AC
:10242000F3FF085081EC3EF0010EE56E00C0E9FFBD
:1024300001C0F3FF0250AFEC3EF00AD10050090F8B
:10244000056E000E0120076E000E0220086E020EBF
:102450000526000E072208224EEC3BF00C6E0B6A9C
:10246000E56A0CC0F4FF05C0E9FF07C0F3FF0850A0
:1024700081EC3EF04EEC3BF00A6A0B260A500C222F
:102480000BC0E5FF0CC0F4FF05C0E9FF07C0F3FF78
:10249000085081EC3EF0E56A00C0E9FF01C0F3FF9F
:1024A0000250AFEC3EF0D4D00050070F056E000E86
:1024B0000120076E000E0220086E4EEC3BF0010B6F
:1024C000F46E05C0E9FF07C0F3FF085037EC3EF09B
:1024D000FE0BF410E56E05C0E9FF07C0F3FF0850DE
:1024E000AFEC3EF0B5D04EEC3BF0066E0050160F50
:1024F000056E000E0120076E000E0220086E0550CA
:102500000C0F096E000E07200A6E000E08200B6EDD
:102510000650D880E866D8900C6A0C360C50D880EB
:10252000E866D8900C6A0C360C50010BF46E09C0AA
:10253000E9FF0AC0F3FF0B5037EC3EF0FE0BF4103E
:10254000E56E09C0E9FF0AC0F3FF0B50AFEC3EF0A7
:102550000650010A01E07CD0080E0526000E072275
:102560000822E56AF46AF66AF76A05C0E9FF07C05F
:10257000F3FF085026EC3EF00050230F056E000ECE
:102580000120066E000E0220E56AE56AE56AE56A4A
:10259000E56E0650E56E0550E56ECCEC24F0070EB6
:1025A000E12656D04EEC3BF0046E036A4EEC3BF055
:1025B000066A0326065004220050160F056E000E10
:1025C0000120066E000E0220076E05500C0F086EEB
:1025D000000E0620096E000E07200A6E08C0E9FFF3
:1025E00009C0F3FF37EC3EF0E880E56E08C0E9FF74
:1025F00009C0F3FF0A50AFEC3EF0080E0526000EAE
:1026000006220722086A096A03C0E5FF04C0F4FF36
:10261000F66AF76A05C0E9FF06C0F3FF075026EC2B
:102620003EF0230E0026000E012202220950E56E24
:102630000850E56E0450E56E0350E56E0250E56EFD
:102640000150E56E0050E56E2EEC28F0070EE126F5
:10265000E4CF0CF0E4CF0BF0E4CF0AF0E4CF09F0C4
:10266000E4CF08F0E4CF07F0E4CF06F0E4CF05F0C4
:10267000E4CF04F0E4CF03F0E4CF02F0E4CF01F0C4
:10268000E4CF00F0E4CFD9FF120000C0E5FF01C0A5
:10269000E5FF02C0E5FF03C0E5FF04C0E5FF05C09C
:1026A000E5FF06C0E5FF07C0E5FF9EA07EEF15F041
:1026B000006A82B8002A0050010BF46E04019B519D
:1026C000FE0BF4109B6F82BC07D0B16BB26BB36B87
:1026D000B46BB581B58502D00401B595006A0401DB
:1026E0009BB1002A016A9BB5012A0050011801E143
:1026F000F0D0006A04019BB1002A0050010BE844AD
:10270000E844F46E9B51FB0BF4109B6FA951AD5D37
:10271000006EAA51AE59016EAB51AF59026EAC5169
:10272000B059036E0050AD6F0150AE6F0250AF6FE5
:102730000350B06F0301FB510401A96F0301FC5169
:102740000401AA6F0301FD510401AB6F0301FE51A7
:102750000401AC6F0301FB510026FC510122FD5125
:102760000222FE51032200500401AD6F0150AE6FF2
:102770000250AF6F0350B06F006A82BA002A005057
:10278000010BE844F46E9B51FD0BF4109B6F006A43
:102790009BB1002A016A9BB3012A0150D880E866E8
:1027A000D890016A01360150001A0050D8B451D0B7
:1027B000B1C400F0B2C401F0B3C402F0B4C403F079
:1027C000002A04E3012A02E3024A032A005004011A
:1027D000B16F0150B26F0250B36F0350B46FB58345
:1027E000BEC400F0BFC401F0C0C402F0C1C403F015
:1027F0000050011002100310D8B46BD0B151046E18
:10280000B251056EB351066EB451076E0350075CAA
:1028100008E10250065C05E10150055C02E1005050
:10282000045CD8A056D00050045C006E01500558DE
:10283000016E02500658026E03500758036E005096
:102840000401B16F0150B26F0250B36F0350B46F07
:1028500040D0B1C400F0B2C401F0B3C402F0B4C4BB
:1028600003F0FF0E00260122022203220050040181
:10287000B16F0150B26F0250B36F0350B46FB59394
:10288000BEC400F0BFC401F0C0C402F0C1C403F074
:1028900000500110021003101CE0B1C404F0B2C4D7
:1028A00005F0B3C406F0B4C407F0D88007AED890E2
:1028B00010E3045000260550012206500222075062
:1028C00003220050B16F0150B26F0250B36F03503A
:1028D000B46F006A82BE002A0050010BF46E03013F
:1028E0000851FE0BF410086F81B207D01E6B1F6BEE
:1028F000206B216B2281228502D003012295006A80
:10290000030108B1002A016A08B5012A0050011824
:1029100001E1F0D0006A030108B1002A0050010B68
:10292000E844E844F46E0851FB0BF410086F1651AC
:102930001A5D006E17511B59016E18511C59026E19
:1029400019511D59036E00501A6F01501B6F025030
:102950001C6F03501D6F0301FB510301166F030130
:10296000FC510301176F0301FD510301186F0301AF
:10297000FE510301196F0301FB510026FC51012296
:10298000FD510222FE510322005003011A6F015033
:102990001B6F02501C6F03501D6F006A81B0002A2C
:1029A0000050010BE844F46E0851FD0BF410086F61
:1029B000006A08B1002A016A08B3012A0150D880D0
:1029C000E866D890016A01360150001A0050D8B468
:1029D00051D01EC300F01FC301F020C302F021C379
:1029E00003F0002A04E3012A02E3024A032A00500A
:1029F00003011E6F01501F6F0250206F0350216FA3
:102A000022832BC300F02CC301F02DC302F02EC390
:102A100003F00050011002100310D8B46BD01E5107
:102A2000046E1F51056E2051066E2151076E035032
:102A3000075C08E10250065C05E10150055C02E11B
:102A40000050045CD8A056D00050045C006E0150C9
:102A50000558016E02500658026E03500758036E67
:102A6000005003011E6F01501F6F0250206F035072
:102A7000216F40D01EC300F01FC301F020C302F03D
:102A800021C303F0FF0E0026012202220322005080
:102A900003011E6F01501F6F0250206F0350216F02
:102AA00022932BC300F02CC301F02DC302F02EC3E0
:102AB00003F000500110021003101CE01EC304F0CC
:102AC0001FC305F020C306F021C307F0D88007AE6E
:102AD000D89010E30450002605500122065002222F
:102AE0000750032200501E6F01501F6F0250206FCD
:102AF0000350216FCF689B0ECE6E9E90E4CF07F0FF
:102B0000E4CF06F0E4CF05F0E4CF04F0E4CF03F027
:102B1000E4CF02F0E4CF01F0E4CF00F01200430074
:102B20002563000000C0E5FF01C0E5FF02C0E5FF2E
:102B300003C0E5FF04C0E5FF05C0E5FF06C0E5FFF3
:102B400007C0E5FF08C0E5FF09C0E5FF0AC0E5FFD3
:102B50000BC0E5FF0CC0E5FF006A016A026A040EC3
:102B6000025CD8B0E8D101C003F0012A100E035C6A
:102B7000D8B0E1D10401232B100E235D01E3236BB8
:102B800004012339E8441F0B036E046A880E0326F0
:102B9000050E042203C0E9FF04C0EAFFEFCF03F0F3
:102BA000070E2315046E010E056E000E066E04500E
:102BB00006E0E86CD89005360636010FFCE3076A9C
:102BC000035005160750061605500610D880E86613
:102BD000D890056A05360550D8A4C1D70401235101
:102BE000020DF450046EF3CF03F0E00E0324056EE3
:102BF000000E0420066E05C0E9FF06C0EAFFEECF16
:102C000005F0EFCF06F0040120A19DD07B0E032438
:102C1000076E030E0420086E07C0E9FF08C0EAFF34
:102C2000EECF07F0EFCF08F00650800FF36E08509C
:102C3000800FF35C02E10750055C03E2056A066A57
:102C400060D09B0E0326030E042203C0E9FF04C0DC
:102C5000EAFFEECF03F0EFCF04F00450800FF36EE5
:102C60000650800FF35C02E10550035C04E2056846
:102C70003F0E066E46D00750055C096E0850065898
:102C80000A6EE86A0ABEFF0E0B6EE56E0B50E56E2B
:102C90000A50E56E0950E56EE56AE56A400EE56E9C
:102CA000000EE56ABEEC22F0096EF3CF0AF0F4CF15
:102CB0000BF0E9CF0CF0080EE1260750035C076E1D
:102CC00008500458086EE86A08BEFF0E036EE56EF1
:102CD0000350E56E0850E56E0750E56E0C50E56E4A
:102CE0000B50E56E0A50E56E0950E56E5BEC2CF07A
:102CF000036EF3CF04F0080EE1260350056E045076
:102D0000066E04011F51800FF36E0650800FF35CB6
:102D100002E105501E5D03E3056A066A14D0040152
:102D20001E51FF08036E3F0E1F55046E0650800FA4
:102D3000F36E0450800FF35C02E10350055C03E383
:102D400005683F0E066E04012351020DF450046E17
:102D5000F3CF03F05B0E0326030E042203C0E9FF4A
:102D600004C0EAFFEECF03F0EFCF04F00350055CA0
:102D7000036E04500658046ED88004AED89004E365
:102D8000041E036CD8B4042A022A04011F51800FC8
:102D9000F36E0450800FF35C02E103501E5DD8B067
:102DA000DED604012351020DF450086EF3CF07F074
:102DB0005B0E0726030E082207C0E9FF08C0EAFFE2
:102DC00005C0EEFF06C0EFFF040120A55AD00401A4
:102DD0002351020DF450086EF3CF07F0BB0E072409
:102DE000096E030E08200A6E09C0E9FF0AC0EAFF57
:102DF000EECF0BF0EFCF0CF00B500C10D8B441D04D
:102E00005C0E0726040E082207C0E9FF08C0EAFF8F
:102E1000EECF07F0EFCF08F00750055C036E0850C7
:102E20000658046E03101CE00450800F800F02E16E
:102E3000010E035C076A07360C50800F800F02E119
:102E4000010E0B5C0B6A0B3607500B1809E109C029
:102E5000E9FF0AC0EAFF03C0EEFF04C0EFFF7FD620
:102E600004012351020DF450046EF3CF03F0BB0EA6
:102E70000326030E042203C0E9FF04C0EAFFEE6A42
:102E8000EF6A040120A343D000500EE100C003F01C
:102E9000002A046A240E0326040E042203C0E9FF5C
:102EA00004C0EAFF420EEF6E00C003F0002A046A7D
:102EB000240E0326040E0422640E04012325076E4B
:102EC00003C0E9FF04C0EAFF07C0EFFF00C003F042
:102ED000002A046A240E0326040E04220650076EFC
:102EE00003C0E9FF04C0EAFF07C0EFFF00C003F022
:102EF000002A046A240E0326040E04220550076EDD
:102F000003C0E9FF04C0EAFF07C0EFFF28D623C4CF
:102F100003F00650E56E0550E56EE56A0350E56E78
:102F2000000EE56E610EE56E4A0EE56E21EC39F09D
:102F3000070EE12614D602C001F000501DE0040186
:102F400020A31AD000C002F0002A036A240E022631
:102F5000040E032202C0E9FF03C0EAFF0A0EEF6E6F
:102F60000050E56E800EE56E040EE56E240EE56EF3
:102F70002DEC31F0040EE1260150E4CF0CF0E4CF4B
:102F80000BF0E4CF0AF0E4CF09F0E4CF08F0E4CF8F
:102F900007F0E4CF06F0E4CF05F0E4CF04F0E4CF8F
:102FA00003F0E4CF02F0E4CF01F0E4CF00F0120030
:102FB000D9CFE5FFE1CFD9FF00C0E5FF01C0E5FFB4
:102FC00002C0E5FF03C0E5FF04C0E5FF05C0E5FF63
:102FD00006C0E5FF07C0E5FF08C0E5FF09C0E5FF43
:102FE0000AC0E5FF0BC0E5FF020EDBCF00F0030EC9
:102FF000DBCF01F0040EDBCF02F0050EDBCF03F0D8
:10300000060EDBCF04F002500A6E0150096E00502C
:10301000086EE56A110EE56E0A50E56E0950E56E20
:103020000850E56E800EE56E040EE56EEE0EE56E60
:10303000ABEC30F0080EE126FDC405F0FEC406F04E
:10304000E86A0401FEBFFF0E076E0501606F0650BF
:103050005F6F05505E6F5D6B03C005F004C006F046
:10306000E86A04BEFF0E076E086EEEC409F0E56A5A
:10307000E56AE56A0950E56E0850E56E0750E56EB1
:103080000650E56E0550E56EBEEC22F00501596F65
:10309000F3CF5AF5F4CF5BF5E9CF5CF5080EE126E6
:1030A0000401EF51D8B4AFD00450800F800F02E17B
:1030B000010E035C25E30401F451800F7C0F08E14D
:1030C000000EF35D05E1000EF25D02E1000EF15D20
:1030D00017E20401FC51800FF36E05016051800F6F
:1030E000F35C0DE15F510401FB5D09E105015E51F7
:1030F0000401FA5D04E105015D510401F95D33E36A
:10310000D88004AED890D8A043D00401F451800FE9
:10311000840F08E1000EF35D05E1000EF25D02E1AF
:10312000010EF15D35E30501601D0A6E5F1D096E3C
:103130005E1D046E5D1D036E032A04E1042A02E194
:10314000094A0A2A0A50800FF36E0401FC51800FCD
:10315000F35C08E1FB51095C05E1FA51045C02E112
:10316000F951035C15E205500401F125036E065088
:10317000F221046E0750F321096E0850F4210A6E03
:103180000350F16F0450F26F0950F36F0A50F46F5F
:103190000401F1390F0B036EF239046EF00B041ABF
:1031A0000326F351E838F00B0412F3390F0B096EC4
:1031B000F4390A6EF00B0A1A0926F00E0AB60A262E
:1031C000EFC40BF0E56AE56AE56A0B50E56E0A505C
:1031D000E56E0950E56E0450E56E0350E56EBEECF9
:1031E00022F0036EF3CF04F0F4CF09F0E9CF0AF038
:1031F000080EE12603500501592704505A230950AF
:103200005B230A505C230401F051D8B465D0F5511A
:10321000055C0501616F0401F65106580501626FF6
:103220000401F75107580501636F0401F85108586C
:103230000501646F800F800F08E1010E635D05E1F9
:10324000000E625D02E1000E615D06E30501616949
:103250006269636B646B13D005016451800F810F49
:1032600008E1FF0E635D05E1000E625D02E1000E04
:10327000615D05E20501616B626B6369646905016B
:1032800061516125036E6235046E6335096E6435E4
:103290000A6EF0C40BF0E56AE56AE56A0B50E56E6C
:1032A0000A50E56E0950E56E0450E56E0350E56E78
:1032B000BEEC22F0036EF3CF04F0F4CF09F0E9CFB7
:1032C0000AF0080EE12603500501592704505A233D
:1032D00009505B230A505C2305500401F56F06502A
:1032E000F66F0750F76F0850F86F05016051800FB7
:1032F000F36E05015C51800FF35C0DE15B5105013C
:103300005F5D09E105015A5105015E5D04E10501BA
:10331000595105015D5D11E205015D510401F96F2F
:1033200005015E510401FA6F05015F510401FB6F55
:10333000050160510401FC6F3AD00501601D066E65
:103340005F1D056E5E1D046E5D1D036E032A04E1A4
:10335000042A02E1054A062A05015C51800FF36E3A
:103360000650800FF35C08E105505B5D05E10450F9
:103370005A5D02E10350595D0AE203500401F96FFE
:103380000450FA6F0550FB6F0650FC6F10D005011A
:1033900059510401F96F05015A510401FA6F0501F1
:1033A0005B510401FB6F05015C510401FC6FE56A90
:1033B000110EE56E800EE56E040EE56EEE0EE56E06
:1033C0000250E56E0150E56E0050E56EABEC30F05A
:1033D000080EE126E4CF0BF0E4CF0AF0E4CF09F0C9
:1033E000E4CF08F0E4CF07F0E4CF06F0E4CF05F037
:1033F000E4CF04F0E4CF03F0E4CF02F0E4CF01F037
:10340000E4CF00F0E4CFD9FF120000C0E5FF01C017
:10341000E5FF02C0E5FF03C0E5FF04C0E5FF05C00E
:10342000E5FF06C0E5FF07C0E5FF08C0E5FF09C0EE
:10343000E5FF0AC0E5FFC2A204D00401215118EF44
:103440001CF004012251D8B41BD104012151020DFA
:10345000F450016EF3CF00F0E00E0026000E0122C2
:1034600000C0E9FF01C0EAFFEECF00F0EFCF01F0AE
:10347000230E2125026E036A0F0E032202C0E9FF0C
:1034800003C0EAFFEFCF02F00250FF0A01E152D081
:1034900002380F0B036E920E0324046E056A0F0EA2
:1034A0000522066A920E03260F0E062203C0E9FFCC
:1034B00006C0EAFFEFCF03F0070E0214066E010EFE
:1034C000076E065005E0E86CD8900736010FFDE363
:1034D000071C066E031604C0E9FF05C0EAFF03C01F
:1034E000EFFF02380F0B036E890E0324046E056A8A
:1034F0000F0E0522066A890E03260F0E062203C050
:10350000E9FF06C0EAFFEFCF03F0070E0214066ED4
:10351000010E076E065005E0E86CD8900736010FE3
:10352000FDE3071C066E031604C0E9FF05C0EAFFB1
:1035300003C0EFFF04012151020DF450046EF3CFDC
:1035400003F0E00E0326000E042201340130066E63
:103550000030056E06340632053206340632053276
:103560000550005C056E06500158066EC3CF07F08B
:10357000086A0750052608500622C4CF07F0086ADB
:1035800007500A6E096A095005260A50062203C030
:10359000E9FF04C0EAFF05C0EEFF06C0EFFF04012B
:1035A0001D51010A01E06AD004012151020DF450BD
:1035B000046EF3CF03F0E00E0324056E000E04202A
:1035C000066E05C0E9FF06C0EAFFEECF00F0EFCFC0
:1035D00001F07B0E0326030E042203C0E9FF04C0A2
:1035E000EAFFEECF05F0EFCF06F09C0E0526D8A03F
:1035F00006060150800FF36E0650800FF35C02E167
:103600000550005C0EE20050640F056E000E0120B4
:10361000066E03C0E9FF04C0EAFF05C0EEFF06C066
:10362000EFFF04012151020DF450046EF3CF03F0BB
:103630009B0E0326030E042203C0E9FF04C0EAFF29
:10364000EECF05F0EFCF06F0640E0526D8B0062ABF
:103650000650800FF36E0150800FF35C02E10050C2
:10366000055C0CE29C0E0026D8A0010603C0E9FF11
:1036700004C0EAFF00C0EEFF01C0EFFF0401226BAF
:103680000401212B100E215D01E3216B040121397E
:10369000E8441F0B006E016A880E0026050E012209
:1036A00000C0E9FF01C0EAFFEFCF00F0070E2115CF
:1036B000016E010E036E000E046E015006E0E86C10
:1036C000D89003360436010FFCE3056A0050031658
:1036D0000550041603500410D880E866D890036A99
:1036E00003360350D8A4A2D0160E04012125006E83
:1036F000016A050E012200C0E9FF01C0EAFFEFCF19
:1037000000F00044E844FC0B016E0128C26E230E59
:103710002125006E016A0F0E012200C0E9FF01C0E1
:10372000EAFFEFCF02F00250FF0A01E17BD002383E
:103730000F0B006E920E0024016E036A0F0E03221F
:10374000046A920E00260F0E042200C0E9FF04C096
:10375000EAFFEFCF00F0070E0214046E010E056EB3
:10376000045005E0E86CD8900536010FFDE30550E4
:10377000001201C0E9FF03C0EAFF00C0EFFF380EEE
:10378000006E0F0E016E02380F0B036E046A0350B9
:10379000002604500122380E056E0F0E066E0550ED
:1037A00003260650042203C0E9FF04C0EAFFEFCF5E
:1037B00003F0070E0216010E046E025005E0E86CDD
:1037C000D8900436010FFDE30450031200C0E9FF56
:1037D00001C0EAFF03C0EFFF0F01458300000000B6
:1037E00045930F0144930BC0E5FFF2CF0BF0F29E1F
:1037F0004481000000000000000000000000000004
:1038000000000000000000000000000000000000B8
:103810000000000000000000000044910BBEF28E8A
:10382000E4CF0BF0C282010E0401226F040121518A
:10383000E4CF0AF0E4CF09F0E4CF08F0E4CF07F0DA
:10384000E4CF06F0E4CF05F0E4CF04F0E4CF03F0DA
:10385000E4CF02F0E4CF01F0E4CF00F0120000C0AA
:10386000E5FF01C0E5FF02C0E5FF03C0E5FF78EC1E
:103870002DF005EC1AF024EC3BF0006EF3CF01F0D4
:10388000F4CF02F0E9CF03F004017C51005E7D51DA
:10389000015A7E51025A7F51035A039E3F0E035C28
:1038A00008E1FF0E025C05E1FF0E015C02E1FF0E84
:1038B000005CD8B048EF1EF024EC3BF0F3CF01F0F1
:1038C000F4CF02F0E9CF03F0880F04017C6F130EF0
:1038D00001207D6F000E02207E6F000E03207F6F9F
:1038E00004C0E5FFF2CF04F0F29E0401A9510501E6
:1038F000336F0401AA510501346F0401AB51050176
:10390000356F0401AC510501366F0401AD5105015D
:10391000376F0401AE510501386F0401AF51050145
:10392000396F0401B05105013A6F0401B15105012D
:103930003B6F0401B25105013C6F0401B351050115
:103940003D6F0401B45105013E6F0401B5510501FD
:103950003F6F0401AD6BAE6BAF6BB06B04BEF28E0C
:10396000E4CF04F0800EE56E040EE56E930EE56E76
:1039700032EC06F0030EE1269EC48EF59FC48FF54F
:1039800005018F51800F7C0F02E1000E8E5D04E374
:1039900005018E69030E8F6F05018F51800F840F13
:1039A00002E1010E8E5D05E2010E05018E6FFC0E37
:1039B0008F6F05018F51800F800F02E1010E8E5D28
:1039C00010E305018F51800FF36E04019751800FB2
:1039D000F35C03E1965105018E5D03E205018E6BF8
:1039E0008F6BD88005018FAFD89015E30401971D28
:1039F000016E961D006E004A012A0150800FF36E81
:103A000005018F51800FF35C02E18E51005C03E2EF
:103A100005018E6B8F6B04019AA309D0B5A507D061
:103A2000D88005018FAFD89002E38E6B8F6BD88062
:103A300005018FAFD89007E38E51FF0F006E030E84
:103A40008F21016E04D08EC500F08FC501F000C03B
:103A500090F501C091F505019051020BE840010B72
:103A6000E838E844F46EBD50DF0BF410BD6E9051A1
:103A7000010B010BE838F46EBD50EF0BF410BD6E76
:103A800091359131016E9031006E01340132003276
:103A90000050BE6ED88005018FAFD89002E3898CAC
:103AA00001D0899C04C0E5FFF2CF04F0F29E03012F
:103AB00016510501336F030117510501346F0301DE
:103AC00018510501356F030119510501366F0301C6
:103AD0001A510501376F03011B510501386F0301AE
:103AE0001C510501396F03011D5105013A6F030196
:103AF0001E5105013B6F03011F5105013C6F03017E
:103B0000205105013D6F0301215105013E6F030165
:103B1000225105013F6F03011A6B1B6B1C6B1D6B60
:103B200004BEF28EE4CF04F0800EE56E030EE56E67
:103B3000000EE56E32EC06F0030EE1260BC38EF5A7
:103B40000CC38FF505018F51800F7C0F02E1000E31
:103B50008E5D04E305018E69030E8F6F05018F51A1
:103B6000800F840F02E1010E8E5D05E2010E05015A
:103B70008E6FFC0E8F6F05018F51800F800F02E159
:103B8000010E8E5D10E305018F51800FF36E03016E
:103B90000451800FF35C03E1035105018E5D03E2E4
:103BA00005018E6B8F6BD88005018FAFD89015E320
:103BB0000301041D016E031D006E004A012A01501D
:103BC000800FF36E05018F51800FF35C02E18E517F
:103BD000005C03E205018E6B8F6B030107A309D024
:103BE00022A507D0D88005018FAFD89002E38E6B55
:103BF0008F6BD88005018FAFD89007E38E51FF0FF0
:103C0000006E030E8F21016E04D08EC500F08FC5AB
:103C100001F000C090F501C091F505019051020B33
:103C2000E840010BE838E844F46E6650DF0BF4100E
:103C3000666E9051010B010BE838F46E6650EF0B85
:103C4000F410666E91359131016E9031006E013441
:103C5000013200320050676ED88005018FAFD890D6
:103C600002E3898E01D0899E84C500F085C501F0EC
:103C70000501843F01D0852B0150800F800F02E1A8
:103C80000B0E005C05E30501846B856B8AEC26F066
:103C9000E4CF03F0E4CF02F0E4CF01F0E4CF00F092
:103CA000120000C0E5FF01C0E5FF02C0E5FF03C050
:103CB000E5FF05C0E5FFE7EC3EF024EC3BF0F3CF79
:103CC00001F0F4CF02F0E9CF03F0880F04017C6F1C
:103CD000130E01207D6F000E02207E6F000E032068
:103CE0007F6F28EC30F08A98899C8B840401898549
:103CF0009398929C949404019295948C820E006EF9
:103D00000F0E016E0F0E036E380E002603500122B7
:103D10000F0E036E800E005E0350015A820E026E7B
:103D20000F0E036E0F0E056E380E0226055003228D
:103D30000F0E056E800E025E0550035A02C0E9FFA9
:103D400003C0EAFFEFCF02F0029C00C0E9FF01C010
:103D5000EAFF02C0EFFF9488820E006E0F0E016E24
:103D60000F0E036E380E0026035001220F0E036E55
:103D7000800E005E0350015A820E026E0F0E036E1B
:103D80000F0E056E380E0226055003220F0E056E2B
:103D9000800E025E0550035A02C0E9FF03C0EAFF2D
:103DA000EFCF02F0029800C0E9FF01C0EAFF02C0B5
:103DB000EFFF948A820E006E0F0E016E0F0E036EDF
:103DC000380E0026035001220F0E036E800E005E97
:103DD0000350015A820E026E0F0E036E0F0E056E17
:103DE000380E0226055003220F0E056E800E025E6D
:103DF0000550035A02C0E9FF03C0EAFFEFCF02F00B
:103E0000029A00C0E9FF01C0EAFF02C0EFFF0C0EFA
:103E1000BD6EBD9ABD98BE6AB96AB9860401936B3E
:103E2000020E946F956B0A0E966F976B100E986F3B
:103E3000070E996F9A919A83800EE56E040EE56ED7
:103E4000B60EE56EFAEC32F0030EE126800EE56E5A
:103E5000040EE56EDD0EE56EC7EC2BF0030EE126D9
:103E6000800EE56E040EE56ECC0EE56EC7EC2BF011
:103E7000030EE1260401B16BB26BB36BB46BB59169
:103E8000B5959C6B9D6B9E6B9F6BA46BA56BA66B96
:103E9000A76B8A96899E8B80040189859396929E52
:103EA0009490040192959382810E006E0F0E016E24
:103EB0000F0E036E380E0026035001220F0E036E04
:103EC000800E005E0350015A810E026E0F0E036ECB
:103ED0000F0E056E380E0226055003220F0E056EDA
:103EE000800E025E0550035A02C0E9FF03C0EAFFDC
:103EF000EFCF02F0029200C0E9FF01C0EAFF02C06A
:103F0000EFFF948E820E006E0F0E016E0F0E036E89
:103F1000380E0026035001220F0E036E800E005E45
:103F20000350015A820E026E0F0E036E0F0E056EC5
:103F3000380E0226055003220F0E056E800E025E1B
:103F40000550035A02C0E9FF03C0EAFFEFCF02F0B9
:103F5000029E00C0E9FF01C0EAFF02C0EFFF9380AC
:103F6000810E006E0F0E016E0F0E036E380E0026CE
:103F7000035001220F0E036E800E005E0350015AA3
:103F8000810E026E0F0E036E0F0E056E380E0226A6
:103F9000055003220F0E056E800E025E0550035A77
:103FA00002C0E9FF03C0EAFFEFCF02F0029000C0B9
:103FB000E9FF01C0EAFF02C0EFFF0C0E666E669AD1
:103FC0006698676A0301006B020E016F026B0A0EAE
:103FD000036F046B100E056F070E066F07910783C2
:103FE000800EE56E030EE56E230EE56EFAEC32F000
:103FF000030EE126800EE56E030EE56E4A0EE56EB9
:10400000C7EC2BF0030EE126800EE56E030EE56E85
:10401000390EE56EC7EC2BF0030EE12603011E6B93
:104020001F6B206B216B22912295096B0A6B0B6B26
:104030000C6B116B126B136B146B0401946F956B0B
:10404000320E966F976B050E996F030E0301016F89
:10405000026B320E036F046B050E066FCEEC3EF062
:10406000330ECD6E9D809F80E4CF05F0E4CF03F04A
:10407000E4CF02F0E4CF01F0E4CF00F01200800EB4
:10408000E56E030EE56E9B0EE56E79EC37F0030EE0
:10409000E126800EE56E030EE56E7B0EE56E79EC93
:1040A00037F0030EE126800EE56E030EE56E9D0EE1
:1040B000E56E79EC37F0030EE126800EE56E030E17
:1040C000E56E7D0EE56E79EC37F0030EE126800E8D
:1040D000E56E030EE56E9F0EE56E79EC37F0030E8C
:1040E000E126800EE56E030EE56E7F0EE56E79EC3F
:1040F00037F0030EE126800EE56E030EE56EA10E8D
:10410000E56E79EC37F0030EE126800EE56E030EC6
:10411000E56E810EE56E79EC37F0030EE126800E38
:10412000E56E030EE56EA30EE56E79EC37F0030E37
:10413000E126800EE56E030EE56E830EE56E79ECEA
:1041400037F0030EE126800EE56E030EE56EA50E38
:10415000E56E79EC37F0030EE126800EE56E030E76
:10416000E56E850EE56E79EC37F0030EE126800EE4
:10417000E56E030EE56EA70EE56E79EC37F0030EE3
:10418000E126800EE56E030EE56E870EE56E79EC96
:1041900037F0030EE126800EE56E030EE56EA90EE4
:1041A000E56E79EC37F0030EE126800EE56E030E26
:1041B000E56E890EE56E79EC37F0030EE126800E90
:1041C000E56E030EE56EAB0EE56E79EC37F0030E8F
:1041D000E126800EE56E030EE56E8B0EE56E79EC42
:1041E00037F0030EE126800EE56E030EE56EAD0E90
:1041F000E56E79EC37F0030EE126800EE56E030ED6
:10420000E56E8D0EE56E79EC37F0030EE126800E3B
:10421000E56E030EE56EAF0EE56E79EC37F0030E3A
:10422000E126800EE56E030EE56E8F0EE56E79ECED
:1042300037F0030EE126800EE56E030EE56EB10E3B
:10424000E56E79EC37F0030EE126800EE56E030E85
:10425000E56E910EE56E79EC37F0030EE126800EE7
:10426000E56E030EE56EB30EE56E79EC37F0030EE6
:10427000E126800EE56E030EE56E930EE56E79EC99
:1042800037F0030EE126800EE56E030EE56EB50EE7
:10429000E56E79EC37F0030EE126800EE56E030E35
:1042A000E56E950EE56E79EC37F0030EE126800E93
:1042B000E56E030EE56EB70EE56E79EC37F0030E92
:1042C000E126800EE56E030EE56E970EE56E79EC45
:1042D00037F0030EE126800EE56E030EE56EB90E93
:1042E000E56E79EC37F0030EE126800EE56E030EE5
:1042F000E56E990EE56E79EC37F0030EE1261200BB
:10430000D9CFE5FFE1CFD9FF00C0E5FF01C0E5FF50
:1043100002C0E5FF03C0E5FF04C0E5FF05C0E5FFFF
:1043200006C0E5FF07C0E5FF08C0E5FF020EDBCFD2
:1043300000F0030EDBCF01F0040EDBCF02F0036AC6
:10434000046A4EEC3BF0056EFE0A01E075D027ECE6
:1043500037F04EEC3BF0066E040E065CD8B05AD037
:10436000FA6AFB6A0634FA36E834FA36FC0B7E0F3A
:10437000E56E430EFA22000EFB22E450F96EC7EF01
:1043800021F0D3EF21F0E6EF21F0F9EF21F000C0AA
:10439000E9FF01C0F3FF025037EC3EF0076E07C0A3
:1043A00003F0046A37D00050010F076E000E0120A1
:1043B000086E000E022007C0E9FF08C0F3FF37ECCB
:1043C0003EF0076E07C003F0046A24D00050020FCD
:1043D000076E000E0120086E000E022007C0E9FFE4
:1043E00008C0F3FF37EC3EF0076E07C003F0046A25
:1043F00011D000500F0F076E000E0120086E000E46
:10440000022007C0E9FF08C0F3FFACEC3DF0036EEB
:10441000F3CF04F00450E56E0350E56EE56A0650F4
:10442000E56E000EE56E580EE56EAE0EE56E21EC03
:1044300039F0070EE1268DD0040E055CD8B089D086
:10444000FA6AFB6A0534FA36E834FA36FC0B5E0F7A
:10445000E56E440EFA22000EFB22E450F96E37EFAF
:1044600022F044EF22F06FEF22F085EF22F04EECC5
:104470003BF0036E03C0E5FF00C0E9FF01C0F3FF9E
:104480000250AFEC3EF065D00050010F036E000EFD
:104490000120046E000E0220056E4EEC3BF0066E0D
:1044A00006C0E5FF03C0E9FF04C0F3FF0550AFEC11
:1044B0003EF00650D8A44DD00050030F036E000EFE
:1044C0000120046E000E0220E56AF46AF66AF76ABB
:1044D00003C0E9FF04C0F3FF26EC3EF03AD00050E1
:1044E000020F036E000E0120046E000E0220056E06
:1044F0004EEC3BF0066E06C0E5FF03C0E9FF04C0CA
:10450000F3FF0550AFEC3EF024D00F0E0026000E56
:10451000012202224EEC3BF0066E056AE56A06C0F7
:10452000F4FF00C0E9FF01C0F3FF025081EC3EF050
:104530004EEC3BF0046A05260450062205C0E5FF58
:1045400006C0F4FF00C0E9FF01C0F3FF025081EC98
:104550003EF0E4CF08F0E4CF07F0E4CF06F0E4CF7C
:1045600005F0E4CF04F0E4CF03F0E4CF02F0E4CFB1
:1045700001F0E4CF00F0E4CFD9FF1200D9CFE5FF7E
:10458000E1CFD9FF00C0E5FF01C0E5FF02C0E5FFB4
:1045900003C0E5FF04C0E5FF05C0E5FF06C0E5FF79
:1045A00007C0E5FF020EDBCF00F0030EDBCF01F00A
:1045B000040EDBCF02F0050EDBCF03F0060EDBCFDF
:1045C00004F0070EDBCF05F0080EDBCF06F0090E76
:1045D000DBCF07F000500501656F0150666F025098
:1045E000676F0350686F04500501696F05506A6F6B
:1045F00006506B6F07506C6F0501655105016B0329
:10460000F4CF01F0F3CF00F0005005016F6F0150BF
:10461000706F0501655105016903F4CF01F0F3CF17
:1046200000F0005005016D6F01506E6F050168517B
:1046300005016903F3CF00F0050170510026005019
:10464000706F0501675105016A03F3CF01F0015056
:10465000002600500501706F0501675105016903CF
:10466000F4CF01F0F3CF00F005016F510026705137
:10467000012200506F6F0150706F050166510501F6
:104680006A03F4CF03F0F3CF02F002500026035088
:104690000122005005016F6F0150706F05016651D6
:1046A00005016B03F3CF00F000500501746F0501A5
:1046B000665105016903F4CF01F0F3CF00F000501B
:1046C0000501726F0150736F0501655105016C039F
:1046D000F3CF00F000500501786F05016551050129
:1046E0006A03F4CF01F0F3CF00F000500501766FBC
:1046F0000150776F0501716B0501756B05017151F3
:1047000005016D25006E0501725105016E21016ED6
:104710000501735105016F21026E050174510501F8
:104720007021036E00506D6F01506E6F02506F6FFD
:104730000350706F0501755105016D25006E05016F
:10474000765105016E21016E0501775105016F213A
:10475000026E0501785105017021036E03C0E9FF67
:1047600002C0F4FF01C0F3FF0050E4CF07F0E4CF34
:1047700006F0E4CF05F0E4CF04F0E4CF03F0E4CF9B
:1047800002F0E4CF01F0E4CF00F0E4CFD9FF120053
:1047900000C0E5FF01C0E5FF04011A51D8B4F7D00D
:1047A000A3A81DD0A4A81BD005019D5105019A19ED
:1047B00005E165EC3EF005019A6BE9D0000E0501BC
:1047C0009D25006E016A0F0E012200C0E9FF01C0A5
:1047D000EAFFEFCF96F59D2B96C573FFD8D0A3AA1D
:1047E000D6D0A4AAD4D071A205D005019B8165ECD6
:1047F0003EF0CDD071A405D005019B8365EC3EF061
:10480000C6D071A03ED074CF96F5800E04011B1166
:104810000501961904E105019B897196B8D005013F
:10482000965104E0965104011B1927E105019B995B
:1048300071960501965103E005019B9702D0050191
:104840009B8796C59FF598C5A0F5050198050501BC
:10485000A16F600E0501A025006E016A000E012205
:1048600000C0E9FF01C0EAFF96C5EFFFA02BA051F1
:10487000800A02E10501A06B8AD005019B9971862F
:1048800086D074CF96F505019BA919D0800E04013E
:104890001B110501961911E1A39A7198929A0501CD
:1048A0009A5104E1736A65EC3EF007D000CF73FFC4
:1048B000010E05019D6FA3886AD0718668D005013D
:1048C000965105019F270501A0510501A1191BE182
:1048D00005019F510CE1A0C598F505019BB712D0C9
:1048E000A39A7198929A736A65EC3EF00BD0050119
:1048F0009B859BB707D0A39A7198929A010E736E0D
:1049000065EC3EF044D00501A0510501991908E17C
:10491000050199510501981903E065EC3EF037D087
:1049200098C500F0016A004A012AE56A800EE56E2A
:104930000150E56E0050E56E1FEC32F0006E040E83
:10494000E12600500501976F0501A0190CE11F0E2B
:10495000050196150501A16FA12BA12B0501985109
:104960000501A127A19FA0C500F00501A02B016AA8
:10497000600E0026000E012200C0E9FF01C0EAFF20
:1049800096C5EFFFA051800A02E10501A06BE4CFBC
:1049900001F0E4CF00F01200D9CFE5FFE1CFD9FF5D
:1049A00000C0E5FF01C0E5FF02C0E5FF03C0E5FF71
:1049B00004C0E5FF05C0E5FF06C0E5FF07C0E5FF51
:1049C00008C0E5FF09C0E5FF0AC0E5FF0BC0E5FF31
:1049D0000CC0E5FF0DC0E5FF0EC0E5FF020EDBCF0A
:1049E00000F0030EDBCF01F0040EDBCF02F0050E6A
:1049F000DBCF03F0060EDBCF04F0070EDBCF05F0B4
:104A0000080EDBCF06F00050080F076E000E0120E5
:104A1000086E000E022007C0E9FF08C0F3FF5AEC41
:104A20003CF0076EF3CF08F0F4CF09F0E9CF0AF0BD
:104A3000081009100A102AE003500B6E04500C6E87
:104A400005500D6E06500E6E07500B2608500C22B6
:104A500009500D220A500E22E56E0950E56E0850ED
:104A6000E56E0750E56E0E50E56E0D50E56E0C508C
:104A7000E56E0B50E56E2AEC2BF0036EF3CF04F0DD
:104A8000F4CF05F0E9CF06F0080EE12603C0E5FFFC
:104A900004C0F4FF05C0F6FF06C0F7FF00C0E9FF41
:104AA00001C0F3FF025026EC3EF00050040F076EE9
:104AB000000E0120086E000E0220096E04500C6EDC
:104AC0000C2605340D6ED8900C360D360344E844A0
:104AD000FC0B0B6E0350E844E844030B0C12E56A30
:104AE0000BC0F4FF0CC0F6FF0DC0F7FF07C0E9FFD5
:104AF00008C0F3FF095026EC3EF00E0E0026000E13
:104B000001220222E56AF46AF66AF76A00C0E9FF48
:104B100001C0F3FF025026EC3EF0E4CF0EF0E4CFEC
:104B20000DF0E4CF0CF0E4CF0BF0E4CF0AF0E4CFCB
:104B300009F0E4CF08F0E4CF07F0E4CF06F0E4CFCB
:104B400005F0E4CF04F0E4CF03F0E4CF02F0E4CFCB
:104B500001F0E4CF00F0E4CFD9FF1200D9CFE5FF98
:104B6000E1CFD9FF00C0E5FF01C0E5FF02C0E5FFCE
:104B700003C0E5FF04C0E5FF05C0E5FF06C0E5FF93
:104B800007C0E5FF08C0E5FF09C0E5FF0AC0E5FF73
:104B90000BC0E5FF0CC0E5FF0DC0E5FF0EC0E5FF53
:104BA0000FC0E5FF020EDBCF00F0030EDBCF01F0FC
:104BB000040EDBCF02F0050EDBCF03F0060EDBCFD9
:104BC00004F0070EDBCF05F0080EDBCF06F0200E59
:104BD000076E086A06C009F00A6A0B6A0C6AE56A81
:104BE000E56AE56A0950E56E0350E56E0250E56E30
:104BF0000150E56E0050E56E2AEC2BF00D6E080EAC
:104C0000E126300E0D263A0E0D5C05E30D500E6EBA
:104C1000270E0E240D6EFF0E07260822DB0E07243A
:104C20000E6E030E08200F6E0EC0E9FF0FC0EAFFE4
:104C30000DC0EFFF0C50E56E0B50E56E0A50E56EAF
:104C40000950E56E0350E56E0250E56E0150E56EC9
:104C50000050E56E5BEC2CF0006EF3CF01F0F4CF6A
:104C600002F0E9CF03F0080EE12600500110021017
:104C70000310D8A4AFD707C000F008C001F004C0EB
:104C800002F005C003F000C004F001C005F0004AC6
:104C9000012ADB0E0426030E052204C0E9FF05C02D
:104CA000EAFFEFCF04F002C0E9FF03C0EAFF04C04F
:104CB000EFFF024A032A000E015C02E1200E005CB5
:104CC000E2E302C0E9FF03C0EAFF000EEF6AE4CFAF
:104CD0000FF0E4CF0EF0E4CF0DF0E4CF0CF0E4CF12
:104CE0000BF0E4CF0AF0E4CF09F0E4CF08F0E4CF12
:104CF00007F0E4CF06F0E4CF05F0E4CF04F0E4CF12
:104D000003F0E4CF02F0E4CF01F0E4CF00F0E4CF11
:104D1000D9FF120000C0E5FF01C0E5FF03C0E5FFB9
:104D2000010E0501826F836B04011451D8A44FD08A
:104D30000A0E0401016F0401B251006EB451036AFE
:104D400000500401026F0401B1510401036F006AB5
:104D500082BC002A005003E1006A002A01D0006AE8
:104D600000500401046F04019F51006E016A00505D
:104D70000401056F04019E510401066FD8900401DF
:104D8000BC31016EBB31006ED89001320032BD5192
:104D9000E840E840C00B0112BD41E8403F0B005025
:104DA0000401366F0150376F0401076F040136515B
:104DB0000401086F0A0E0501826F836B006A04010B
:104DC000B5B1002A04EE09F000C0EFFF4ED00B0E83
:104DD0000401016F03011F51006E2151036A00504D
:104DE0000401026F03011E510401036F006A81B2C6
:104DF000002A005003E1006A002A01D0006A005036
:104E00000401046F03010C51006E016A005004019B
:104E1000056F03010B510401066FD890030129317E
:104E2000016E2831006ED890013200322A51E840DC
:104E3000E840C00B01122A41E8403F0B005004013A
:104E4000366F0150376F0401076F040136510401BA
:104E5000086F0A0E0501826F836B006A030122B19D
:104E6000002A04EE09F000C0EFFF82C500F083C500
:104E700001F00501823F01D0832B000E0026040EB5
:104E8000012200C0E9FF01C0EAFF0A0EEF6E050132
:104E90008251E56E800EE56E040EE56E000EE56E45
:104EA0002DEC31F0040EE126040114510108146FB9
:104EB000E4CF03F0E4CF01F0E4CF00F01200D9CF4B
:104EC000E5FFE1CFD9FF00C0E5FF01C0E5FF02C06B
:104ED000E5FF03C0E5FF04C0E5FF05C0E5FF06C030
:104EE000E5FF07C0E5FF08C0E5FF09C0E5FF0AC010
:104EF000E5FF0BC0E5FF0CC0E5FF0DC0E5FF020EAE
:104F0000DBCF00F0030EDBCF01F0040EDBCF02F0AD
:104F1000050EDBCF03F0060EDBCF04F0070EDBCF70
:104F200005F0080EDBCF06F0090EDBCF07F0D880C6
:104F300003AED890086A083608500FE0031C0C6EC8
:104F4000021C0B6E011C0A6E001C096E092A0DE181
:104F50000A2A0BE10B4A0C2A08D000C009F001C054
:104F60000AF002C00BF003C00CF0D88007AED89056
:104F7000006A003600500FE0071C0D6E061C036E21
:104F8000051C026E041C016E012A0DE1022A0BE1D0
:104F9000034A0D2A08D004C001F005C002F006C083
:104FA00003F007C00DF00D50E56E0350E56E0250A2
:104FB000E56E0150E56E0C50E56E0B50E56E0A5043
:104FC000E56E0950E56E5BEC2CF0016EF3CF02F05C
:104FD000F4CF03F0E9CF04F0080EE1260050081AE0
:104FE000085016E0041C076E031C066E021C056EBA
:104FF000011C006E002A04E1052A02E1064A072A84
:1050000007C0E9FF06C0F4FF05C0F3FF005007D05A
:1050100004C0E9FF03C0F4FF02C0F3FF0150E4CF76
:105020000DF0E4CF0CF0E4CF0BF0E4CF0AF0E4CFC6
:1050300009F0E4CF08F0E4CF07F0E4CF06F0E4CFC6
:1050400005F0E4CF04F0E4CF03F0E4CF02F0E4CFC6
:1050500001F0E4CF00F0E4CFD9FF1200D9CFE5FF93
:10506000E1CFD9FF00C0E5FF01C0E5FF02C0E5FFC9
:1050700003C0E5FF04C0E5FF05C0E5FF06C0E5FF8E
:1050800007C0E5FF08C0E5FF09C0E5FF0AC0E5FF6E
:105090000BC0E5FF0CC0E5FF0DC0E5FF0EC0E5FF4E
:1050A000020EDBCF00F0030EDBCF01F0040EDBCFEE
:1050B00002F0050EDBCF03F0060EDBCF04F0070E87
:1050C000DBCF05F0080EDBCF06F00050080F076EAF
:1050D000000E0120086E000E022007C0E9FF08C084
:1050E000F3FF5AEC3CF0076EF3CF08F0F4CF09F071
:1050F000E9CF0AF0081009100A102AE003500B6EDD
:1051000004500C6E05500D6E06500E6E07500B26A7
:1051100008500C2209500D220A500E22E56E09504B
:10512000E56E0850E56E0750E56E0E50E56E0D50C9
:10513000E56E0C50E56E0B50E56E2AEC2BF0036E1D
:10514000F3CF04F0F4CF05F0E9CF06F0080EE12626
:1051500003C0E5FF04C0F4FF05C0F6FF06C0F7FF7B
:1051600000C0E9FF01C0F3FF025026EC3EF0040E40
:105170000026000E012202220450096E0926053481
:105180000A6ED89009360A360344E844FC0B086ED0
:105190000350E844E844030B0912E56A08C0F4FF31
:1051A00009C0F6FF0AC0F7FF00C0E9FF01C0F3FF26
:1051B000025026EC3EF0E4CF0EF0E4CF0DF0E4CF49
:1051C0000CF0E4CF0BF0E4CF0AF0E4CF09F0E4CF29
:1051D00008F0E4CF07F0E4CF06F0E4CF05F0E4CF29
:1051E00004F0E4CF03F0E4CF02F0E4CF01F0E4CF29
:1051F00000F0E4CFD9FF1200D9CFE5FFE1CFD9FF0E
:1052000000C0E5FF01C0E5FF02C0E5FF03C0E5FF08
:1052100004C0E5FF05C0E5FF06C0E5FF07C0E5FFE8
:1052200008C0E5FF09C0E5FF0AC0E5FF0BC0E5FFC8
:105230000CC0E5FF020EDBCF00F0030EDBCF01F068
:10524000040EDBCF02F0050EDBCF03F0060EDBCF42
:1052500004F0070EDBCF05F0080EDBCF06F0090ED9
:10526000DBCF07F0D88003AED890086A0836085024
:105270000FE0031C0C6E021C0B6E011C0A6E001C5E
:10528000096E092A0DE10A2A0BE10B4A0C2A08D003
:1052900000C009F001C00AF002C00BF003C00CF01E
:1052A000D88007AED8900FE3071C036E061C026E71
:1052B000051C016E041C006E002A0DE1012A0BE1A1
:1052C000024A032A08D004C000F005C001F006C05D
:1052D00002F007C003F00350E56E0250E56E015086
:1052E000E56E0050E56E0C50E56E0B50E56E0A5011
:1052F000E56E0950E56E2AEC2BF0006EF3CF01F05D
:10530000F4CF02F0E9CF03F0080EE126085016E0D2
:10531000031C076E021C066E011C056E001C046E49
:10532000042A04E1052A02E1064A072A07C0E9FF28
:1053300006C0F4FF05C0F3FF045007D003C0E9FF27
:1053400002C0F4FF01C0F3FF0050E4CF0CF0E4CF43
:105350000BF0E4CF0AF0E4CF09F0E4CF08F0E4CF9B
:1053600007F0E4CF06F0E4CF05F0E4CF04F0E4CF9B
:1053700003F0E4CF02F0E4CF01F0E4CF00F0E4CF9B
:10538000D9FF1200D9CFE5FFE1CFD9FF00C0E5FF7B
:1053900001C0E5FF02C0E5FF03C0E5FF04C0E5FF73
:1053A00005C0E5FF06C0E5FF07C0E5FF08C0E5FF53
:1053B00009C0E5FF0AC0E5FF0BC0E5FF0CC0E5FF33
:1053C0000DC0E5FF0EC0E5FF020EDBCF00F0030EBF
:1053D000DBCF01F0040EDBCF02F0050EDBCF03F0D4
:1053E000060EDBCF04F0070EDBCF05F0080EDBCF97
:1053F00006F000C0E9FF01C0F3FF02505AEC3CF098
:10540000F3CF08F0F4CF09F0E9CF0AF003260850F3
:105410000422095005220A5006220050080F076E88
:10542000000E0120086E000E022007C0E9FF08C030
:10543000F3FF5AEC3CF0076EF3CF08F0F4CF09F01D
:10544000E9CF0AF0081009100A102AE003500B6E89
:1054500004500C6E05500D6E06500E6E07500B2654
:1054600008500C2209500D220A500E22E56E0950F8
:10547000E56E0850E56E0750E56E0E50E56E0D5076
:10548000E56E0C50E56E0B50E56E2AEC2BF0036ECA
:10549000F3CF04F0F4CF05F0E9CF06F0080EE126D3
:1054A00003C0E5FF04C0F4FF05C0F6FF06C0F7FF28
:1054B00000C0E9FF01C0F3FF025026EC3EF0E4CF4C
:1054C0000EF0E4CF0DF0E4CF0CF0E4CF0BF0E4CF1E
:1054D0000AF0E4CF09F0E4CF08F0E4CF07F0E4CF1E
:1054E00006F0E4CF05F0E4CF04F0E4CF03F0E4CF1E
:1054F00002F0E4CF01F0E4CF00F0E4CFD9FF1200D6
:10550000D9CFE5FFE1CFD9FF00C0E5FF01C0E5FF3E
:1055100002C0E5FF03C0E5FF04C0E5FF05C0E5FFED
:1055200006C0E5FF07C0E5FF08C0E5FF09C0E5FFCD
:105530000AC0E5FF0BC0E5FF0CC0E5FF0DC0E5FFAD
:105540000EC0E5FF020EDBCF00F0030EDBCF01F053
:10555000040EDBCF02F0050EDBCF03F0060EDBCF2F
:1055600004F0070EDBCF05F0080EDBCF06F000508D
:10557000080F076E000E0120086E000E022007C003
:10558000E9FF08C0F3FF5AEC3CF0076EF3CF08F0D8
:10559000F4CF09F0E9CF0AF0081009100A102AE048
:1055A00003500B6E04500C6E05500D6E06500E6EBF
:1055B00007500B2608500C2209500D220A500E22CB
:1055C000E56E0950E56E0850E56E0750E56E0E5029
:1055D000E56E0D50E56E0C50E56E0B50E56E2AEC55
:1055E0002BF0036EF3CF04F0F4CF05F0E9CF06F013
:1055F000080EE12603C0E5FF04C0F4FF05C0F6FF76
:1056000006C0F7FF00C0E9FF01C0F3FF025026EC1F
:105610003EF0E4CF0EF0E4CF0DF0E4CF0CF0E4CF99
:105620000BF0E4CF0AF0E4CF09F0E4CF08F0E4CFC8
:1056300007F0E4CF06F0E4CF05F0E4CF04F0E4CFC8
:1056400003F0E4CF02F0E4CF01F0E4CF00F0E4CFC8
:10565000D9FF1200D9CFE5FFE1CFD9FF00C0E5FFA8
:1056600001C0E5FF02C0E5FF03C0E5FF04C0E5FFA0
:1056700005C0E5FF06C0E5FF07C0E5FF08C0E5FF80
:1056800009C0E5FF0AC0E5FF020EDBCF00F0030E04
:10569000DBCF01F0040EDBCF02F0050EDBCF03F011
:1056A000060EDBCF04F0070EDBCF05F0080EDBCFD4
:1056B00006F0090EDBCF07F0086A0450051006104B
:1056C000071005E1E968F468F368E86847D0096AFB
:1056D0000750800BE8440A6E0A501BE10450042670
:1056E0000536063607360750035C08E10650025CB3
:1056F00005E10550015C02E10450005C06E2D8902F
:10570000073206320532043204D0092A09C008F0F3
:10571000DFD70750035C08E10650025C05E1055045
:10572000015C02E10450005C08E30450005E055097
:10573000015A0650025A0750035AD89007320632CF
:105740000532043208C009F008060950E2E103C03E
:10575000E9FF02C0F4FF01C0F3FF0050E4CF0AF0FC
:10576000E4CF09F0E4CF08F0E4CF07F0E4CF06F08F
:10577000E4CF05F0E4CF04F0E4CF03F0E4CF02F08F
:10578000E4CF01F0E4CF00F0E4CFD9FF1200D9CF8D
:10579000E5FFE1CFD9FF00C0E5FF01C0E5FF02C092
:1057A000E5FF03C0E5FF04C0E5FF05C0E5FF06C057
:1057B000E5FF07C0E5FF020EDBCF00F0030EDBCFF5
:1057C00001F0040EDBCF02F000500B0F036E000E51
:1057D0000120046E000E0220E56AF46AF66AF76A98
:1057E00003C0E9FF04C0F3FF26EC3EF00050070FB2
:1057F000036E000E0120046E000E0220056E0050A4
:10580000030F066E000E0120076E000E0220E56AEF
:10581000F46AF66AF76A06C0E9FF07C0F3FF26ECF0
:105820003EF0E56AF46AF66AF76A03C0E9FF04C06D
:10583000F3FF055026EC3EF00050010F036E000E02
:105840000120046E000E0220056E0050020F066E4D
:10585000000E0120076E000E0220E56A06C0E9FF77
:1058600007C0F3FFAFEC3EF0E56A03C0E9FF04C0F8
:10587000F3FF0550AFEC3EF0E56A00C0E9FF01C060
:10588000F3FF0250AFEC3EF0E4CF07F0E4CF06F0B8
:10589000E4CF05F0E4CF04F0E4CF03F0E4CF02F06E
:1058A000E4CF01F0E4CF00F0E4CFD9FF120025648B
:1058B0002025640A0000D9CFE5FFE1CFD9FF00C061
:1058C000E5FF01C0E5FF02C0E5FF03C0E5FF04C03E
:1058D000E5FF05C0E5FF06C0E5FF07C0E5FF08C01E
:1058E000E5FF09C0E5FF0AC0E5FF0BC0E5FF0CC0FE
:1058F000E5FF0DC0E5FF020EDBCF00F0030EDBCFAE
:1059000001F0040EDBCF02F0050EDBCF03F0060E34
:10591000DBCF04F0070EDBCF05F0080EDBCF06F07F
:10592000090EDBCF07F0086A096A0A6A0B6A200EC3
:105930000C6E0350800BE8440D6E005000260136BB
:10594000023603360850082609360A360B360D5043
:10595000D8A4088007500B5C08E106500A5C05E1FA
:105960000550095C02E10450085C09E30450085E3C
:105970000550095A06500A5A07500B5A00800C0469
:105980000D6E0DC00CF00D50D4E103C0E9FF02C054
:10599000F4FF01C0F3FF0050E4CF0DF0E4CF0CF0B2
:1059A000E4CF0BF0E4CF0AF0E4CF09F0E4CF08F045
:1059B000E4CF07F0E4CF06F0E4CF05F0E4CF04F045
:1059C000E4CF03F0E4CF02F0E4CF01F0E4CF00F045
:1059D000E4CFD9FF120000C0E5FF01C0E5FF03C01E
:1059E000E5FF04C0E5FF05C0E5FF06C0E5FF07C011
:1059F000E5FF08C0E5FF09C0E5FF0AC0E5FF0BC0F1
:105A0000E5FF86C500F087C501F00501863F01D09E
:105A1000872B0050E56E57EC3EF0E652076E046AA5
:105A2000056A066A86C500F087C501F00501863F54
:105A300001D0872B0050E56E57EC3EF0E6520B6A22
:105A40000A6E086A0850041205120A5006120B501A
:105A5000071286C500F087C501F00501863F01D019
:105A6000872B0050E56E57EC3EF0E652036E006A5D
:105A700003C001F0E86A03BEFF0E086E096E005015
:105A8000041201500512085006120950071286C56B
:105A900000F087C501F00501863F01D0872B00503B
:105AA000E56E57EC3EF0E652016A04120150051211
:105AB0000612071207C0E9FF06C0F4FF05C0F3FF96
:105AC0000450E4CF0BF0E4CF0AF0E4CF09F0E4CFC8
:105AD00008F0E4CF07F0E4CF06F0E4CF05F0E4CF20
