:020000040000FA
:10000000FEEF25F0C96E120078EF1FF093EC16F0AA
:1000100037EC0CF0FDD7120074EF24F0D9CFE5FFD8
:10002000E1CFD9FF00C0E5FF01C0E5FF02C0E5FF59
:1000300003C0E5FF04C0E5FF05C0E5FF06C0E5FF1E
:1000400007C0E5FF08C0E5FF09C0E5FF0AC0E5FFFE
:100050000BC0E5FF0CC0E5FF0DC0E5FF0EC0E5FFDE
:100060000FC0E5FF10C0E5FF11C0E5FF12C0E5FFBE
:1000700013C0E5FF14C0E5FF15C0E5FF16C0E5FF9E
:1000800017C0E5FF18C0E5FF19C0E5FF1AC0E5FF7E
:100090001BC0E5FF1CC0E5FF1DC0E5FF1EC0E5FF5E
:1000A0001FC0E5FF20C0E5FF21C0E5FF22C0E5FF3E
:1000B00023C0E5FF020EDBCF00F0030EDBCF01F023
:1000C000040EDBCF02F00250086E0150076E0050A4
:1000D000066EE56A160EE56E0850E56E0750E56E91
:1000E0000650E56E800EE56E040EE56E650EE56E5B
:1000F00072EC1AF0080EE12673C403F074C404F025
:1001000075C405F076C406F003C007F004C008F01B
:1001100005C009F006C00AF0D8800AAED8900AE3FC
:100120000A1E091E081E076C05E1082A03E1092AB8
:10013000D8B40A2A65C40BF066C40CF067C40DF08D
:1001400068C40EF0040169390F0B0F6E6A39106E26
:10015000F00B101A0F266B51E838F00B10126B39A8
:100160000F0B116E6C39126EF00B121A1126F00E75
:1001700012B612260F500B5C0F6E10500C58106EFA
:1001800011500D58116E12500E58126E6DC413F0AE
:100190006EC414F06FC415F070C416F01350141030
:1001A00015101610D8B447D00F50176E1050186E97
:1001B0001150196E12501A6E13501726145018222F
:1001C0001550192216501A22D89016301E6E15306E
:1001D0001D6E14301C6E13301B6E17261C50182217
:1001E0001D5019221E501A221650E56E1550E56E4C
:1001F0001450E56E1350E56E1A50E56E1950E56E19
:100200001850E56E1750E56EF6EC15F0136EF3CF4F
:1002100014F0F4CF15F0E9CF16F0080EE1261B50CC
:10022000135C0F6E1C501458106E1D501558116E33
:100230001E501658126E1250800F810F08E1FF0EEB
:10024000115C05E1FF0E105C02E1FD0E0F5CD8A011
:1002500052D01250800F800F08E1000E115C05E1B2
:10026000000E105C02E1040E0F5CD8B044D00A34DA
:100270000A30166E0930156E0830146E0730136E92
:1002800079C417F07AC418F0E86A04017ABFFF0E47
:10029000196E800FF36E1650800FF35C08E1155055
:1002A000195C05E11450185C02E11350175C23E35C
:1002B0000E38F00B166E0D38156E0F0B151A16262C
:1002C0000C50E8380F0B15120C38F00B146E0B386D
:1002D000136E0F0B131A142613500401696F145078
:1002E0006A6F15506B6F16506C6F736B746B756B18
:1002F000766BEAEF04F007380F0B0B6E08380C6EC4
:10030000F00B0C1A0B260C320B320950E838E8407F
:10031000F80B0C12F00E0716073A083A0814081AE0
:1003200007260950E838F00B0812E86A0CBEFF0EE9
:10033000096E0A6EE86A08BEFF0E0D6EE56E0D507E
:10034000E56E0850E56E0750E56E0A50E56E0950FF
:10035000E56E0C50E56E0B50E56E23EC0FF0076E6A
:10036000F3CF08F0F4CF09F0E9CF0AF0080EE12648
:1003700079C40BF07AC40CF0E86A04017ABFFF0E6E
:100380000D6E0E6EE56E0D50E56E0C50E56E0B5069
:10039000E56E0A50E56E0950E56E0850E56E0750AF
:1003A000E56EBFEC13F0076EF3CF08F0080EE12600
:1003B00071C409F072C40AF0E86A040172BFFF0E4A
:1003C000136E146E1438F00B186E1338176E0F0B73
:1003D000171A18260A50E8380F0B17120A38F00BB4
:1003E000166E0938156E0F0B151A1626D88006AE34
:1003F000D890D8B057D107C009F008C00AF0E86A11
:1004000008BEFF0E136E800FF36E1250800FF35C68
:1004100008E11150135C05E110500A5C02E10F5035
:10042000095CD8B017D10650800FF36E1850800FBA
:10043000F35C08E11750055C05E11650045C02E12D
:100440001550035CD8B0DFD077C409F078C40AF047
:10045000E86A040178BFFF0E136E146E035009267C
:1004600004500A2205501322065014220950040198
:10047000736F0A50746F1350756F1450766F79C490
:1004800009F07AC40AF077C413F078C414F00A5063
:10049000800FF36E1450800FF35C02E11350095C7F
:1004A000D8B095D073C419F074C41AF075C41BF099
:1004B00076C41CF019380F0B1D6E1A381E6EF00B27
:1004C0001E1A1D261E321D321B50E838E840F80B5C
:1004D0001E1219380F0B1F6E1A38206EF00B201ADF
:1004E0001F261B50E838F00B2012E86A1EBEFF0ED4
:1004F000216E226EE86A20BEFF0E236EE56E235049
:10050000E56E2050E56E1F50E56E2250E56E2150DD
:10051000E56E1E50E56E1D50E56E23EC0FF01D6E6E
:10052000F3CF1EF0F4CF1FF0E9CF20F0080EE12644
:1005300009C021F00AC022F0E86A0ABEFF0E236E4D
:10054000E56E2350E56E2250E56E2150E56E205099
:10055000E56E1F50E56E1E50E56E1D50E56EBFEC5A
:1005600013F01D6EF3CF1EF0080EE126E86A1EBEE2
:10057000FF0E1F6E206E1250800FF36E2050800F02
:10058000F35C08E11F50115C05E11E50105C02E1B4
:100590001D500F5C1CE20950135C096E0A50145880
:1005A0000A6EE86A0ABEFF0E136E146E0950195ED9
:1005B0000A501A5A13501B5A14501C5A195004014D
:1005C000736F1A50746F1B50756F1C50766F1850F4
:1005D000800FF36E04017651800FF35C08E17551D2
:1005E000175C05E17451165C02E17351155CD8B0DB
:1005F000C9D115500401736F1650746F1750756F81
:100600001850766FBFD11850800FF36E0650800FD0
:10061000F35C08E10550175C05E10450165C02E14B
:100620000350155CD8B0AED10B50035C096E0C5072
:1006300004580A6E0D500558136E0E500658146E6D
:1006400009500401736F0A50746F1350756F145082
:10065000766F98D177C409F078C40AF0E86A04018B
:1006600078BFFF0E136E146E0B5009260C500A2231
:100670000D5013220E5014220950035C096E0A50CB
:1006800004580A6E13500558136E14500658146E11
:1006900009500401736F0A50746F1350756F145032
:1006A000766F70D1081E076CD8B4082AE86A08BEB5
:1006B000FF0E096E0A6E1250800FF36E0A50800F03
:1006C000F35C08E10950115C05E10850105C02E19F
:1006D00007500F5CD8B033D1181C0A6E171C096E76
:1006E000161C086E151C076E072A04E1082A02E191
:1006F000094A0A2A0A50800FF36E0650800FF35CF5
:1007000008E10550095C05E10450085C02E1035072
:10071000075CD8B0EDD077C413F078C414F0E86A61
:10072000040178BFFF0E156E166E1350035C136E36
:1007300014500458146E15500558156E165006586E
:10074000166E13500401736F1450746F1550756F4B
:100750001650766F79C413F07AC414F077C415F08C
:1007600078C416F01450800FF36E1650800FF35CAF
:1007700002E11550135CD8B09FD073C417F074C455
:1007800018F075C419F076C41AF017380F0B1B6EE9
:1007900018381C6EF00B1C1A1B261C321B32195009
:1007A000E838E840F80B1C121C1E1B6CD8B41C2A3D
:1007B00017380F0B1D6E18381E6EF00B1E1A1D26F3
:1007C0001950E838F00B1E121E1E1D6CD8B41E2ADC
:1007D000E86A1CBEFF0E1F6E206EE86A1EBEFF0E8A
:1007E000216EE56E2150E56E1E50E56E1D50E56EE2
:1007F0002050E56E1F50E56E1C50E56E1B50E56EF7
:1008000023EC0FF01B6EF3CF1CF0F4CF1DF0E9CFFB
:100810001EF0080EE12613C01FF014C020F0E86A95
:1008200014BEFF0E216EE56E2150E56E2050E56E80
:100830001F50E56E1E50E56E1D50E56E1C50E56EB6
:100840001B50E56EBFEC13F01B6EF3CF1CF0080ECF
:10085000E1261C1E1B6CD8B41C2AE86A1CBEFF0EC5
:100860001D6E800FF36E1250800FF35C08E1115083
:100870001D5C05E110501C5C02E10F501B5C1CE28A
:100880001350155C136E14501658146EE86A14BE9B
:10089000FF0E0F6E106E13501726145018220F50B3
:1008A000192210501A2217500401736F1850746FD8
:1008B0001950756F1A50766F04017651800FF36EE0
:1008C0000A50800FF35C08E10950755D05E108509E
:1008D000745D02E10750735DD8B054D00750040135
:1008E000736F0850746F0950756F0A50766F4AD055
:1008F0000650800FF36E0A50800FF35C08E1095038
:10090000055C05E10850045C02E10750035CD8B0C7
:1009100039D00B500324076E0C500420086E0D5084
:100920000520096E0E5006200A6E07500401736FF1
:100930000850746F0950756F0A50766F23D077C4D2
:1009400007F078C408F0E86A040178BFFF0E096E6A
:100950000A6E07500B2608500C2209500D220A502F
:100960000E220B5003260C5004220D5005220E506F
:10097000062203500401736F0450746F0550756FA5
:100980000650766F040173390F0B036E7439046ED1
:10099000F00B041A03267551E838F00B0412753970
:1009A0000F0B056E7639066EF00B061A0526F00E53
:1009B00006B60626695103266A5104226B510522A8
:1009C0006C5106220350696F04506A6F05506B6FBB
:1009D00006506C6F6DC403F06EC404F06FC405F074
:1009E00070C406F00350041005100610D8B478D077
:1009F000D88004016CAFD8902DE30638F00B0A6E56
:100A00000538096E0F0B091A0A260450E8380F0B37
:100A100009120438F00B086E0338076E0F0B071A23
:100A2000082669510B6E6A510C6E6B510D6E6C513C
:100A30000E6E0B5007260C5008220D5009220E5046
:100A40000A220750696F08506A6F09506B6F0A508D
:100A50006C6F46D00638F00B0A6E0538096E0F0B26
:100A6000091A0A260450E8380F0B09120438F00B53
:100A7000086E0338076E0F0B071A08260401695128
:100A8000036E6A51046E6B51056E6C51066E0A500E
:100A9000065C08E10950055C05E10850045C02E1D0
:100AA0000750035C1DE304016951036E6A51046E33
:100AB0006B51056E6C51066E0750035C076E085053
:100AC0000458086E09500558096E0A5006580A6EF7
:100AD0000750696F08506A6F09506B6F0A506C6F4E
:100AE000E56A160EE56E800EE56E040EE56E650E87
:100AF000E56E0250E56E0150E56E0050E56E72EC59
:100B00001AF0080EE126E4CF23F0E4CF22F0E4CF80
:100B100021F0E4CF20F0E4CF1FF0E4CF1EF0E4CFCB
:100B20001DF0E4CF1CF0E4CF1BF0E4CF1AF0E4CFCB
:100B300019F0E4CF18F0E4CF17F0E4CF16F0E4CFCB
:100B400015F0E4CF14F0E4CF13F0E4CF12F0E4CFCB
:100B500011F0E4CF10F0E4CF0FF0E4CF0EF0E4CFCB
:100B60000DF0E4CF0CF0E4CF0BF0E4CF0AF0E4CFCB
:100B700009F0E4CF08F0E4CF07F0E4CF06F0E4CFCB
:100B800005F0E4CF04F0E4CF03F0E4CF02F0E4CFCB
:100B900001F0E4CF00F0E4CFD9FF1200D9CFE5FF98
:100BA000E1CFD9FF00C0E5FF01C0E5FF02C0E5FFCE
:100BB00003C0E5FF04C0E5FF05C0E5FF06C0E5FF93
:100BC00007C0E5FF08C0E5FF09C0E5FF0AC0E5FF73
:100BD0000BC0E5FF0CC0E5FF0DC0E5FF0EC0E5FF53
:100BE0000FC0E5FF10C0E5FF11C0E5FF12C0E5FF33
:100BF00013C0E5FF14C0E5FF15C0E5FF16C0E5FF13
:100C000017C0E5FF18C0E5FF19C0E5FF1AC0E5FFF2
:100C10001BC0E5FF1CC0E5FF1DC0E5FF1EC0E5FFD2
:100C2000020EDBCF00F0030EDBCF01F0040EDBCFB2
:100C300002F0050EDBCF03F0060EDBCF04F0070E4B
:100C4000DBCF05F0080EDBCF06F0090EDBCF07F097
:100C50000A0EDBCF08F0096A0A6A02C00DF00D50D7
:100C6000800A0DE102500401986F0150976F005007
:100C7000966F040E016E960E006E800E026E03C01B
:100C8000E9FF04C0F3FF05505AEC26F00B6E0B5041
:100C9000D8B484EF09F00B50250A02E06BEF09F09D
:100CA0000C6A0D6A0E6A0F6A106A0A0E116E126AD9
:100CB000136A146A200E156E1668176A2B0E186ECA
:100CC000032A02E3044A052A03C0E9FF04C0F3FF34
:100CD00005505AEC26F0196E250A13E11950E56EFD
:100CE0000250E56E0150E56E0050E56ED4EC18F050
:100CF000040EE126094A0A2A032A02E3044A052AC5
:100D0000BED71950300A06E1300E156E032A02E3F1
:100D1000044A052A03C0E9FF04C0F3FF05505AEC5A
:100D200026F02D0A06E1010E146E032A02E3044A9E
:100D3000052A03C0E9FF04C0F3FF05505AEC26F072
:100D4000200A08E1010E176E200E186E032A02E336
:100D5000044A052A03C0E9FF04C0F3FF05505AEC1A
:100D600026F02B0A06E1010E176E032A02E3044A5D
:100D7000052A03C0E9FF04C0F3FF05505AEC26F032
:100D8000196E310E195C2BE33A0E195C28E203C090
:100D900019F004C01AF005C01BF019C0E9FF1AC011
:100DA000F3FF1B505AEC26F01C6E300E1C5C11E356
:100DB0003A0E1C5C0EE213500A0DF3CF1DF01C50CE
:100DC0001D26D00E1D24136E192A02E31A4A1B2A6F
:100DD000E4D719C003F01AC004F01BC005F003C02B
:100DE000E9FF04C0F3FF05505AEC26F02E0A2DE16E
:100DF000032A02E3044A052A166A03C019F004C054
:100E00001AF005C01BF019C0E9FF1AC0F3FF1B5010
:100E10005AEC26F01C6E300E1C5C11E33A0E1C5C82
:100E20000EE216500A0DF3CF1DF01C501D26D00EF9
:100E30001D24166E192A02E31A4A1B2AE4D719C088
:100E400003F01AC004F01BC005F003C0E9FF04C0A2
:100E5000F3FF05505AEC26F0196E6C0A07E1010EFB
:100E60000C6E032A02E3044A052A09D01950680AC5
:100E700006E1010E0E6E032A02E3044A052A03C0AE
:100E8000E9FF04C0F3FF05505AEC26F0750A06E1AD
:100E9000010E106E032A02E3044A052A03C0E9FF8B
:100EA00004C0F3FF05505AEC26F0196E730A05E1F1
:100EB000010E0D6E200E156E3FD01950780A03E119
:100EC000100E116E39D01950580A05E1100E116E2E
:100ED000010E126E31D01950630A02E1116A2CD052
:100EE00019506F0A03E1080E116E26D01950660AD8
:100EF00003E1010E0F6E20D01950640A1DE0195055
:100F0000690A1AE0105005E0FF0E032604220522AC
:100F100013D01950E56E0250E56E0150E56E005099
:100F2000E56ED4EC18F0040EE126094A0A2A032AD9
:100F300002E3044A052AA3D60D5021E00650030F10
:100F40000D6E000E0720196E000E08201A6E0DC0DF
:100F500006F019C007F01AC008F0FD0E0D26FF0EAE
:100F600019221A220DC0E9FF19C0F3FF1A5013EC21
:100F700025F00D6EF3CF19F0F4CF1AF0FDD00F501D
:100F80000DE0000E1A6E130E196E900E0D6E040E0B
:100F90000626000E072208221668EED016680C50AE
:100FA00023E00650040F0C6E000E07200F6E000E9B
:100FB00008201B6E0CC006F00FC007F01BC008F025
:100FC000FC0E0C26FF0E0F221B220CC0E9FF0FC0E7
:100FD000F3FF1B5099EC24F00C6EF3CF0FF0F4CF1D
:100FE0001BF0E9CF1CF067D00E502FE00650020F27
:100FF0000E6E000E07201D6E000E08201E6E0EC025
:1010000006F01DC007F01EC008F0FE0E0E26FF0EF3
:101010001D221E220EC0E9FF1DC0F3FF1E50D2ECA0
:1010200025F00E6E0EC00CF00F6A1B6A1C6A115080
:101030000A0A03E11050D8B43ED00C500E6E0EC018
:101040000CF00F6A1B6A1C6A36D00650020F0E6E37
:10105000000E07201D6E000E08201E6E0EC006F04A
:101060001DC007F01EC008F0FE0E0E26FF0E1D224A
:101070001E220EC0E9FF1DC0F3FF1E50D2EC25F06A
:101080000E6EF3CF1DF00EC00CF01DC00FF0E86A1D
:101090001DBEFF0E1B6E1C6E11500A0A02E110509D
:1010A0000AE00C500E6E0F501D6E0EC00CF01DC0ED
:1010B0000FF01B6A1C6A040E196E240E0D6E800E52
:1010C0001A6E1150D8B440D0105013E01150E56E94
:1010D000040EE56E240EE56E1C50E56E1B50E56EA9
:1010E0000F50E56E0C50E56E11EC12F0070EE12684
:1010F00012D01150E56E040EE56E240EE56E1C5004
:10110000E56E1B50E56E0F50E56E0C50E56E60EC21
:101110001EF0070EE12617502FE00DC0E9FF19C0A1
:10112000F3FF1A505AEC26F02D0A26E0FF0E0D268A
:1011300019221A2218C0E5FF0DC0E9FF19C0F3FFFC
:101140001A50DDEC26F018D00CC0E5FF0DC0E9FF09
:1011500019C0F3FF1A50DDEC26F00D50010F0C6E94
:10116000000E19200E6E000E1A20E56A0CC0E9FF71
:101170000EC0F3FFDDEC26F00DC00CF019C00EF030
:101180001AC00FF013C010F0105010E00CC0E9FFAF
:101190000EC0F3FF0F505AEC26F0176E175006E002
:1011A0000C2A02E30E4A0F2A1006EED710C013F0E5
:1011B00014501EE109C00CF00AC00EF010C00FF070
:1011C0000F5010E01550E56E0250E56E0150E56ECF
:1011D0000050E56ED4EC18F0040EE1260C4A0E2AFD
:1011E0000F06EED70CC009F00EC00AF00FC013F0C6
:1011F00016C00CF00DC00DF019C00EF01AC00FF0A3
:1012000009C010F00AC015F00DC0E9FF0EC0F3FFD1
:101210000F505AEC26F0166E1650D8B43ED00CC0C3
:1012200016F0176A161E171E1650171005E00CC090
:1012300016F00C06165031E00DC0E9FF0EC0F3FFAA
:101240000F505AEC26F0116E125010E01150E56E5E
:101250008FEC25F0166EE652165004E0DF0E1114E6
:10126000166E02D011C016F016C011F01150E56EC6
:101270000250E56E0150E56E0050E56ED4EC18F0BA
:10128000040EE1260D2A02E30E4A0F2A104A152AFF
:101290001350D8B4B9D71306B7D710C009F015C08A
:1012A0000AF014502BE010C00CF015C00DF013C064
:1012B0000EF00E501FE0200EE56E0250E56E01505C
:1012C000E56E0050E56ED4EC18F0040EE1260C4AF1
:1012D0000D2A0E06EED70B50E56E0250E56E01505A
:1012E000E56E0050E56ED4EC18F0040EE126094AD4
:1012F0000A2A04D00CC009F00DC00AF0032A02E348
:10130000044A052A3FEF06F00AC0F3FF0950E4CF74
:101310001EF0E4CF1DF0E4CF1CF0E4CF1BF0E4CFCF
:101320001AF0E4CF19F0E4CF18F0E4CF17F0E4CFCF
:1013300016F0E4CF15F0E4CF14F0E4CF13F0E4CFCF
:1013400012F0E4CF11F0E4CF10F0E4CF0FF0E4CFCF
:101350000EF0E4CF0DF0E4CF0CF0E4CF0BF0E4CFCF
:101360000AF0E4CF09F0E4CF08F0E4CF07F0E4CFCF
:1013700006F0E4CF05F0E4CF04F0E4CF03F0E4CFCF
:1013800002F0E4CF01F0E4CF00F0E4CFD9FF120087
:101390003C4E4F20464C4F41543E0000D9CFE5FF14
:1013A000E1CFD9FF00C0E5FF01C0E5FF02C0E5FFC6
:1013B00003C0E5FF04C0E5FF05C0E5FF06C0E5FF8B
:1013C00007C0E5FF08C0E5FF09C0E5FF0AC0E5FF6B
:1013D0000BC0E5FF0CC0E5FF020EDBCF00F0030EF3
:1013E000DBCF01F0040EDBCF02F0036A046A056A6A
:1013F000066AD7EC23F0076EFE0A01E0D3D0CAECF0
:101400001FF0D7EC23F0086E085014E00850010AD2
:101410002CE00850020A01E143D008500A0A01E119
:101420005AD008500B0A01E165D008500D0A01E1BD
:101430008ED0A2D000500C0F096E000E01200A6E53
:10144000000E022009C0E9FF0AC0F3FFD2EC25F02C
:10145000096EF3CF0AF009C003F00AC004F0E86A8D
:101460000ABEFF0E056E066E87D00050120F096E81
:10147000000E01200A6E000E022009C0E9FF0AC01A
:10148000F3FFD2EC25F0096EF3CF0AF009C003F0A8
:101490000AC004F0E86A0ABEFF0E056E066E6CD044
:1014A0000050140F096E000E01200A6E000E02207B
:1014B00009C0E9FF0AC0F3FFD2EC25F0096EF3CFB3
:1014C0000AF009C003F00AC004F0E86A0ABEFF0E81
:1014D000056E066E51D000C0E9FF01C0F3FF025057
:1014E00099EC24F0036EF3CF04F0F4CF05F0E9CFCC
:1014F00006F042D00050040F096E000E01200A6E63
:10150000000E022009C0E9FF0AC0F3FF99EC24F0A5
:10151000096EF3CF0AF0F4CF0BF0E9CF0CF00938E5
:101520000F0B036E0A38046EF00B041A03260B50DF
:10153000E838F00B04120B380F0B056E0C38066EF2
:10154000F00B061A0526F00E06B6062615D000503A
:10155000080F096E000E01200A6E000E022009C05D
:10156000E9FF0AC0F3FF99EC24F0036EF3CF04F017
:10157000F4CF05F0E9CF06F00650E56E0550E56EB4
:101580000450E56E0350E56EE56A0850E56E000E06
:10159000E56E3B0EE56E200EE56E08EC21F0090EBF
:1015A000E12648D1075018E00750010A34E00750FF
:1015B000020A01E14FD007500A0A01E16AD0075040
:1015C0000B0A01E19AD007500C0A01E1CAD007507A
:1015D0000D0A01E1FAD02ED100500C0F036E000E5F
:1015E0000120046E000E0220056ED7EC23F0066A7F
:1015F000076ED7EC23F0096A06260950072206C0B9
:10160000E5FF07C0F4FF03C0E9FF04C0F3FF055086
:10161000A4EC26F00FD10050120F036E000E012033
:10162000046E000E0220056ED7EC23F0066A076EEA
:10163000D7EC23F0096A06260950072206C0E5FF09
:1016400007C0F4FF03C0E9FF04C0F3FF0550A4EC9A
:1016500026F0F0D00050140F036E000E0120046E2F
:10166000000E0220056ED7EC23F0066A076ED7EC59
:1016700023F0096A06260950072206C0E5FF07C0C5
:10168000F4FF03C0E9FF04C0F3FF0550A4EC26F00B
:10169000D1D0D7EC23F0066E056AD7EC23F0046AAC
:1016A00005260450062206500A6E0550096E076A88
:1016B000086AD7EC23F0066E046AD7EC23F0036ABD
:1016C0000426035006220450071206500812035045
:1016D00009120A120A50E56E0950E56E0850E56ECF
:1016E0000750E56E0250E56E0150E56E0050E56E64
:1016F0004CEC15F0070EE1269DD0D7EC23F0066EDA
:10170000056AD7EC23F0046A052604500622065029
:101710000A6E0550096E076A086AD7EC23F0066E58
:10172000046AD7EC23F0036A04260350062204500F
:10173000071206500812035009120A120A50E56EE9
:101740000950E56E0850E56E0750E56E0250E56EF3
:101750000150E56E0050E56E2BEC11F0070EE1260E
:1017600069D0D7EC23F0066E056AD7EC23F0046A43
:1017700005260450062206500A6E0550096E076AB7
:10178000086AD7EC23F0066E046AD7EC23F0036AEC
:101790000426035006220450071206500812035074
:1017A00009120A120A50E56E0950E56E0850E56EFE
:1017B0000750E56E0250E56E0150E56E0050E56E93
:1017C000EDEC12F0070EE12635D0D7EC23F0066ED3
:1017D000056AD7EC23F0046A052604500622065059
:1017E0000A6E0550096E076A086AD7EC23F0066E88
:1017F000046AD7EC23F0036A04260350062204503F
:10180000071206500812035009120A12080E002689
:10181000000E0122022207C0E5FF08C0F4FF09C044
:10182000F6FF0AC0F7FF00C0E9FF01C0F3FF025056
:1018300049EC26F0E4CF0CF0E4CF0BF0E4CF0AF053
:10184000E4CF09F0E4CF08F0E4CF07F0E4CF06F0EE
:10185000E4CF05F0E4CF04F0E4CF03F0E4CF02F0EE
:10186000E4CF01F0E4CF00F0E4CFD9FF120000C0D4
:10187000E5FF01C0E5FF02C0E5FF03C0E5FF04C0CE
:10188000E5FF05C0E5FF06C0E5FF07C0E5FF08C0AE
:10189000E5FF09C0E5FF0AC0E5FF0BC0E5FF27EC47
:1018A00017F083EC23F0006EF3CF01F0F4CF02F0D9
:1018B000E9CF03F004013451005E3551015A36512D
:1018C000025A3751035A039E3F0E035C08E1FF0E94
:1018D000025C05E1FF0E015C02E1FF0E005CD8B086
:1018E00078D183EC23F0F3CF01F0F4CF02F0E9CF0D
:1018F00003F0100F0401346F270E0120356F000E26
:101900000220366F000E0320376F04019D519E1197
:101910001FE0040E016E4F0E006E800E026E9DC41D
:1019200003F09EC404F0E86A9EBFFF0E056EE56EEC
:101930000550E56E0450E56E0350E56E0250E56E0D
:101940000150E56E0050E56E8EEC14F0070EE126B6
:10195000040145512FE0456B9FC400F0A0C401F085
:10196000E86A0401A0BFFF0E026E036E005004017E
:101970003B5D006E01503C59016E02503D59026EB4
:1019800003503E59036E0401A051E56E9F51E56E70
:101990000350E56E0250E56E0150E56E0050E56EB5
:1019A000000EE56E2E0EE56E260EE56E08EC21F0BB
:1019B000090EE126800EE56E040EE56E4F0EE56E13
:1019C0000EEC00F0030EE1263BC43FF43CC440F4AF
:1019D0003DC441F43EC442F4040153390F0B0401E9
:1019E0003B6F0401543904013C6FF00B3C1B3B2757
:1019F00004015551E838F00B04013C13040155393A
:101A00000F0B04013D6F0401563904013E6FF00BCA
:101A10003E1B3D27F00E3EB73E2704013F51040117
:101A20003B5D0401816F0401405104013C590401F4
:101A3000826F0401415104013D590401836F040187
:101A4000425104013E590401846F57C400F058C448
:101A500001F059C402F05AC403F000500110021002
:101A60000310D8B448D08151046E8251056E835161
:101A7000066E8451076E0050042601500522025064
:101A8000062203500722D89003300B6E02300A6EF4
:101A90000130096E0030086E0426095005220A50F4
:101AA00006220B5007220350E56E0250E56E0150EE
:101AB000E56E0050E56E0750E56E0650E56E055088
:101AC000E56E0450E56EF6EC15F0006EF3CF01F014
:101AD000F4CF02F0E9CF03F0080EE1260850005CD5
:101AE0000401816F09500158826F0A500258836FB8
:101AF0000B500358846F04018151006E8251E56ED2
:101B00000050E56E28EC24F00401996FF3CF9AF4AD
:101B1000E652E652006A81B4002A005003E1006AEE
:101B2000002A01D0006AE56A0050E56E04013E51CA
:101B3000E56E3D51E56E3C51E56E3B51E56E000EA4
:101B4000E56E2E0EE56E320EE56E08EC21F0090E04
:101B5000E126040199519A11D8B43BD0D8809AAFAC
:101B6000D89007E39A1D016E991D006E004A012A64
:101B700004D099C400F09AC401F000C099F401C0E7
:101B80009AF404019A51E56E9951E56E750EE56E71
:101B9000300EE56E75EC1BF004019B6FF3CF9CF4E7
:101BA000040EE126000E9C5D02E11E0E9B5D04E228
:101BB0001E0E04019B6F9C6B0CC0E5FFF2CF0CF076
:101BC000F29E9BC443F49CC444F40CBEF28EE4CF5A
:101BD0000CF0E4CF0BF0E4CF0AF0E4CF09F0E4CF4F
:101BE00008F0E4CF07F0E4CF06F0E4CF05F0E4CF4F
:101BF00004F0E4CF03F0E4CF02F0E4CF01F0E4CF4F
:101C000000F0120000C0E5FF01C0E5FF02C0E5FFE3
:101C100003C0E5FF04014B51D8B40CD19DA81DD0E1
:101C20009EA81BD00401B1510401AF1905E188EC55
:101C300026F00401AF6BFED0000E0401B125006E4A
:101C4000016A040E012200C0E9FF01C0EAFFEFCFE4
:101C5000ABF4B12BABC4ADFFEDD09DAAEBD09EAAE7
:101C6000E9D0ABA205D00401B08188EC26F0E2D027
:101C7000ABA405D00401B08388EC26F0DBD0ABA088
:101C800048D0AECFABF44CC400F0016A008EABC4B8
:101C900002F0036A0250001803E10350011801E04A
:101CA00004D00401B089AB96C5D00401AB5104E067
:101CB000AB5104014C1929E10401B099AB96040120
:101CC000AB5103E00401B09702D00401B087ABC46C
:101CD000B4F4ADC4B5F40401AD51006E00040401C8
:101CE000B66F600E0401B525006E016A000E012278
:101CF00000C0E9FF01C0EAFFABC4EFFFB52BB5514F
:101D0000800A02E10401B56B95D00401B099AB865D
:101D100091D0AECFABF40401B0A921D04CC400F0F7
:101D2000016A008EABC402F0036A0250001803E19E
:101D30000350011801E011D09D9AAB9894900401D2
:101D4000AF5104E1AD6A88EC26F007D000C4ADFFC6
:101D5000010E0401B16F9D886DD0AB866BD004017C
:101D6000AB510401B4270401B5510401B6191BE1BC
:101D70000401B4510CE1B5C4ADF40401B0B712D004
:101D80009D9AAB989490AD6A88EC26F00BD0040134
:101D9000B085B0B707D09D9AAB989490010EAD6E08
:101DA00088EC26F047D00401B5510401AE1908E1D2
:101DB0000401AE510401AD1903E088EC26F03AD0DD
:101DC000ADC400F0016A004A012AE56A800EE56EA2
:101DD0000150E56E0050E56EECEC1BF0006E040E59
:101DE000E12600500401AC6F0401B5190FE1ABC44A
:101DF00000F01F0E00140401B66F006E020E0024E6
:101E0000B66F0401AD510401B627B69FB5C400F00A
:101E10000401B52B016A600E0026000E012200C0ED
:101E2000E9FF01C0EAFFABC4EFFFB551800A02E150
:101E30000401B56BE4CF03F0E4CF02F0E4CF01F08E
:101E4000E4CF00F01200D9CFE5FFE1CFD9FF00C009
:101E5000E5FF01C0E5FF02C0E5FF03C0E5FF04C0E8
:101E6000E5FF05C0E5FF06C0E5FF07C0E5FF020E80
:101E7000DBCF00F0030EDBCF01F0040EDBCF02F06E
:101E8000050EDBCF03F0060EDBCF04F0070EDBCF31
:101E900005F0080EDBCF06F0090EDBCF07F000508F
:101EA00004018E6F01508F6F0250906F0350916F3D
:101EB00004500F01236F0550246F0650256F075003
:101EC000266F04018E510F012503F4CF01F0F3CFEB
:101ED00000F000500F01296F01502A6F04018E514C
:101EE0000F012303F4CF01F0F3CF00F000500F01F6
:101EF000276F0150286F040191510F012303F3CF85
:101F000000F00F012A51002600502A6F0401905161
:101F10000F012403F3CF01F00150002600500F0100
:101F20002A6F040190510F012303F4CF01F0F3CF86
:101F300000F00F01295100262A5101220050296F7B
:101F400001502A6F04018F510F012403F4CF03F0D5
:101F5000F3CF02F0025000260350012200500F017F
:101F6000296F01502A6F04018F510F012503F3CF10
:101F700000F000500F012E6F04018F510F01230359
:101F8000F4CF01F0F3CF00F000500F012C6F01509F
:101F90002D6F04018E510F012603F3CF00F0005086
:101FA0000F01326F04018E510F012403F4CF01F0B1
:101FB000F3CF00F000500F01306F0150316F0F016F
:101FC0002B6B0F012F6B0F012B510F012725006E7B
:101FD0000F012C510F012821016E0F012D510F010E
:101FE0002921026E0F012E510F012A21036E00508C
:101FF000276F0150286F0250296F03502A6F0F017D
:102000002F510F012725006E0F0130510F0128219C
:10201000016E0F0131510F012921026E0F01325162
:102020000F012A21036E03C0E9FF02C0F4FF01C0C3
:10203000F3FF0050E4CF07F0E4CF06F0E4CF05F063
:10204000E4CF04F0E4CF03F0E4CF02F0E4CF01F0FA
:10205000E4CF00F0E4CFD9FF120000C0E5FF01C0DB
:10206000E5FF02C0E5FF03C0E5FF04C0E5FF05C0D2
:10207000E5FF06C0E5FF07C0E5FFD7EC23F0006EE3
:10208000010A29E00050020A01E183D000500A0A47
:1020900001E18DD000500B0A01E192D000500C0AF2
:1020A00001E197D000500D0A01E19CD00050320AA6
:1020B00001E1A1D00050640A01E1A8D00050650AF6
:1020C00001E1AAD00050660A01E1A9D00050FF0A40
:1020D00001E1AAD0AFD0D7EC23F0036E026AD7ECAF
:1020E00023F0016A0226015003220350076E0250BA
:1020F000066E046A056AD7EC23F0036E016AD7EC1A
:1021000023F0006A012600500322015004120350FC
:10211000051200500612071208C0E5FFF2CF08F0C2
:10212000F29E0F01366B376B04C03BF405C03CF4E4
:1021300006C03DF407C03EF404C03FF405C040F4BF
:1021400006C041F407C042F408BEF28EE4CF08F0A6
:1021500008C0E5FFF2CF08F0F29E300E0401436F95
:10216000750E446F08BEF28EE4CF08F00750E56E9E
:102170000650E56E0550E56E0450E56E800EE56E86
:10218000040EE56E4F0EE56E2BEC11F0070EE12606
:1021900051D0D7EC23F0006A016ED7EC23F0036A2C
:1021A000002404019D6F035001209E6F43D0D7ECA3
:1021B00023F0006E005002E089843CD089943AD02C
:1021C000D7EC23F0006E005002E0898833D0899864
:1021D00031D0D7EC23F0006E005002E0898C2AD079
:1021E000899C28D0D7EC23F0006E005002E0898A49
:1021F00021D0899A1FD0800EE56E040EE56E4F0E39
:10220000E56ECEEC09F0030EE12614D004017B6BE1
:102210007C6B7D6B7E6B0ED025EC26F00BD0F092A4
:10222000F0880401456B06D0D7EC23F0FF0A02E1E9
:10223000E8EC26F0E4CF07F0E4CF06F0E4CF05F0B9
:10224000E4CF04F0E4CF03F0E4CF02F0E4CF01F0F8
:10225000E4CF00F01200D9CFE5FFE1CFD9FF00C0F5
:10226000E5FF01C0E5FF02C0E5FF03C0E5FF04C0D4
:10227000E5FF05C0E5FF06C0E5FF07C0E5FF08C0B4
:10228000E5FF09C0E5FF0AC0E5FF0BC0E5FF0CC094
:10229000E5FF0DC0E5FF0EC0E5FF020EDBCF00F04D
:1022A000030EDBCF01F0040EDBCF02F0050EDBCF17
:1022B00003F0060EDBCF04F0070EDBCF05F0080EAF
:1022C000DBCF06F00050080F076E000E0120086EED
:1022D000000E022007C0E9FF08C0F3FF99EC24F0CC
:1022E000076EF3CF08F0F4CF09F0E9CF0AF0081039
:1022F00009100A102AE003500B6E04500C6E0550B2
:102300000D6E06500E6E07500B2608500C22095019
:102310000D220A500E22E56E0950E56E0850E56E5A
:102320000750E56E0E50E56E0D50E56E0C50E56EF3
:102330000B50E56EF6EC15F0036EF3CF04F0F4CF1E
:1023400005F0E9CF06F0080EE12603C0E5FF04C062
:10235000F4FF05C0F6FF06C0F7FF00C0E9FF01C0AB
:10236000F3FF025049EC26F00050040F076E000EF8
:102370000120086E000E0220096E0638F00B0D6E6B
:1023800005380C6E0F0B0C1A0D260450E8380F0B95
:102390000C120438F00B0B6E03380A6E0F0B0A1A7E
:1023A0000B260AC0E5FF0BC0F4FF0CC0F6FF0DC002
:1023B000F7FF07C0E9FF08C0F3FF095049EC26F01A
:1023C0000E0E0026000E01220222E56AF46AF66A69
:1023D000F76A00C0E9FF01C0F3FF025049EC26F0A4
:1023E000E4CF0EF0E4CF0DF0E4CF0CF0E4CF0BF02F
:1023F000E4CF0AF0E4CF09F0E4CF08F0E4CF07F02F
:10240000E4CF06F0E4CF05F0E4CF04F0E4CF03F02E
:10241000E4CF02F0E4CF01F0E4CF00F0E4CFD9FF45
:102420001200D9CFE5FFE1CFD9FF00C0E5FF01C021
:10243000E5FF02C0E5FF03C0E5FF04C0E5FF05C0FE
:10244000E5FF06C0E5FF07C0E5FF08C0E5FF09C0DE
:10245000E5FF0AC0E5FF0BC0E5FF0CC0E5FF0DC0BE
:10246000E5FF0EC0E5FF0FC0E5FF020EDBCF00F079
:10247000030EDBCF01F0040EDBCF02F0050EDBCF45
:1024800003F0060EDBCF04F0070EDBCF05F0080EDD
:10249000DBCF06F0200E076E086A06C009F00A6A54
:1024A0000B6A0C6AE56AE56AE56A0950E56E035055
:1024B000E56E0250E56E0150E56E0050E56EF6ECFB
:1024C00015F00D6E080EE126300E0D263A0E0D5C4D
:1024D00005E30D500E6E270E0E240D6EFF0E07261F
:1024E0000822E00E07240E6E000E08200F6E0EC0AC
:1024F000E9FF0FC0EAFF0DC0EFFF0C50E56E0B5077
:10250000E56E0A50E56E0950E56E0350E56E025027
:10251000E56E0150E56E0050E56EB7EC17F0006E09
:10252000F3CF01F0F4CF02F0E9CF03F0080EE1267B
:102530000050011002100310D8A4AFD707C000F05C
:1025400008C001F004C002F005C003F000C004F0B0
:1025500001C005F0004A012AE00E0426000E052203
:1025600004C0E9FF05C0EAFFEFCF04F002C0E9FFB5
:1025700003C0EAFF04C0EFFF024A032A000E015C19
:1025800002E1200E005CE2E302C0E9FF03C0EAFFC3
:10259000000EEF6AE4CF0FF0E4CF0EF0E4CF0DF0C1
:1025A000E4CF0CF0E4CF0BF0E4CF0AF0E4CF09F075
:1025B000E4CF08F0E4CF07F0E4CF06F0E4CF05F075
:1025C000E4CF04F0E4CF03F0E4CF02F0E4CF01F075
:1025D000E4CF00F0E4CFD9FF1200D9CFE5FFE1CF7F
:1025E000D9FF00C0E5FF01C0E5FF02C0E5FF03C061
:1025F000E5FF04C0E5FF05C0E5FF06C0E5FF07C035
:10260000E5FF08C0E5FF09C0E5FF0AC0E5FF0BC014
:10261000E5FF0CC0E5FF0DC0E5FF0EC0E5FF020EB3
:10262000DBCF00F0030EDBCF01F0040EDBCF02F0B6
:10263000050EDBCF03F0060EDBCF04F0070EDBCF79
:1026400005F0080EDBCF06F00050080F076E000EF5
:102650000120086E000E022007C0E9FF08C0F3FF4A
:1026600099EC24F0076EF3CF08F0F4CF09F0E9CF2E
:102670000AF0081009100A102AE003500B6E0450EB
:102680000C6E05500D6E06500E6E07500B2608504E
:102690000C2209500D220A500E22E56E0950E56EFB
:1026A0000850E56E0750E56E0E50E56E0D50E56E74
:1026B0000C50E56E0B50E56EF6EC15F0036EF3CFA3
:1026C00004F0F4CF05F0E9CF06F0080EE12603C0D0
:1026D000E5FF04C0F4FF05C0F6FF06C0F7FF00C029
:1026E000E9FF01C0F3FF025049EC26F0040E00267A
:1026F000000E012202220638F00B0A6E0538096E20
:102700000F0B091A0A260450E8380F0B0912043877
:10271000F00B086E0338076E0F0B071A082607C068
:10272000E5FF08C0F4FF09C0F6FF0AC0F7FF00C0CC
:10273000E9FF01C0F3FF025049EC26F0E4CF0EF0B0
:10274000E4CF0DF0E4CF0CF0E4CF0BF0E4CF0AF0CF
:10275000E4CF09F0E4CF08F0E4CF07F0E4CF06F0CF
:10276000E4CF05F0E4CF04F0E4CF03F0E4CF02F0CF
:10277000E4CF01F0E4CF00F0E4CFD9FF1200D9CFCD
:10278000E5FFE1CFD9FF00C0E5FF01C0E5FF02C0D2
:10279000E5FF03C0E5FF04C0E5FF05C0E5FF06C097
:1027A000E5FF07C0E5FF08C0E5FF09C0E5FF0AC077
:1027B000E5FF0BC0E5FF0CC0E5FF0DC0E5FF020E15
:1027C000DBCF00F0030EDBCF01F0040EDBCF02F015
:1027D000050EDBCF03F0060EDBCF04F0070EDBCFD8
:1027E00005F0080EDBCF06F0090EDBCF07F0D8802E
:1027F00003AED890086A083608500FE0031C0C6E30
:10280000021C0B6E011C0A6E001C096E092A0DE1E8
:102810000A2A0BE10B4A0C2A08D000C009F001C0BB
:102820000AF002C00BF003C00CF0D88007AED890BD
:10283000006A003600500FE0071C0D6E061C036E88
:10284000051C026E041C016E012A0DE1022A0BE137
:10285000034A0D2A08D004C001F005C002F006C0EA
:1028600003F007C00DF00D50E56E0350E56E025009
:10287000E56E0150E56E0C50E56E0B50E56E0A50AA
:10288000E56E0950E56EB7EC17F0016EF3CF02F07C
:10289000F4CF03F0E9CF04F0080EE1260050081A47
:1028A000085016E0041C076E031C066E021C056E21
:1028B000011C006E002A04E1052A02E1064A072AEB
:1028C00007C0E9FF06C0F4FF05C0F3FF005007D0C2
:1028D00004C0E9FF03C0F4FF02C0F3FF0150E4CFDE
:1028E0000DF0E4CF0CF0E4CF0BF0E4CF0AF0E4CF2E
:1028F00009F0E4CF08F0E4CF07F0E4CF06F0E4CF2E
:1029000005F0E4CF04F0E4CF03F0E4CF02F0E4CF2D
:1029100001F0E4CF00F0E4CFD9FF1200D9CFE5FFFA
:10292000E1CFD9FF00C0E5FF01C0E5FF02C0E5FF30
:1029300003C0E5FF04C0E5FF05C0E5FF06C0E5FFF5
:1029400007C0E5FF08C0E5FF09C0E5FF0AC0E5FFD5
:102950000BC0E5FF0CC0E5FF0DC0E5FF0EC0E5FFB5
:10296000020EDBCF00F0030EDBCF01F0040EDBCF55
:1029700002F0050EDBCF03F0060EDBCF04F0070EEE
:10298000DBCF05F0080EDBCF06F000C0E9FF01C089
:10299000F3FF025099EC24F0F3CF08F0F4CF09F0E4
:1029A000E9CF0AF0032608500422095005220A50F4
:1029B00006220050080F076E000E0120086E000E60
:1029C000022007C0E9FF08C0F3FF99EC24F0076E6E
:1029D000F3CF08F0F4CF09F0E9CF0AF0081009109E
:1029E0000A102AE003500B6E04500C6E05500D6E59
:1029F00006500E6E07500B2608500C2209500D226F
:102A00000A500E22E56E0950E56E0850E56E07503B
:102A1000E56E0E50E56E0D50E56E0C50E56E0B50F8
:102A2000E56EF6EC15F0036EF3CF04F0F4CF05F08D
:102A3000E9CF06F0080EE12603C0E5FF04C0F4FF6D
:102A400005C0F6FF06C0F7FF00C0E9FF01C0F3FFB5
:102A5000025049EC26F0E4CF0EF0E4CF0DF0E4CFC5
:102A60000CF0E4CF0BF0E4CF0AF0E4CF09F0E4CFB0
:102A700008F0E4CF07F0E4CF06F0E4CF05F0E4CFB0
:102A800004F0E4CF03F0E4CF02F0E4CF01F0E4CFB0
:102A900000F0E4CFD9FF1200D9CFE5FFE1CFD9FF95
:102AA00000C0E5FF01C0E5FF02C0E5FF03C0E5FF90
:102AB00004C0E5FF05C0E5FF06C0E5FF07C0E5FF70
:102AC00008C0E5FF09C0E5FF0AC0E5FF0BC0E5FF50
:102AD0000CC0E5FF0DC0E5FF0EC0E5FF020EDBCF29
:102AE00000F0030EDBCF01F0040EDBCF02F0050E89
:102AF000DBCF03F0060EDBCF04F0070EDBCF05F0D3
:102B0000080EDBCF06F00050080F076E000E012004
:102B1000086E000E022007C0E9FF08C0F3FF99EC21
:102B200024F0076EF3CF08F0F4CF09F0E9CF0AF0F4
:102B3000081009100A102AE003500B6E04500C6EA6
:102B400005500D6E06500E6E07500B2608500C22D5
:102B500009500D220A500E22E56E0950E56E08500C
:102B6000E56E0750E56E0E50E56E0D50E56E0C50AB
:102B7000E56E0B50E56EF6EC15F0036EF3CF04F046
:102B8000F4CF05F0E9CF06F0080EE12603C0E5FF1B
:102B900004C0F4FF05C0F6FF06C0F7FF00C0E9FF60
:102BA00001C0F3FF025049EC26F0E4CF0EF0E4CF71
:102BB0000DF0E4CF0CF0E4CF0BF0E4CF0AF0E4CF5B
:102BC00009F0E4CF08F0E4CF07F0E4CF06F0E4CF5B
:102BD00005F0E4CF04F0E4CF03F0E4CF02F0E4CF5B
:102BE00001F0E4CF00F0E4CFD9FF1200D9CFE5FF28
:102BF000E1CFD9FF00C0E5FF01C0E5FF02C0E5FF5E
:102C000003C0E5FF04C0E5FF05C0E5FF06C0E5FF22
:102C100007C0E5FF08C0E5FF09C0E5FF0AC0E5FF02
:102C2000020EDBCF00F0030EDBCF01F0040EDBCF92
:102C300002F0050EDBCF03F0060EDBCF04F0070E2B
:102C4000DBCF05F0080EDBCF06F0090EDBCF07F077
:102C5000086A045005100610071005E1E968F468D9
:102C6000F368E86847D0096A0750800BE8440A6EA9
:102C70000A501BE104500426053606360736075075
:102C8000035C08E10650025C05E10550015C02E1CD
:102C90000450005C06E2D890073206320532043256
:102CA00004D0092A09C008F0DFD70750035C08E107
:102CB0000650025C05E10550015C02E10450005C35
:102CC00008E30450005E0550015A0650025A0750AE
:102CD000035AD890073206320532043208C009F090
:102CE00008060950E2E103C0E9FF02C0F4FF01C099
:102CF000F3FF0050E4CF0AF0E4CF09F0E4CF08F08E
:102D0000E4CF07F0E4CF06F0E4CF05F0E4CF04F021
:102D1000E4CF03F0E4CF02F0E4CF01F0E4CF00F021
:102D2000E4CFD9FF120000C0E5FF01C0E5FF02C0FB
:102D3000E5FF03C0E5FF05C0E5FF0BEC27F094922B
:102D40008B9283EC23F0F3CF01F0F4CF02F0E9CFC4
:102D500003F0880F0401346F130E0120356F000E4D
:102D60000220366F000E0320376F898E8982898496
:102D70008988898C898A929E929292949298929C48
:102D8000929A9384810E006E0F0E016E0F0E036EE9
:102D9000380E0026035001220F0E036E800E005ED7
:102DA0000350015A810E026E0F0E036E0F0E056E58
:102DB000380E0226055003220F0E056E800E025EAD
:102DC0000550035A02C0E9FF03C0EAFFEFCF02F04B
:102DD000029400C0E9FF01C0EAFF02C0EFFFF08EDD
:102DE000F1980F014E6B0F014E894E8B4E837F82FF
:102DF0004E917E927D824E81800EE56E040EE56ED0
:102E00004F0EE56E2DEC1DF0030EE126F2EC26F0E0
:102E1000E4CF05F0E4CF03F0E4CF02F0E4CF01F01B
:102E2000E4CF00F01200436920256C642025640A79
:102E30000000437020256C642025640A00004300D4
:102E4000256300004363203D20256C640A0000C018
:102E5000E5FF01C0E5FF02C0E5FF03C0E5FF040197
:102E6000AE510401AD1901E166D0AEC400F0002AF4
:102E7000009E016A600E0026000E012200C0E9FFDC
:102E800001C0EAFFEFCFB8F41F0E0401B817AEC4BB
:102E9000B7F4B8510401B727B751006E020E0024F1
:102EA000B76FB79FD7EC23F0006E005003E1006AC4
:102EB000002A01D0006AD7EC23F00401B86FB8C42F
:102EC00001F0800E0116B8C402F01F0E021602C0F7
:102ED00003F002C0B8F4035003E1ADC4AEF43ED039
:102EE00000501EE0015025E0D7EC23F0006E0401F5
:102EF000B851026E0204B86F0050420A1AE0005046
:102F00004E0A03E101EC22F014D00050460A03E11E
:102F1000D2EC26F00ED00050490A0BE1FF0009D098
:102F2000AEC4B9F4015003E087EC21F002D02DECDF
:102F300010F0B7C4AEF4040148510401491906E089
:102F40000401AF5103E160EC19F008D094B006D051
:102F50000401AF5103E1ACB288EC26F0E4CF03F0FA
:102F6000E4CF02F0E4CF01F0E4CF00F01200D9CFBB
:102F7000E5FFE1CFD9FF00C0E5FF01C0E5FF02C0DA
:102F8000E5FF03C0E5FF04C0E5FF05C0E5FF06C09F
:102F9000E5FF07C0E5FF08C0E5FF09C0E5FF0AC07F
:102FA000E5FF0BC0E5FF0CC0E5FF0DC0E5FF020E1D
:102FB000DBCF00F0030EDBCF01F0040EDBCF02F01D
:102FC000050EDBCF03F0060EDBCF04F0070EDBCFE0
:102FD00005F0080EDBCF06F0090EDBCF07F0086A1C
:102FE000096A0A6A0B6A200E0C6E0350800BE844D3
:102FF0000D6E0050002601360236033608500826B2
:1030000009360A360B360D50D8A4088007500B5CE1
:1030100008E106500A5C05E10550095C02E1045034
:10302000085C09E30450085E0550095A06500A5A24
:1030300007500B5A00800C040D6E0DC00CF00D50A3
:10304000D4E103C0E9FF02C0F4FF01C0F3FF005068
:10305000E4CF0DF0E4CF0CF0E4CF0BF0E4CF0AF0B6
:10306000E4CF09F0E4CF08F0E4CF07F0E4CF06F0B6
:10307000E4CF05F0E4CF04F0E4CF03F0E4CF02F0B6
:10308000E4CF01F0E4CF00F0E4CFD9FF120000C09C
:10309000E5FF01C0E5FF03C0E5FF04C0E5FF05C093
:1030A000E5FF06C0E5FF07C0E5FF08C0E5FF09C072
:1030B000E5FF0AC0E5FF0BC0E5FFA1C400F0A2C414
:1030C00001F00401A13F01D0A22B0050E56E7AEC83
:1030D00026F0E652076E046A056A066AA1C400F08B
:1030E000A2C401F00401A13F01D0A22B0050E56E63
:1030F0007AEC26F0E6520B6A0A6E086A085004124F
:1031000005120A5006120B500712A1C400F0A2C407
:1031100001F00401A13F01D0A22B0050E56E7AEC32
:1031200026F0E652036E006A03C001F0E86A03BEAF
:10313000FF0E086E096E005004120150051208506F
:10314000061209500712A1C400F0A2C401F0040144
:10315000A13F01D0A22B0050E56E7AEC26F0E6529A
:10316000016A0412015005120612071207C0E9FF96
:1031700006C0F4FF05C0F3FF0450E4CF0BF0E4CF2A
:103180000AF0E4CF09F0E4CF08F0E4CF07F0E4CF91
:1031900006F0E4CF05F0E4CF04F0E4CF03F0E4CF91
:1031A00001F0E4CF00F01200D9CFE5FFE1CFD9FF65
:1031B00000C0E5FF01C0E5FF02C0E5FF03C0E5FF79
:1031C00004C0E5FF05C0E5FF06C0E5FF07C0E5FF59
:1031D000020EDBCF00F0030EDBCF01F0040EDBCFDD
:1031E00002F0050EDBCF03F002C006F00650046EBD
:1031F000800A33E100C0E9FF01C0F3FF025013EC85
:1032000025F0056EF3CF06F0F4CF07F003C0E5FF1D
:1032100005C0E9FF06C0F3FF0750DDEC26F000C053
:10322000E9FF01C0F3FF025013EC25F0056EF3CF68
:1032300006F0F4CF07F0052A02E3064A072A05C084
:10324000E5FF06C0F4FF07C0F6FF00C0E9FF01C0BC
:10325000F3FF02506BEC26F020D004C000F000AA6F
:103260001CD0007A0050046E04E1035010EC27F0EB
:1032700014D00450010A04E1035002EC00F00DD018
:1032800004500F0A04E1035053EC23F006D004501D
:103290000E0A03E1035020EC27F0E4CF07F0E4CF5F
:1032A00006F0E4CF05F0E4CF04F0E4CF03F0E4CF80
:1032B00002F0E4CF01F0E4CF00F0E4CFD9FF120038
:1032C00000C0E5FF01C0E5FF02C0E5FF03C0E5FF68
:1032D000ACA277D0B9EC24F0006E005005E10401F7
:1032E000496B0401486B6DD049C401F000500126C0
:1032F000B9EC24F0026E00060250230A1FE1010E11
:10330000005CD8A05CD0B9EC24F0036E690A03E13C
:1033100022EC23F054D00350720A03E188EC26F02B
:103320004ED00350730A01E04AD09480AB869D8A48
:103330009D98AE50AE50AB98AB8841D00250430A36
:1033400005E00250420A01E03AD001D0008E0401AB
:10335000B16B00C0B2F400500401006F0401B12B46
:1033600004014951011814E0B9EC24F0006E040185
:10337000B227000E0401B125026E036A040E032277
:1033800002C0E9FF03C0EAFF00C0EFFFB12BE8D79E
:10339000000E0401B125006E026A040E022204012F
:1033A000B21D036E032A00C0E9FF02C0EAFF03C09A
:1033B000EFFF0401B12BB1C4AFF40401A96B01C04C
:1033C00049F4E4CF03F0E4CF02F0E4CF01F0E4CF1E
:1033D00000F01200D9CFE5FFE1CFD9FF00C0E5FF33
:1033E00001C0E5FF02C0E5FF03C0E5FF04C0E5FF43
:1033F00005C0E5FF06C0E5FF020EDBCF00F0030EBF
:10340000DBCF01F0040EDBCF02F0050EDBCF03F0C3
:1034100003C004F0056A0350D8B453D000C0E9FFDC
:1034200001C0F3FF02505AEC26F0066E430A03E196
:10343000010E056E038E0406002A02E3014A022AE9
:103440009D9AAB9894909D989EA8FED7AC80AD6A4B
:1034500000009EA8FED7AC9003C0ADFF00009EA860
:10346000FED7055005E0420EAD6E0324056E05D073
:10347000620EAD6E620E0324056E04C003F00350AD
:1034800015E000009EA8FED700C0E9FF01C0F3FFD1
:1034900002505AEC26F0046E04C0ADFF045005261D
:1034A0000306002A02E3014A022AE9D700009EA887
:1034B000FED7051CAD6EAD2A00009EA8FED788EC95
:1034C00026F0E4CF06F0E4CF05F0E4CF04F0E4CF3B
:1034D00003F0E4CF02F0E4CF01F0E4CF00F0E4CF5A
:1034E000D9FF1200D9CFE5FFE1CFD9FF00C0E5FF3A
:1034F00001C0E5FF02C0E5FF03C0E5FF04C0E5FF32
:1035000005C0E5FF06C0E5FF07C0E5FF08C0E5FF11
:1035100009C0E5FF0AC0E5FF0BC0E5FF0CC0E5FFF1
:10352000020EDBCF00F0030EDBCF01F0040EDBCF89
:1035300002F0050EDBCF03F0060EDBCF04F0070E22
:10354000DBCF05F0080EDBCF06F0090EDBCF07F06E
:1035500002500A6E0150096E0050086E06C00BF052
:1035600007C00CF0FF0E062607220B500C101AE0C5
:1035700003C0E9FF04C0F3FF05505AEC26F00B6EC0
:10358000032A02E3044A052A0BC0E5FF08C0E9FF4D
:1035900009C0F3FF0A50DDEC26F0082ADFE3094AF0
:1035A0000A2ADCD702C0F4FF01C0F3FF0050E4CFC9
:1035B0000CF0E4CF0BF0E4CF0AF0E4CF09F0E4CF55
:1035C00008F0E4CF07F0E4CF06F0E4CF05F0E4CF55
:1035D00004F0E4CF03F0E4CF02F0E4CF01F0E4CF55
:1035E00000F0E4CFD9FF1200D9CFE5FFE1CFD9FF3A
:1035F00000C0E5FF01C0E5FF02C0E5FF03C0E5FF35
:1036000004C0E5FF05C0E5FF06C0E5FF07C0E5FF14
:10361000020EDBCF00F0030EDBCF01F0040EDBCF98
:1036200002F0050EDBCF03F049C44AF4040148510F
:1036300004014A5F4A51046E04044A6F03C004F057
:10364000056A030E0426D8B0052A4AC406F0076AA4
:103650000750800FF36E0550800FF35C02E10450B9
:10366000065C02E2E8682ED0020E035C02E2E86A21
:1036700029D003060350E56E3DEC22F0E652046AC1
:103680000350045C14E204500024056EE86A012033
:10369000066EE86A022005C0E9FF06C0F3FF5AEC97
:1036A00026F0042AE56E3DEC22F0E652E9D749C443
:1036B0004AF40401485104014A5F4A51006E000473
:1036C0004A6FE86AE4CF07F0E4CF06F0E4CF05F0F4
:1036D000E4CF04F0E4CF03F0E4CF02F0E4CF01F054
:1036E000E4CF00F0E4CFD9FF1200D9CFE5FFE1CF5E
:1036F000D9FF00C0E5FF01C0E5FF02C0E5FF03C040
:10370000E5FF04C0E5FF05C0E5FF06C0E5FF07C013
:10371000E5FF020EDBCF00F0030EDBCF01F0040E5D
:10372000DBCF02F0050EDBCF03F0D88001AED890DE
:10373000046A0436045007E0011C066E001C056E86
:10374000054A062A04D000C005F001C006F0D88062
:1037500003AED890006A0036005007E0031C076EE5
:10376000021C016E014A072A04D002C001F003C006
:1037700007F00750E56E0150E56E0650E56E055006
:10378000E56E20EC1FF0016EF3CF02F0040EE1268F
:103790000050041A04500AE0021C036E011C006E63
:1037A000004A032A03C0F3FF005003D002C0F3FF16
:1037B0000150E4CF07F0E4CF06F0E4CF05F0E4CF0A
:1037C00004F0E4CF03F0E4CF02F0E4CF01F0E4CF63
:1037D00000F0E4CFD9FF1200D9CFE5FFE1CFD9FF48
:1037E00000C0E5FF01C0E5FF02C0E5FF03C0E5FF43
:1037F00004C0E5FF05C0E5FF06C0E5FF020EDBCF14
:1038000000F0030EDBCF01F0040EDBCF02F0050E5B
:10381000DBCF03F0D88001AED890046A04360450A0
:1038200007E0011C066E001C056E054A062A04D03E
:1038300000C005F001C006F0D88003AED89007E3C1
:10384000031C016E021C006E004A012A04D002C053
:1038500000F003C001F00150E56E0050E56E065027
:10386000E56E0550E56EC3EC1EF0006EF3CF01F07F
:10387000040EE12604500AE0011C036E001C026ED7
:10388000024A032A03C0F3FF025003D001C0F3FF32
:103890000050E4CF06F0E4CF05F0E4CF04F0E4CF2D
:1038A00003F0E4CF02F0E4CF01F0E4CF00F0E4CF86
:1038B000D9FF1200D9CFE5FFE1CFD9FF00C0E5FF66
:1038C00001C0E5FF02C0E5FF03C0E5FF04C0E5FF5E
:1038D00005C0E5FF020EDBCF00F0030EDBCF01F0E9
:1038E000040EDBCF02F0050EDBCF03F0A1C404F021
:1038F000A2C405F00401A13F01D0A22B0350E56E44
:103900000450E56EADEC23F0E652E652A1C404F09B
:10391000A2C405F00401A13F01D0A22B0250056E04
:10392000E56E0450E56EADEC23F0E652E652A1C41C
:1039300004F0A2C405F00401A13F01D0A22B015064
:10394000E56E0450E56EADEC23F0E652E652A1C4FC
:1039500004F0A2C405F00401A13F01D0A22B005045
:10396000E56E0450E56EADEC23F0E652E652E4CF8E
:1039700005F0E4CF04F0E4CF03F0E4CF02F0E4CFAD
:1039800001F0E4CF00F0E4CFD9FF120000C0E5FF62
:1039900001C0E5FF02C0E5FF03C0E5FF7EA247D0FE
:1039A00004014451E56E4351E56EE56A020EE56E91
:1039B0001CEC20F0006EF3CF01F0040EE126005065
:1039C000FF08006EFF0E01560150026E036A02509E
:1039D0000F01506F016A00500F014F6F7E92D88027
:1039E0000F0137AFD8900DE3899E36CF00F037CF67
:1039F00001F00050010F366F000E0120376F898EE5
:103A000023D00F013751800F800F02E1010E365D88
:103A10001BE3899236CF00F037CF01F00050FF0F43
:103A20000F01366FFF0E0120376F89820DD0F0A88D
:103A30000BD0F0A209D0F092F098010E0401456F6E
:103A400036CF9FF437CFA0F4E4CF03F0E4CF02F0F9
:103A5000E4CF01F0E4CF00F01200D9CFE5FFE1CFD1
:103A6000D9FF00C0E5FF01C0E5FF02C0E5FF03C0CC
:103A7000E5FF04C0E5FF020EDBCF00F0030EDBCF55
:103A800001F0040EDBCF02F0E56AF46AF66AF76A29
:103A900000C0E9FF01C0F3FF025049EC26F00050DE
:103AA000040F036E000E0120046E000E0220E56A72
:103AB000F46AF66AF76A03C0E9FF04C0F3FF49EC51
:103AC00026F000500E0F036E000E0120046E000E53
:103AD0000220E56AF46AF66AF76A03C0E9FF04C0E7
:103AE000F3FF49EC26F0080E0026000E0122022208
:103AF000E56AF46AF66AF76A00C0E9FF01C0F3FFFD
:103B0000025049EC26F0E4CF04F0E4CF03F0E4CF18
:103B100002F0E4CF01F0E4CF00F0E4CFD9FF1200CF
:103B2000256420256C640A00D9CFE5FFE1CFD9FFD9
:103B300000C0E5FF01C0E5FF02C0E5FF03C0E5FFEF
:103B400004C0E5FF05C0E5FF06C0E5FF020EDBCFC0
:103B500000F0030EDBCF01F0040EDBCF02F0040116
:103B60007F5119E147EC18F0036EF3CF04F0F4CF66
:103B700005F0E9CF06F003C0E5FF04C0F4FF05C07F
:103B8000F6FF06C0F7FF00C0E9FF01C0F3FF0250D7
:103B900049EC26F01ED004017F51010A1AE100C051
:103BA000E9FF01C0F3FF025099EC24F0006EF3CF5F
:103BB00001F0F4CF02F0E9CF03F00350E56E0250BC
:103BC000E56E0150E56E0050E56E5AEC1CF0040EF7
:103BD000E126E4CF06F0E4CF05F0E4CF04F0E4CF33
:103BE00003F0E4CF02F0E4CF01F0E4CF00F0E4CF43
:103BF000D9FF1200D9CFE5FFE1CFD9FF00C0E5FF23
:103C000001C0E5FF02C0E5FF03C0E5FF04C0E5FF1A
:103C1000020EDBCF00F0030EDBCF01F0040EDBCF92
:103C200002F000500C0F036E000E0120046E000E17
:103C30000220E56E0450E56E0350E56E6CEC20F05A
:103C4000030EE1260050120F036E000E0120046ED9
:103C5000000E0220E56E0450E56E0350E56E6CEC3C
:103C600020F0030EE1260050140F036E000E012019
:103C7000046E000E0220E56E0450E56E0350E56E02
:103C80006CEC20F0030EE126080E0026000E012247
:103C900002220250E56E0150E56E0050E56E94EC94
:103CA0001DF0030EE126E4CF04F0E4CF03F0E4CFEF
:103CB00002F0E4CF01F0E4CF00F0E4CFD9FF12002E
:103CC000D9CFE5FFE1CFD9FF00C0E5FF01C0E5FF97
:103CD00002C0E5FF03C0E5FF04C0E5FF05C0E5FF46
:103CE00006C0E5FF020EDBCF00F0030EDBCF01F0D4
:103CF000040EDBCF02F0050EDBCF03F0060EDBCFA8
:103D000004F0070EDBCF05F0080EDBCF06F0D880FD
:103D100003AED89015E306500A0A12E104C0E9FF89
:103D200005C0EAFF2D0EEF6E044A052A031E021E8F
:103D3000011E006C05E1012A03E1022AD8B4032A1E
:103D40000650E56E0550E56E0450E56E0350E56ED5
:103D50000250E56E0150E56E0050E56E11EC12F078
:103D6000070EE126E4CF06F0E4CF05F0E4CF04F03F
:103D7000E4CF03F0E4CF02F0E4CF01F0E4CF00F0B1
:103D8000E4CFD9FF1200D9CFE5FFE1CFD9FF00C0C2
:103D9000E5FF01C0E5FF02C0E5FF03C0E5FF04C089
:103DA000E5FF05C0E5FF06C0E5FF020EDBCF00F032
:103DB000030EDBCF01F0040EDBCF02F0050EDBCFEC
:103DC00003F0046A056A0350800BE844066E06504F
:103DD00011E10250022603360350015C02E1025059
:103DE000005C04E2D8900332023204D0052A05C0F8
:103DF00004F0E9D70350015C02E10250005C04E3E7
:103E00000250005E0350015AD8900332023204C0BF
:103E100005F004060550EEE101C0F3FF0050E4CFC9
:103E200006F0E4CF05F0E4CF04F0E4CF03F0E4CFF4
:103E300002F0E4CF01F0E4CF00F0E4CFD9FF1200AC
:103E4000D9CFE5FFE1CFD9FF00C0E5FF01C0E5FF15
:103E500002C0E5FF03C0E5FF04C0E5FF05C0E5FFC4
:103E600006C0E5FF07C0E5FF020EDBCF00F0030E42
:103E7000DBCF01F0040EDBCF02F0050EDBCF03F049
:103E8000046A056A100E066E0150800BE844076E46
:103E90000050002601360450042605360750D8A4E9
:103EA00004800350055C02E10250045C05E302500B
:103EB000045E0350055A00800604076E07C006F032
:103EC0000750E2E101C0F3FF0050E4CF07F0E4CF78
:103ED00006F0E4CF05F0E4CF04F0E4CF03F0E4CF44
:103EE00002F0E4CF01F0E4CF00F0E4CFD9FF1200FC
:103EF000D8CFE5FFE0CFE5FFE56EF3CFE5FFF4CFE8
:103F0000E5FFE9CFE5FFEACFE5FFFACFE5FFFBCF1D
:103F1000E5FF00C0E5FF01C0E5FF040146510401D3
:103F2000876F040147510401886FD650856FD750C1
:103F3000866FF2A417D046C400F047C401F00050C9
:103F4000010F0401466F000E0120476FF2944651A5
:103F50000401876F040147510401886FD650856FB3
:103F6000D750866FC6EC1CF0E4CF01F0E4CF00F030
:103F7000E4CFFBFFE4CFFAFFE4CFEAFFE4CFE9FFB1
:103F8000E4CFF4FFE4CFF3FFE450E4CFE0FFE4CF6D
:103F9000D8FF100000C0E5FF01C0E5FF02C0E5FF4B
:103FA00003C0E5FFAEC400F0016AB9C402F0036AC1
:103FB0000250005E0350015AE56A800EE56E015022
:103FC000E56E0050E56EECEC1BF0006E040EE12691
:103FD0000006B9C401F0430E53EC23F0200E53EC5D
:103FE00023F0005020E0600E0124026E036A000EF0
:103FF000032202C0E9FF03C0EAFFEFCF02F0E56A47
:104000000250E56E000EE56E4D0EE56E280EE56E73
:1040100008EC21F0050EE126012A0150800A01E199
:10402000016A0006DED7E4CF03F0E4CF02F0E4CF6C
:1040300001F0E4CF00F01200D9CFE5FFE1CFD9FFC6
:1040400000C0E5FF01C0E5FF02C0E5FF03C0E5FFDA
:10405000020EDBCF00F0030EDBCF01F0040EDBCF4E
:1040600002F0050EDBCF03F000500401A36F0150F6
:10407000A46F02500401A56F0350A66F0401A35161
:104080000401A503F4CF01F0F3CF00F000500401C8
:10409000A76F0150A86F0401A3510401A603F3CF39
:1040A00000F00401A4510401A503F3CF01F0015075
:1040B00000260401A85100260050A86FA8C4F3FFF1
:1040C000A751E4CF03F0E4CF02F0E4CF01F0E4CF56
:1040D00000F0E4CFD9FF1200D9CFE5FFE1CFD9FF3F
:1040E00000C0E5FF01C0E5FF02C0E5FF03C0E5FF3A
:1040F00004C0E5FF020EDBCF00F0030EDBCF01F0C2
:10410000040EDBCF02F004017F5111E1EEEC22F04E
:10411000036EF3CF04F003C0E5FF04C0F4FF00C05A
:10412000E9FF01C0F3FF0250A4EC26F016D0040111
:104130007F51010A12E100C0E9FF01C0F3FF025004
:10414000D2EC25F0006EF3CF01F00150E56E005087
:10415000E56EC4EC21F0E652E652E4CF04F0E4CF81
:1041600003F0E4CF02F0E4CF01F0E4CF00F0E4CFBD
:10417000D9FF1200080EF66E4E0EF76E000EF86EA6
:104180000900F550056E0900F550066E04E105675B
:1041900002D007EF21F00900F550006E0900F5503C
:1041A000016E0900F550026E09000900F550E96E34
:1041B0000900F550EA6E090009000900F550036E88
:1041C0000900F550046E09000900F6CF07F0F7CF9B
:1041D00008F0F8CF09F000C0F6FF01C0F7FF02C0F9
:1041E000F8FF035002E1045007E00900F550EE6EBD
:1041F0000306F8E20406F9D707C0F6FF08C0F7FF88
:1042000009C0F8FF050601E20606C6EF20F012001D
:10421000D9CFE5FFE1CFD9FF00C0E5FF01C0E5FF41
:1042200002C0E5FF020ED924006E000EDA20016EF6
:10423000800E026E030E0026000E012202220250A2
:10424000E56E0150E56E0050E56E040EDBCFE5FF34
:10425000030EDBCFE5FF020EDBCFE5FF0F0135518B
:10426000E56E3451E56E3351E56ECEEC05F0006E2F
:10427000F3CF01F0090EE12601C0F3FF0050E4CFB7
:1042800002F0E4CF01F0E4CF00F0E4CFD9FF120058
:10429000D9CFE5FFE1CFD9FF00C0E5FF01C0E5FFC1
:1042A00002C0E5FF03C0E5FF020EDBCF00F0030E06
:1042B000DBCF01F0040EDBCF02F004017F510DE1F2
:1042C000A6EC25F0036E03C0E5FF00C0E9FF01C0C6
:1042D000F3FF0250DDEC26F00FD004017F51010AFC
:1042E0000BE100C0E9FF01C0F3FF02505AEC26F0D9
:1042F000E56E4EEC24F0E652E4CF03F0E4CF02F09A
:10430000E4CF01F0E4CF00F0E4CFD9FF120000C009
:10431000E5FF01C0E5FFD7EC23F0006E4C0A08E191
:10432000D7EC23F0300A02E08B8229D08B9227D081
:104330000050450A24E1000EE56E2E0EE56E3E0E9D
:10434000E56E08EC21F0030EE1261AEC27F0006E72
:1043500000C001F0000601500FE0D7EC23F0E56A41
:10436000E56E000EE56E2E0EE56E400EE56E08EC75
:1043700021F0050EE126ECD70A0E53EC23F0E4CF32
:1043800001F0E4CF00F01200D9CFE5FFE1CFD9FF73
:1043900000C0E5FF01C0E5FF02C0E5FF03C0E5FF87
:1043A000020EDBCF00F0030EDBCF01F0A1C402F060
:1043B000A2C403F00401A13F01D0A22B0150E56E7D
:1043C0000250E56EADEC23F0E652E652A1C402F0D5
:1043D000A2C403F00401A13F01D0A22B0050E56E5E
:1043E0000250E56EADEC23F0E652E652E4CF03F066
:1043F000E4CF02F0E4CF01F0E4CF00F0E4CFD9FF46
:10440000120000C0E5FF01C0E5FF02C0E5FFD7ECE8
:1044100023F0006ED7EC23F0016ED00E00260A0EBA
:10442000005C05E30050026EF90E0224006ED00E0F
:1044300001260A0E015C05E30150026EF90E02240A
:10444000016E080E005C12E2100E015CD8B00ED0B6
:104450000038F00B0124006EB4EC22F0016E015024
:1044600005E10050E56E48EC25F0E652E4CF02F09D
:10447000E4CF01F0E4CF00F01200D9CFE5FFE1CFA7
:10448000D9FF00C0E5FF01C0E5FF02C0E5FF03C0A2
:10449000E5FF04C0E5FF020EDBCF00F048C401F0E9
:1044A000026A014A022A49C403F0046A015003184F
:1044B00003E10250041801E001D00ED0000E040107
:1044C0004825016E026A010E022201C0E9FF02C006
:1044D000EAFF00C0EFFF482BE4CF04F0E4CF03F085
:1044E000E4CF02F0E4CF01F0E4CF00F0E4CFD9FF55
:1044F0001200D9CFE5FFE1CFD9FF00C0E5FF01C031
:10450000E5FF02C0E5FF03C0E5FF020EDBCF00F0D0
:10451000016AB9C402F0036A025000260350012266
:10452000E56A800EE56E0150E56E0050E56EECEC3C
:104530001BF0006EF3CF01F0040EE126600E0026A2
:10454000000E012200C0E9FF01C0EAFFEFCF00F03A
:104550000050E4CF03F0E4CF02F0E4CF01F0E4CF69
:1045600000F0E4CFD9FF120000C0E5FF01C0E5FF75
:1045700002C0E5FF010E006ED7EC23F0016E01C012
:1045800002F0015023E00050E56E7AEC26F0016E57
:10459000E652015010E10A0E005C0BE20A0E006EBA
:1045A000E56E7AEC26F0016EE652015004E1E8680F
:1045B0000ED0E8680CD00150021802E0E86807D07D
:1045C000002A1B0E005CD8E3E86801D0E86AE4CF5B
:1045D00002F0E4CF01F0E4CF00F0120000C0E5FFEC
:1045E00001C0E5FF02C0E5FF03C0E5FFA1C400F084
:1045F000A2C401F00401A13F01D0A22B0050E56E3E
:104600007AEC26F0E652036E026AA1C400F0A2C45E
:1046100001F00401A13F01D0A22B0050E56E7AEC1D
:1046200026F0E652016A02120150031203C0F3FFA2
:104630000250E4CF03F0E4CF02F0E4CF01F0E4CF86
:1046400000F012000401486B0401496B04014A693F
:1046500094808B909480B06A3F0EAF6EB886AC8A1F
:10466000AC84AC8CAC90AB8CAB8E0401B06B040111
:10467000AA6B0401AD6B0401AE6B0401AF6B000EBD
:10468000E56A7AEC26F004014C6FE6529F989F9AF7
:10469000010E04014B6F0F01336B346B2F0E356F1E
:1046A00088EC26F0120000C0E5FF01C0E5FF02C063
:1046B000E5FF006E000E04014D25016E026A0F0E2B
:1046C000022201C0E9FF02C0EAFF00C0EFFF220E94
:1046D0004D5DD8A04D2B00500A0A0EE104014D514A
:1046E000E56E800EE56E0F0EE56E000EE56EF4ECE5
:1046F0001AF0040EE1264D6BE4CF02F0E4CF01F096
:10470000E4CF00F012000401465104018C6F040153
:10471000475104018D6FD6508A6FD7508B6F8C51E3
:104720000401461905E104018D51040147190CE00B
:104730000401465104018C6F0401475104018D6F3F
:10474000D6508A6FD7508B6F8DC4E9FF8CC4F4FFAD
:104750008BC4F3FF04018A511200D9CFE5FFE1CFEA
:10476000D9FF00C0E5FF01C0E5FF020EDBCF00F07E
:10477000030EDBCF01F0F29EF29C01C0A8FF00C047
:10478000A9FFA69EA69CA684550EA76EAA0EA76E8C
:10479000A682F28EF28CA694A6A202D00000FCD7CC
:1047A000E4CF01F0E4CF00F0E4CFD9FF120000C065
:1047B000E5FF01C0E5FF0401AE510401B71905E0B2
:1047C0000401AE510401AD1902E1E86A15D0AEC48E
:1047D00000F00401AE2B016A600E0026000E0122DB
:1047E00000C0E9FF01C0EAFFEFCF00F0AE51800A40
:1047F00002E10401AE6B0050E4CF01F0E4CF00F021
:10480000120000C0E5FF14EC27F00401896B806BF7
:104810008983006A89B3002A0050010BE844F46ED2
:104820008051FD0BF410806FD58ED59CD59AD5881C
:10483000D596D594D582D580F28AF184D08EF28E29
:10484000F28CBA80FF0EBB68BA84E4CF00F012008D
:10485000D9CFE5FFE1CFD9FF00C0E5FF01C0E5FFFB
:1048600002C0E5FFF2CF02F0F29E020EDBCF00F0B5
:10487000030EDBCF01F000500F0136270150372324
:1048800037CFF3FF365102BEF28EE4CF02F0E4CF11
:1048900001F0E4CF00F0E4CFD9FF1200D9CFE5FF5B
:1048A000E1CFD9FF00C0E5FF01C0E5FF02C0E5FF91
:1048B000020EDBCF00F0A1C401F0A2C402F004019B
:1048C000A13F01D0A22B0050E56E0150E56EADEC8A
:1048D00023F0E652E652E4CF02F0E4CF01F0E4CF59
:1048E00000F0E4CFD9FF1200D8CFE5FFE0CFE5FF1D
:1048F000E56EF3CFE5FFF4CFE5FFE9CFE5FFEACFC3
:10490000E5FFFACFE5FFFBCFE5FF02EC0EF0E4CFC9
:10491000FBFFE4CFFAFFE4CFEAFFE4CFE9FFE4CF07
:10492000F4FFE4CFF3FFE450E4CFE0FFE4CFD8FF9F
:104930001000E8AE0AD0F3CFEAFFEE50EECFF3FF5F
:10494000EECFF4FFEECFE9FF1200E8BC27EF27F02F
:10495000E9CFF6FFF3CFF7FFF86E0900F550090035
:10496000F5CFF3FF0900F5CFF4FF0900F5CFE9FF1C
:10497000120000C0E5FF01C0E5FF04014851040139
:10498000491902E1E86A0FD0000E04014925006EC2
:10499000016A010E012200C0E9FF01C0EAFFEFCF6A
:1049A00000F0492B0050E4CF01F0E4CF00F01200FA
:1049B000F2CFEAFFF29EA69EA69CA684E9CFA9FFAD
:1049C000F3CFAAFFE4CFA8FFFBEC26F0F4CFA8FFBB
:1049D000FBEC26F0F6CFA8FFFBEC26F0F7CFA8FF04
:1049E000FBEC26F0A694EABEF28E1200F2CFF6FFA0
:1049F000F29EA69EA69CE9CFA9FFF3CFAAFFA680B0
:104A0000A850A94AAA2AA680A8CFF3FFA94AAA2A91
:104A1000A680A8CFF4FFA94AAA2AA680A8CFEAFFB9
:104A2000F6BEF28E1200E8AE08D0F3CFEAFFEE50E9
:104A3000EECFF3FFEECFF4FF1200E8BC2FEF27F02C
:104A4000E9CFF6FFF3CFF7FFF86E0900F550090044
:104A5000F5CFF3FF0900F5CFF4FF1200F2CFEAFF24
:104A6000F29EA69EA69CA684E9CFA9FFF3CFAAFF3B
:104A7000E4CFA8FFFBEC26F0F4CFA8FFFBEC26F078
:104A8000F6CFA8FFFBEC26F0A694EABEF28E120049
:104A9000D9CFE5FFE1CFD9FF00C0E5FF020EDBCFA4
:104AA00000F000C04CF40050E56E000EE56AADEC7D
:104AB00023F0E652E652E4CF00F0E4CFD9FF120033
:104AC000F2CFF6FFF29EA69EA69CE9CFA9FFF3CFF8
:104AD000AAFFA680A850A94AAA2AA680A8CFF3FFB9
:104AE000A94AAA2AA680A8CFF4FFF6BEF28E120029
:104AF00000C0E5FF01C0E5FF600E0401AE25006EB9
:104B0000016A000E012200C0E9FF01C0EAFFEFCFF9
:104B100000F00050E4CF01F0E4CF00F01200D9CF54
:104B2000E5FFE1CFD9FF00C0E5FF020EDBCF00F0CB
:104B3000610E005C05E37B0E005C02E2010E01D019
:104B4000E86AE4CF00F0E4CFD9FF120000C0E5FF2F
:104B500001C0E5FFA1C400F0A2C401F00401A13F1F
:104B600001D0A22B0050E56E7AEC26F0E652E4CF9D
:104B700001F0E4CF00F01200D9CFE5FFE1CFD9FF7B
:104B800000C0E5FF020EDBCF00F000C04BF4005088
:104B900004E188EC26F09D9A9D98E4CF00F0E4CFE4
:104BA000D9FF1200E8AE06D0F3CFEAFFEE50EECF09
:104BB000F3FF1200E8BC25EF27F0E9CFF6FFF3CFB3
:104BC000F7FFF86E0900F5500900F5CFF3FF12006A
:104BD000F2CFEAFFF29EA69EA69CA684E9CFA9FF8B
:104BE000F3CFAAFFE4CFA8FFFBEC26F0F4CFA8FF99
:104BF000FBEC26F0A694EABEF28E120012EEFFF055
:104C000022EEFFF0F86AA68EA69CE9680E0EEA6E08
:104C10000068000EED6A0050FDE1BAEC20F006ECF1
:104C200000F0FFD7F2CFF6FFF29EA69EA69CE9CF3A
:104C3000A9FFF3CFAAFFA680A850A94AAA2AA68056
:104C4000A8CFF3FFF6BEF28E1200E56A030EE56E02
:104C50000D0EE56E4A0EE56E000EE56E2E0EE56E4B
:104C6000440EE56E08EC21F0070EE1261200F2CFAB
:104C7000EAFFF29EA69EA69CA684E9CFA9FFF3CFE9
:104C8000AAFFE4CFA8FFFBEC26F0A694EABEF28EC2
:104C90001200E8AE0BD0F3CFEAFFE4CFEEFFF4CF83
:104CA000EEFFF6CFEEFFF7CFEEFF1200E8BC29EFE4
:104CB00027F01200E8AE04D0F3CFEAFFEE50120066
:104CC000E8BC23EF27F0E9CFF6FFF3CFF7FFF86E4C
:104CD0000900F5501200E8AE09D0F3CFEAFFE4CFA7
:104CE000EEFFF4CFEEFFF6CFEEFF1200E8BC31EF9F
:104CF00027F01200D9CFE5FFE1CFD9FF020EDBCFBD
:104D0000A9FFA69CA69EA680A850E4CFD9FF1200BA
:104D1000ACA2FED79480AE500000AE50AB98AB88EA
:104D2000AB869D8A9D98120025642000F2CFF6FF85
:104D3000F29EA69EA69CE9CFA9FFF3CFAAFFA6806C
:104D4000A850F6BEF28E1200E8AE07D0F3CFEAFF0D
:104D5000E4CFEEFFF4CFEEFF1200E8BC2DEF27F01A
:104D60001200700ED36E9B8CFF0E9268936894684D
:104D70009668626AF19E12000000000000000000C8
:104D8000000030750000000000FF00000000800EF1
:104D9000E56E040EE56E4F0EE56EFAEC1DF0030EA7
:104DA000E126120000C0E5FFB4EC22F0006E0050D6
:104DB00001E1FF00E4CF00F01200E8AE05D0F3CF30
:104DC000EAFFE4CFEEFF1200E8BC2BEF27F0120061
:104DD000010E04017F6F1C0E0401A16FA26BC7ECD2
:104DE00026F0120004017F6B1C0E0401A16FA26B60
:104DF000C7EC26F01200550EA76EAA0EA76EA6826B
:104E0000A6B2FED7A94AAA2A0100784D00003904AB
:104E100000001600000001EC24F022EC23F0120048
:104E2000ACA2FED7AD6E1200B1EC26F01200040168
:104E3000AE5112000401B851120004014B5112008E
:104E4000E8CF7FFF120096EF26F012EF26F0F6EF84
:104E500024F0D8EF24F037EF26F0E8EF25F060EFEC
:064E600025F02EEF25F005
:020000040030CA
:010006008574
:00000001FF
