:020000040000FA
:100000009DEF26F0C96E120042EF1CF0E9EC16F0ED
:1000100037EC0CF0FDD712007AEF21F0D9CFE5FFD5
:10002000E1CFD9FF00C0E5FF01C0E5FF02C0E5FF59
:1000300003C0E5FF04C0E5FF05C0E5FF06C0E5FF1E
:1000400007C0E5FF08C0E5FF09C0E5FF0AC0E5FFFE
:100050000BC0E5FF0CC0E5FF0DC0E5FF0EC0E5FFDE
:100060000FC0E5FF10C0E5FF11C0E5FF12C0E5FFBE
:1000700013C0E5FF14C0E5FF15C0E5FF16C0E5FF9E
:1000800017C0E5FF18C0E5FF19C0E5FF1AC0E5FF7E
:100090001BC0E5FF1CC0E5FF1DC0E5FF1EC0E5FF5E
:1000A0001FC0E5FF20C0E5FF21C0E5FF22C0E5FF3E
:1000B00023C0E5FF020EDBCF00F0030EDBCF01F023
:1000C000040EDBCF02F00250086E0150076E0050A4
:1000D000066EE56A160EE56E0850E56E0750E56E91
:1000E0000650E56E800EE56E040EE56E660EE56E5A
:1000F000C8EC1AF0080EE12674C403F075C404F0CD
:1001000076C405F077C406F003C007F004C008F019
:1001100005C009F006C00AF0D8800AAED8900AE3FC
:100120000A1E091E081E076C05E1082A03E1092AB8
:10013000D8B40A2A66C40BF067C40CF068C40DF08A
:1001400069C40EF004016A390F0B0F6E6B39106E23
:10015000F00B101A0F266C51E838F00B10126C39A6
:100160000F0B116E6D39126EF00B121A1126F00E74
:1001700012B612260F500B5C0F6E10500C58106EFA
:1001800011500D58116E12500E58126E6EC413F0AD
:100190006FC414F070C415F071C416F0135014102D
:1001A00015101610D8B447D00F50176E1050186E97
:1001B0001150196E12501A6E13501726145018222F
:1001C0001550192216501A22D89016301E6E15306E
:1001D0001D6E14301C6E13301B6E17261C50182217
:1001E0001D5019221E501A221650E56E1550E56E4C
:1001F0001450E56E1350E56E1A50E56E1950E56E19
:100200001850E56E1750E56E4CEC16F0136EF3CFF8
:1002100014F0F4CF15F0E9CF16F0080EE1261B50CC
:10022000135C0F6E1C501458106E1D501558116E33
:100230001E501658126E1250800F810F08E1FF0EEB
:10024000115C05E1FF0E105C02E1FD0E0F5CD8A011
:1002500052D01250800F800F08E1000E115C05E1B2
:10026000000E105C02E1040E0F5CD8B044D00A34DA
:100270000A30166E0930156E0830146E0730136E92
:100280007AC417F07BC418F0E86A04017BBFFF0E44
:10029000196E800FF36E1650800FF35C08E1155055
:1002A000195C05E11450185C02E11350175C23E35C
:1002B0000E38F00B166E0D38156E0F0B151A16262C
:1002C0000C50E8380F0B15120C38F00B146E0B386D
:1002D000136E0F0B131A1426135004016A6F145077
:1002E0006B6F15506C6F16506D6F746B756B766B12
:1002F000776BEAEF04F007380F0B0B6E08380C6EC3
:10030000F00B0C1A0B260C320B320950E838E8407F
:10031000F80B0C12F00E0716073A083A0814081AE0
:1003200007260950E838F00B0812E86A0CBEFF0EE9
:10033000096E0A6EE86A08BEFF0E0D6EE56E0D507E
:10034000E56E0850E56E0750E56E0A50E56E0950FF
:10035000E56E0C50E56E0B50E56E77EC10F0076E15
:10036000F3CF08F0F4CF09F0E9CF0AF0080EE12648
:100370007AC40BF07BC40CF0E86A04017BBFFF0E6B
:100380000D6E0E6EE56E0D50E56E0C50E56E0B5069
:10039000E56E0A50E56E0950E56E0850E56E0750AF
:1003A000E56E15EC14F0076EF3CF08F0080EE126A9
:1003B00072C409F073C40AF0E86A040173BFFF0E47
:1003C000136E146E1438F00B186E1338176E0F0B73
:1003D000171A18260A50E8380F0B17120A38F00BB4
:1003E000166E0938156E0F0B151A1626D88006AE34
:1003F000D890D8B057D107C009F008C00AF0E86A11
:1004000008BEFF0E136E800FF36E1250800FF35C68
:1004100008E11150135C05E110500A5C02E10F5035
:10042000095CD8B017D10650800FF36E1850800FBA
:10043000F35C08E11750055C05E11650045C02E12D
:100440001550035CD8B0DFD078C409F079C40AF045
:10045000E86A040179BFFF0E136E146E035009267B
:1004600004500A2205501322065014220950040198
:10047000746F0A50756F1350766F1450776F7AC48B
:1004800009F07BC40AF078C413F079C414F00A5060
:10049000800FF36E1450800FF35C02E11350095C7F
:1004A000D8B095D074C419F075C41AF076C41BF096
:1004B00077C41CF019380F0B1D6E1A381E6EF00B26
:1004C0001E1A1D261E321D321B50E838E840F80B5C
:1004D0001E1219380F0B1F6E1A38206EF00B201ADF
:1004E0001F261B50E838F00B2012E86A1EBEFF0ED4
:1004F000216E226EE86A20BEFF0E236EE56E235049
:10050000E56E2050E56E1F50E56E2250E56E2150DD
:10051000E56E1E50E56E1D50E56E77EC10F01D6E19
:10052000F3CF1EF0F4CF1FF0E9CF20F0080EE12644
:1005300009C021F00AC022F0E86A0ABEFF0E236E4D
:10054000E56E2350E56E2250E56E2150E56E205099
:10055000E56E1F50E56E1E50E56E1D50E56E15EC04
:1005600014F01D6EF3CF1EF0080EE126E86A1EBEE1
:10057000FF0E1F6E206E1250800FF36E2050800F02
:10058000F35C08E11F50115C05E11E50105C02E1B4
:100590001D500F5C1CE20950135C096E0A50145880
:1005A0000A6EE86A0ABEFF0E136E146E0950195ED9
:1005B0000A501A5A13501B5A14501C5A195004014D
:1005C000746F1A50756F1B50766F1C50776F1850F0
:1005D000800FF36E04017751800FF35C08E17651D0
:1005E000175C05E17551165C02E17451155CD8B0D9
:1005F000C9D115500401746F1650756F1750766F7E
:100600001850776FBFD11850800FF36E0650800FCF
:10061000F35C08E10550175C05E10450165C02E14B
:100620000350155CD8B0AED10B50035C096E0C5072
:1006300004580A6E0D500558136E0E500658146E6D
:1006400009500401746F0A50756F1350766F14507F
:10065000776F98D178C409F079C40AF0E86A040188
:1006600079BFFF0E136E146E0B5009260C500A2230
:100670000D5013220E5014220950035C096E0A50CB
:1006800004580A6E13500558136E14500658146E11
:1006900009500401746F0A50756F1350766F14502F
:1006A000776F70D1081E076CD8B4082AE86A08BEB4
:1006B000FF0E096E0A6E1250800FF36E0A50800F03
:1006C000F35C08E10950115C05E10850105C02E19F
:1006D00007500F5CD8B033D1181C0A6E171C096E76
:1006E000161C086E151C076E072A04E1082A02E191
:1006F000094A0A2A0A50800FF36E0650800FF35CF5
:1007000008E10550095C05E10450085C02E1035072
:10071000075CD8B0EDD078C413F079C414F0E86A5F
:10072000040179BFFF0E156E166E1350035C136E35
:1007300014500458146E15500558156E165006586E
:10074000166E13500401746F1450756F1550766F48
:100750001650776F7AC413F07BC414F078C415F088
:1007600079C416F01450800FF36E1650800FF35CAE
:1007700002E11550135CD8B09FD074C417F075C453
:1007800018F076C419F077C41AF017380F0B1B6EE7
:1007900018381C6EF00B1C1A1B261C321B32195009
:1007A000E838E840F80B1C121C1E1B6CD8B41C2A3D
:1007B00017380F0B1D6E18381E6EF00B1E1A1D26F3
:1007C0001950E838F00B1E121E1E1D6CD8B41E2ADC
:1007D000E86A1CBEFF0E1F6E206EE86A1EBEFF0E8A
:1007E000216EE56E2150E56E1E50E56E1D50E56EE2
:1007F0002050E56E1F50E56E1C50E56E1B50E56EF7
:1008000077EC10F01B6EF3CF1CF0F4CF1DF0E9CFA6
:100810001EF0080EE12613C01FF014C020F0E86A95
:1008200014BEFF0E216EE56E2150E56E2050E56E80
:100830001F50E56E1E50E56E1D50E56E1C50E56EB6
:100840001B50E56E15EC14F01B6EF3CF1CF0080E78
:10085000E1261C1E1B6CD8B41C2AE86A1CBEFF0EC5
:100860001D6E800FF36E1250800FF35C08E1115083
:100870001D5C05E110501C5C02E10F501B5C1CE28A
:100880001350155C136E14501658146EE86A14BE9B
:10089000FF0E0F6E106E13501726145018220F50B3
:1008A000192210501A2217500401746F1850756FD6
:1008B0001950766F1A50776F04017751800FF36EDD
:1008C0000A50800FF35C08E10950765D05E108509D
:1008D000755D02E10750745DD8B054D00750040133
:1008E000746F0850756F0950766F0A50776F4AD051
:1008F0000650800FF36E0A50800FF35C08E1095038
:10090000055C05E10850045C02E10750035CD8B0C7
:1009100039D00B500324076E0C500420086E0D5084
:100920000520096E0E5006200A6E07500401746FF0
:100930000850756F0950766F0A50776F23D078C4CE
:1009400007F079C408F0E86A040179BFFF0E096E68
:100950000A6E07500B2608500C2209500D220A502F
:100960000E220B5003260C5004220D5005220E506F
:10097000062203500401746F0450756F0550766FA2
:100980000650776F040174390F0B036E7539046ECE
:10099000F00B041A03267651E838F00B041276396E
:1009A0000F0B056E7739066EF00B061A0526F00E52
:1009B00006B606266A5103266B5104226C510522A5
:1009C0006D51062203506A6F04506B6F05506C6FB7
:1009D00006506D6F6EC403F06FC404F070C405F070
:1009E00071C406F00350041005100610D8B478D076
:1009F000D88004016DAFD8902DE30638F00B0A6E55
:100A00000538096E0F0B091A0A260450E8380F0B37
:100A100009120438F00B086E0338076E0F0B071A23
:100A200008266A510B6E6B510C6E6C510D6E6D5138
:100A30000E6E0B5007260C5008220D5009220E5046
:100A40000A2207506A6F08506B6F09506C6F0A508A
:100A50006D6F46D00638F00B0A6E0538096E0F0B25
:100A6000091A0A260450E8380F0B09120438F00B53
:100A7000086E0338076E0F0B071A082604016A5127
:100A8000036E6B51046E6C51056E6D51066E0A500B
:100A9000065C08E10950055C05E10850045C02E1D0
:100AA0000750035C1DE304016A51036E6B51046E31
:100AB0006C51056E6D51066E0750035C076E085051
:100AC0000458086E09500558096E0A5006580A6EF7
:100AD00007506A6F08506B6F09506C6F0A506D6F4A
:100AE000E56A160EE56E800EE56E040EE56E660E86
:100AF000E56E0250E56E0150E56E0050E56EC8EC03
:100B00001AF0080EE126E4CF23F0E4CF22F0E4CF80
:100B100021F0E4CF20F0E4CF1FF0E4CF1EF0E4CFCB
:100B20001DF0E4CF1CF0E4CF1BF0E4CF1AF0E4CFCB
:100B300019F0E4CF18F0E4CF17F0E4CF16F0E4CFCB
:100B400015F0E4CF14F0E4CF13F0E4CF12F0E4CFCB
:100B500011F0E4CF10F0E4CF0FF0E4CF0EF0E4CFCB
:100B60000DF0E4CF0CF0E4CF0BF0E4CF0AF0E4CFCB
:100B700009F0E4CF08F0E4CF07F0E4CF06F0E4CFCB
:100B800005F0E4CF04F0E4CF03F0E4CF02F0E4CFCB
:100B900001F0E4CF00F0E4CFD9FF1200D9CFE5FF98
:100BA000E1CFD9FF00C0E5FF01C0E5FF02C0E5FFCE
:100BB00003C0E5FF04C0E5FF05C0E5FF06C0E5FF93
:100BC00007C0E5FF08C0E5FF09C0E5FF0AC0E5FF73
:100BD0000BC0E5FF0CC0E5FF0DC0E5FF0EC0E5FF53
:100BE0000FC0E5FF10C0E5FF11C0E5FF12C0E5FF33
:100BF00013C0E5FF14C0E5FF15C0E5FF16C0E5FF13
:100C000017C0E5FF18C0E5FF19C0E5FF1AC0E5FFF2
:100C10001BC0E5FF1CC0E5FF1DC0E5FF1EC0E5FFD2
:100C2000020EDBCF00F0030EDBCF01F0040EDBCFB2
:100C300002F0050EDBCF03F0060EDBCF04F0070E4B
:100C4000DBCF05F0080EDBCF06F0090EDBCF07F097
:100C50000A0EDBCF08F0096A0A6A02C00DF00D50D7
:100C6000800A0DE102500401986F0150976F005007
:100C7000966F040E016E960E006E800E026E03C01B
:100C8000E9FF04C0F3FF0550F9EC26F00B6E0B50A2
:100C9000D8B484EF09F00B50250A02E06BEF09F09D
:100CA0000C6A0D6A0E6A0F6A106A0A0E116E126AD9
:100CB000136A146A200E156E1668176A2B0E186ECA
:100CC000032A02E3044A052A03C0E9FF04C0F3FF34
:100CD0000550F9EC26F0196E250A13E11950E56E5E
:100CE0000250E56E0150E56E0050E56E2AEC19F0F9
:100CF000040EE126094A0A2A032A02E3044A052AC5
:100D0000BED71950300A06E1300E156E032A02E3F1
:100D1000044A052A03C0E9FF04C0F3FF0550F9ECBB
:100D200026F02D0A06E1010E146E032A02E3044A9E
:100D3000052A03C0E9FF04C0F3FF0550F9EC26F0D3
:100D4000200A08E1010E176E200E186E032A02E336
:100D5000044A052A03C0E9FF04C0F3FF0550F9EC7B
:100D600026F02B0A06E1010E176E032A02E3044A5D
:100D7000052A03C0E9FF04C0F3FF0550F9EC26F093
:100D8000196E310E195C2BE33A0E195C28E203C090
:100D900019F004C01AF005C01BF019C0E9FF1AC011
:100DA000F3FF1B50F9EC26F01C6E300E1C5C11E3B7
:100DB0003A0E1C5C0EE213500A0DF3CF1DF01C50CE
:100DC0001D26D00E1D24136E192A02E31A4A1B2A6F
:100DD000E4D719C003F01AC004F01BC005F003C02B
:100DE000E9FF04C0F3FF0550F9EC26F02E0A2DE1CF
:100DF000032A02E3044A052A166A03C019F004C054
:100E00001AF005C01BF019C0E9FF1AC0F3FF1B5010
:100E1000F9EC26F01C6E300E1C5C11E33A0E1C5CE3
:100E20000EE216500A0DF3CF1DF01C501D26D00EF9
:100E30001D24166E192A02E31A4A1B2AE4D719C088
:100E400003F01AC004F01BC005F003C0E9FF04C0A2
:100E5000F3FF0550F9EC26F0196E6C0A07E1010E5C
:100E60000C6E032A02E3044A052A09D01950680AC5
:100E700006E1010E0E6E032A02E3044A052A03C0AE
:100E8000E9FF04C0F3FF0550F9EC26F0750A06E10E
:100E9000010E106E032A02E3044A052A03C0E9FF8B
:100EA00004C0F3FF0550F9EC26F0196E730A05E152
:100EB000010E0D6E200E156E3FD01950780A03E119
:100EC000100E116E39D01950580A05E1100E116E2E
:100ED000010E126E31D01950630A02E1116A2CD052
:100EE00019506F0A03E1080E116E26D01950660AD8
:100EF00003E1010E0F6E20D01950640A1DE0195055
:100F0000690A1AE0105005E0FF0E032604220522AC
:100F100013D01950E56E0250E56E0150E56E005099
:100F2000E56E2AEC19F0040EE126094A0A2A032A82
:100F300002E3044A052AA3D60D5021E00650030F10
:100F40000D6E000E0720196E000E08201A6E0DC0DF
:100F500006F019C007F01AC008F0FD0E0D26FF0EAE
:100F600019221A220DC0E9FF19C0F3FF1A509BEC99
:100F700025F00D6EF3CF19F0F4CF1AF0FDD00F501D
:100F80000DE0000E1A6E130E196E900E0D6E040E0B
:100F90000626000E072208221668EED016680C50AE
:100FA00023E00650040F0C6E000E07200F6E000E9B
:100FB00008201B6E0CC006F00FC007F01BC008F025
:100FC000FC0E0C26FF0E0F221B220CC0E9FF0FC0E7
:100FD000F3FF1B5021EC25F00C6EF3CF0FF0F4CF94
:100FE0001BF0E9CF1CF067D00E502FE00650020F27
:100FF0000E6E000E07201D6E000E08201E6E0EC025
:1010000006F01DC007F01EC008F0FE0E0E26FF0EF3
:101010001D221E220EC0E9FF1DC0F3FF1E5071EC01
:1010200026F00E6E0EC00CF00F6A1B6A1C6A11507F
:101030000A0A03E11050D8B43ED00C500E6E0EC018
:101040000CF00F6A1B6A1C6A36D00650020F0E6E37
:10105000000E07201D6E000E08201E6E0EC006F04A
:101060001DC007F01EC008F0FE0E0E26FF0E1D224A
:101070001E220EC0E9FF1DC0F3FF1E5071EC26F0CA
:101080000E6EF3CF1DF00EC00CF01DC00FF0E86A1D
:101090001DBEFF0E1B6E1C6E11500A0A02E110509D
:1010A0000AE00C500E6E0F501D6E0EC00CF01DC0ED
:1010B0000FF01B6A1C6A040E196E240E0D6E800E52
:1010C0001A6E1150D8B440D0105013E01150E56E94
:1010D000040EE56E240EE56E1C50E56E1B50E56EA9
:1010E0000F50E56E0C50E56E67EC12F0070EE1262E
:1010F00012D01150E56E040EE56E240EE56E1C5004
:10110000E56E1B50E56E0F50E56E0C50E56E24EC5D
:101110001FF0070EE12617502FE00DC0E9FF19C0A0
:10112000F3FF1A50F9EC26F02D0A26E0FF0E0D26EB
:1011300019221A2218C0E5FF0DC0E9FF19C0F3FFFC
:101140001A507DEC27F018D00CC0E5FF0DC0E9FF68
:1011500019C0F3FF1A507DEC27F00D50010F0C6EF3
:10116000000E19200E6E000E1A20E56A0CC0E9FF71
:101170000EC0F3FF7DEC27F00DC00CF019C00EF08F
:101180001AC00FF013C010F0105010E00CC0E9FFAF
:101190000EC0F3FF0F50F9EC26F0176E175006E063
:1011A0000C2A02E30E4A0F2A1006EED710C013F0E5
:1011B00014501EE109C00CF00AC00EF010C00FF070
:1011C0000F5010E01550E56E0250E56E0150E56ECF
:1011D0000050E56E2AEC19F0040EE1260C4A0E2AA6
:1011E0000F06EED70CC009F00EC00AF00FC013F0C6
:1011F00016C00CF00DC00DF019C00EF01AC00FF0A3
:1012000009C010F00AC015F00DC0E9FF0EC0F3FFD1
:101210000F50F9EC26F0166E1650D8B43ED00CC024
:1012200016F0176A161E171E1650171005E00CC090
:1012300016F00C06165031E00DC0E9FF0EC0F3FFAA
:101240000F50F9EC26F0116E125010E01150E56EBF
:101250002EEC26F0166EE652165004E0DF0E111446
:10126000166E02D011C016F016C011F01150E56EC6
:101270000250E56E0150E56E0050E56E2AEC19F063
:10128000040EE1260D2A02E30E4A0F2A104A152AFF
:101290001350D8B4B9D71306B7D710C009F015C08A
:1012A0000AF014502BE010C00CF015C00DF013C064
:1012B0000EF00E501FE0200EE56E0250E56E01505C
:1012C000E56E0050E56E2AEC19F0040EE1260C4A9A
:1012D0000D2A0E06EED70B50E56E0250E56E01505A
:1012E000E56E0050E56E2AEC19F0040EE126094A7D
:1012F0000A2A04D00CC009F00DC00AF0032A02E348
:10130000044A052A3FEF06F00AC0F3FF0950E4CF74
:101310001EF0E4CF1DF0E4CF1CF0E4CF1BF0E4CFCF
:101320001AF0E4CF19F0E4CF18F0E4CF17F0E4CFCF
:1013300016F0E4CF15F0E4CF14F0E4CF13F0E4CFCF
:1013400012F0E4CF11F0E4CF10F0E4CF0FF0E4CFCF
:101350000EF0E4CF0DF0E4CF0CF0E4CF0BF0E4CFCF
:101360000AF0E4CF09F0E4CF08F0E4CF07F0E4CFCF
:1013700006F0E4CF05F0E4CF04F0E4CF03F0E4CFCF
:1013800002F0E4CF01F0E4CF00F0E4CFD9FF120087
:101390003C4E4F20464C4F41543E0000D9CFE5FF14
:1013A000E1CFD9FF00C0E5FF01C0E5FF02C0E5FFC6
:1013B00003C0E5FF04C0E5FF05C0E5FF06C0E5FF8B
:1013C00007C0E5FF08C0E5FF09C0E5FF0AC0E5FF6B
:1013D0000BC0E5FF0CC0E5FF020EDBCF00F0030EF3
:1013E000DBCF01F0040EDBCF02F0036A046A056A6A
:1013F000066A60EC24F0076EFE0A01E0D3D03CECF4
:1014000020F060EC24F0086E085014E00850010A47
:101410002CE00850020A01E143D008500A0A01E119
:101420005AD008500B0A01E165D008500D0A01E1BD
:101430008ED0A2D000500C0F096E000E01200A6E53
:10144000000E022009C0E9FF0AC0F3FF71EC26F08C
:10145000096EF3CF0AF009C003F00AC004F0E86A8D
:101460000ABEFF0E056E066E87D00050120F096E81
:10147000000E01200A6E000E022009C0E9FF0AC01A
:10148000F3FF71EC26F0096EF3CF0AF009C003F008
:101490000AC004F0E86A0ABEFF0E056E066E6CD044
:1014A0000050140F096E000E01200A6E000E02207B
:1014B00009C0E9FF0AC0F3FF71EC26F0096EF3CF13
:1014C0000AF009C003F00AC004F0E86A0ABEFF0E81
:1014D000056E066E51D000C0E9FF01C0F3FF025057
:1014E00021EC25F0036EF3CF04F0F4CF05F0E9CF43
:1014F00006F042D00050040F096E000E01200A6E63
:10150000000E022009C0E9FF0AC0F3FF21EC25F01C
:10151000096EF3CF0AF0F4CF0BF0E9CF0CF00938E5
:101520000F0B036E0A38046EF00B041A03260B50DF
:10153000E838F00B04120B380F0B056E0C38066EF2
:10154000F00B061A0526F00E06B6062615D000503A
:10155000080F096E000E01200A6E000E022009C05D
:10156000E9FF0AC0F3FF21EC25F0036EF3CF04F08E
:10157000F4CF05F0E9CF06F00650E56E0550E56EB4
:101580000450E56E0350E56EE56A0850E56E000E06
:10159000E56E3C0EE56EA80EE56EBBEC21F0090E83
:1015A000E12648D1075018E00750010A34E00750FF
:1015B000020A01E14FD007500A0A01E16AD0075040
:1015C0000B0A01E19AD007500C0A01E1CAD007507A
:1015D0000D0A01E1FAD02ED100500C0F036E000E5F
:1015E0000120046E000E0220056E60EC24F0066AF5
:1015F000076E60EC24F0096A06260950072206C02F
:10160000E5FF07C0F4FF03C0E9FF04C0F3FF055086
:1016100043EC27F00FD10050120F036E000E012093
:10162000046E000E0220056E60EC24F0066A076E60
:1016300060EC24F0096A06260950072206C0E5FF7F
:1016400007C0F4FF03C0E9FF04C0F3FF055043ECFB
:1016500027F0F0D00050140F036E000E0120046E2E
:10166000000E0220056E60EC24F0066A076E60EC46
:1016700024F0096A06260950072206C0E5FF07C0C4
:10168000F4FF03C0E9FF04C0F3FF055043EC27F06B
:10169000D1D060EC24F0066E056A60EC24F0046A98
:1016A00005260450062206500A6E0550096E076A88
:1016B000086A60EC24F0066E046A60EC24F0036AA9
:1016C0000426035006220450071206500812035045
:1016D00009120A120A50E56E0950E56E0850E56ECF
:1016E0000750E56E0250E56E0150E56E0050E56E64
:1016F000A2EC15F0070EE1269DD060EC24F0066EFA
:10170000056A60EC24F0046A05260450062206509F
:101710000A6E0550096E076A086A60EC24F0066ECE
:10172000046A60EC24F0036A042603500622045085
:10173000071206500812035009120A120A50E56EE9
:101740000950E56E0850E56E0750E56E0250E56EF3
:101750000150E56E0050E56E81EC11F0070EE126B8
:1017600069D060EC24F0066E056A60EC24F0046A2F
:1017700005260450062206500A6E0550096E076AB7
:10178000086A60EC24F0066E046A60EC24F0036AD8
:101790000426035006220450071206500812035074
:1017A00009120A120A50E56E0950E56E0850E56EFE
:1017B0000750E56E0250E56E0150E56E0050E56E93
:1017C00043EC13F0070EE12635D060EC24F0066EF2
:1017D000056A60EC24F0046A0526045006220650CF
:1017E0000A6E0550096E076A086A60EC24F0066EFE
:1017F000046A60EC24F0036A0426035006220450B5
:10180000071206500812035009120A12080E002689
:10181000000E0122022207C0E5FF08C0F4FF09C044
:10182000F6FF0AC0F7FF00C0E9FF01C0F3FF025056
:10183000E8EC26F0E4CF0CF0E4CF0BF0E4CF0AF0B4
:10184000E4CF09F0E4CF08F0E4CF07F0E4CF06F0EE
:10185000E4CF05F0E4CF04F0E4CF03F0E4CF02F0EE
:10186000E4CF01F0E4CF00F0E4CFD9FF120000C0D4
:10187000E5FF01C0E5FF02C0E5FF03C0E5FF04C0CE
:10188000E5FF05C0E5FF06C0E5FF07C0E5FF08C0AE
:10189000E5FF09C0E5FF0AC0E5FF0BC0E5FF7DECF1
:1018A00017F036EC24F0006EF3CF01F0F4CF02F025
:1018B000E9CF03F004013451005E3551015A36512D
:1018C000025A3751035A039E3F0E035C08E1FF0E94
:1018D000025C05E1FF0E015C02E1FF0E005CD8B086
:1018E000BED136EC24F0F3CF01F0F4CF02F0E9CF13
:1018F00003F0100F0401346F270E0120356F000E26
:101900000220366F000E0320376F040199519A119F
:101910001FE0040E016E500E006E800E026E99C420
:1019200003F09AC404F0E86A9ABFFF0E056EE56EF4
:101930000550E56E0450E56E0350E56E0250E56E0D
:101940000150E56E0050E56EE4EC14F0070EE12660
:1019500004014551010A0DE181A40BD0020E0401DE
:10196000456FBA0E0401996F9A69F0920401466BB3
:10197000F08804014651D8B460D0466B9FC400F093
:10198000A0C401F0E86A0401A0BFFF0E026E036E5E
:10199000005004013B5D006E01503C59016E025045
:1019A0003D59026E03503E59036E0401A051E56E8D
:1019B0009F51E56E0350E56E0250E56E0150E56EF5
:1019C0000050E56E000EE56E2E0EE56ED20EE56E51
:1019D000BBEC21F0090EE1260401996B9A6B030E12
:1019E0000401456F0401A01D016E9F1D006E004A99
:1019F000012A0150E56E0050E56EB1EC24F0E6528C
:101A0000E6520CC0E5FFF2CF0CF0F29E300E04015E
:101A1000436F750E446F0CBEF28EE4CF0CF0E56A96
:101A2000E56AE56AE56A800EE56E040EE56E500E25
:101A3000E56E81EC11F0070EE126800EE56E040ED6
:101A4000E56E500EE56E0EEC00F0030EE1263BC491
:101A50003FF43CC440F43DC441F43EC442F40401AC
:101A600054390F0B04013B6F0401553904013C6FDD
:101A7000F00B3C1B3B2704015651E838F00B0401E6
:101A80003C13040156390F0B04013D6F0401573913
:101A900004013E6FF00B3E1B3D27F00E3EB73E2784
:101AA00004013F5104013B5D0401816F0401405179
:101AB00004013C590401826F0401415104013D5964
:101AC0000401836F0401425104013E590401846FF3
:101AD00058C400F059C401F05AC402F05BC403F0CA
:101AE0000050011002100310D8B448D08151046E88
:101AF0008251056E8351066E8451076E0050042694
:101B0000015005220250062203500722D8900330CC
:101B10000B6E02300A6E0130096E0030086E04262A
:101B2000095005220A5006220B5007220350E56E89
:101B30000250E56E0150E56E0050E56E0750E56E0F
:101B40000650E56E0550E56E0450E56E4CEC16F05F
:101B5000006EF3CF01F0F4CF02F0E9CF03F0080EEE
:101B6000E1260850005C0401816F09500158826F22
:101B70000A500258836F0B500358846F040181513F
:101B8000006E8251E56E0050E56EB1EC24F0040168
:101B90009B6FF3CF9CF4E652E6520401A9511FE07B
:101BA000006A81B4002A005003E1006A002A01D0D3
:101BB000006AE56A0050E56E04013E51E56E3D5154
:101BC000E56E3C51E56E3B51E56E000EE56E2E0E66
:101BD000E56EDE0EE56EBBEC21F0090EE126040198
:101BE0009B519C11D8B43BD0D8809CAFD89007E3D0
:101BF0009C1D016E9B1D006E004A012A04D09BC4EF
:101C000000F09CC401F000C09BF401C09CF40401EE
:101C10009C51E56E9B51E56E750EE56E300EE56EDE
:101C2000CBEC1BF004019D6FF3CF9EF4040EE12674
:101C3000000E9E5D02E11E0E9D5D04E21E0E04017B
:101C40009D6F9E6B0CC0E5FFF2CF0CF0F29E9DC421
:101C500043F49EC444F40CBEF28EE4CF0CF0E4CF07
:101C60000BF0E4CF0AF0E4CF09F0E4CF08F0E4CFC2
:101C700007F0E4CF06F0E4CF05F0E4CF04F0E4CFC2
:101C800003F0E4CF02F0E4CF01F0E4CF00F0120063
:101C900000C0E5FF01C0E5FF02C0E5FF03C0E5FFAE
:101CA00004014C51D8B40CD19DA81DD09EA81BD0C6
:101CB0000401B3510401B11905E127EC27F0040137
:101CC000B16BFED0000E0401B325006E016A040E54
:101CD000012200C0E9FF01C0EAFFEFCFADF4B32B52
:101CE000ADC4ADFFEDD09DAAEBD09EAAE9D0ABA2CA
:101CF00005D00401B28127EC27F0E2D0ABA405D0D7
:101D00000401B28327EC27F0DBD0ABA048D0AECFE4
:101D1000ADF44DC400F0016A008EADC402F0036A58
:101D20000250001803E10350011801E004D004013F
:101D3000B289AB96C5D00401AD5104E0AD510401A8
:101D40004D1929E10401B299AB960401AD5103E0AC
:101D50000401B29702D00401B287ADC4B6F4AFC497
:101D6000B7F40401AF51006E00040401B86F600EB7
:101D70000401B725006E016A000E012200C0E9FFD0
:101D800001C0EAFFADC4EFFFB72BB751800A02E1F3
:101D90000401B76B95D00401B299AB8691D0AECF58
:101DA000ADF40401B2A921D04DC400F0016A008E47
:101DB000ADC402F0036A0250001803E10350011899
:101DC00001E011D09D9AAB9894900401B15104E1C7
:101DD000AD6A27EC27F007D000C4ADFF010E040167
:101DE000B36F9D886DD0AB866BD00401AD510401FB
:101DF000B6270401B7510401B8191BE10401B6511B
:101E00000CE1B7C4AFF40401B2B712D09D9AAB98FD
:101E10009490AD6A27EC27F00BD00401B285B2B7DD
:101E200007D09D9AAB989490010EAD6E27EC27F0E9
:101E300047D00401B7510401B01908E10401B051C1
:101E40000401AF1903E027EC27F03AD0AFC400F04B
:101E5000016A004A012AE56A800EE56E0150E56ECE
:101E60000050E56EB0EC1CF0006E040EE126005050
:101E70000401AE6F0401B7190FE1ADC400F01F0EED
:101E800000140401B86F006E020E0024B86F040144
:101E9000AF510401B827B89FB7C400F00401B72BB5
:101EA000016A600E0026000E012200C0E9FF01C099
:101EB000EAFFADC4EFFFB751800A02E10401B76B3E
:101EC000E4CF03F0E4CF02F0E4CF01F0E4CF00F080
:101ED000120000C0E5FF01C0E5FF02C0E5FF03C03E
:101EE000E5FF04C0E5FF05C0E5FF06C0E5FF07C04C
:101EF000E5FF60EC24F0006E010A31E00050020AB8
:101F000001E18BD000500A0A01E195D000500B0A84
:101F100001E19AD000500C0A01E19FD000500D0A57
:101F200001E1A4D00050320A01E1A9D00050640AB6
:101F300001E1B0D00050650A01E1B2D00050660A5C
:101F400001E1B1D00050670A01E1B2D00050680A47
:101F500001E1B1D00050FF0A01E1B2D0B7D060EC8E
:101F600024F0036E026A60EC24F0016A022601503C
:101F700003220350076E0250066E046A056A60EC85
:101F800024F0036E016A60EC24F0006A0126005020
:101F900003220150041203500512005006120712CA
:101FA00008C0E5FFF2CF08F0F29E0F01366B376BE9
:101FB00004C03BF405C03CF406C03DF407C03EF449
:101FC00004C03FF405C040F406C041F407C042F429
:101FD00008BEF28EE4CF08F008C0E5FFF2CF08F0AB
:101FE000F29E300E0401436F750E446F08BEF28EF0
:101FF000E4CF08F00750E56E0650E56E0550E56E3B
:102000000450E56E800EE56E040EE56E500EE56E32
:1020100081EC11F0070EE12659D060EC24F0006A43
:10202000016E60EC24F0036A00240401996F0350F0
:1020300001209A6F4BD060EC24F0006E005002E05B
:10204000898444D0899442D060EC24F0006E005022
:1020500002E089883BD0899839D060EC24F0006E8A
:10206000005002E0898C32D0899C30D060EC24F0A2
:10207000006E005002E0898A29D0899A27D0800E0C
:10208000E56E040EE56E500EE56ECEEC09F0030E23
:10209000E1261CD004017C6B7D6B7E6B7F6B16D0C0
:1020A000C4EC26F013D0F092F0880401466B0ED0F9
:1020B00000EC26F00BD060EC24F00401A96F06D0F0
:1020C00060EC24F0FF0A02E188EC27F0E4CF07F08F
:1020D000E4CF06F0E4CF05F0E4CF04F0E4CF03F062
:1020E000E4CF02F0E4CF01F0E4CF00F01200D9CF4A
:1020F000E5FFE1CFD9FF00C0E5FF01C0E5FF02C069
:10210000E5FF03C0E5FF04C0E5FF05C0E5FF06C02D
:10211000E5FF07C0E5FF020EDBCF00F0030EDBCFCB
:1021200001F0040EDBCF02F0050EDBCF03F0060E4C
:10213000DBCF04F0070EDBCF05F0080EDBCF06F097
:10214000090EDBCF07F0005004018E6F01508F6F36
:102150000250906F0350916F04500F01236F055090
:10216000246F0650256F0750266F04018E510F0112
:102170002503F4CF01F0F3CF00F000500F01296FD9
:1021800001502A6F04018E510F012303F4CF01F097
:10219000F3CF00F000500F01276F0150286F0401AA
:1021A00091510F012303F3CF00F00F012A510026B4
:1021B00000502A6F040190510F012403F3CF01F066
:1021C0000150002600500F012A6F040190510F01A9
:1021D0002303F4CF01F0F3CF00F00F0129510026C3
:1021E0002A5101220050296F01502A6F04018F519A
:1021F0000F012403F4CF03F0F3CF02F002500026C6
:102200000350012200500F01296F01502A6F040171
:102210008F510F012503F3CF00F000500F012E6FF7
:1022200004018F510F012303F4CF01F0F3CF00F02D
:1022300000500F012C6F01502D6F04018E510F01C2
:102240002603F3CF00F000500F01326F04018E51CE
:102250000F012403F4CF01F0F3CF00F000500F0181
:10226000306F0150316F0F012B6B0F012F6B0F017E
:102270002B510F012725006E0F012C510F01282132
:10228000016E0F012D510F012921026E0F012E51F8
:102290000F012A21036E0050276F0150286F025052
:1022A000296F03502A6F0F012F510F012725006E50
:1022B0000F0130510F012821016E0F0131510F0123
:1022C0002921026E0F0132510F012A21036E03C032
:1022D000E9FF02C0F4FF01C0F3FF0050E4CF07F0B4
:1022E000E4CF06F0E4CF05F0E4CF04F0E4CF03F050
:1022F000E4CF02F0E4CF01F0E4CF00F0E4CFD9FF67
:102300001200D9CFE5FFE1CFD9FF00C0E5FF01C042
:10231000E5FF02C0E5FF03C0E5FF04C0E5FF05C01F
:10232000E5FF06C0E5FF07C0E5FF08C0E5FF09C0FF
:10233000E5FF0AC0E5FF0BC0E5FF0CC0E5FF0DC0DF
:10234000E5FF0EC0E5FF020EDBCF00F0030EDBCF92
:1023500001F0040EDBCF02F0050EDBCF03F0060E1A
:10236000DBCF04F0070EDBCF05F0080EDBCF06F065
:102370000050080F076E000E0120086E000E0220AC
:1023800007C0E9FF08C0F3FF21EC25F0076EF3CF8B
:1023900008F0F4CF09F0E9CF0AF0081009100A108C
:1023A0002AE003500B6E04500C6E05500D6E065063
:1023B0000E6E07500B2608500C2209500D220A50B1
:1023C0000E22E56E0950E56E0850E56E0750E56E89
:1023D0000E50E56E0D50E56E0C50E56E0B50E56E3F
:1023E0004CEC16F0036EF3CF04F0F4CF05F0E9CF18
:1023F00006F0080EE12603C0E5FF04C0F4FF05C0A7
:10240000F6FF06C0F7FF00C0E9FF01C0F3FF02506E
:10241000E8EC26F00050040F076E000E0120086E55
:10242000000E0220096E0638F00B0D6E05380C6E9A
:102430000F0B0C1A0D260450E8380F0B0C12043841
:10244000F00B0B6E03380A6E0F0B0A1A0B260AC02C
:10245000E5FF0BC0F4FF0CC0F6FF0DC0F7FF07C08F
:10246000E9FF08C0F3FF0950E8EC26F00E0E002645
:10247000000E01220222E56AF46AF66AF76A00C0D9
:10248000E9FF01C0F3FF0250E8EC26F0E4CF0EF0C4
:10249000E4CF0DF0E4CF0CF0E4CF0BF0E4CF0AF082
:1024A000E4CF09F0E4CF08F0E4CF07F0E4CF06F082
:1024B000E4CF05F0E4CF04F0E4CF03F0E4CF02F082
:1024C000E4CF01F0E4CF00F0E4CFD9FF1200D9CF80
:1024D000E5FFE1CFD9FF00C0E5FF01C0E5FF02C085
:1024E000E5FF03C0E5FF04C0E5FF05C0E5FF06C04A
:1024F000E5FF07C0E5FF08C0E5FF09C0E5FF0AC02A
:10250000E5FF0BC0E5FF0CC0E5FF0DC0E5FF0EC009
:10251000E5FF0FC0E5FF020EDBCF00F0030EDBCFBF
:1025200001F0040EDBCF02F0050EDBCF03F0060E48
:10253000DBCF04F0070EDBCF05F0080EDBCF06F093
:10254000200E076E086A06C009F00A6A0B6A0C6A58
:10255000E56AE56AE56A0950E56E0350E56E0250EA
:10256000E56E0150E56E0050E56E4CEC16F00D6E18
:10257000080EE126300E0D263A0E0D5C05E30D50D7
:102580000E6E270E0E240D6EFF0E07260822E00E9B
:1025900007240E6E000E08200F6E0EC0E9FF0FC05C
:1025A000EAFF0DC0EFFF0C50E56E0B50E56E0A50D0
:1025B000E56E0950E56E0350E56E0250E56E015080
:1025C000E56E0050E56E0DEC18F0006EF3CF01F0F3
:1025D000F4CF02F0E9CF03F0080EE126005001101D
:1025E00002100310D8A4AFD707C000F008C001F054
:1025F00004C002F005C003F000C004F001C005F003
:10260000004A012AE00E0426000E052204C0E9FF5C
:1026100005C0EAFFEFCF04F002C0E9FF03C0EAFF04
:1026200004C0EFFF024A032A000E015C02E1200E03
:10263000005CE2E302C0E9FF03C0EAFF000EEF6ABC
:10264000E4CF0FF0E4CF0EF0E4CF0DF0E4CF0CF0C8
:10265000E4CF0BF0E4CF0AF0E4CF09F0E4CF08F0C8
:10266000E4CF07F0E4CF06F0E4CF05F0E4CF04F0C8
:10267000E4CF03F0E4CF02F0E4CF01F0E4CF00F0C8
:10268000E4CFD9FF1200D9CFE5FFE1CFD9FF00C0D9
:10269000E5FF01C0E5FF02C0E5FF03C0E5FF04C0A0
:1026A000E5FF05C0E5FF06C0E5FF07C0E5FF08C080
:1026B000E5FF09C0E5FF0AC0E5FF0BC0E5FF0CC060
:1026C000E5FF0DC0E5FF0EC0E5FF020EDBCF00F019
:1026D000030EDBCF01F0040EDBCF02F0050EDBCFE3
:1026E00003F0060EDBCF04F0070EDBCF05F0080E7B
:1026F000DBCF06F00050080F076E000E0120086EB9
:10270000000E022007C0E9FF08C0F3FF21EC25F00E
:10271000076EF3CF08F0F4CF09F0E9CF0AF0081004
:1027200009100A102AE003500B6E04500C6E05507D
:102730000D6E06500E6E07500B2608500C220950E5
:102740000D220A500E22E56E0950E56E0850E56E26
:102750000750E56E0E50E56E0D50E56E0C50E56EBF
:102760000B50E56E4CEC16F0036EF3CF04F0F4CF93
:1027700005F0E9CF06F0080EE12603C0E5FF04C02E
:10278000F4FF05C0F6FF06C0F7FF00C0E9FF01C077
:10279000F3FF0250E8EC26F0040E0026000E0122A2
:1027A00002220638F00B0A6E0538096E0F0B091A63
:1027B0000A260450E8380F0B09120438F00B086E93
:1027C0000338076E0F0B071A082607C0E5FF08C07D
:1027D000F4FF09C0F6FF0AC0F7FF00C0E9FF01C01F
:1027E000F3FF0250E8EC26F0E4CF0EF0E4CF0DF05A
:1027F000E4CF0CF0E4CF0BF0E4CF0AF0E4CF09F023
:10280000E4CF08F0E4CF07F0E4CF06F0E4CF05F022
:10281000E4CF04F0E4CF03F0E4CF02F0E4CF01F022
:10282000E4CF00F0E4CFD9FF1200D9CFE5FFE1CF2C
:10283000D9FF00C0E5FF01C0E5FF02C0E5FF03C00E
:10284000E5FF04C0E5FF05C0E5FF06C0E5FF07C0E2
:10285000E5FF08C0E5FF09C0E5FF0AC0E5FF0BC0C2
:10286000E5FF0CC0E5FF0DC0E5FF020EDBCF00F079
:10287000030EDBCF01F0040EDBCF02F0050EDBCF41
:1028800003F0060EDBCF04F0070EDBCF05F0080ED9
:10289000DBCF06F0090EDBCF07F0D88003AED8906F
:1028A000086A083608500FE0031C0C6E021C0B6E01
:1028B000011C0A6E001C096E092A0DE10A2A0BE1AF
:1028C0000B4A0C2A08D000C009F001C00AF002C06F
:1028D0000BF003C00CF0D88007AED890006A003629
:1028E00000500FE0071C0D6E061C036E051C026EE7
:1028F000041C016E012A0DE1022A0BE1034A0D2A94
:1029000008D004C001F005C002F006C003F007C003
:102910000DF00D50E56E0350E56E0250E56E01506E
:10292000E56E0C50E56E0B50E56E0A50E56E0950F1
:10293000E56E0DEC18F0016EF3CF02F0F4CF03F06A
:10294000E9CF04F0080EE1260050081A085016E0FE
:10295000041C076E031C066E021C056E011C006E33
:10296000002A04E1052A02E1064A072A07C0E9FF16
:1029700006C0F4FF05C0F3FF005007D004C0E9FF14
:1029800003C0F4FF02C0F3FF0150E4CF0DF0E4CF29
:102990000CF0E4CF0BF0E4CF0AF0E4CF09F0E4CF81
:1029A00008F0E4CF07F0E4CF06F0E4CF05F0E4CF81
:1029B00004F0E4CF03F0E4CF02F0E4CF01F0E4CF81
:1029C00000F0E4CFD9FF1200D9CFE5FFE1CFD9FF66
:1029D00000C0E5FF01C0E5FF02C0E5FF03C0E5FF61
:1029E00004C0E5FF05C0E5FF06C0E5FF07C0E5FF41
:1029F00008C0E5FF09C0E5FF0AC0E5FF0BC0E5FF21
:102A00000CC0E5FF0DC0E5FF0EC0E5FF020EDBCFF9
:102A100000F0030EDBCF01F0040EDBCF02F0050E59
:102A2000DBCF03F0060EDBCF04F0070EDBCF05F0A3
:102A3000080EDBCF06F000C0E9FF01C0F3FF025033
:102A400021EC25F0F3CF08F0F4CF09F0E9CF0AF03C
:102A5000032608500422095005220A50062200507D
:102A6000080F076E000E0120086E000E022007C03E
:102A7000E9FF08C0F3FF21EC25F0076EF3CF08F063
:102A8000F4CF09F0E9CF0AF0081009100A102AE083
:102A900003500B6E04500C6E05500D6E06500E6EFA
:102AA00007500B2608500C2209500D220A500E2206
:102AB000E56E0950E56E0850E56E0750E56E0E5064
:102AC000E56E0D50E56E0C50E56E0B50E56E4CEC6E
:102AD00016F0036EF3CF04F0F4CF05F0E9CF06F063
:102AE000080EE12603C0E5FF04C0F4FF05C0F6FFB1
:102AF00006C0F7FF00C0E9FF01C0F3FF0250E8EC99
:102B000026F0E4CF0EF0E4CF0DF0E4CF0CF0E4CFEC
:102B10000BF0E4CF0AF0E4CF09F0E4CF08F0E4CF03
:102B200007F0E4CF06F0E4CF05F0E4CF04F0E4CF03
:102B300003F0E4CF02F0E4CF01F0E4CF00F0E4CF03
:102B4000D9FF1200D9CFE5FFE1CFD9FF00C0E5FFE3
:102B500001C0E5FF02C0E5FF03C0E5FF04C0E5FFDB
:102B600005C0E5FF06C0E5FF07C0E5FF08C0E5FFBB
:102B700009C0E5FF0AC0E5FF0BC0E5FF0CC0E5FF9B
:102B80000DC0E5FF0EC0E5FF020EDBCF00F0030E27
:102B9000DBCF01F0040EDBCF02F0050EDBCF03F03C
:102BA000060EDBCF04F0070EDBCF05F0080EDBCFFF
:102BB00006F00050080F076E000E0120086E000E90
:102BC000022007C0E9FF08C0F3FF21EC25F0076EE3
:102BD000F3CF08F0F4CF09F0E9CF0AF0081009109C
:102BE0000A102AE003500B6E04500C6E05500D6E57
:102BF00006500E6E07500B2608500C2209500D226D
:102C00000A500E22E56E0950E56E0850E56E075039
:102C1000E56E0E50E56E0D50E56E0C50E56E0B50F6
:102C2000E56E4CEC16F0036EF3CF04F0F4CF05F034
:102C3000E9CF06F0080EE12603C0E5FF04C0F4FF6B
:102C400005C0F6FF06C0F7FF00C0E9FF01C0F3FFB3
:102C50000250E8EC26F0E4CF0EF0E4CF0DF0E4CF24
:102C60000CF0E4CF0BF0E4CF0AF0E4CF09F0E4CFAE
:102C700008F0E4CF07F0E4CF06F0E4CF05F0E4CFAE
:102C800004F0E4CF03F0E4CF02F0E4CF01F0E4CFAE
:102C900000F0E4CFD9FF1200D9CFE5FFE1CFD9FF93
:102CA00000C0E5FF01C0E5FF02C0E5FF03C0E5FF8E
:102CB00004C0E5FF05C0E5FF06C0E5FF07C0E5FF6E
:102CC00008C0E5FF09C0E5FF0AC0E5FF020EDBCF43
:102CD00000F0030EDBCF01F0040EDBCF02F0050E97
:102CE000DBCF03F0060EDBCF04F0070EDBCF05F0E1
:102CF000080EDBCF06F0090EDBCF07F0086A0450A0
:102D000005100610071005E1E968F468F368E86843
:102D100047D0096A0750800BE8440A6E0A501BE14D
:102D2000045004260536063607360750035C08E1D2
:102D30000650025C05E10550015C02E10450005CB4
:102D400006E2D890073206320532043204D0092A4E
:102D500009C008F0DFD70750035C08E10650025CA9
:102D600005E10550015C02E10450005C08E30450F9
:102D7000005E0550015A0650025A0750035AD89077
:102D8000073206320532043208C009F0080609503D
:102D9000E2E103C0E9FF02C0F4FF01C0F3FF00500D
:102DA000E4CF0AF0E4CF09F0E4CF08F0E4CF07F075
:102DB000E4CF06F0E4CF05F0E4CF04F0E4CF03F075
:102DC000E4CF02F0E4CF01F0E4CF00F0E4CFD9FF8C
:102DD000120000C0E5FF01C0E5FF02C0E5FF03C02F
:102DE000E5FF05C0E5FFABEC27F094928B9236EC43
:102DF00024F0F3CF01F0F4CF02F0E9CF03F0880F15
:102E00000401346F130E0120356F000E0220366F5F
:102E1000000E0320376F898E898289848988898C86
:102E2000898A929E929292949298929C929A93847A
:102E3000810E006E0F0E016E0F0E036E380E00260F
:102E4000035001220F0E036E800E005E0350015AE4
:102E5000810E026E0F0E036E0F0E056E380E0226E7
:102E6000055003220F0E056E800E025E0550035AB8
:102E700002C0E9FF03C0EAFFEFCF02F0029400C0F6
:102E8000E9FF01C0EAFF02C0EFFFF08EF1980F01E9
:102E90004E6B0F014E894E8B4E837F824E917E92F8
:102EA0007D824E81800EE56E040EE56E500EE56E5D
:102EB000F1EC1DF0030EE12692EC27F0E4CF05F0D3
:102EC000E4CF03F0E4CF02F0E4CF01F0E4CF00F070
:102ED0001200436920256C642025640A00004370B9
:102EE00020256C642025640A00004300256300004F
:102EF0004363203D20256C640A0000C0E5FF01C04B
:102F0000E5FF02C0E5FF03C0E5FF0401B051040185
:102F1000AF1901E166D0B0C400F0002A009E016A3A
:102F2000600E0026000E012200C0E9FF01C0EAFF8A
:102F3000EFCFBAF41F0E0401BA17B0C4B9F4BA51F6
:102F40000401B927B951006E020E0024B96FB99F70
:102F500060EC24F0006E005003E1006A002A01D00A
:102F6000006A60EC24F00401BA6FBAC401F0800E6C
:102F70000116BAC402F01F0E021602C003F002C00E
:102F8000BAF4035003E1AFC4B0F43ED000501EE0E9
:102F9000015025E060EC24F0006E0401BA51026E8D
:102FA0000204BA6F0050420A1AE000504E0A03E1D0
:102FB000B4EC22F014D00050460A03E172EC27F082
:102FC0000ED00050490A0BE1FF0009D0B0C4BBF499
:102FD000015003E03AEC22F002D069EC0FF0B9C4E2
:102FE000B0F40401495104014A1906E00401B15149
:102FF00003E1B6EC19F008D094B006D00401B15149
:1030000003E1ACB227EC27F0E4CF03F0E4CF02F009
:10301000E4CF01F0E4CF00F01200D9CFE5FFE1CF1B
:10302000D9FF00C0E5FF01C0E5FF02C0E5FF03C016
:10303000E5FF04C0E5FF05C0E5FF06C0E5FF07C0EA
:10304000E5FF08C0E5FF09C0E5FF0AC0E5FF0BC0CA
:10305000E5FF0CC0E5FF0DC0E5FF020EDBCF00F081
:10306000030EDBCF01F0040EDBCF02F0050EDBCF49
:1030700003F0060EDBCF04F0070EDBCF05F0080EE1
:10308000DBCF06F0090EDBCF07F0086A096A0A6A8F
:103090000B6A200E0C6E0350800BE8440D6E00503E
:1030A00000260136023603360850082609360A364D
:1030B0000B360D50D8A4088007500B5C08E1065071
:1030C0000A5C05E10550095C02E10450085C09E373
:1030D0000450085E0550095A06500A5A07500B5A08
:1030E00000800C040D6E0DC00CF00D50D4E103C037
:1030F000E9FF02C0F4FF01C0F3FF0050E4CF0DF080
:10310000E4CF0CF0E4CF0BF0E4CF0AF0E4CF09F009
:10311000E4CF08F0E4CF07F0E4CF06F0E4CF05F009
:10312000E4CF04F0E4CF03F0E4CF02F0E4CF01F009
:10313000E4CF00F0E4CFD9FF120000C0E5FF01C0EA
:10314000E5FF03C0E5FF04C0E5FF05C0E5FF06C0DD
:10315000E5FF07C0E5FF08C0E5FF09C0E5FF0AC0BD
:10316000E5FF0BC0E5FFA1C400F0A2C401F004011B
:10317000A13F01D0A22B0050E56E19EC27F0E652DA
:10318000076E046A056A066AA1C400F0A2C401F0D1
:103190000401A13F01D0A22B0050E56E19EC27F0ED
:1031A000E6520B6A0A6E086A0850041205120A50A9
:1031B00006120B500712A1C400F0A2C401F00401D2
:1031C000A13F01D0A22B0050E56E19EC27F0E6528A
:1031D000036E006A03C001F0E86A03BEFF0E086ECA
:1031E000096E0050041201500512085006120950D1
:1031F0000712A1C400F0A2C401F00401A13F01D054
:10320000A22B0050E56E19EC27F0E652016A041279
:10321000015005120612071207C0E9FF06C0F4FFAD
:1032200005C0F3FF0450E4CF0BF0E4CF0AF0E4CF85
:1032300009F0E4CF08F0E4CF07F0E4CF06F0E4CFE4
:1032400005F0E4CF04F0E4CF03F0E4CF01F0E4CFE5
:1032500000F01200D9CFE5FFE1CFD9FF00C0E5FFB4
:1032600001C0E5FF02C0E5FF03C0E5FF04C0E5FFC4
:1032700005C0E5FF06C0E5FF07C0E5FF020EDBCF96
:1032800000F0030EDBCF01F0040EDBCF02F0050EE1
:10329000DBCF03F002C006F00650046E800A33E173
:1032A00000C0E9FF01C0F3FF02509BEC25F0056E62
:1032B000F3CF06F0F4CF07F003C0E5FF05C0E9FF48
:1032C00006C0F3FF07507DEC27F000C0E9FF01C006
:1032D000F3FF02509BEC25F0056EF3CF06F0F4CF20
:1032E00007F0052A02E3064A072A05C0E5FF06C0E3
:1032F000F4FF07C0F6FF00C0E9FF01C0F3FF025072
:103300000AEC27F020D004C000F000AA1CD0007AFC
:103310000050046E04E10350B0EC27F014D00450C8
:10332000010A04E1035002EC00F00DD004500F0A32
:1033300004E1035006EC24F006D004500E0A03E129
:103340000350C0EC27F0E4CF07F0E4CF06F0E4CF61
:1033500005F0E4CF04F0E4CF03F0E4CF02F0E4CFD3
:1033600001F0E4CF00F0E4CFD9FF120000C0E5FF88
:1033700001C0E5FF02C0E5FF03C0E5FFACA277D0C6
:1033800041EC25F0006E005005E104014A6B040198
:10339000496B6DD04AC401F00050012641EC25F084
:1033A000026E00060250230A1FE1010E005CD8A045
:1033B0005CD041EC25F0036E690A03E1D5EC23F003
:1033C00054D00350720A03E127EC27F04ED003508B
:1033D000730A01E04AD09480AB869D8A9D98AE50D6
:1033E000AE50AB98AB8841D00250430A05E0025082
:1033F000420A01E03AD001D0008E0401B36B00C054
:10340000B4F400500401006F0401B32B04014A51CD
:10341000011814E041EC25F0006E0401B427000E01
:103420000401B325026E036A040E032202C0E9FF01
:1034300003C0EAFF00C0EFFFB32BE8D7000E040182
:10344000B325006E026A040E02220401B41D036E4D
:10345000032A00C0E9FF02C0EAFF03C0EFFF040136
:10346000B32BB3C4B1F40401AB6B01C04AF4E4CF95
:1034700003F0E4CF02F0E4CF01F0E4CF00F012005B
:10348000D9CFE5FFE1CFD9FF00C0E5FF01C0E5FFDF
:1034900002C0E5FF03C0E5FF04C0E5FF05C0E5FF8E
:1034A00006C0E5FF020EDBCF00F0030EDBCF01F01C
:1034B000040EDBCF02F0050EDBCF03F003C004F0F7
:1034C000056A0350D8B453D000C0E9FF01C0F3FF30
:1034D0000250F9EC26F0066E430A03E1010E056E78
:1034E000038E0406002A02E3014A022A9D9AAB9841
:1034F00094909D989EA8FED7AC80AD6A00009EA8CF
:10350000FED7AC9003C0ADFF00009EA8FED70550CB
:1035100005E0420EAD6E0324056E05D0620EAD6E61
:10352000620E0324056E04C003F0035015E0000092
:103530009EA8FED700C0E9FF01C0F3FF0250F9ECDE
:1035400026F0046E04C0ADFF045005260306002AD1
:1035500002E3014A022AE9D700009EA8FED7051C13
:10356000AD6EAD2A00009EA8FED727EC27F0E4CF71
:1035700006F0E4CF05F0E4CF04F0E4CF03F0E4CFAD
:1035800002F0E4CF01F0E4CF00F0E4CFD9FF120065
:10359000D9CFE5FFE1CFD9FF00C0E5FF01C0E5FFCE
:1035A00002C0E5FF03C0E5FF04C0E5FF05C0E5FF7D
:1035B00006C0E5FF07C0E5FF08C0E5FF09C0E5FF5D
:1035C0000AC0E5FF0BC0E5FF0CC0E5FF020EDBCF34
:1035D00000F0030EDBCF01F0040EDBCF02F0050E8E
:1035E000DBCF03F0060EDBCF04F0070EDBCF05F0D8
:1035F000080EDBCF06F0090EDBCF07F002500A6E93
:103600000150096E0050086E06C00BF007C00CF0A8
:10361000FF0E062607220B500C101AE003C0E9FF2C
:1036200004C0F3FF0550F9EC26F00B6E032A02E309
:10363000044A052A0BC0E5FF08C0E9FF09C0F3FFF3
:103640000A507DEC27F0082ADFE3094A0A2ADCD772
:1036500002C0F4FF01C0F3FF0050E4CF0CF0E4CF50
:103660000BF0E4CF0AF0E4CF09F0E4CF08F0E4CFA8
:1036700007F0E4CF06F0E4CF05F0E4CF04F0E4CFA8
:1036800003F0E4CF02F0E4CF01F0E4CF00F0E4CFA8
:10369000D9FF1200D9CFE5FFE1CFD9FF00C0E5FF88
:1036A00001C0E5FF02C0E5FF03C0E5FF04C0E5FF80
:1036B00005C0E5FF06C0E5FF07C0E5FF020EDBCF52
:1036C00000F0030EDBCF01F0040EDBCF02F0050E9D
:1036D000DBCF03F04AC44BF40401495104014B5FB2
:1036E0004B51046E04044B6F03C004F0056A030ED3
:1036F0000426D8B0052A4BC406F0076A0750800F8D
:10370000F36E0550800FF35C02E10450065C02E2A8
:10371000E8682ED0020E035C02E2E86A29D00306B4
:103720000350E56EF0EC22F0E652046A0350045CAC
:1037300014E204500024056EE86A0120066EE86A6F
:10374000022005C0E9FF06C0F3FFF9EC26F0042AC9
:10375000E56EF0EC22F0E652E9D74AC44BF40401DE
:10376000495104014B5F4B51006E00044B6FE86AF6
:10377000E4CF07F0E4CF06F0E4CF05F0E4CF04F0A7
:10378000E4CF03F0E4CF02F0E4CF01F0E4CF00F0A7
:10379000E4CFD9FF1200D9CFE5FFE1CFD9FF00C0B8
:1037A000E5FF01C0E5FF02C0E5FF03C0E5FF04C07F
:1037B000E5FF05C0E5FF06C0E5FF07C0E5FF020E17
:1037C000DBCF00F0030EDBCF01F0040EDBCF02F005
:1037D000050EDBCF03F0D88001AED890046A043622
:1037E000045007E0011C066E001C056E054A062AFF
:1037F00004D000C005F001C006F0D88003AED89018
:10380000006A0036005007E0031C076E021C016EC0
:10381000014A072A04D002C001F003C007F0075094
:10382000E56E0150E56E0650E56E0550E56EE4EC80
:103830001FF0016EF3CF02F0040EE1260050041ACF
:1038400004500AE0021C036E011C006E004A032AA9
:1038500003C0F3FF005003D002C0F3FF0150E4CFD8
:1038600007F0E4CF06F0E4CF05F0E4CF04F0E4CFB6
:1038700003F0E4CF02F0E4CF01F0E4CF00F0E4CFB6
:10388000D9FF1200D8CFE5FFE0CFE5FFE56EF3CF1B
:10389000E5FFF4CFE5FFE9CFE5FFEACFE5FFFACF9B
:1038A000E5FFFBCFE5FF00C0E5FF01C0E5FFF6CF78
:1038B000E5FFF6CFE5FFF7CFE5FFF8CFE5FFF5CF62
:1038C000E5FFE1CFE5FFE2CFE5FF04014751040149
:1038D000876F040148510401886FD650856FD75017
:1038E000866FF2A417D047C400F048C401F000501E
:1038F000010F0401476F000E0120486FF2944751F9
:103900000401876F040148510401886FD650856F08
:10391000D750866F8AEC1DF0E4CFE2FFE4CFE1FFE1
:10392000E4CFF5FFE4CFF8FFE4CFF7FFE4CFF6FFF5
:10393000E4CFF6FFE4CF01F0E4CF00F0E4CFFBFFEB
:10394000E4CFFAFFE4CFEAFFE4CFE9FFE4CFF4FFEE
:10395000E4CFF3FFE450E4CFE0FFE4CFD8FF100062
:10396000D9CFE5FFE1CFD9FF00C0E5FF01C0E5FFFA
:1039700002C0E5FF03C0E5FF04C0E5FF05C0E5FFA9
:1039800006C0E5FF020EDBCF00F0030EDBCF01F037
:10399000040EDBCF02F0050EDBCF03F0D88001AEC2
:1039A000D890046A0436045007E0011C066E001C1F
:1039B000056E054A062A04D000C005F001C006F0D5
:1039C000D88003AED89007E3031C016E021C006E82
:1039D000004A012A04D002C000F003C001F00150E7
:1039E000E56E0050E56E0650E56E0550E56E87EC1D
:1039F0001FF0006EF3CF01F0040EE12604500AE040
:103A0000011C036E001C026E024A032A03C0F3FF6E
:103A1000025003D001C0F3FF0050E4CF06F0E4CF22
:103A200005F0E4CF04F0E4CF03F0E4CF02F0E4CFFC
:103A300001F0E4CF00F0E4CFD9FF1200D9CFE5FFC9
:103A4000E1CFD9FF00C0E5FF01C0E5FF02C0E5FFFF
:103A500003C0E5FF04C0E5FF05C0E5FF020EDBCFB4
:103A600000F0030EDBCF01F0040EDBCF02F0050EF9
:103A7000DBCF03F0A1C404F0A2C405F00401A13F10
:103A800001D0A22B0350E56E0450E56EFDEC24F04E
:103A9000E652E652A1C404F0A2C405F00401A13F1D
:103AA00001D0A22B0250056EE56E0450E56EFDECD0
:103AB00024F0E652E652A1C404F0A2C405F00401C9
:103AC000A13F01D0A22B0150E56E0450E56EFDEC44
:103AD00024F0E652E652A1C404F0A2C405F00401A9
:103AE000A13F01D0A22B0050E56E0450E56EFDEC25
:103AF00024F0E652E652E4CF05F0E4CF04F0E4CF40
:103B000003F0E4CF02F0E4CF01F0E4CF00F0E4CF23
:103B1000D9FF120000C0E5FF01C0E5FF02C0E5FFCC
:103B200003C0E5FF7EA247D004014451E56E435136
:103B3000E56EE56A020EE56E8EEC20F0006EF3CFC6
:103B400001F0040EE1260050FF08006EFF0E015642
:103B50000150026E036A02500F01506F016A00505B
:103B60000F014F6F7E92D8800F0137AFD8900DE3D1
:103B7000899E36CF00F037CF01F00050010F366F2D
:103B8000000E0120376F898E23D00F013751800F2F
:103B9000800F02E1010E365D1BE3899236CF00F003
:103BA00037CF01F00050FF0F0F01366FFF0E0120DD
:103BB000376F89820DD0F0A80BD0F0A209D0F09217
:103BC000F098010E0401466F36CF9FF437CFA0F472
:103BD000E4CF03F0E4CF02F0E4CF01F0E4CF00F053
:103BE0001200D9CFE5FFE1CFD9FF00C0E5FF01C04A
:103BF000E5FF02C0E5FF03C0E5FF04C0E5FF020EDC
:103C0000DBCF00F0030EDBCF01F0040EDBCF02F0C0
:103C1000E56AF46AF66AF76A00C0E9FF01C0F3FFDB
:103C20000250E8EC26F00050040F036E000E012055
:103C3000046E000E0220E56AF46AF66AF76A03C0B1
:103C4000E9FF04C0F3FFE8EC26F000500E0F036E0E
:103C5000000E0120046E000E0220E56AF46AF66A86
:103C6000F76A03C0E9FF04C0F3FFE8EC26F0080E92
:103C70000026000E01220222E56AF46AF66AF76A5B
:103C800000C0E9FF01C0F3FF0250E8EC26F0E4CFEA
:103C900004F0E4CF03F0E4CF02F0E4CF01F0E4CF8E
:103CA00000F0E4CFD9FF1200256420256C640A00DF
:103CB000D9CFE5FFE1CFD9FF00C0E5FF01C0E5FFA7
:103CC00002C0E5FF03C0E5FF04C0E5FF05C0E5FF56
:103CD00006C0E5FF020EDBCF00F0030EDBCF01F0E4
:103CE000040EDBCF02F00401AA5119E19DEC18F09B
:103CF000036EF3CF04F0F4CF05F0E9CF06F003C074
:103D0000E5FF04C0F4FF05C0F6FF06C0F7FF00C0E2
:103D1000E9FF01C0F3FF0250E8EC26F01ED00401D9
:103D2000AA51010A1AE100C0E9FF01C0F3FF0250E5
:103D300021EC25F0006EF3CF01F0F4CF02F0E9CFD3
:103D400003F00350E56E0250E56E0150E56E005041
:103D5000E56E1EEC1DF0040EE126E4CF06F0E4CF84
:103D600005F0E4CF04F0E4CF03F0E4CF02F0E4CFB9
:103D700001F0E4CF00F0E4CFD9FF1200D9CFE5FF86
:103D8000E1CFD9FF00C0E5FF01C0E5FF02C0E5FFBC
:103D900003C0E5FF04C0E5FF020EDBCF00F0030E19
:103DA000DBCF01F0040EDBCF02F000500C0F036EEE
:103DB000000E0120046E000E0220E56E0450E56E38
:103DC0000350E56EDEEC20F0030EE1260050120FEA
:103DD000036E000E0120046E000E0220E56E0450FA
:103DE000E56E0350E56EDEEC20F0030EE126005098
:103DF000140F036E000E0120046E000E0220E56E0B
:103E00000450E56E0350E56EDEEC20F0030EE12673
:103E1000080E0026000E012202220250E56E01501B
:103E2000E56E0050E56E58EC1EF0030EE126E4CF7F
:103E300004F0E4CF03F0E4CF02F0E4CF01F0E4CFEC
:103E400000F0E4CFD9FF1200D9CFE5FFE1CFD9FFD1
:103E500000C0E5FF01C0E5FF02C0E5FF03C0E5FFCC
:103E600004C0E5FF05C0E5FF06C0E5FF020EDBCF9D
:103E700000F0030EDBCF01F0040EDBCF02F0050EE5
:103E8000DBCF03F0060EDBCF04F0070EDBCF05F02F
:103E9000080EDBCF06F0D88003AED89015E30650AD
:103EA0000A0A12E104C0E9FF05C0EAFF2D0EEF6E19
:103EB000044A052A031E021E011E006C05E1012AA8
:103EC00003E1022AD8B4032A0650E56E0550E56ED8
:103ED0000450E56E0350E56E0250E56E0150E56E4C
:103EE0000050E56E67EC12F0070EE126E4CF06F015
:103EF000E4CF05F0E4CF04F0E4CF03F0E4CF02F028
:103F0000E4CF01F0E4CF00F0E4CFD9FF1200D9CF25
:103F1000E5FFE1CFD9FF00C0E5FF01C0E5FF02C02A
:103F2000E5FF03C0E5FF04C0E5FF05C0E5FF06C0EF
:103F3000E5FF020EDBCF00F0030EDBCF01F0040E35
:103F4000DBCF02F0050EDBCF03F0046A056A0350F5
:103F5000800BE844066E065011E10250022603363B
:103F60000350015C02E10250005C04E2D89003328D
:103F7000023204D0052A05C004F0E9D70350015CE1
:103F800002E10250005C04E30250005E0350015A5B
:103F9000D8900332023204C005F004060550EEE169
:103FA00001C0F3FF0050E4CF06F0E4CF05F0E4CF0A
:103FB00004F0E4CF03F0E4CF02F0E4CF01F0E4CF6B
:103FC00000F0E4CFD9FF1200D9CFE5FFE1CFD9FF50
:103FD00000C0E5FF01C0E5FF02C0E5FF03C0E5FF4B
:103FE00004C0E5FF05C0E5FF06C0E5FF07C0E5FF2B
:103FF000020EDBCF00F0030EDBCF01F0040EDBCFAF
:1040000002F0050EDBCF03F0046A056A100E066E9F
:104010000150800BE844076E005000260136045022
:10402000042605360750D8A404800350055C02E13D
:104030000250045C05E30250045E0350055A008000
:104040000604076E07C006F00750E2E101C0F3FF67
:104050000050E4CF07F0E4CF06F0E4CF05F0E4CF62
:1040600004F0E4CF03F0E4CF02F0E4CF01F0E4CFBA
:1040700000F0E4CFD9FF120000C0E5FF01C0E5FF6A
:1040800002C0E5FF03C0E5FFB0C400F0016ABBC495
:1040900002F0036A0250005E0350015AE56A800E86
:1040A000E56E0150E56E0050E56EB0EC1CF0006E60
:1040B000040EE1260006BBC401F0430E06EC24F01A
:1040C000200E06EC24F0005020E0600E0124026E69
:1040D000036A000E032202C0E9FF03C0EAFFEFCF2C
:1040E00002F0E56A0250E56E000EE56E4E0EE56EDA
:1040F000660EE56EBBEC21F0050EE126012A0150AB
:10410000800A01E1016A0006DED7E4CF03F0E4CFC4
:1041100002F0E4CF01F0E4CF00F01200D9CFE5FFC8
:10412000E1CFD9FF00C0E5FF01C0E5FF02C0E5FF18
:1041300003C0E5FF020EDBCF00F0030EDBCF01F082
:10414000040EDBCF02F0050EDBCF03F000500401BC
:10415000A36F0150A46F02500401A56F0350A66F16
:104160000401A3510401A503F4CF01F0F3CF00F043
:1041700000500401A76F0150A86F0401A35104016E
:10418000A603F3CF00F00401A4510401A503F3CF6B
:1041900001F0015000260401A85100260050A86F2C
:1041A000A8C4F3FFA751E4CF03F0E4CF02F0E4CFBB
:1041B00001F0E4CF00F0E4CFD9FF1200D9CFE5FF42
:1041C000E1CFD9FF00C0E5FF01C0E5FF02C0E5FF78
:1041D00003C0E5FF04C0E5FF020EDBCF00F0030ED5
:1041E000DBCF01F0040EDBCF02F00401AA5111E194
:1041F000A1EC23F0036EF3CF04F003C0E5FF04C08D
:10420000F4FF00C0E9FF01C0F3FF025043EC27F0C8
:1042100016D00401AA51010A12E100C0E9FF01C051
:10422000F3FF025071EC26F0006EF3CF01F0015065
:10423000E56E0050E56E77EC22F0E652E652E4CFF0
:1042400004F0E4CF03F0E4CF02F0E4CF01F0E4CFD8
:1042500000F0E4CFD9FF1200480EF66E4F0EF76E55
:10426000000EF86E0900F550056E0900F550066E57
:1042700004E1056702D079EF21F00900F550006EE6
:104280000900F550016E0900F550026E09000900A1
:10429000F550E96E0900F550EA6E090009000900C1
:1042A000F550036E0900F550046E09000900F6CFC1
:1042B00007F0F7CF08F0F8CF09F000C0F6FF01C013
:1042C000F7FF02C0F8FF035002E1045007E00900C5
:1042D000F550EE6E0306F8E20406F9D707C0F6FFC4
:1042E00008C0F7FF09C0F8FF050601E2060638EF2F
:1042F00021F01200D8CFE5FFE0CFE5FFE56EF3CF68
:10430000E5FFF4CFE5FFE9CFE5FFEACFE5FFFACF20
:10431000E5FFFBCFE5FFF6CFE5FFF6CFE5FFF7CFF3
:10432000E5FFF8CFE5FFF5CFE5FFE1CFE5FFE2CF11
:10433000E5FF48EC0EF0E4CFE2FFE4CFE1FFE4CF8D
:10434000F5FFE4CFF8FFE4CFF7FFE4CFF6FFE4CFCB
:10435000F6FFE4CFFBFFE4CFFAFFE4CFEAFFE4CFC0
:10436000E9FFE4CFF4FFE4CFF3FFE450E4CFE0FF54
:10437000E4CFD8FF1000D9CFE5FFE1CFD9FF00C0CF
:10438000E5FF01C0E5FF02C0E5FF020ED924006E83
:10439000000EDA20016E800E026E030E0026000E63
:1043A000012202220250E56E0150E56E0050E56EDA
:1043B000040EDBCFE5FF030EDBCFE5FF020EDBCF04
:1043C000E5FF0F013551E56E3451E56E3351E56E71
:1043D000CEEC05F0006EF3CF01F0090EE12601C02E
:1043E000F3FF0050E4CF02F0E4CF01F0E4CF00F09F
:1043F000E4CFD9FF1200D9CFE5FFE1CFD9FF00C04C
:10440000E5FF01C0E5FF02C0E5FF03C0E5FF020EC6
:10441000DBCF00F0030EDBCF01F0040EDBCF02F0A8
:104420000401AA510DE145EC26F0036E03C0E5FF3F
:1044300000C0E9FF01C0F3FF02507DEC27F00FD070
:104440000401AA51010A0BE100C0E9FF01C0F3FF1A
:104450000250F9EC26F0E56ED7EC24F0E652E4CFFA
:1044600003F0E4CF02F0E4CF01F0E4CF00F0E4CFBA
:10447000D9FF120000C0E5FF01C0E5FF60EC24F0A9
:10448000006E4C0A08E160EC24F0300A02E08B82F6
:1044900029D08B9227D00050450A24E1000EE56E0A
:1044A0002E0EE56EEA0EE56EBBEC21F0030EE12662
:1044B000BAEC27F0006E00C001F0000601500FE0DA
:1044C00060EC24F0E56AE56E000EE56E2E0EE56EFA
:1044D000EC0EE56EBBEC21F0050EE126ECD70A0EE2
:1044E00006EC24F0E4CF01F0E4CF00F01200D9CFC5
:1044F000E5FFE1CFD9FF00C0E5FF01C0E5FF02C045
:10450000E5FF03C0E5FF020EDBCF00F0030EDBCFBB
:1045100001F0A1C402F0A2C403F00401A13F01D044
:10452000A22B0150E56E0250E56EFDEC24F0E65240
:10453000E652A1C402F0A2C403F00401A13F01D0DD
:10454000A22B0050E56E0250E56EFDEC24F0E65221
:10455000E652E4CF03F0E4CF02F0E4CF01F0E4CF81
:1045600000F0E4CFD9FF120000C0E5FF01C0E5FF75
:1045700002C0E5FF60EC24F0006E60EC24F0016EF8
:10458000D00E00260A0E005C05E30050026EF90E04
:104590000224006ED00E01260A0E015C05E30150D4
:1045A000026EF90E0224016E080E005C12E2100E7B
:1045B000015CD8B00ED00038F00B0124006E67EC1F
:1045C00023F0016E015005E10050E56ED0EC25F0BE
:1045D000E652E4CF02F0E4CF01F0E4CF00F01200A5
:1045E000D9CFE5FFE1CFD9FF00C0E5FF01C0E5FF6E
:1045F00002C0E5FF03C0E5FF04C0E5FF020EDBCF0C
:1046000000F049C401F0026A014A022A4AC403F0D8
:10461000046A0150031803E10250041801E001D0BC
:104620000ED0000E04014925016E026A010E02221D
:1046300001C0E9FF02C0EAFF00C0EFFF492BE4CF51
:1046400004F0E4CF03F0E4CF02F0E4CF01F0E4CFD4
:1046500000F0E4CFD9FF1200D9CFE5FFE1CFD9FFB9
:1046600000C0E5FF01C0E5FF02C0E5FF03C0E5FFB4
:10467000020EDBCF00F0016ABBC402F0036A0250F5
:10468000002603500122E56A800EE56E0150E56EBA
:104690000050E56EB0EC1CF0006EF3CF01F0040E9C
:1046A000E126600E0026000E012200C0E9FF01C0D5
:1046B000EAFFEFCF00F00050E4CF03F0E4CF02F0C8
:1046C000E4CF01F0E4CF00F0E4CFD9FF120000C046
:1046D000E5FF01C0E5FF02C0E5FF010E006E60ECE2
:1046E00024F0016E01C002F0015023E00050E56E9D
:1046F00019EC27F0016EE652015010E10A0E005C41
:104700000BE20A0E006EE56E19EC27F0016EE65220
:10471000015004E1E8680ED0E8680CD0015002189E
:1047200002E0E86807D0002A1B0E005CD8E3E868C6
:1047300001D0E86AE4CF02F0E4CF01F0E4CF00F06A
:10474000120000C0E5FF01C0E5FF02C0E5FF03C0A5
:10475000E5FFA1C400F0A2C401F00401A13F01D013
:10476000A22B0050E56E19EC27F0E652036E026AA8
:10477000A1C400F0A2C401F00401A13F01D0A22B0A
:104780000050E56E19EC27F0E652016A0212015062
:10479000031203C0F3FF0250E4CF03F0E4CF02F0B2
:1047A000E4CF01F0E4CF00F012000401496B0401F2
:1047B0004A6B04014B6994808B909480B06A3F0EE1
:1047C000AF6EB886AC8AAC84AC8CAC90AB8CAB8E44
:1047D0000401B26B0401AC6B0401AF6B0401B06B5C
:1047E0000401B16B000EE56A19EC27F004014D6F6E
:1047F000E6529F989F9A010E04014C6F0F01336B94
:10480000346B2F0E356F27EC27F0120000C0E5FF48
:1048100001C0E5FF02C0E5FF006E000E04014E2559
:10482000016E026A0F0E022201C0E9FF02C0EAFF18
:1048300000C0EFFF220E4E5DD8A04E2B00500A0A9A
:104840000EE104014E51E56E800EE56E0F0EE56E31
:10485000000EE56E4AEC1BF0040EE1264E6BE4CF31
:1048600002F0E4CF01F0E4CF00F012000401475160
:1048700004018C6F0401485104018D6FD6508A6F7A
:10488000D7508B6F8C510401471905E104018D51FC
:10489000040148190CE00401475104018C6F040124
:1048A000485104018D6FD6508A6FD7508B6F8DC4DD
:1048B000E9FF8CC4F4FF8BC4F3FF04018A5112009A
:1048C00000C0E5FF01C0E5FF0401B0510401B919C2
:1048D00005E00401B0510401AF1902E1E86A15D006
:1048E000B0C400F00401B02B016A600E0026000E77
:1048F000012200C0E9FF01C0EAFFEFCF00F0B05194
:10490000800A02E10401B06B0050E4CF01F0E4CF73
:1049100000F0120000C0E5FFB4EC27F00401896B41
:10492000806B8983006A89B3002A0050010BE84438
:10493000F46E8051FD0BF410806FD58ED59CD59A06
:10494000D588D596D594D582D580F28AF184D08E3B
:10495000F28EF28CBA80FF0EBB68BA84E4CF00F00E
:104960001200D9CFE5FFE1CFD9FF00C0E5FF01C0BC
:10497000E5FF02C0E5FFF2CF02F0F29E020EDBCFB0
:1049800000F0030EDBCF01F000500F01362701507D
:10499000372337CFF3FF365102BEF28EE4CF02F059
:1049A000E4CF01F0E4CF00F0E4CFD9FF1200D9CF7B
:1049B000E5FFE1CFD9FF00C0E5FF01C0E5FF02C080
:1049C000E5FF020EDBCF00F0A1C401F0A2C402F0AB
:1049D0000401A13F01D0A22B0050E56E0150E56E0D
:1049E000FDEC24F0E652E652E4CF02F0E4CF01F011
:1049F000E4CF00F0E4CFD9FF1200D9CFE5FFE1CF3B
:104A0000D9FF00C0E5FF020EDBCF00F0030EDBCFC5
:104A1000A8FF00C0A9FFA69EA69CA684F29EF29CB9
:104A2000550EA76EAA0EA76EA682A6A202D00000FF
:104A3000FCD7A694F28EF28CE4CF00F0E4CFD9FF3D
:104A40001200E8AE0AD0F3CFEAFFEE50EECFF3FF4C
:104A5000EECFF4FFEECFE9FF1200E8BCC7EF27F07E
:104A6000E9CFF6FFF3CFF7FFF86E0900F550090024
:104A7000F5CFF3FF0900F5CFF4FF0900F5CFE9FF0B
:104A8000120000C0E5FF01C0E5FF04014951040127
:104A90004A1902E1E86A0FD0000E04014A25006EAF
:104AA000016A010E012200C0E9FF01C0EAFFEFCF59
:104AB00000F04A2B0050E4CF01F0E4CF00F01200E8
:104AC000F2CFEAFFF29EA69EA69CA684E9CFA9FF9C
:104AD000F3CFAAFFE4CFA8FF9BEC27F0F4CFA8FF09
:104AE0009BEC27F0F6CFA8FF9BEC27F0F7CFA8FFB1
:104AF0009BEC27F0A694EABEF28E1200F2CFF6FFEE
:104B0000F29EA69EA69CE9CFA9FFF3CFAAFFA6809E
:104B1000A850A94AAA2AA680A8CFF3FFA94AAA2A80
:104B2000A680A8CFF4FFA94AAA2AA680A8CFEAFFA8
:104B3000F6BEF28E1200E8AE08D0F3CFEAFFEE50D8
:104B4000EECFF3FFEECFF4FF1200E8BCCFEF27F07B
:104B5000E9CFF6FFF3CFF7FFF86E0900F550090033
:104B6000F5CFF3FF0900F5CFF4FF1200F2CFEAFF13
:104B7000F29EA69EA69CA684E9CFA9FFF3CFAAFF2A
:104B8000E4CFA8FF9BEC27F0F4CFA8FF9BEC27F025
:104B9000F6CFA8FF9BEC27F0A694EABEF28E120097
:104BA000D9CFE5FFE1CFD9FF00C0E5FF020EDBCF93
:104BB00000F000C04DF40050E56E000EE56AFDEC1B
:104BC00024F0E652E652E4CF00F0E4CFD9FF120021
:104BD000F2CFF6FFF29EA69EA69CE9CFA9FFF3CFE7
:104BE000AAFFA680A850A94AAA2AA680A8CFF3FFA8
:104BF000A94AAA2AA680A8CFF4FFF6BEF28E120018
:104C000081B408D0010E0401456F960E0401996F1E
:104C10009A6B0CD0020E0401456FF0920401466BB2
:104C2000F088BA0E0401996FFF0E9A69120000C055
:104C3000E5FF01C0E5FF600E0401B025006E016ACA
:104C4000000E012200C0E9FF01C0EAFFEFCF00F033
:104C50000050E4CF01F0E4CF00F01200D9CFE5FF1F
:104C6000E1CFD9FF00C0E5FF020EDBCF00F0610EFF
:104C7000005C05E37B0E005C02E2010E01D0E86AF5
:104C8000E4CF00F0E4CFD9FF120000C0E5FF01C07F
:104C9000E5FFA1C400F0A2C401F00401A13F01D0CE
:104CA000A22B0050E56E19EC27F0E652E4CF01F09C
:104CB000E4CF00F01200D9CFE5FFE1CFD9FF00C06B
:104CC000E5FF020EDBCF00F000C04CF4005004E121
:104CD00027EC27F09D9A9D98E4CF00F0E4CFD9FF10
:104CE0001200E8AE06D0F3CFEAFFEE50EECFF3FFAE
:104CF0001200E8BCC5EF27F0E9CFF6FFF3CFF7FFCE
:104D0000F86E0900F5500900F5CFF3FF1200F2CF5D
:104D1000EAFFF29EA69EA69CA684E9CFA9FFF3CF48
:104D2000AAFFE4CFA8FF9BEC27F0F4CFA8FF9BECF1
:104D300027F0A694EABEF28E120012EEFFF022EEE9
:104D4000FFF0F86AA68EA69CE9680E0EEA6E00686F
:104D5000000EED6A0050FDE12CEC21F006EC00F0B5
:104D6000FFD7F2CFF6FFF29EA69EA69CE9CFA9FF41
:104D7000F3CFAAFFA680A850A94AAA2AA680A8CF46
:104D8000F3FFF6BEF28E1200E56A030EE56E0D0E1D
:104D9000E56E4A0EE56E000EE56E2E0EE56EF00E27
:104DA000E56EBBEC21F0070EE1261200F2CFEAFF20
:104DB000F29EA69EA69CA684E9CFA9FFF3CFAAFFE8
:104DC000E4CFA8FF9BEC27F0A694EABEF28E120077
:104DD000E8AE0BD0F3CFEAFFE4CFEEFFF4CFEEFF67
:104DE000F6CFEEFFF7CFEEFF1200E8BCC9EF27F0D9
:104DF0001200E8AE04D0F3CFEAFFEE501200E8BC98
:104E0000C3EF27F0E9CFF6FFF3CFF7FFF86E090005
:104E1000F5501200E8AE09D0F3CFEAFFE4CFEEFF81
:104E2000F4CFEEFFF6CFEEFF1200E8BCD1EF27F093
:104E30001200D9CFE5FFE1CFD9FF020EDBCFA9FFEA
:104E4000A69CA69EA680A850E4CFD9FF1200ACA2D3
:104E5000FED79480AE500000AE50AB98AB88AB86C6
:104E60009D8A9D98120025642000F2CFF6FFF29EE5
:104E7000A69EA69CE9CFA9FFF3CFAAFFA680A850C3
:104E8000F6BEF28E1200E8AE07D0F3CFEAFFE4CF11
:104E9000EEFFF4CFEEFF1200E8BCCDEF27F01200DA
:104EA000000000000000000000003075000000005D
:104EB0000000FF0000000000700ED36E9B8CFF0E00
:104EC0009268936894689668626AF19E1200800EF8
:104ED000E56E040EE56E500EE56EBEEC1EF0030EA0
:104EE000E126120000C0E5FF67EC23F0006E0050E1
:104EF00001E1FF00E4CF00F01200E8AE05D0F3CFEF
:104F0000EAFFE4CFEEFF1200E8BCCBEF27F012007F
:104F1000010E0401AA6F1C0E0401A16FA26B67ECC5
:104F200027F012000401AA6B1C0E0401A16FA26BF2
:104F300067EC27F01200550EA76EAA0EA76EA68288
:104F4000A6B2FED7A94AAA2A0100A04E0000390441
:104F50000000170000008AEC24F0D5EC23F01200CA
:104F6000ACA2FED7AD6E12005CEC27F0120004017B
:104F7000B05112000401BA51120004014C51120048
:104F8000E8CF7FFF120035EF27F0B1EF26F07EEF7C
:104F900025F060EF25F0D6EF26F087EF26F0E8EF5A
:064FA00025F0B6EF25F03C
:020000040030CA
:010006008574
:00000001FF
