:020000040000FA
:1000000071EF26F0C96E1200B2EF1EF0F6EC16F09A
:10001000B3EC0CF0FDD71200A0EF21F0D9CFE5FF33
:10002000E1CFD9FF00C0E5FF01C0E5FF02C0E5FF59
:1000300003C0E5FF04C0E5FF05C0E5FF06C0E5FF1E
:1000400007C0E5FF08C0E5FF09C0E5FF0AC0E5FFFE
:100050000BC0E5FF0CC0E5FF0DC0E5FF0EC0E5FFDE
:100060000FC0E5FF10C0E5FF11C0E5FF12C0E5FFBE
:1000700013C0E5FF14C0E5FF15C0E5FF16C0E5FF9E
:1000800017C0E5FF18C0E5FF19C0E5FF1AC0E5FF7E
:100090001BC0E5FF1CC0E5FF1DC0E5FF1EC0E5FF5E
:1000A0001FC0E5FF20C0E5FF21C0E5FF22C0E5FF3E
:1000B00023C0E5FF24C0E5FF25C0E5FF26C0E5FF1E
:1000C00027C0E5FF020EDBCF00F0030EDBCF01F00F
:1000D000040EDBCF02F00250086E0150076E005094
:1000E000066EE56A160EE56E0850E56E0750E56E81
:1000F0000650E56E800EE56E040EE56E650EE56E4B
:10010000CDEC1AF0080EE12673C403F074C404F0B9
:1001100075C405F076C406F003C007F004C008F00B
:1001200005C009F006C00AF0D8800AAED8900AE3EC
:100130000A1E091E081E076C05E1082A03E1092AA8
:10014000D8B40A2A65C40BF066C40CF067C40DF07D
:1001500068C40EF0040169390F0B0F6E6A39106E16
:10016000F00B101A0F266B51E838F00B10126B3998
:100170000F0B116E6C39126EF00B121A1126F00E65
:1001800012B612260F500B5C0F6E10500C58106EEA
:1001900011500D58116E12500E58126E6DC413F09E
:1001A0006EC414F06FC415F070C416F01350141020
:1001B00015101610D8B447D00F50176E1050186E87
:1001C0001150196E12501A6E13501726145018221F
:1001D0001550192216501A22D89016301E6E15305E
:1001E0001D6E14301C6E13301B6E17261C50182207
:1001F0001D5019221E501A221650E56E1550E56E3C
:100200001450E56E1350E56E1A50E56E1950E56E08
:100210001850E56E1750E56E59EC16F0136EF3CFDB
:1002200014F0F4CF15F0E9CF16F0080EE1261B50BC
:10023000135C0F6E1C501458106E1D501558116E23
:100240001E501658126E1250800F810F08E1FF0EDB
:10025000115C05E1FF0E105C02E1FD0E0F5CD8A001
:1002600052D01250800F800F08E1000E115C05E1A2
:10027000000E105C02E1040E0F5CD8B044D00A34CA
:100280000A30166E0930156E0830146E0730136E82
:1002900079C417F07AC418F0E86A04017ABFFF0E37
:1002A000196E800FF36E1650800FF35C08E1155045
:1002B000195C05E11450185C02E11350175C23E34C
:1002C0000E38F00B166E0D38156E0F0B151A16261C
:1002D0000C50E8380F0B15120C38F00B146E0B385D
:1002E000136E0F0B131A142613500401696F145068
:1002F0006A6F15506B6F16506C6F736B746B756B08
:10030000766B25EF05F007380F0B0B6E08380C6E77
:10031000F00B0C1A0B260C320B320950E838E8406F
:10032000F80B0C12F00E0716073A083A0814081AD0
:1003300007260950E838F00B08120BC009F00CC072
:100340000AF0E86A0CBEFF0E0D6E0E6E07C013F0C9
:1003500008C014F0E86A08BEFF0E156EE56E155071
:10036000E56E1450E56E1350E56E0E50E56E0D50BF
:10037000E56E0A50E56E0950E56E7FEC0EF0096EF1
:10038000F3CF0AF0F4CF0DF0E9CF0EF0080EE1261E
:1003900079C413F07AC414F0E86A04017ABFFF0E3E
:1003A000156E166EE56E1550E56E1450E56E135021
:1003B000E56E0E50E56E0D50E56E0A50E56E095083
:1003C000E56E22EC14F0096EF3CF0AF0080EE12678
:1003D00071C40DF072C40EF0E86A040172BFFF0E22
:1003E000176E186E1838F00B1C6E17381B6E0F0B3B
:1003F0001B1A1C260E50E8380F0B1B120E38F00B80
:100400001A6E0D38196E0F0B191A1A26D88006AEFF
:10041000D890D8B06FD109C00DF00AC00EF0E86ACC
:100420000ABEFF0E176E800FF36E1250800FF35C42
:1004300008E11150175C05E110500E5C02E10F500D
:100440000D5CD8B02FD10650800FF36E1C50800F7A
:10045000F35C08E11B50055C05E11A50045C02E105
:100460001950035CD8B0F7D077C40DF078C40EF003
:10047000E86A040178BFFF0E176E186E03500D2650
:1004800004500E2205501722065018220D50040168
:10049000736F0E50746F1750756F1850766F79C464
:1004A0000DF07AC40EF077C417F078C418F00E502F
:1004B000800FF36E1850800FF35C02E117500D5C53
:1004C000D8B0ADD073C41DF074C41EF075C41FF055
:1004D00076C420F01D380F0B216E1E38226EF00BF3
:1004E000221A2126223221321F50E838E840F80B28
:1004F000221221500B6E22500C6E1D380F0B216EF4
:100500001E38226EF00B221A21261F50E838F00BFD
:1005100022122150076E2250086E0BC021F00CC031
:1005200022F0E86A0CBEFF0E236E246E07C025F091
:1005300008C026F0E86A08BEFF0E276EE56E275059
:10054000E56E2650E56E2550E56E2450E56E23508D
:10055000E56E2250E56E2150E56E7FEC0EF0216EC7
:10056000F3CF22F0F4CF23F0E9CF24F0080EE126F8
:100570000DC025F00EC026F0E86A0EBEFF0E276EF5
:10058000E56E2750E56E2650E56E2550E56E245049
:10059000E56E2350E56E2250E56E2150E56E22ECAB
:1005A00014F0216EF3CF22F0080EE1262150096EDF
:1005B00022500A6E09C021F00AC022F0E86A0ABE81
:1005C000FF0E236E246E1250800FF36E2450800FA6
:1005D000F35C08E12350115C05E12250105C02E15C
:1005E00021500F5C1CE20D50175C0D6E0E50185818
:1005F0000E6EE86A0EBEFF0E176E186E0D501D5E71
:100600000E501E5A17501F5A1850205A1D500401E0
:10061000736F1E50746F1F50756F2050766F1C5093
:10062000800FF36E04017651800FF35C08E1755181
:100630001B5C05E174511A5C02E17351195CD8B07E
:10064000DCD119500401736F1A50746F1B50756F11
:100650001C50766FD2D11C50800FF36E0650800F65
:10066000F35C08E105501B5C05E104501A5C02E1F3
:100670000350195CD8B0C1D11350035C0D6E1450F7
:1006800004580E6E15500558176E16500658186E01
:100690000D500401736F0E50746F1750756F185022
:1006A000766FABD177C40DF078C40EF0E86A040120
:1006B00078BFFF0E176E186E13500D2614500E22C1
:1006C00015501722165018220D50035C0D6E0E5057
:1006D00004580E6E17500558176E18500658186EAD
:1006E0000D500401736F0E50746F1750756F1850D2
:1006F000766F83D10A1E096CD8B40A2A09C00DF09E
:100700000AC00EF0E86A0ABEFF0E176E186E12508D
:10071000800FF36E1850800FF35C08E11750115CE6
:1007200005E10E50105C02E10D500F5CD8B042D1D3
:100730001C1C186E1B1C176E1A1C0E6E191C0D6EDD
:100740000D2A04E10E2A02E1174A182A1850800FD8
:10075000F36E0650800FF35C08E10550175C05E16D
:1007600004500E5C02E103500D5CD8B0FCD077C49D
:1007700019F078C41AF0E86A040178BFFF0E1B6E06
:100780001C6E1950035C196E1A5004581A6E1B50D7
:1007900005581B6E1C5006581C6E19500401736FCF
:1007A0001A50746F1B50756F1C50766F79C419F016
:1007B0007AC41AF077C41BF078C41CF01A50800F6A
:1007C000F36E1C50800FF35C02E11B50195CD8B033
:1007D000AED073C41DF074C41EF075C41FF076C48F
:1007E00020F01D380F0B216E1E38226EF00B221ADE
:1007F0002126223221321F50E838E840F80B22121D
:10080000221E216C02E1222A00E121500B6E2250AF
:100810000C6E1D380F0B216E1E38226EF00B221A43
:1008200021261F50E838F00B2212221E216C02E113
:10083000222A00E12150076E2250086EE86A0CBEA1
:10084000FF0E216E226EE86A08BEFF0E236EE56E73
:100850002350E56E0850E56E0750E56E2250E56EB8
:100860002150E56E0C50E56E0B50E56E7FEC0EF0FE
:10087000076EF3CF08F0F4CF0BF0E9CF0CF0080EC1
:10088000E12619C021F01AC022F0E86A1ABEFF0E54
:10089000236EE56E2350E56E2250E56E2150E56E25
:1008A0000C50E56E0B50E56E0850E56E0750E56E96
:1008B00022EC14F0076EF3CF08F0080EE126081EB4
:1008C000076C02E1082A00E10750096E08500A6E21
:1008D000E86A0ABEFF0E076E800FF36E1250800F9B
:1008E000F35C08E11150075C05E110500A5C02E17D
:1008F0000F50095C1CE219501B5C196E1A501C58F1
:100900001A6EE86A1ABEFF0E076E086E19501D2691
:100910001A501E2207501F22085020221D50040189
:10092000736F1E50746F1F50756F2050766F0401E7
:100930007651800FF36E1850800FF35C08E117506A
:10094000755D05E10E50745D02E10D50735DD8B028
:1009500054D00D500401736F0E50746F1750756FA3
:100960001850766F4AD00650800FF36E1850800FE3
:10097000F35C08E11750055C05E10E50045C02E1F0
:100980000D50035CD8B039D013500324076E1450B7
:100990000420086E15500520096E165006200A6EB8
:1009A00007500401736F0850746F0950756F0A5037
:1009B000766F23D077C407F078C408F0E86A0401A2
:1009C00078BFFF0E096E0A6E0750132608501422D6
:1009D000095015220A5016221350032614500422DF
:1009E000155005221650062203500401736F04505F
:1009F000746F0550756F0650766F040173390F0BD5
:100A0000036E7439046EF00B041A03267551E8382E
:100A1000F00B041275390F0B056E7639066EF00B6C
:100A2000061A0526F00E06B60626695103266A51F7
:100A300004226B5105226C5106220350696F045049
:100A40006A6F05506B6F06506C6F6DC403F06EC417
:100A500004F06FC405F070C406F0035004100510D4
:100A60000610D8B478D0D88004016CAFD8902DE3AC
:100A70000638F00B0A6E0538096E0F0B091A0A26A4
:100A80000450E8380F0B09120438F00B086E0338D5
:100A9000076E0F0B071A082669510B6E6A510C6E10
:100AA0006B510D6E6C510E6E0B5007260C500822C8
:100AB0000D5009220E500A220750696F08506A6FC4
:100AC00009506B6F0A506C6F46D00638F00B0A6EF7
:100AD0000538096E0F0B091A0A260450E8380F0B67
:100AE00009120438F00B086E0338076E0F0B071A53
:100AF000082604016951036E6A51046E6B51056E3C
:100B00006C51066E0A50065C08E10950055C05E16F
:100B10000850045C02E10750035C1DE304016951C5
:100B2000036E6A51046E6B51056E6C51066E075070
:100B3000035C076E08500458086E09500558096E8A
:100B40000A5006580A6E0750696F08506A6F0950BC
:100B50006B6F0A506C6FE56A160EE56E800EE56EDF
:100B6000040EE56E650EE56E0250E56E0150E56E11
:100B70000050E56ECDEC1AF0080EE126E4CF27F028
:100B8000E4CF26F0E4CF25F0E4CF24F0E4CF23F047
:100B9000E4CF22F0E4CF21F0E4CF20F0E4CF1FF047
:100BA000E4CF1EF0E4CF1DF0E4CF1CF0E4CF1BF047
:100BB000E4CF1AF0E4CF19F0E4CF18F0E4CF17F047
:100BC000E4CF16F0E4CF15F0E4CF14F0E4CF13F047
:100BD000E4CF12F0E4CF11F0E4CF10F0E4CF0FF047
:100BE000E4CF0EF0E4CF0DF0E4CF0CF0E4CF0BF047
:100BF000E4CF0AF0E4CF09F0E4CF08F0E4CF07F047
:100C0000E4CF06F0E4CF05F0E4CF04F0E4CF03F046
:100C1000E4CF02F0E4CF01F0E4CF00F0E4CFD9FF5D
:100C20001200D9CFE5FFE1CFD9FF00C0E5FF01C039
:100C3000E5FF02C0E5FF03C0E5FF04C0E5FF05C016
:100C4000E5FF06C0E5FF07C0E5FF08C0E5FF09C0F6
:100C5000E5FF0AC0E5FF0BC0E5FF0CC0E5FF0DC0D6
:100C6000E5FF0EC0E5FF0FC0E5FF10C0E5FF11C0B6
:100C7000E5FF12C0E5FF13C0E5FF14C0E5FF15C096
:100C8000E5FF16C0E5FF17C0E5FF18C0E5FF19C076
:100C9000E5FF1AC0E5FF1BC0E5FF1CC0E5FF1DC056
:100CA000E5FF1EC0E5FF020EDBCF00F0030EDBCF39
:100CB00001F0040EDBCF02F0050EDBCF03F0060ED1
:100CC000DBCF04F0070EDBCF05F0080EDBCF06F01C
:100CD000090EDBCF07F00A0EDBCF08F0096A0A6ABB
:100CE00002C00DF00D50800A0DE102500401986F12
:100CF0000150976F0050966F040E016E960E006EB5
:100D0000800E026E03C0E9FF04C0F3FF0550CDEC76
:100D100026F00B6E0B50D8B4C7EF09F00B50250A24
:100D200002E0AEEF09F00C6A0D6A0E6A0F6A106AF3
:100D30000A0E116E126A136A146A200E156E166876
:100D4000176A2B0E186E032A02E3044A052A03C011
:100D5000E9FF04C0F3FF0550CDEC26F0196E250A1B
:100D600013E11950E56E0250E56E0150E56E00503A
:100D7000E56E34EC19F0040EE126094A0A2A032A2A
:100D800002E3044A052ABED71950300A06E1300EA4
:100D9000156E032A02E3044A052A03C0E9FF04C0D2
:100DA000F3FF0550CDEC26F02D0A06E1010E146E7E
:100DB000032A02E3044A052A03C0E9FF04C0F3FF43
:100DC0000550CDEC26F0200A08E1010E176E200E2A
:100DD000186E032A02E3044A052A03C0E9FF04C08F
:100DE000F3FF0550CDEC26F02B0A06E1010E176E3D
:100DF000032A02E3044A052A03C0E9FF04C0F3FF03
:100E00000550CDEC26F0196E310E195C2BE33A0E2D
:100E1000195C28E203C019F004C01AF005C01BF0E9
:100E200019C0E9FF1AC0F3FF1B50CDEC26F01C6E71
:100E3000300E1C5C11E33A0E1C5C0EE213500A0DDE
:100E4000F3CF1DF01C501D26D00E1D24136E192A41
:100E500002E31A4A1B2AE4D719C003F01AC004F0AF
:100E60001BC005F003C0E9FF04C0F3FF0550CDEC43
:100E700026F02E0A2DE1032A02E3044A052A166A07
:100E800003C019F004C01AF005C01BF019C0E9FF37
:100E90001AC0F3FF1B50CDEC26F01C6E300E1C5C0C
:100EA00011E33A0E1C5C0EE216500A0DF3CF1DF052
:100EB0001C501D26D00E1D24166E192A02E31A4A54
:100EC0001B2AE4D719C003F01AC004F01BC005F0B8
:100ED00003C0E9FF04C0F3FF0550CDEC26F0196E06
:100EE0006C0A07E1010E0C6E032A02E3044A052A8C
:100EF00009D01950680A06E1010E0E6E032A02E3BA
:100F0000044A052A03C0E9FF04C0F3FF0550CDECF5
:100F100026F0750A06E1010E106E032A02E3044A68
:100F2000052A03C0E9FF04C0F3FF0550CDEC26F00D
:100F3000196E730A05E1010E0D6E200E156E3FD07D
:100F40001950780A03E1100E116E39D01950580A61
:100F500005E1100E116E010E126E31D01950630AA8
:100F600002E1116A2CD019506F0A03E1080E116ECC
:100F700026D01950660A03E1010E0F6E20D01950D9
:100F8000640A1DE01950690A1AE0105005E0FF0ECE
:100F900003260422052213D01950E56E0250E56E97
:100FA0000150E56E0050E56E34EC19F0040EE126B8
:100FB000094A0A2A032A02E3044A052AA3D60D5045
:100FC00021E00650030F0D6E000E0720196E000E73
:100FD00008201A6E0DC006F019C007F01AC008F0FC
:100FE000FD0E0D26FF0E19221A220DC0E9FF19C0B1
:100FF000F3FF1A5086EC25F00D6EF3CF19F0F4CF05
:101000001AF0FDD00F500DE0000E1A6E140E196E7E
:10101000160E0D6E040E0626000E07220822166814
:10102000EED016680C5023E00650040F0C6E000E34
:1010300007200F6E000E08201B6E0CC006F00FC0BC
:1010400007F01BC008F0FC0E0C26FF0E0F221B221F
:101050000CC0E9FF0FC0F3FF1B500CEC25F00C6E29
:10106000F3CF0FF0F4CF1BF0E9CF1CF067D00E5098
:101070002FE00650020F0E6E000E07201D6E000EB0
:1010800008201E6E0EC006F01DC007F01EC008F03E
:10109000FE0E0E26FF0E1D221E220EC0E9FF1DC0F1
:1010A000F3FF1E5045EC26F00E6E0EC00CF00F6ADA
:1010B0001B6A1C6A11500A0A03E11050D8B43ED0D2
:1010C0000C500E6E0EC00CF00F6A1B6A1C6A36D0F4
:1010D0000650020F0E6E000E07201D6E000E082037
:1010E0001E6E0EC006F01DC007F01EC008F0FE0EFA
:1010F0000E26FF0E1D221E220EC0E9FF1DC0F3FFAB
:101100001E5045EC26F00E6EF3CF1DF00EC00CF015
:101110001DC00FF0E86A1DBEFF0E1B6E1C6E115045
:101120000A0A02E110500AE00C500E6E0F501D6EBC
:101130000EC00CF01DC00FF01B6A1C6A040E196E65
:10114000240E0D6E800E1A6E1150D8B440D010507F
:1011500013E01150E56E040EE56E240EE56E1C5092
:10116000E56E1B50E56E0F50E56E0C50E56E74ECAD
:1011700012F0070EE12612D01150E56E040EE56E56
:10118000240EE56E1C50E56E1B50E56E0F50E56EAB
:101190000C50E56E4FEC1EF0070EE12617502FE0C5
:1011A0000DC0E9FF19C0F3FF1A50CDEC26F02D0A4F
:1011B00026E0FF0E0D2619221A2218C0E5FF0DC0E9
:1011C000E9FF19C0F3FF1A5050EC27F018D00CC0FB
:1011D000E5FF0DC0E9FF19C0F3FF1A5050EC27F0EE
:1011E0000D50010F0C6E000E19200E6E000E1A200D
:1011F000E56A0CC0E9FF0EC0F3FF50EC27F00DC00C
:101200000CF019C00EF01AC00FF013C010F01050FF
:1012100010E00CC0E9FF0EC0F3FF0F50CDEC26F03C
:10122000176E175006E00C2A02E30E4A0F2A10062A
:10123000EED710C013F014501EE109C00CF00AC024
:101240000EF010C00FF00F5010E01550E56E025078
:10125000E56E0150E56E0050E56E34EC19F0040EB9
:10126000E1260C4A0E2A0F06EED70CC009F00EC07C
:101270000AF00FC013F016C00CF00DC00DF019C02D
:101280000EF01AC00FF009C010F00AC015F00DC022
:10129000E9FF0EC0F3FF0F50CDEC26F0166E16508E
:1012A000D8B43ED00CC016F0176A161E171E165082
:1012B000171005E00CC016F00C06165031E00DC0FA
:1012C000E9FF0EC0F3FF0F50CDEC26F0116E125067
:1012D00010E01150E56E02EC26F0166EE652165044
:1012E00004E0DF0E1114166E02D011C016F016C005
:1012F00011F01150E56E0250E56E0150E56E0050A0
:10130000E56E34EC19F0040EE1260D2A02E30E4AD4
:101310000F2A104A152A1350D8B4B9D71306B7D7D5
:1013200010C009F015C00AF014502BE010C00CF0EA
:1013300015C00DF013C00EF00E501FE0200EE56E2C
:101340000250E56E0150E56E0050E56E34EC19F088
:10135000040EE1260C4A0D2A0E06EED70B50E56E60
:101360000250E56E0150E56E0050E56E34EC19F068
:10137000040EE126094A0A2A04D00CC009F00DC067
:101380000AF0032A02E3044A052A82EF06F00AC0A3
:10139000F3FF0950E4CF1EF0E4CF1DF0E4CF1CF0C2
:1013A000E4CF1BF0E4CF1AF0E4CF19F0E4CF18F04B
:1013B000E4CF17F0E4CF16F0E4CF15F0E4CF14F04B
:1013C000E4CF13F0E4CF12F0E4CF11F0E4CF10F04B
:1013D000E4CF0FF0E4CF0EF0E4CF0DF0E4CF0CF04B
:1013E000E4CF0BF0E4CF0AF0E4CF09F0E4CF08F04B
:1013F000E4CF07F0E4CF06F0E4CF05F0E4CF04F04B
:10140000E4CF03F0E4CF02F0E4CF01F0E4CF00F04A
:10141000E4CFD9FF12003C4E4F20464C4F41543E82
:101420000000D9CFE5FFE1CFD9FF00C0E5FF01C043
:10143000E5FF02C0E5FF03C0E5FF04C0E5FF05C00E
:10144000E5FF06C0E5FF07C0E5FF08C0E5FF09C0EE
:10145000E5FF0AC0E5FF0BC0E5FF0CC0E5FF0DC0CE
:10146000E5FF0EC0E5FF020EDBCF00F0030EDBCF81
:1014700001F0040EDBCF02F0036A046A056A066A13
:101480004BEC24F0076EFE0A01E0D3D020EC20F0F4
:101490004BEC24F0086E085014E00850010A2CE0D0
:1014A0000850020A01E143D008500A0A01E15AD06B
:1014B00008500B0A01E165D008500D0A01E18ED0F9
:1014C000A2D000500C0F096E000E01200A6E000E13
:1014D000022009C0E9FF0AC0F3FF45EC26F0096EBF
:1014E000F3CF0AF009C003F00AC004F0E86A0ABEAC
:1014F000FF0E056E066E87D00050120F096E000EAB
:1015000001200A6E000E022009C0E9FF0AC0F3FFA5
:1015100045EC26F0096EF3CF0AF009C003F00AC0CB
:1015200004F0E86A0ABEFF0E056E066E6CD000502D
:10153000140F096E000E01200A6E000E022009C071
:10154000E9FF0AC0F3FF45EC26F0096EF3CF0AF07D
:1015500009C003F00AC004F0E86A0ABEFF0E056E77
:10156000066E51D000C0E9FF01C0F3FF02500CEC41
:1015700025F0036EF3CF04F0F4CF05F0E9CF06F0C9
:1015800042D00050040F096E000E01200A6E000EBA
:10159000022009C0E9FF0AC0F3FF0CEC25F0096E38
:1015A000F3CF0AF0F4CF0BF0E9CF0CF009380F0BB2
:1015B000036E0A38046EF00B041A03260B50E83849
:1015C000F00B04120B380F0B056E0C38066EF00B87
:1015D000061A0526F00E06B6062615D00050080F8E
:1015E000096E000E01200A6E000E022009C0E9FFFC
:1015F0000AC0F3FF0CEC25F0036EF3CF04F0F4CF38
:1016000005F0E9CF06F00650E56E0550E56E045092
:10161000E56E0350E56EE56A0850E56E000EE56E76
:101620003A0EE56EFE0EE56EE1EC21F0090EE126C4
:1016300079D1075019E00750010A01E13ED0075067
:10164000020A01E163D007500A0A01E188D007507D
:101650000B0A01E1BCD007500C0A01E1F0D00750A1
:101660000D0A01E124D15ED100500C0F076E000E6F
:101670000120086E000E0220096E4BEC24F00D6E66
:101680000C6AE56A0DC0F4FF07C0E9FF08C0F3FF6C
:10169000095017EC27F04BEC24F00B6A0C260B508A
:1016A0000D220CC0E5FF0DC0F4FF07C0E9FF08C024
:1016B000F3FF095017EC27F035D10050120F076ED9
:1016C000000E0120086E000E0220096E4BEC24F083
:1016D0000D6E0C6AE56A0DC0F4FF07C0E9FF08C093
:1016E000F3FF095017EC27F04BEC24F00B6A0C26A3
:1016F0000B500D220CC0E5FF0DC0F4FF07C0E9FF41
:1017000008C0F3FF095017EC27F00CD10050140F5C
:10171000076E000E0120086E000E0220096E4BECD1
:1017200024F00D6E0C6AE56A0DC0F4FF07C0E9FFF6
:1017300008C0F3FF095017EC27F04BEC24F00B6ABC
:101740000C260B500D220CC0E5FF0DC0F4FF07C0A6
:10175000E9FF08C0F3FF095017EC27F0E3D04BEC8A
:1017600024F00A6E096A4BEC24F0086A0926085036
:101770000A220A500E6E09500D6E0B6A0C6A4BEC71
:1017800024F00A6E086A4BEC24F0076A082607501A
:101790000A22096A08500B10036E0A500C10046EDE
:1017A00007500D10056E09500E10E56E0550E56EE0
:1017B0000450E56E0350E56E0250E56E0150E56E93
:1017C0000050E56EAFEC15F0070EE126ABD04BEC08
:1017D00024F00A6E096A4BEC24F0086A09260850C6
:1017E0000A220A500E6E09500D6E0B6A0C6A4BEC01
:1017F00024F00A6E086A4BEC24F0076A08260750AA
:101800000A22096A08500B10036E0A500C10046E6D
:1018100007500D10056E09500E10E56E0550E56E6F
:101820000450E56E0350E56E0250E56E0150E56E22
:101830000050E56E8EEC11F0070EE12673D04BECF4
:1018400024F00A6E096A4BEC24F0086A0926085055
:101850000A220A500E6E09500D6E0B6A0C6A4BEC90
:1018600024F00A6E086A4BEC24F0076A0826075039
:101870000A22096A08500B10036E0A500C10046EFD
:1018800007500D10056E09500E10E56E0550E56EFF
:101890000450E56E0350E56E0250E56E0150E56EB2
:1018A0000050E56E50EC13F0070EE1263BD04BECF8
:1018B00024F00A6E096A4BEC24F0086A09260850E5
:1018C0000A220A500E6E09500D6E0B6A0C6A4BEC20
:1018D00024F00A6E086A4BEC24F0076A08260750C9
:1018E0000A22096A08500B10036E0A500C10046E8D
:1018F00007500D10056E09500E10066E080E0026DA
:10190000000E0122022203C0E5FF04C0F4FF05C05F
:10191000F6FF06C0F7FF00C0E9FF01C0F3FF025069
:10192000BCEC26F0E4CF0EF0E4CF0DF0E4CF0CF0E9
:10193000E4CF0BF0E4CF0AF0E4CF09F0E4CF08F0F5
:10194000E4CF07F0E4CF06F0E4CF05F0E4CF04F0F5
:10195000E4CF03F0E4CF02F0E4CF01F0E4CF00F0F5
:10196000E4CFD9FF120000C0E5FF01C0E5FF02C0CF
:10197000E5FF03C0E5FF04C0E5FF05C0E5FF06C0C5
:10198000E5FF07C0E5FF08C0E5FF09C0E5FF0AC0A5
:10199000E5FF0BC0E5FFA7EC18F021EC24F0006E8A
:1019A000F3CF01F0F4CF02F0E9CF03F0040134519A
:1019B000005E3551015A3651025A3751035A039E7F
:1019C0003F0E035C08E1FF0E025C05E1FF0E015CC7
:1019D00002E1FF0E005CD8B079D121EC24F0F3CF06
:1019E00001F0F4CF02F0E9CF03F0100F0401346FDF
:1019F000270E0120356F000E0220366F000E0320E7
:101A0000376F04019D519E111FE0040E016E4F0EB1
:101A1000006E800E026E9DC403F09EC404F0E86A5E
:101A20009EBFFF0E056EE56E0550E56E0450E56E37
:101A30000350E56E0250E56E0150E56E0050E56E14
:101A4000F1EC14F0070EE126040145512FE0456B3F
:101A50009FC400F0A0C401F0E86A0401A0BFFF0E1B
:101A6000026E036E005004013B5D006E01503C5954
:101A7000016E02503D59026E03503E59036E04013F
:101A8000A051E56E9F51E56E0350E56E0250E56E84
:101A90000150E56E0050E56E000EE56E2E0EE56E0F
:101AA000EC0EE56EE1EC21F0090EE126800EE56E0C
:101AB000040EE56E4F0EE56E0EEC00F0030EE1260F
:101AC0003BC43FF43CC440F43DC441F43EC442F442
:101AD000040153390F0B04013B6F04015439040115
:101AE0003C6FF00B3C1B3B2704015551E838F00BD1
:101AF00004013C13040155390F0B04013D6F04012F
:101B0000563904013E6FF00B3E1B3D27F00E3EA7F9
:101B100001D03E2704013F5104013B5D0401816F68
:101B20000401405104013C590401826F04014151F8
:101B300004013D590401836F0401425104013E59DF
:101B40000401846F57C400F058C401F059C402F076
:101B50005AC403F00050011002100310D8B448D04A
:101B60008151046E8251056E8351066E8451076E59
:101B7000005004260150052202500622035007227D
:101B8000D89003300B6E02300A6E0130096E0030BF
:101B9000086E0426095005220A5006220B5007221F
:101BA0000350E56E0250E56E0150E56E0050E56EA3
:101BB0000750E56E0650E56E0550E56E0450E56E83
:101BC00059EC16F0006EF3CF01F0F4CF02F0E9CF3C
:101BD00003F0080EE1260850005C0401816F0950F3
:101BE0000158826F0A500258836F0B500358846F5C
:101BF00004018151006E8251E56E0050E56E9CEC4F
:101C000024F00401996FF3CF9AF4E652E652006A89
:101C100081B4002A005003E1006A002A01D0006A62
:101C2000E56A0050E56E04013E51E56E3D51E56EFA
:101C30003C51E56E3B51E56E000EE56E2E0EE56EF5
:101C4000F80EE56EE1EC21F0090EE1260401995150
:101C50009A11D8B43BD0D8809AAFD89007E39A1D98
:101C6000016E991D006E004A012A04D099C400F04B
:101C70009AC401F000C099F401C09AF404019A5189
:101C8000E56E9951E56E750EE56E300EE56ECAECA7
:101C90001BF004019B6FF3CF9CF4040EE126000EB1
:101CA0009C5D02E11E0E9B5D04E21E0E04019B6F13
:101CB0009C6B0CC0E5FFF2CF0CF0F29E9BC443F48A
:101CC0009CC444F40CBEF28EE4CF0CF0E4CF0BF0D5
:101CD000E4CF0AF0E4CF09F0E4CF08F0E4CF07F056
:101CE000E4CF06F0E4CF05F0E4CF04F0E4CF03F056
:101CF000E4CF02F0E4CF01F0E4CF00F01200D9CF3E
:101D0000E5FFE1CFD9FF00C0E5FF01C0E5FF02C05C
:101D1000E5FF03C0E5FF04C0E5FF05C0E5FF06C021
:101D2000E5FF07C0E5FF020EDBCF00F0030EDBCFBF
:101D300001F0040EDBCF02F0050EDBCF03F0060E40
:101D4000DBCF04F0070EDBCF05F0080EDBCF06F08B
:101D5000090EDBCF07F0005004018E6F01508F6F2A
:101D60000250906F0350916F04500F01236F055084
:101D7000246F0650256F0750266F04018E510F0106
:101D80002503F4CF01F0F3CF00F000500F01296FCD
:101D900001502A6F04018E510F012303F4CF01F08B
:101DA000F3CF00F000500F01276F0150286F04019E
:101DB00091510F012303F3CF00F00F012A510026A8
:101DC00000502A6F040190510F012403F3CF01F05A
:101DD0000150002600500F012A6F040190510F019D
:101DE0002303F4CF01F0F3CF00F00F0129510026B7
:101DF0002A5101220050296F01502A6F04018F518E
:101E00000F012403F4CF03F0F3CF02F002500026B9
:101E10000350012200500F01296F01502A6F040165
:101E20008F510F012503F3CF00F000500F012E6FEB
:101E300004018F510F012303F4CF01F0F3CF00F021
:101E400000500F012C6F01502D6F04018E510F01B6
:101E50002603F3CF00F000500F01326F04018E51C2
:101E60000F012403F4CF01F0F3CF00F000500F0175
:101E7000306F0150316F0F012B6B0F012F6B0F0172
:101E80002B510F012725006E0F012C510F01282126
:101E9000016E0F012D510F012921026E0F012E51EC
:101EA0000F012A21036E0050276F0150286F025046
:101EB000296F03502A6F0F012F510F012725006E44
:101EC0000F0130510F012821016E0F0131510F0117
:101ED0002921026E0F0132510F012A21036E03C026
:101EE000E9FF02C0F4FF01C0F3FF0050E4CF07F0A8
:101EF000E4CF06F0E4CF05F0E4CF04F0E4CF03F044
:101F0000E4CF02F0E4CF01F0E4CF00F0E4CFD9FF5A
:101F1000120000C0E5FF01C0E5FF04014B51D8B439
:101F2000F7D09DA81DD09EA81BD00401B25104017A
:101F3000AF1905E1FBEC26F00401AF6BE9D0000E10
:101F40000401B225006E016A040E012200C0E9FFFF
:101F500001C0EAFFEFCFABF4B22BABC4ADFFD8D0DA
:101F60009DAAD6D09EAAD4D0ABA205D00401B08140
:101F7000FBEC26F0CDD0ABA405D00401B083FBEC84
:101F800026F0C6D0ABA03ED0AECFABF4800E04019D
:101F90004C110401AB1904E10401B089AB96B8D02F
:101FA0000401AB5104E0AB5104014C1927E10401D9
:101FB000B099AB960401AB5103E00401B09702D095
:101FC0000401B087ABC4B4F4ADC4B5F40401AD05ED
:101FD0000401B66F600E0401B525006E016A000EA3
:101FE000012200C0E9FF01C0EAFFABC4EFFFB52B3F
:101FF000B551800A02E10401B56B8AD00401B099A1
:10200000AB8686D0AECFABF40401B0A919D0800E58
:1020100004014C110401AB1911E19D9AAB98949005
:102020000401AF5104E1AD6AFBEC26F007D000C417
:10203000ADFF010E0401B26F9D886AD0AB8668D0F7
:102040000401AB510401B4270401B5510401B619D0
:102050001BE10401B4510CE1B5C4ADF40401B0B707
:1020600012D09D9AAB989490AD6AFBEC26F00BD001
:102070000401B085B0B707D09D9AAB989490010E3B
:10208000AD6EFBEC26F044D00401B5510401AE194D
:1020900008E10401AE510401AD1903E0FBEC26F0A8
:1020A00037D0ADC400F0016A004A012AE56A800E0B
:1020B000E56E0150E56E0050E56E41EC1CF0006EDF
:1020C000040EE12600500401AC6F0401B5190CE1C7
:1020D0001F0E0401AB150401B66FB62BB62B04011D
:1020E000AD510401B627B69FB5C400F00401B52B6D
:1020F000016A600E0026000E012200C0E9FF01C047
:10210000EAFFABC4EFFFB551800A02E10401B56BF1
:10211000E4CF01F0E4CF00F0120000C0E5FF01C001
:10212000E5FF02C0E5FF03C0E5FF04C0E5FF05C011
:10213000E5FF06C0E5FF07C0E5FF08C0E5FF4BEC83
:1021400024F0006E010A29E00050020A01E183D068
:1021500000500A0A01E18CD000500B0A01E191D035
:1021600000500C0A01E196D000500D0A01E19BD00D
:102170000050320A01E1A0D00050640A01E1A7D06A
:102180000050650A01E1A9D00050660A01E1A8D01B
:102190000050FF0A01E1A9D0AED04BEC24F0046E50
:1021A000036A4BEC24F0026A032602500422045016
:1021B000086E0350076E056A066A4BEC24F0046E45
:1021C000026A4BEC24F0016A0226015004220250FC
:1021D00005120450061201500712081209C0E5FF4B
:1021E000F2CF09F0F29E0F01366B376B05C03BF45E
:1021F00006C03CF407C03DF408C03EF405C03FF4FF
:1022000006C040F407C041F408C042F409BEF28E93
:10221000E4CF09F009C0E5FFF2CF09F0F29E300EDD
:102220000401436F750E446F09BEF28EE4CF09F0CE
:102230000850E56E0750E56E0650E56E0550E56EF8
:10224000800EE56E040EE56E4F0EE56E8EEC11F01D
:10225000070EE12650D04BEC24F004019E6F9D6BDD
:102260004BEC24F0026A04019D2702509E2343D0C8
:102270004BEC24F0006E005002E089843CD089943D
:102280003AD04BEC24F0006E005002E0898833D045
:10229000899831D04BEC24F0006E005002E0898C1C
:1022A0002AD0899C28D04BEC24F0006E005002E02C
:1022B000898A21D0899A1FD0800EE56E040EE56EC2
:1022C0004F0EE56E11EC0AF0030EE12614D0040166
:1022D0007B6B7C6B7D6B7E6B0ED098EC26F00BD00D
:1022E000F092F0880401456B06D04BEC24F0FF0A15
:1022F00002E15BEC27F0E4CF08F0E4CF07F0E4CF95
:1023000006F0E4CF05F0E4CF04F0E4CF03F0E4CF2F
:1023100002F0E4CF01F0E4CF00F01200D9CFE5FFE6
:10232000E1CFD9FF00C0E5FF01C0E5FF02C0E5FF36
:1023300003C0E5FF04C0E5FF05C0E5FF06C0E5FFFB
:1023400007C0E5FF08C0E5FF09C0E5FF0AC0E5FFDB
:102350000BC0E5FF0CC0E5FF0DC0E5FF0EC0E5FFBB
:10236000020EDBCF00F0030EDBCF01F0040EDBCF5B
:1023700002F0050EDBCF03F0060EDBCF04F0070EF4
:10238000DBCF05F0080EDBCF06F00050080F076E1C
:10239000000E0120086E000E022007C0E9FF08C0F1
:1023A000F3FF0CEC25F0076EF3CF08F0F4CF09F043
:1023B000E9CF0AF0081009100A102AE003500B6E4A
:1023C00004500C6E05500D6E06500E6E07500B2615
:1023D00008500C2209500D220A500E22E56E0950B9
:1023E000E56E0850E56E0750E56E0E50E56E0D5037
:1023F000E56E0C50E56E0B50E56E59EC16F0036E71
:10240000F3CF04F0F4CF05F0E9CF06F0080EE12693
:1024100003C0E5FF04C0F4FF05C0F6FF06C0F7FFE8
:1024200000C0E9FF01C0F3FF0250BCEC26F00050F1
:10243000040F076E000E0120086E000E0220096EC8
:102440000638F00B0D6E05380C6E0F0B0C1A0D26AE
:102450000450E8380F0B0C120438F00B0B6E0338E5
:102460000A6E0F0B0A1A0B260AC0E5FF0BC0F4FF19
:102470000CC0F6FF0DC0F7FF07C0E9FF08C0F3FF6F
:102480000950BCEC26F00E0E0026000E012202229E
:10249000E56AF46AF66AF76A00C0E9FF01C0F3FF73
:1024A0000250BCEC26F0E4CF0EF0E4CF0DF0E4CF08
:1024B0000CF0E4CF0BF0E4CF0AF0E4CF09F0E4CF66
:1024C00008F0E4CF07F0E4CF06F0E4CF05F0E4CF66
:1024D00004F0E4CF03F0E4CF02F0E4CF01F0E4CF66
:1024E00000F0E4CFD9FF1200D9CFE5FFE1CFD9FF4B
:1024F00000C0E5FF01C0E5FF02C0E5FF03C0E5FF46
:1025000004C0E5FF05C0E5FF06C0E5FF07C0E5FF25
:1025100008C0E5FF09C0E5FF0AC0E5FF0BC0E5FF05
:102520000CC0E5FF0DC0E5FF0EC0E5FF0FC0E5FFE5
:10253000020EDBCF00F0030EDBCF01F0040EDBCF89
:1025400002F0050EDBCF03F0060EDBCF04F0070E22
:10255000DBCF05F0080EDBCF06F0200E076E086A11
:1025600006C009F00A6A0B6A0C6AE56AE56AE56A60
:102570000950E56E0350E56E0250E56E0150E56EC0
:102580000050E56E59EC16F00D6E080EE126300E87
:102590000D263A0E0D5C05E30D500E6E270E0E242F
:1025A0000D6EFF0E07260822E00E07240E6E000EA9
:1025B00008200F6E0EC0E9FF0FC0EAFF0DC0EFFF4D
:1025C0000C50E56E0B50E56E0A50E56E0950E56E55
:1025D0000350E56E0250E56E0150E56E0050E56E69
:1025E0008AEC17F0006EF3CF01F0F4CF02F0E9CFE0
:1025F00003F0080EE1260050011002100310D8A4C9
:10260000AFD707C000F008C001F004C002F005C059
:1026100003F000C004F001C005F0004A012AE00EFA
:102620000426000E052204C0E9FF05C0EAFFEFCF33
:1026300004F002C0E9FF03C0EAFF04C0EFFF024A52
:10264000032A000E015C02E1200E005CE2E302C0FE
:10265000E9FF03C0EAFF000EEF6AE4CF0FF0E4CF1A
:102660000EF0E4CF0DF0E4CF0CF0E4CF0BF0E4CFAC
:102670000AF0E4CF09F0E4CF08F0E4CF07F0E4CFAC
:1026800006F0E4CF05F0E4CF04F0E4CF03F0E4CFAC
:1026900002F0E4CF01F0E4CF00F0E4CFD9FF120064
:1026A000D9CFE5FFE1CFD9FF00C0E5FF01C0E5FFCD
:1026B00002C0E5FF03C0E5FF04C0E5FF05C0E5FF7C
:1026C00006C0E5FF07C0E5FF08C0E5FF09C0E5FF5C
:1026D0000AC0E5FF0BC0E5FF0CC0E5FF0DC0E5FF3C
:1026E0000EC0E5FF020EDBCF00F0030EDBCF01F0E2
:1026F000040EDBCF02F0050EDBCF03F0060EDBCFBE
:1027000004F0070EDBCF05F0080EDBCF06F000501B
:10271000080F076E000E0120086E000E022007C091
:10272000E9FF08C0F3FF0CEC25F0076EF3CF08F0CB
:10273000F4CF09F0E9CF0AF0081009100A102AE0D6
:1027400003500B6E04500C6E05500D6E06500E6E4D
:1027500007500B2608500C2209500D220A500E2259
:10276000E56E0950E56E0850E56E0750E56E0E50B7
:10277000E56E0D50E56E0C50E56E0B50E56E59ECB4
:1027800016F0036EF3CF04F0F4CF05F0E9CF06F0B6
:10279000080EE12603C0E5FF04C0F4FF05C0F6FF04
:1027A00006C0F7FF00C0E9FF01C0F3FF0250BCEC18
:1027B00026F0040E0026000E012202220638F00B3D
:1027C0000A6E0538096E0F0B091A0A260450E838FC
:1027D0000F0B09120438F00B086E0338076E0F0B4D
:1027E000071A082607C0E5FF08C0F4FF09C0F6FF76
:1027F0000AC0F7FF00C0E9FF01C0F3FF0250BCECC4
:1028000026F0E4CF0EF0E4CF0DF0E4CF0CF0E4CFEF
:102810000BF0E4CF0AF0E4CF09F0E4CF08F0E4CF06
:1028200007F0E4CF06F0E4CF05F0E4CF04F0E4CF06
:1028300003F0E4CF02F0E4CF01F0E4CF00F0E4CF06
:10284000D9FF1200D9CFE5FFE1CFD9FF00C0E5FFE6
:1028500001C0E5FF02C0E5FF03C0E5FF04C0E5FFDE
:1028600005C0E5FF06C0E5FF07C0E5FF08C0E5FFBE
:1028700009C0E5FF0AC0E5FF0BC0E5FF0CC0E5FF9E
:102880000DC0E5FF020EDBCF00F0030EDBCF01F041
:10289000040EDBCF02F0050EDBCF03F0060EDBCF1C
:1028A00004F0070EDBCF05F0080EDBCF06F0090EB3
:1028B000DBCF07F0D88003AED890086A08360850FE
:1028C0000FE0031C0C6E021C0B6E011C0A6E001C38
:1028D000096E092A0DE10A2A0BE10B4A0C2A08D0DD
:1028E00000C009F001C00AF002C00BF003C00CF0F8
:1028F000D88007AED890006A003600500FE0071C61
:102900000D6E061C036E051C026E041C016E012A6E
:102910000DE1022A0BE1034A0D2A08D004C001F0A0
:1029200005C002F006C003F007C00DF00D50E56EC3
:102930000350E56E0250E56E0150E56E0C50E56EF9
:102940000B50E56E0A50E56E0950E56E8AEC17F003
:10295000016EF3CF02F0F4CF03F0E9CF04F0080EDC
:10296000E1260050081A085016E0041C076E031CEC
:10297000066E021C056E011C006E002A04E1052A89
:1029800002E1064A072A07C0E9FF06C0F4FF05C0B6
:10299000F3FF005007D004C0E9FF03C0F4FF02C0FA
:1029A000F3FF0150E4CF0DF0E4CF0CF0E4CF0BF0D7
:1029B000E4CF0AF0E4CF09F0E4CF08F0E4CF07F069
:1029C000E4CF06F0E4CF05F0E4CF04F0E4CF03F069
:1029D000E4CF02F0E4CF01F0E4CF00F0E4CFD9FF80
:1029E0001200D9CFE5FFE1CFD9FF00C0E5FF01C05C
:1029F000E5FF02C0E5FF03C0E5FF04C0E5FF05C039
:102A0000E5FF06C0E5FF07C0E5FF08C0E5FF09C018
:102A1000E5FF0AC0E5FF0BC0E5FF0CC0E5FF0DC0F8
:102A2000E5FF0EC0E5FF020EDBCF00F0030EDBCFAB
:102A300001F0040EDBCF02F0050EDBCF03F0060E33
:102A4000DBCF04F0070EDBCF05F0080EDBCF06F07E
:102A500000C0E9FF01C0F3FF02500CEC25F0F3CFFA
:102A600008F0F4CF09F0E9CF0AF003260850042259
:102A7000095005220A5006220050080F076E000E6A
:102A80000120086E000E022007C0E9FF08C0F3FF16
:102A90000CEC25F0076EF3CF08F0F4CF09F0E9CF86
:102AA0000AF0081009100A102AE003500B6E0450B7
:102AB0000C6E05500D6E06500E6E07500B2608501A
:102AC0000C2209500D220A500E22E56E0950E56EC7
:102AD0000850E56E0750E56E0E50E56E0D50E56E40
:102AE0000C50E56E0B50E56E59EC16F0036EF3CF0B
:102AF00004F0F4CF05F0E9CF06F0080EE12603C09C
:102B0000E5FF04C0F4FF05C0F6FF06C0F7FF00C0F4
:102B1000E9FF01C0F3FF0250BCEC26F0E4CF0EF059
:102B2000E4CF0DF0E4CF0CF0E4CF0BF0E4CF0AF0EB
:102B3000E4CF09F0E4CF08F0E4CF07F0E4CF06F0EB
:102B4000E4CF05F0E4CF04F0E4CF03F0E4CF02F0EB
:102B5000E4CF01F0E4CF00F0E4CFD9FF1200D9CFE9
:102B6000E5FFE1CFD9FF00C0E5FF01C0E5FF02C0EE
:102B7000E5FF03C0E5FF04C0E5FF05C0E5FF06C0B3
:102B8000E5FF07C0E5FF08C0E5FF09C0E5FF0AC093
:102B9000E5FF0BC0E5FF0CC0E5FF0DC0E5FF0EC073
:102BA000E5FF020EDBCF00F0030EDBCF01F0040ED9
:102BB000DBCF02F0050EDBCF03F0060EDBCF04F017
:102BC000070EDBCF05F0080EDBCF06F00050080F34
:102BD000076E000E0120086E000E022007C0E9FFFC
:102BE00008C0F3FF0CEC25F0076EF3CF08F0F4CF2C
:102BF00009F0E9CF0AF0081009100A102AE0035082
:102C00000B6E04500C6E05500D6E06500E6E075084
:102C10000B2608500C2209500D220A500E22E56E98
:102C20000950E56E0850E56E0750E56E0E50E56EF2
:102C30000D50E56E0C50E56E0B50E56E59EC16F03C
:102C4000036EF3CF04F0F4CF05F0E9CF06F0080EE1
:102C5000E12603C0E5FF04C0F4FF05C0F6FF06C08F
:102C6000F7FF00C0E9FF01C0F3FF0250BCEC26F003
:102C7000E4CF0EF0E4CF0DF0E4CF0CF0E4CF0BF096
:102C8000E4CF0AF0E4CF09F0E4CF08F0E4CF07F096
:102C9000E4CF06F0E4CF05F0E4CF04F0E4CF03F096
:102CA000E4CF02F0E4CF01F0E4CF00F0E4CFD9FFAD
:102CB0001200D9CFE5FFE1CFD9FF00C0E5FF01C089
:102CC000E5FF02C0E5FF03C0E5FF04C0E5FF05C066
:102CD000E5FF06C0E5FF07C0E5FF08C0E5FF09C046
:102CE000E5FF0AC0E5FF020EDBCF00F0030EDBCFED
:102CF00001F0040EDBCF02F0050EDBCF03F0060E71
:102D0000DBCF04F0070EDBCF05F0080EDBCF06F0BB
:102D1000090EDBCF07F0086A0450051006100710F3
:102D200005E1E968F468F368E86847D0096A075084
:102D3000800BE8440A6E0A501BE104500426053655
:102D4000063607360750035C08E10650025C05E1D1
:102D50000550015C02E10450005C06E2D8900732A5
:102D600006320532043204D0092A09C008F0DFD740
:102D70000750035C08E10650025C05E10550015C68
:102D800002E10450005C08E30450005E0550015A63
:102D90000650025A0750035AD890073206320532BD
:102DA000043208C009F008060950E2E103C0E9FF57
:102DB00002C0F4FF01C0F3FF0050E4CF0AF0E4CFFB
:102DC00009F0E4CF08F0E4CF07F0E4CF06F0E4CF59
:102DD00005F0E4CF04F0E4CF03F0E4CF02F0E4CF59
:102DE00001F0E4CF00F0E4CFD9FF120000C0E5FF0E
:102DF00001C0E5FF02C0E5FF03C0E5FF05C0E5FF38
:102E00007EEC27F094928B9221EC24F0F3CF01F02A
:102E1000F4CF02F0E9CF03F0880F0401346F130EF2
:102E20000120356F000E0220366F000E0320376F31
:102E3000898E898289848988898C898A929E9292D6
:102E400092949298929C929A9384810E006E0F0EA7
:102E5000016E0F0E036E380E0026035001220F0E76
:102E6000036E800E005E0350015A810E026E0F0E3B
:102E7000036E0F0E056E380E0226055003220F0E4C
:102E8000056E800E025E0550035A02C0E9FF03C0C2
:102E9000EAFFEFCF02F0029400C0E9FF01C0EAFFB1
:102EA00002C0EFFFF08EF1980F014E6B0F014E89BB
:102EB0004E8B4E837F824E917E927D824E81800E1C
:102EC000E56E040EE56E4F0EE56E1CEC1DF0030E74
:102ED000E12665EC27F0E4CF05F0E4CF03F0E4CF82
:102EE00002F0E4CF01F0E4CF00F0120043692025A6
:102EF0006C642025640A0000437020256C64202542
:102F0000640A00004300256300004363203D202540
:102F10006C640A00D9CFE5FFE1CFD9FF00C0E5FF1F
:102F200001C0E5FF02C0E5FF03C0E5FF04C0E5FF07
:102F300005C0E5FF06C0E5FF07C0E5FF08C0E5FFE7
:102F400009C0E5FF0AC0E5FF0BC0E5FF0CC0E5FFC7
:102F50000DC0E5FF020EDBCF00F0030EDBCF01F06A
:102F6000040EDBCF02F0050EDBCF03F0060EDBCF45
:102F700004F0070EDBCF05F0080EDBCF06F0090EDC
:102F8000DBCF07F0086A096A0A6A0B6A200E0C6E2A
:102F90000350800BE8440D6E0050002601360236C7
:102FA00003360850082609360A360B360D50D8A4C9
:102FB000088007500B5C08E106500A5C05E10550EB
:102FC000095C02E10450085C09E30450085E055006
:102FD000095A06500A5A07500B5A00800C040D6E0D
:102FE0000DC00CF00D50D4E103C0E9FF02C0F4FFA6
:102FF00001C0F3FF0050E4CF0DF0E4CF0CF0E4CFBC
:103000000BF0E4CF0AF0E4CF09F0E4CF08F0E4CF0E
:1030100007F0E4CF06F0E4CF05F0E4CF04F0E4CF0E
:1030200003F0E4CF02F0E4CF01F0E4CF00F0E4CF0E
:10303000D9FF120000C0E5FF01C0E5FF03C0E5FFB6
:1030400004C0E5FF05C0E5FF06C0E5FF07C0E5FFDA
:1030500008C0E5FF09C0E5FF0AC0E5FF0BC0E5FFBA
:10306000A1C400F0A2C401F00401A13F01D0A22B31
:103070000050E56EEDEC26F0E652076E046A056A34
:10308000066AA1C400F0A2C401F00401A13F01D06E
:10309000A22B0050E56EEDEC26F0E6520B6A0A6EAC
:1030A000086A0850041205120A5006120B50071243
:1030B000A1C400F0A2C401F00401A13F01D0A22BE1
:1030C0000050E56EEDEC26F0E652036E006A03C098
:1030D00001F0E86A03BEFF0E086E096E005004128C
:1030E000015005120850061209500712A1C400F041
:1030F000A2C401F00401A13F01D0A22B0050E56E53
:10310000EDEC26F0E652016A041201500512061297
:10311000071207C0E9FF06C0F4FF05C0F3FF045023
:10312000E4CF0BF0E4CF0AF0E4CF09F0E4CF08F0ED
:10313000E4CF07F0E4CF06F0E4CF05F0E4CF04F0ED
:10314000E4CF03F0E4CF01F0E4CF00F0120000C0C0
:10315000E5FF01C0E5FF02C0E5FF03C0E5FF04C0D5
:10316000E5FF0401AE510401AD1901E15FD0AEC429
:1031700000F0002A009E600E0024016E026A000E1C
:10318000022201C0E9FF02C0EAFFEFCFB8F41F0E30
:103190000401B817AEC4B7F4B8510401B727B72B70
:1031A000B72BB79F4BEC24F0016E015003E1016A8D
:1031B000012A01D0016A4BEC24F00401B86F800EA3
:1031C000B815026E1F0EB815036E03C004F003C0DD
:1031D000B8F4045003E1ADC4AEF43BD001501BE0A1
:1031E000025022E04BEC24F0006E0401B8070050BE
:1031F000420A1AE000504E0A03E15EEC21F014D0BE
:103200000050460A03E145EC27F00ED00050490A71
:103210000BE1FF0009D0AEC4B9F4025003E060EC4A
:1032200022F002D08DEC10F0B7C4AEF40401485186
:103230000401491906E00401AF5103E1C0EC19F0A3
:1032400008D094B006D00401AF5103E1ACB2FBEC5E
:1032500026F0E4CF04F0E4CF03F0E4CF02F0E4CFB3
:1032600001F0E4CF00F01200D9CFE5FFE1CFD9FFA4
:1032700000C0E5FF01C0E5FF02C0E5FF03C0E5FFB8
:1032800004C0E5FF05C0E5FF06C0E5FF07C0E5FF98
:10329000020EDBCF00F0030EDBCF01F0040EDBCF1C
:1032A00002F0050EDBCF03F002C006F00650046EFC
:1032B000800A33E100C0E9FF01C0F3FF025086EC51
:1032C00025F0056EF3CF06F0F4CF07F003C0E5FF5D
:1032D00005C0E9FF06C0F3FF075050EC27F000C01F
:1032E000E9FF01C0F3FF025086EC25F0056EF3CF35
:1032F00006F0F4CF07F0052A02E3064A072A05C0C4
:10330000E5FF06C0F4FF07C0F6FF00C0E9FF01C0FB
:10331000F3FF0250DEEC26F020D004C000F000AA3B
:103320001CD0007A0050046E04E1035083EC27F0B7
:1033300014D00450010A04E1035002EC00F00DD057
:1033400004500F0A04E10350BFEC23F006D00450F0
:103350000E0A03E1035093EC27F0E4CF07F0E4CF2B
:1033600006F0E4CF05F0E4CF04F0E4CF03F0E4CFBF
:1033700002F0E4CF01F0E4CF00F0E4CFD9FF120077
:1033800000C0E5FF01C0E5FF02C0E5FF03C0E5FFA7
:10339000ACA276D02CEC25F0006E005005E10401C3
:1033A000496B0401486B6CD049C401F00050012600
:1033B0002CEC25F0026E00060250230A1FE1010EDC
:1033C000005CD8A05BD02CEC25F0026E690A03E10A
:1033D000F0EC23F053D00250720A03E1FBEC26F02C
:1033E0004DD00250730A01E049D09480AB869D8A8B
:1033F0009D98AE50AE50AB98AB8840D00250430A77
:1034000005E00250420A01E039D001D0008E00C030
:10341000B1F400500401006F010E0401B26F040109
:103420004951011814E02CEC25F0026E0401B1277B
:10343000000E0401B225006E036A040E032200C0D0
:10344000E9FF03C0EAFF02C0EFFFB22BE8D7000E8E
:103450000401B225006E026A040E02220401B11DAD
:10346000036E032A00C0E9FF02C0EAFF03C0EFFFBA
:103470000401B22BB2C4AFF40401A96B01C049F43A
:10348000E4CF03F0E4CF02F0E4CF01F0E4CF00F0AA
:103490001200D9CFE5FFE1CFD9FF00C0E5FF01C0A1
:1034A000E5FF02C0E5FF03C0E5FF04C0E5FF05C07E
:1034B000E5FF06C0E5FF020EDBCF00F0030EDBCF19
:1034C00001F0040EDBCF02F0050EDBCF03F003C0EA
:1034D00004F0056A0350D8B44FD000C0E9FF01C022
:1034E000F3FF0250CDEC26F0066E430A03E1010E15
:1034F000056E038E0406002A02E3014A022A9D9A01
:10350000AB9894909D989EA8FED7AC80AD6A0000C1
:103510009EA8FED7AC9003C0ADFF00009EA8FED7CA
:10352000055004E0420EAD6E032604D0620EAD6E6F
:10353000620E0326045015E000009EA8FED700C0CE
:10354000E9FF01C0F3FF0250CDEC26F0056E05C087
:10355000ADFF055003260406002A02E3014A022AB1
:10356000E9D700009EA8FED7031CAD6EAD2A00006F
:103570009EA8FED7FBEC26F0E4CF06F0E4CF05F0E2
:10358000E4CF04F0E4CF03F0E4CF02F0E4CF01F0A5
:10359000E4CF00F0E4CFD9FF1200D9CFE5FFE1CFAF
:1035A000D9FF00C0E5FF01C0E5FF02C0E5FF03C091
:1035B000E5FF04C0E5FF05C0E5FF06C0E5FF07C065
:1035C000E5FF08C0E5FF09C0E5FF0AC0E5FF0BC045
:1035D000E5FF0CC0E5FF020EDBCF00F0030EDBCFF2
:1035E00001F0040EDBCF02F0050EDBCF03F0060E78
:1035F000DBCF04F0070EDBCF05F0080EDBCF06F0C3
:10360000090EDBCF07F002500A6E0150096E005020
:10361000086E06C00BF007C00CF0FF0E062607224E
:103620000B500C101AE003C0E9FF04C0F3FF055073
:10363000CDEC26F00B6E032A02E3044A052A0BC0E8
:10364000E5FF08C0E9FF09C0F3FF0A5050EC27F07E
:10365000082ADFE3094A0A2ADCD702C0F4FF01C0C6
:10366000F3FF0050E4CF0CF0E4CF0BF0E4CF0AF00E
:10367000E4CF09F0E4CF08F0E4CF07F0E4CF06F0A0
:10368000E4CF05F0E4CF04F0E4CF03F0E4CF02F0A0
:10369000E4CF01F0E4CF00F0E4CFD9FF1200D9CF9E
:1036A000E5FFE1CFD9FF00C0E5FF01C0E5FF02C0A3
:1036B000E5FF03C0E5FF04C0E5FF05C0E5FF06C068
:1036C000E5FF07C0E5FF020EDBCF00F0030EDBCF06
:1036D00001F0040EDBCF02F0050EDBCF03F049C48E
:1036E0004AF40401485104014A5F4A0703C004F048
:1036F000056A030E0426D8B0052A4AC406F0076AF4
:103700000750800FF36E0550800FF35C02E1045008
:10371000065C02E2E8682BD0020E035C02E2E86A73
:1037200026D003060350E56EDAEC22F0E652046A76
:103730000350045C14E204500024056EE86A012082
:10374000066EE86A022005C0E9FF06C0F3FFCDEC73
:1037500026F0042AE56EDAEC22F0E652E9D749C4F5
:103760004AF40401485104014A5F4A07E86AE4CF79
:1037700007F0E4CF06F0E4CF05F0E4CF04F0E4CFA7
:1037800003F0E4CF02F0E4CF01F0E4CF00F0E4CFA7
:10379000D9FF1200D9CFE5FFE1CFD9FF00C0E5FF87
:1037A00001C0E5FF02C0E5FF03C0E5FF04C0E5FF7F
:1037B00005C0E5FF06C0E5FF07C0E5FF020EDBCF51
:1037C00000F0030EDBCF01F0040EDBCF02F0050E9C
:1037D000DBCF03F0D88001AED890046A04360450E1
:1037E00007E0011C066E001C056E054A062A04D07F
:1037F00000C005F001C006F0D88003AED890006A82
:103800000036005007E0031C076E021C016E014ADF
:10381000072A04D002C001F003C007F00750E56E8C
:103820000150E56E0650E56E0550E56EC8EC1FF0E0
:10383000016EF3CF02F0040EE1260050041A04508A
:103840000AE0021C036E011C006E004A032A03C03A
:10385000F3FF005003D002C0F3FF0150E4CF07F0A4
:10386000E4CF06F0E4CF05F0E4CF04F0E4CF03F0BA
:10387000E4CF02F0E4CF01F0E4CF00F0E4CFD9FFD1
:103880001200D9CFE5FFE1CFD9FF00C0E5FF01C0AD
:10389000E5FF02C0E5FF03C0E5FF04C0E5FF05C08A
:1038A000E5FF06C0E5FF020EDBCF00F0030EDBCF25
:1038B00001F0040EDBCF02F0050EDBCF03F0D88061
:1038C00001AED890046A0436045007E0011C066E6D
:1038D000001C056E054A062A04D000C005F001C090
:1038E00006F0D88003AED89007E3031C016E021CDB
:1038F000006E004A012A04D002C000F003C001F0AB
:103900000150E56E0050E56E0650E56E0550E56E1F
:1039100012EC1FF0006EF3CF01F0040EE12604500C
:103920000AE0011C036E001C026E024A032A03C057
:10393000F3FF025003D001C0F3FF0050E4CF06F0C4
:10394000E4CF05F0E4CF04F0E4CF03F0E4CF02F0DD
:10395000E4CF01F0E4CF00F0E4CFD9FF1200D9CFDB
:10396000E5FFE1CFD9FF00C0E5FF01C0E5FF02C0E0
:10397000E5FF03C0E5FF04C0E5FF05C0E5FF020E5B
:10398000DBCF00F0030EDBCF01F0040EDBCF02F043
:10399000050EDBCF03F0A1C404F0A2C405F00401BE
:1039A000A13F01D0A22B0350E56E0450E56EE8EC78
:1039B00024F0E652E652A1C404F0A2C405F00401CA
:1039C000A13F01D0A22B0250056EE56E0450E56EBA
:1039D000E8EC24F0E652E652A1C404F0A2C405F0DB
:1039E0000401A13F01D0A22B0150056EE56E0450E9
:1039F000E56EE8EC24F0E652E652A1C404F0A2C45D
:103A000005F00401A13F01D0A22B0050E56E045047
:103A1000E56EE8EC24F0E652E652E4CF05F0E4CFA0
:103A200004F0E4CF03F0E4CF02F0E4CF01F0E4CF00
:103A300000F0E4CFD9FF1200D9CFE5FFE1CFD9FFE5
:103A400000C0E5FF01C0E5FF02C0E5FF03C0E5FFE0
:103A500004C0E5FF020EDBCF00F0030EDBCF01F068
:103A6000040EDBCF02F0E56AF46AF66AF76A00C07A
:103A7000E9FF01C0F3FF0250BCEC26F00050040F38
:103A8000036E000E0120046E000E0220E56AF46A47
:103A9000F66AF76A03C0E9FF04C0F3FFBCEC26F046
:103AA00000500E0F036E000E0120046E000E022067
:103AB000E56AF46AF66AF76A03C0E9FF04C0F3FF37
:103AC000BCEC26F0080E0026000E01220222E56A58
:103AD000F46AF66AF76A00C0E9FF01C0F3FF02501A
:103AE000BCEC26F0E4CF04F0E4CF03F0E4CF02F026
:103AF000E4CF01F0E4CF00F0E4CFD9FF1200256459
:103B000020256C640A00D9CFE5FFE1CFD9FF00C0C2
:103B1000E5FF01C0E5FF02C0E5FF03C0E5FF04C00B
:103B2000E5FF05C0E5FF06C0E5FF020EDBCF00F0B4
:103B3000030EDBCF01F0040EDBCF02F004017F5156
:103B400019E11AEC18F0036EF3CF04F0F4CF05F08E
:103B5000E9CF06F003C0E5FF04C0F4FF05C0F6FF9F
:103B600006C0F7FF00C0E9FF01C0F3FF0250BCEC44
:103B700026F01ED004017F51010A1AE100C0E9FFBE
:103B800001C0F3FF02500CEC25F0006EF3CF01F002
:103B9000F4CF02F0E9CF03F00350E56E0250E56E7A
:103BA0000150E56E0050E56EAFEC1CF0040EE1260E
:103BB000E4CF06F0E4CF05F0E4CF04F0E4CF03F067
:103BC000E4CF02F0E4CF01F0E4CF00F0E4CFD9FF7E
:103BD0001200D9CFE5FFE1CFD9FF00C0E5FF01C05A
:103BE000E5FF02C0E5FF03C0E5FF04C0E5FF020EEC
:103BF000DBCF00F0030EDBCF01F0040EDBCF02F0D1
:103C000000500C0F036E000E0120046E000E022007
:103C1000E56E0450E56E0350E56EC2EC20F0030E35
:103C2000E1260050120F036E000E0120046E000EFC
:103C30000220E56E0450E56E0350E56EC2EC20F004
:103C4000030EE1260050140F036E000E0120046ED7
:103C5000000E0220E56E0450E56E0350E56EC2ECE6
:103C600020F0030EE126080E0026000E012202229B
:103C70000250E56E0150E56E0050E56E83EC1DF0DC
:103C8000030EE126E4CF04F0E4CF03F0E4CF02F02A
:103C9000E4CF01F0E4CF00F0E4CFD9FF1200D9CF98
:103CA000E5FFE1CFD9FF00C0E5FF01C0E5FF02C09D
:103CB000E5FF03C0E5FF04C0E5FF05C0E5FF06C062
:103CC000E5FF020EDBCF00F0030EDBCF01F0040EA8
:103CD000DBCF02F0050EDBCF03F0060EDBCF04F0E6
:103CE000070EDBCF05F0080EDBCF06F0D88003AE61
:103CF000D89015E306500A0A12E104C0E9FF05C096
:103D0000EAFF2D0EEF6E044A052A031E021E011E55
:103D1000006C05E1012A03E1022AD8B4032A065007
:103D2000E56E0550E56E0450E56E0350E56E0250F9
:103D3000E56E0150E56E0050E56E74EC12F0070E72
:103D4000E126E4CF06F0E4CF05F0E4CF04F0E4CFC1
:103D500003F0E4CF02F0E4CF01F0E4CF00F0E4CFD1
:103D6000D9FF1200D8CFE5FFE0CFE5FFE56EF3CF36
:103D7000E5FFF4CFE5FFE9CFE5FFEACFE5FFFACFB6
:103D8000E5FFFBCFE5FFF6CFE5FFF6CFE5FFF7CF89
:103D9000E5FFF8CFE5FFF5CFE5FFE1CFE5FFE2CFA7
:103DA000E5FF040146510401876F040147510401F6
:103DB000886FD650856FD750866FF2A411D004015A
:103DC000463F01D0472BF294040146510401876F0E
:103DD000040147510401886FD650856FD750866F14
:103DE0006FEC1FF0E4CFE2FFE4CFE1FFE4CFF5FF9B
:103DF000E4CFF8FFE4CFF7FFE4CFF6FFE4CFF6FF20
:103E0000E4CFFBFFE4CFFAFFE4CFEAFFE4CFE9FF22
:103E1000E4CFF4FFE4CFF3FFE450E4CFE0FFE4CFDE
:103E2000D8FF1000D9CFE5FFE1CFD9FF00C0E5FFF3
:103E300001C0E5FF02C0E5FF03C0E5FF04C0E5FFE8
:103E400005C0E5FF06C0E5FF020EDBCF00F0030E64
:103E5000DBCF01F0040EDBCF02F0050EDBCF03F069
:103E6000046A056A0350800BE844066E065011E1AF
:103E70000250022603360350015C02E10250005C4E
:103E800004E2D8900332023204D0052A05C004F0BF
:103E9000E9D70350015C02E10250005C04E30250E8
:103EA000005E0350015AD8900332023204C005F07C
:103EB00004060550EEE101C0F3FF0050E4CF06F028
:103EC000E4CF05F0E4CF04F0E4CF03F0E4CF02F058
:103ED000E4CF01F0E4CF00F0E4CFD9FF120000C03E
:103EE000E5FF01C0E5FF02C0E5FF03C0E5FF7EA2DC
:103EF00039D004014451E56E4351E56EE56A020E86
:103F0000E56E72EC20F0006EF3CF01F0040EE126B6
:103F10000050FF08006EFF0E01560150026E036A4A
:103F200002500F01506F016A00500F014F6F7E92D7
:103F3000D8800F0137AFD89006E3899E363F01D075
:103F4000372B898E1CD00F013751800F800F02E173
:103F5000010E365D14E38992FF0E0F0136273723D9
:103F600089820DD0F0A80BD0F0A209D0F092F09881
:103F7000010E0401456F36CF9FF437CFA0F4E4CF94
:103F800003F0E4CF02F0E4CF01F0E4CF00F0120040
:103F9000D9CFE5FFE1CFD9FF00C0E5FF01C0E5FFC4
:103FA00002C0E5FF03C0E5FF04C0E5FF05C0E5FF73
:103FB00006C0E5FF07C0E5FF020EDBCF00F0030EF1
:103FC000DBCF01F0040EDBCF02F0050EDBCF03F0F8
:103FD000046A056A100E066E0150800BE844076EF5
:103FE0000050002601360450042605360750D8A498
:103FF00004800350055C02E10250045C05E30250BA
:10400000045E0350055A00800604076E07C006F0E0
:104010000750E2E101C0F3FF0050E4CF07F0E4CF26
:1040200006F0E4CF05F0E4CF04F0E4CF03F0E4CFF2
:1040300002F0E4CF01F0E4CF00F0E4CFD9FF1200AA
:1040400000C0E5FF01C0E5FF02C0E5FF03C0E5FFDA
:10405000AEC400F0016AB9C402F0036A0250005E07
:104060000350015AE56A800EE56E0150E56E00507E
:10407000E56E41EC1CF0006E040EE1260006B9C4AA
:1040800001F0430EBFEC23F0200EBFEC23F00050F4
:1040900020E0600E0124026E036A000E032202C0BB
:1040A000E9FF03C0EAFFEFCF02F0E56A0250E56ED8
:1040B000000EE56E4E0EE56E0E0EE56EE1EC21F0A3
:1040C000050EE126012A0150800A01E1016A00067D
:1040D000DED7E4CF03F0E4CF02F0E4CF01F0E4CF89
:1040E00000F01200D9CFE5FFE1CFD9FF00C0E5FF16
:1040F00001C0E5FF02C0E5FF03C0E5FF020EDBCF14
:1041000000F0030EDBCF01F0040EDBCF02F0050E52
:10411000DBCF03F000500401A36F0150A46F0250E5
:104120000401A56F0350A66F0401A3510401A50368
:10413000F4CF01F0F3CF00F000500401A76F01505D
:10414000A86F0401A3510401A603F3CF00F00401FA
:10415000A4510401A503F3CF01F00150002604018E
:10416000A85100260050A86FA8C4F3FFA751E4CFC0
:1041700003F0E4CF02F0E4CF01F0E4CF00F0E4CFAD
:10418000D9FF1200D9CFE5FFE1CFD9FF00C0E5FF8D
:1041900001C0E5FF02C0E5FF03C0E5FF04C0E5FF85
:1041A000020EDBCF00F0030EDBCF01F0040EDBCFFD
:1041B00002F004017F5111E18BEC23F0036EF3CF89
:1041C00004F003C0E5FF04C0F4FF00C0E9FF01C034
:1041D000F3FF025017EC27F016D004017F51010ABB
:1041E00012E100C0E9FF01C0F3FF025045EC26F0E8
:1041F000006EF3CF01F00150E56E0050E56E9DECCE
:1042000022F0E652E652E4CF04F0E4CF03F0E4CF2C
:1042100002F0E4CF01F0E4CF00F0E4CFD9FF1200C8
:10422000EE0EF66E4E0EF76E000EF86E0900F550AB
:10423000056E0900F550066E04E1056702D05DEFDA
:1042400021F00900F550006E0900F550016E0900DB
:10425000F550026E09000900F550E96E0900F550AD
:10426000EA6E090009000900F550036E0900F550D7
:10427000046E09000900F6CF07F0F7CF08F0F8CF79
:1042800009F000C0F6FF01C0F7FF02C0F8FF0350BD
:1042900002E1045007E00900F550EE6E0306F8E273
:1042A0000406F9D707C0F6FF08C0F7FF09C0F8FFFA
:1042B000050601E206061CEF21F0120000C0E5FF32
:1042C00001C0E5FF02C0E5FF4BEC24F0006E4BECB3
:1042D00024F0016E0050026ED00E0224006E0A0E11
:1042E000005C05E30050026EF90E0224006E0150DE
:1042F000026ED00E0224016E0A0E015C05E301502D
:10430000026EF90E0224016E080E005C12E2100E1D
:10431000015CD8B00ED00038F00B0124006E51ECD7
:1043200023F0016E015005E10050E56EBBEC25F075
:10433000E652E4CF02F0E4CF01F0E4CF00F0120047
:10434000D8CFE5FFE0CFE5FFE56EF3CFE5FFF4CF93
:10435000E5FFE9CFE5FFEACFE5FFFACFE5FFFBCFC9
:10436000E5FFF6CFE5FFF6CFE5FFF7CFE5FFF8CFA6
:10437000E5FFF5CFE5FFE1CFE5FFE2CFE5FF89EC13
:104380000FF0E4CFE2FFE4CFE1FFE4CFF5FFE4CFAD
:10439000F8FFE4CFF7FFE4CFF6FFE4CFF6FFE4CF7A
:1043A000FBFFE4CFFAFFE4CFEAFFE4CFE9FFE4CF7D
:1043B000F4FFE4CFF3FFE450E4CFE0FFE4CFD8FF15
:1043C0001000D9CFE5FFE1CFD9FF00C0E5FF01C064
:1043D000E5FF02C0E5FF020ED924006E000EDA20D0
:1043E000016E800E026E030E0026000E01220222D4
:1043F0000250E56E0150E56E0050E56E040EDBCF15
:10440000E5FF030EDBCFE5FF020EDBCFE5FF0F017B
:104410003551E56E3451E56E3351E56E11EC06F021
:10442000006EF3CF01F0090EE12601C0F3FF00504A
:10443000E4CF02F0E4CF01F0E4CF00F0E4CFD9FF05
:104440001200D9CFE5FFE1CFD9FF00C0E5FF01C0E1
:10445000E5FF02C0E5FF03C0E5FF020EDBCF00F081
:10446000030EDBCF01F0040EDBCF02F004017F511D
:104470000DE119EC26F0036E03C0E5FF00C0E9FF73
:1044800001C0F3FF025050EC27F00FD004017F5120
:10449000010A0BE100C0E9FF01C0F3FF0250CDECBF
:1044A00026F0E56EC2EC24F0E652E4CF03F0E4CF50
:1044B00002F0E4CF01F0E4CF00F0E4CFD9FF120026
:1044C00000C0E5FF01C0E5FF4BEC24F0006E4C0A94
:1044D00008E14BEC24F0300A02E08B8229D08B9269
:1044E00027D00050450A24E1000EE56E2F0EE56E40
:1044F000040EE56EE1EC21F0030EE1268DEC27F0D1
:10450000006E00C001F0000601500FE04BEC24F0FB
:10451000E56AE56E000EE56E2F0EE56E060EE56EA1
:10452000E1EC21F0050EE126ECD70A0EBFEC23F0FA
:10453000E4CF01F0E4CF00F01200D9CFE5FFE1CFE6
:10454000D9FF00C0E5FF01C0E5FF02C0E5FF03C0E1
:10455000E5FF020EDBCF00F0030EDBCF01F0A1C4BC
:1045600002F0A2C403F00401A13F01D0A22B01502C
:10457000E56E0250E56EE8EC24F0E652E652A1C486
:1045800002F0A2C403F00401A13F01D0A22B00500D
:10459000E56E0250E56EE8EC24F0E652E652E4CF18
:1045A00003F0E4CF02F0E4CF01F0E4CF00F0E4CF79
:1045B000D9FF1200D9CFE5FFE1CFD9FF00C0E5FF59
:1045C00001C0E5FF02C0E5FF03C0E5FF04C0E5FF51
:1045D000020EDBCF00F048C401F0026A014A022A51
:1045E00049C403F0046A0150031803E1025004189F
:1045F00001E001D00ED0000E04014825016E026AD0
:10460000010E022201C0E9FF02C0EAFF00C0EFFF75
:10461000482BE4CF04F0E4CF03F0E4CF02F0E4CF82
:1046200001F0E4CF00F0E4CFD9FF1200D9CFE5FFCD
:10463000E1CFD9FF00C0E5FF01C0E5FF02C0E5FF03
:1046400003C0E5FF020EDBCF00F0016AB9C402F03F
:10465000036A0250002603500122E56A800EE56ECF
:104660000150E56E0050E56E41EC1CF0006EF3CF9A
:1046700001F0040EE126600E0026000E012200C0AB
:10468000E9FF01C0EAFFEFCF00F00050E4CF03F0F4
:10469000E4CF02F0E4CF01F0E4CF00F0E4CFD9FFA3
:1046A000120000C0E5FF01C0E5FF02C0E5FF010EFA
:1046B000006E4BEC24F0016E01C002F0015023E0CB
:1046C0000050E56EEDEC26F0016EE652015010E16F
:1046D0000A0E005C0BE20A0E006EE56EEDEC26F0B1
:1046E000016EE652015004E1E8680ED0E8680CD093
:1046F0000150021802E0E86807D0002A1B0E005C97
:10470000D8E3E86801D0E86AE4CF02F0E4CF01F032
:10471000E4CF00F0120000C0E5FF01C0E5FF02C0D9
:10472000E5FF03C0E5FFA1C400F0A2C401F004014D
:10473000A13F01D0A22B0050E56EEDEC26F0E65231
:10474000036E026AA1C400F0A2C401F00401A13FFB
:1047500001D0A22B0050E56EEDEC26F0E652016A86
:1047600002120150031203C0F3FF0250E4CF03F022
:10477000E4CF02F0E4CF01F0E4CF00F0120000C07B
:10478000E5FF01C0E5FF02C0E5FF006E000E040179
:104790004D25016E026A0F0E022201C0E9FF02C020
:1047A000EAFF00C0EFFF220E4D5D01E24D2B0050ED
:1047B0000A0A0FE104014D51E56E800EE56E0F0E01
:1047C000E56E000EE56E4FEC1BF0040EE1260401D1
:1047D0004D6BE4CF02F0E4CF01F0E4CF00F0120023
:1047E0000401486B0401496B04014A6994808B9071
:1047F0009480B06A3F0EAF6EB886AC8AAC84AC8C45
:10480000AC90AB8CAB8E0401B06B0401AA6B0401BD
:10481000AD6B0401AE6B0401AF6B000EE56AEDEC0D
:1048200026F004014C6FE6529F989F9A010E0401F6
:104830004B6F0F01336B346B2F0E356FFBEC26F093
:1048400012000401465104018C6F04014751040118
:104850008D6FD6508A6FD7508B6F8C5104014619DB
:1048600005E104018D51040147190CE00401465192
:1048700004018C6F0401475104018D6FD6508A6F7B
:10488000D7508B6F8DC4E9FF8CC4F4FF8BC4F3FF4A
:1048900004018A51120000C0E5FF01C0E5FF0401D8
:1048A000AE510401B71905E00401AE510401AD1980
:1048B00002E1E86A15D0AEC400F00401AE2B016A33
:1048C000600E0026000E012200C0E9FF01C0EAFFD1
:1048D000EFCF00F0AE51800A02E10401AE6B005050
:1048E000E4CF01F0E4CF00F0120000C0E5FF87EC58
:1048F00027F00401896B806B8983006A89B3002AE1
:104900000050010BE844F46E8051FD0BF410806FF1
:10491000D58ED59CD59AD588D596D594D582D58077
:10492000F28AF184D08EF28EF28CBA80FF0EBB68D0
:10493000BA84E4CF00F01200D9CFE5FFE1CFD9FF70
:1049400000C0E5FF01C0E5FF02C0E5FFF2CF02F0C5
:10495000F29E020EDBCF00F0030EDBCF01F0005021
:104960000F0136270150372337CFF3FF365102BEF0
:10497000F28EE4CF02F0E4CF01F0E4CF00F0E4CF18
:10498000D9FF1200D9CFE5FFE1CFD9FF00C0E5FF85
:1049900001C0E5FF02C0E5FF020EDBCF00F0A1C4BD
:1049A00001F0A2C402F00401A13F01D0A22B0050EB
:1049B000E56E0150E56EE8EC24F0E652E652E4CFF5
:1049C00002F0E4CF01F0E4CF00F0E4CFD9FF120011
:1049D000D9CFE5FFE1CFD9FF00C0E5FF020EDBCF65
:1049E00000F0030EDBCFA8FF00C0A9FFA69EA69C87
:1049F000A684F29EF29C550EA76EAA0EA76EA68202
:104A0000A6A202D00000FCD7A694F28EF28CE4CFCE
:104A100000F0E4CFD9FF1200E8AE0AD0F3CFEAFFEE
:104A2000EE50EECFF3FFEECFF4FFEECFE9FF120032
:104A3000E8BC9AEF27F0E9CFF6FFF3CFF7FFF86E67
:104A40000900F5500900F5CFF3FF0900F5CFF4FF99
:104A50000900F5CFE9FF120000C0E5FF01C0E5FF46
:104A6000040148510401491902E1E86A0FD0000E1F
:104A700004014925006E016A010E012200C0E9FF10
:104A800001C0EAFFEFCF00F0492B0050E4CF01F066
:104A9000E4CF00F01200F2CFEAFFF29EA69EA69CA1
:104AA000A684E9CFA9FFF3CFAAFFE4CFA8FF6EEC5D
:104AB00027F0F4CFA8FF6EEC27F0F6CFA8FF6EEC3E
:104AC00027F0F7CFA8FF6EEC27F0A694EABEF28E8F
:104AD0001200F2CFF6FFF29EA69EA69CE9CFA9FF98
:104AE000F3CFAAFFA680A850A94AAA2AA680A8CFD9
:104AF000F3FFA94AAA2AA680A8CFF4FFA94AAA2AA6
:104B0000A680A8CFEAFFF6BEF28E1200E8AE08D06B
:104B1000F3CFEAFFEE50EECFF3FFEECFF4FF12003B
:104B2000E8BCA2EF27F0E9CFF6FFF3CFF7FFF86E6E
:104B30000900F5500900F5CFF3FF0900F5CFF4FFA8
:104B40001200F2CFEAFFF29EA69EA69CA684E9CFB1
:104B5000A9FFF3CFAAFFE4CFA8FF6EEC27F0F4CFB4
:104B6000A8FF6EEC27F0F6CFA8FF6EEC27F0A69416
:104B7000EABEF28E1200D9CFE5FFE1CFD9FF00C027
:104B8000E5FF020EDBCF00F000C04CF40050E56EF4
:104B9000000EE56AE8EC24F0E652E652E4CF00F0BD
:104BA000E4CFD9FF1200F2CFF6FFF29EA69EA69C9C
:104BB000E9CFA9FFF3CFAAFFA680A850A94AAA2A45
:104BC000A680A8CFF3FFA94AAA2AA680A8CFF4FFFF
:104BD000F6BEF28E120000C0E5FF01C0E5FF600ED8
:104BE0000401AE25006E016A000E012200C0E9FF3B
:104BF00001C0EAFFEFCF00F00050E4CF01F0E4CFB6
:104C000000F01200D9CFE5FFE1CFD9FF00C0E5FFEA
:104C1000020EDBCF00F0610E005C05E37B0E005C52
:104C200002E2010E01D0E86AE4CF00F0E4CFD9FF40
:104C3000120000C0E5FF01C0E5FFA1C400F0A2C45E
:104C400001F00401A13F01D0A22B0050E56EEDEC74
:104C500026F0E652E4CF01F0E4CF00F01200D9CF05
:104C6000E5FFE1CFD9FF00C0E5FF020EDBCF00F08A
:104C700000C04BF4005004E1FBEC26F09D9A9D9897
:104C8000E4CF00F0E4CFD9FF1200E8AE06D0F3CFB6
:104C9000EAFFEE50EECFF3FF1200E8BC98EF27F0EA
:104CA000E9CFF6FFF3CFF7FFF86E0900F5500900E2
:104CB000F5CFF3FF1200F2CFEAFFF29EA69EA69C6C
:104CC000A684E9CFA9FFF3CFAAFFE4CFA8FF6EEC3B
:104CD00027F0F4CFA8FF6EEC27F0A694EABEF28E80
:104CE000120012EEFFF022EEFFF0F86AA68EA69CEC
:104CF000E9680E0EEA6E0068000EED6A0050FDE1F4
:104D000010EC21F006EC00F0FFD7F2CFF6FFF29E98
:104D1000A69EA69CE9CFA9FFF3CFAAFFA680A85024
:104D2000A94AAA2AA680A8CFF3FFF6BEF28E1200E7
:104D3000E56A030EE56E0D0EE56E4A0EE56E000E99
:104D4000E56E2F0EE56E0A0EE56EE1EC21F0070E22
:104D5000E1261200F2CFEAFFF29EA69EA69CA68450
:104D6000E9CFA9FFF3CFAAFFE4CFA8FF6EEC27F0AD
:104D7000A694EABEF28E1200E8AE0BD0F3CFEAFFA3
:104D8000E4CFEEFFF4CFEEFFF6CFEEFFF7CFEEFF6E
:104D90001200E8BC9CEF27F01200E8AE04D0F3CF7D
:104DA000EAFFEE501200E8BC96EF27F0E9CFF6FFDD
:104DB000F3CFF7FFF86E0900F5501200E8AE09D006
:104DC000F3CFEAFFE4CFEEFFF4CFEEFFF6CFEEFF36
:104DD0001200E8BCA4EF27F01200D9CFE5FFE1CF25
:104DE000D9FF020EDBCFA9FFA69CA69EA680A850E5
:104DF000E4CFD9FF1200ACA2FED79480AE500000E1
:104E0000AE50AB98AB88AB869D8A9D981200256406
:104E10002000F2CFF6FFF29EA69EA69CE9CFA9FF46
:104E2000F3CFAAFFA680A850F6BEF28E1200E8AE1D
:104E300007D0F3CFEAFFE4CFEEFFF4CFEEFF12008E
:104E4000E8BCA0EF27F01200700ED36E9B8CFF0E13
:104E50009268936894689668626AF19E12000000F6
:104E6000000000000000000030750000000000FF9E
:104E700000000000800EE56E040EE56E4F0EE56E3C
:104E8000E9EC1DF0030EE126120000C0E5FF51EC35
:104E900023F0006E005001E1FF00E4CF00F01200AB
:104EA000E8AE05D0F3CFEAFFE4CFEEFF1200E8BC96
:104EB0009EEF27F01200010E04017F6F1C0E04010B
:104EC000A16FA26B3AEC27F0120004017F6B1C0E5D
:104ED0000401A16FA26B3AEC27F01200550EA76EE9
:104EE000AA0EA76EA682A6B2FED7A94AAA2A0100D8
:104EF0005E4E0000390400001600000075EC24F03E
:104F0000F0EC23F01200ACA2FED7AD6E120024EC40
:104F100027F012000401AE5112000401B851120032
:104F200004014B511200E8CF7FFF120009EF27F078
:104F300085EF26F069EF25F04BEF25F0AAEF26F07C
:0C4F40005BEF26F0D3EF25F0A1EF25F089
:020000040030CA
:010006008574
:00000001FF
