:020000040000FA
:10000000D5EF18F0C96E120049EF12F04BEC17F063
:1000100089EC13F0FDD71200D7EF16F0D9CFE5FF2A
:10002000E1CFD9FF00C0E5FF01C0E5FF02C0E5FF59
:1000300003C0E5FF04C0E5FF05C0E5FF06C0E5FF1E
:1000400007C0E5FF08C0E5FF09C0E5FF0AC0E5FFFE
:100050000BC0E5FF0CC0E5FF0DC0E5FF0EC0E5FFDE
:100060000FC0E5FF10C0E5FF11C0E5FF12C0E5FFBE
:1000700013C0E5FF14C0E5FF15C0E5FF16C0E5FF9E
:1000800017C0E5FF18C0E5FF19C0E5FF1AC0E5FF7E
:100090001BC0E5FF1CC0E5FF1DC0E5FF1EC0E5FF5E
:1000A000020EDBCF00F0030EDBCF01F0040EDBCF3E
:1000B00002F0050EDBCF03F0060EDBCF04F0070ED7
:1000C000DBCF05F0080EDBCF06F0090EDBCF07F023
:1000D0000A0EDBCF08F0096A0A6A02C00DF00D5063
:1000E000800A0DE102500401A66F0150A56F005077
:1000F000A46F040E016EA40E006E800E026E03C08B
:10010000E9FF04C0F3FF05501FEC19F00B6E0B5014
:10011000D8B4C4EF03F00B50250A02E0ABEF03F0B4
:100120000C6A0D6A0E6A0F6A106A0A0E116E126A64
:10013000136A146A200E156E1668176A2B0E186E55
:10014000032A02E3044A052A03C0E9FF04C0F3FFBF
:1001500005501FEC19F0196E250A13E11950E56ED0
:100160000250E56E0150E56E0050E56E4FEC0DF06B
:10017000040EE126094A0A2A032A02E3044A052A50
:10018000BED71950300A06E1300E156E032A02E37D
:10019000044A052A03C0E9FF04C0F3FF05501FEC21
:1001A00019F02D0A06E1010E146E032A02E3044A37
:1001B000052A03C0E9FF04C0F3FF05501FEC19F046
:1001C000200A08E1010E176E200E186E032A02E3C2
:1001D000044A052A03C0E9FF04C0F3FF05501FECE1
:1001E00019F02B0A06E1010E176E032A02E3044AF6
:1001F000052A03C0E9FF04C0F3FF05501FEC19F006
:10020000196E310E195C2BE33A0E195C28E203C01B
:1002100019F004C01AF005C01BF019C0E9FF1AC09C
:10022000F3FF1B501FEC19F01C6E300E1C5C11E329
:100230003A0E1C5C0EE213500A0DF3CF1DF01C5059
:100240001D26D00E1D24136E192A02E31A4A1B2AFA
:10025000E4D719C003F01AC004F01BC005F003C0B6
:10026000E9FF04C0F3FF05501FEC19F02E0A2DE141
:10027000032A02E3044A052A166A03C019F004C0DF
:100280001AF005C01BF019C0E9FF1AC0F3FF1B509C
:100290001FEC19F01C6E300E1C5C11E33A0E1C5C56
:1002A0000EE216500A0DF3CF1DF01C501D26D00E85
:1002B0001D24166E192A02E31A4A1B2AE4D719C014
:1002C00003F01AC004F01BC005F003C0E9FF04C02E
:1002D000F3FF05501FEC19F0196E6C0A07E1010ECF
:1002E0000C6E032A02E3044A052A09D01950680A51
:1002F00006E1010E0E6E032A02E3044A052A03C03A
:10030000E9FF04C0F3FF05501FEC19F0750A06E180
:10031000010E106E032A02E3044A052A03C0E9FF16
:1003200004C0F3FF05501FEC19F0196E730A05E1C4
:10033000010E0D6E200E156E3FD01950780A03E1A4
:10034000100E116E39D01950580A05E1100E116EB9
:10035000010E126E31D01950630A02E1116A2CD0DD
:1003600019506F0A03E1080E116E26D01950660A63
:1003700003E1010E0F6E20D01950640A1DE01950E0
:10038000690A1AE0105005E0FF0E03260422052238
:1003900013D01950E56E0250E56E0150E56E005025
:1003A000E56E4FEC0DF0040EE126094A0A2A032AF5
:1003B00002E3044A052AA3D60D5021E00650030F9C
:1003C0000D6E000E0720196E000E08201A6E0DC06B
:1003D00006F019C007F01AC008F0FD0E0D26FF0E3A
:1003E00019221A220DC0E9FF19C0F3FF1A50EAECD6
:1003F00017F00D6EF3CF19F0F4CF1AF0FDD00F50B7
:100400000DE0000E1A6E080E196E100E0D6E040E21
:100410000626000E072208221668EED016680C5039
:1004200023E00650040F0C6E000E07200F6E000E26
:1004300008201B6E0CC006F00FC007F01BC008F0B0
:10044000FC0E0C26FF0E0F221B220CC0E9FF0FC072
:10045000F3FF1B5070EC17F00C6EF3CF0FF0F4CFDE
:100460001BF0E9CF1CF067D00E502FE00650020FB2
:100470000E6E000E07201D6E000E08201E6E0EC0B0
:1004800006F01DC007F01EC008F0FE0E0E26FF0E7F
:100490001D221E220EC0E9FF1DC0F3FF1E50A9EC55
:1004A00018F00E6E0EC00CF00F6A1B6A1C6A115019
:1004B0000A0A03E11050D8B43ED00C500E6E0EC0A4
:1004C0000CF00F6A1B6A1C6A36D00650020F0E6EC3
:1004D000000E07201D6E000E08201E6E0EC006F0D6
:1004E0001DC007F01EC008F0FE0E0E26FF0E1D22D6
:1004F0001E220EC0E9FF1DC0F3FF1E50A9EC18F02C
:100500000E6EF3CF1DF00EC00CF01DC00FF0E86AA8
:100510001DBEFF0E1B6E1C6E11500A0A02E1105028
:100520000AE00C500E6E0F501D6E0EC00CF01DC078
:100530000FF01B6A1C6A040E196E670E0D6E800E9A
:100540001A6E1150D8B440D0105013E01150E56E1F
:10055000040EE56E670EE56E1C50E56E1B50E56EF1
:100560000F50E56E0C50E56E67EC09F0070EE126C2
:1005700012D01150E56E040EE56E670EE56E1C504C
:10058000E56E1B50E56E0F50E56E0C50E56E31ECDC
:1005900011F0070EE12617502FE00DC0E9FF19C03A
:1005A000F3FF1A501FEC19F02D0A26E0FF0E0D265E
:1005B00019221A2218C0E5FF0DC0E9FF19C0F3FF88
:1005C0001A508CEC19F018D00CC0E5FF0DC0E9FFF3
:1005D00019C0F3FF1A508CEC19F00D50010F0C6E7E
:1005E000000E19200E6E000E1A20E56A0CC0E9FFFD
:1005F0000EC0F3FF8CEC19F00DC00CF019C00EF01A
:100600001AC00FF013C010F0105010E00CC0E9FF3A
:100610000EC0F3FF0F501FEC19F0176E175006E0D5
:100620000C2A02E30E4A0F2A1006EED710C013F070
:1006300014501EE109C00CF00AC00EF010C00FF0FB
:100640000F5010E01550E56E0250E56E0150E56E5A
:100650000050E56E4FEC0DF0040EE1260C4A0E2A18
:100660000F06EED70CC009F00EC00AF00FC013F051
:1006700016C00CF00DC00DF019C00EF01AC00FF02E
:1006800009C010F00AC015F00DC0E9FF0EC0F3FF5D
:100690000F501FEC19F0166E1650D8B43ED00CC097
:1006A00016F0176A161E171E1650171005E00CC01C
:1006B00016F00C06165031E00DC0E9FF0EC0F3FF36
:1006C0000F501FEC19F0116E125010E01150E56E32
:1006D00066EC18F0166EE652165004E0DF0E1114A8
:1006E000166E02D011C016F016C011F01150E56E52
:1006F0000250E56E0150E56E0050E56E4FEC0DF0D6
:10070000040EE1260D2A02E30E4A0F2A104A152A8A
:100710001350D8B4B9D71306B7D710C009F015C015
:100720000AF014502BE010C00CF015C00DF013C0EF
:100730000EF00E501FE0200EE56E0250E56E0150E7
:10074000E56E0050E56E4FEC0DF0040EE1260C4A0C
:100750000D2A0E06EED70B50E56E0250E56E0150E5
:10076000E56E0050E56E4FEC0DF0040EE126094AEF
:100770000A2A04D00CC009F00DC00AF0032A02E3D3
:10078000044A052A7FEF00F00AC0F3FF0950E4CFC6
:100790001EF0E4CF1DF0E4CF1CF0E4CF1BF0E4CF5B
:1007A0001AF0E4CF19F0E4CF18F0E4CF17F0E4CF5B
:1007B00016F0E4CF15F0E4CF14F0E4CF13F0E4CF5B
:1007C00012F0E4CF11F0E4CF10F0E4CF0FF0E4CF5B
:1007D0000EF0E4CF0DF0E4CF0CF0E4CF0BF0E4CF5B
:1007E0000AF0E4CF09F0E4CF08F0E4CF07F0E4CF5B
:1007F00006F0E4CF05F0E4CF04F0E4CF03F0E4CF5B
:1008000002F0E4CF01F0E4CF00F0E4CFD9FF120012
:100810003C4E4F20464C4F41543E000000C0E5FF87
:1008200001C0E5FF02C0E5FF03C0E5FF04C0E5FF2E
:1008300005C0E5FF06C0E5FF07C0E5FF08C0E5FF0E
:1008400009C0E5FF0AC0E5FF0BC0E5FF04019BA559
:1008500009D0006A9BB1002A016A9BB3012A0050AB
:10086000011801E05AD104019B95010E006E00C0F1
:1008700001F00150D8B453D00104026E036A02BEE5
:100880000368810E0226040E032202C0E9FF03C0A2
:10089000EAFFEFCF04F00450020DF450066EF3CFE0
:1008A00005F0230E0526040E062205C0E9FF06C04A
:1008B000EAFFEECF05F0EFCF06F0810E0124076EC0
:1008C000086A040E082207C0E9FF08C0EAFFEFCF5C
:1008D00009F00950020DF4500B6EF3CF0AF0230E0D
:1008E0000A26040E0B220AC0E9FF0BC0EAFFEECF76
:1008F0000AF0EFCF0BF006500B5C02E105500A5CEA
:100900000EE202C0E9FF03C0EAFF09C0EFFF07C023
:10091000E9FF08C0EAFF04C0EFFF0106AAD7002ADA
:10092000080E005CD8A0A3D7006A04019BB1002A7E
:10093000005003E1006A002A01D0006A016AAB0E90
:100940000026040E012281C402F000C0E9FF01C0AC
:10095000EAFF02C0EFFF006A04019BB1002A0050C9
:1009600003E1006A002A01D0006A0050020DF45031
:10097000016EF3CF00F08E0E0026040E012204015A
:100980008151020DF450036EF3CF02F0230E0226C4
:10099000040E032202C0E9FF03C0EAFFEECF02F01B
:1009A000EFCF03F00250FF08026EFF0E035600C0A7
:1009B000E9FF01C0EAFF02C0EEFF03C0EFFF006ADB
:1009C000810E0024016E026A040E022201C0E9FFBA
:1009D00002C0EAFFEFCF01F004019BB105D0015046
:1009E000026E080E0224016E230E0124026E036AB9
:1009F0000F0E03220050046E042A056A04BE056827
:100A0000810E0426040E052204C0E9FF05C0EAFF9A
:100A1000EFCF06F002C0E9FF03C0EAFF06C0EFFF18
:100A20000150020DF450026EF3CF01F0E00E0126EA
:100A3000000E022204C0E9FF05C0EAFFEFCF04F078
:100A40000450020DF450036EF3CF04F0230E04267D
:100A5000040E032204C0E9FF03C0EAFFEECF04F056
:100A6000EFCF03F0810E0024056E066A040E062205
:100A700005C0E9FF06C0EAFFEFCF05F00550020D03
:100A8000F450066EF3CF05F0230E0526040E062261
:100A900005C0E9FF06C0EAFFEECF05F0EFCF06F094
:100AA0000550045E0650035A0450FF08046EFF0E02
:100AB000035601C0E9FF02C0EAFF04C0EEFF03C015
:100AC000EFFF002A070E005CD8A07AD788C400F098
:100AD00004019BB105D00050016E080E0124006E88
:100AE000016A230E00260F0E012200C0E9FF01C09B
:100AF000EAFF080EEF6E006A04019BB1002A005065
:100B000003E1006A002A01D0006A0050010BF46E74
:100B100004019B51FE0BF4109B6FE4CF0BF0E4CF6C
:100B20000AF0E4CF09F0E4CF08F0E4CF07F0E4CF17
:100B300006F0E4CF05F0E4CF04F0E4CF03F0E4CF17
:100B400002F0E4CF01F0E4CF00F0120000C0E5FFB6
:100B500001C0E5FFF0A23BD033CF61F434CF62F4A3
:100B600035CF63F436CF64F4F09204019B939BB1CC
:100B70009B838A908A928A988A9A899A899C899278
:100B8000899E9BA303D0ACC400F002D0ABC400F09C
:100B900000C0BDF404019BA305D090C400F091C433
:100BA00001F004D08EC400F08FC401F000C0A9F49D
:100BB00001C0AAF40F014E910401AA510F01506F18
:100BC0000401A9510F014F6F7E920F014E817EA249
:100BD0004ED10F014E917E92BDC400F000B4A4D05E
:100BE000BDC400F000B250D0BDC400F000B026D0AB
:100BF0008A8004019BA311D02BCFBDF4BDC400F0AB
:100C000000B635D10001F1510F01506F0001F051D4
:100C10000F014F6F0F014E812AD123CFBDF4BDC408
:100C200000F000B624D10001E1510F01506F000126
:100C3000E0510F014F6F0F014E8119D18A820401DB
:100C40009BA311D02CCFBDF4BDC400F000B60FD1D2
:100C50000001F3510F01506F0001F2510F014F6F6E
:100C60000F014E8104D124CFBDF4BDC400F000B605
:100C7000FED00001E3510F01506F0001E2510F015E
:100C80004F6F0F014E81F3D0BDC400F000B026D0ED
:100C90008A8804019BA311D02DCFBDF4BDC400F000
:100CA00000B6E5D00001F5510F01506F0001F4517D
:100CB0000F014F6F0F014E81DAD025CFBDF4BDC4B7
:100CC00000F000B6D4D00001E5510F01506F0001D3
:100CD000E4510F014F6F0F014E81C9D08A8A040180
:100CE0009BA311D02ECFBDF4BDC400F000B6BFD081
:100CF0000001F7510F01506F0001F6510F014F6FC6
:100D00000F014E81B4D026CFBDF4BDC400F000B6B3
:100D1000AED00001E7510F01506F0001E6510F0105
:100D20004F6F0F014E81A3D0BDC400F000B250D070
:100D3000BDC400F000B026D0898A04019BA311D065
:100D40002FCFBDF4BDC400F000B691D00001F95121
:100D50000F01506F0001F8510F014F6F0F014E81CD
:100D600086D027CFBDF4BDC400F000B680D000010E
:100D7000E9510F01506F0001E8510F014F6F0F0152
:100D80004E8175D0898C04019BA311D030CFBDF466
:100D9000BDC400F000B66BD00001FB510F01506FD5
:100DA0000001FA510F014F6F0F014E8160D028CF23
:100DB000BDF4BDC400F000B65AD00001EB510F01E4
:100DC000506F0001EA510F014F6F0F014E814FD05C
:100DD000BDC400F000B026D0898204019BA311D0CD
:100DE00031CFBDF4BDC400F000B641D00001FD51CB
:100DF0000F01506F0001FC510F014F6F0F014E8129
:100E000036D029CFBDF4BDC400F000B630D000010B
:100E1000ED510F01506F0001EC510F014F6F0F01A9
:100E20004E8125D0898E04019BA311D032CFBDF411
:100E3000BDC400F000B61BD00001FF510F01506F80
:100E40000001FE510F014F6F0F014E8110D02ACFCC
:100E5000BDF4BDC400F000B60AD00001EF510F018F
:100E6000506F0001EE510F014F6F0F014E81E4CF23
:100E700001F0E4CF00F0120000C0E5FF01C0E5FF83
:100E800002C0E5FF03C0E5FF04015E51D8B40CD1F8
:100E90009DA81DD09EA81BD00401B4510401B21915
:100EA00005E14DEC19F00401B26BFED0000E040117
:100EB000B425006E016A040E012200C0E9FF01C0E2
:100EC000EAFFEFCFAEF4B42BAEC4ADFFEDD09DAAD8
:100ED000EBD09EAAE9D0ABA205D00401B3814DECC2
:100EE00019F0E2D0ABA405D00401B3834DEC19F0A6
:100EF000DBD0ABA048D0AECFAEF45FC400F0016A47
:100F0000008EAEC402F0036A0250001803E10350E1
:100F1000011801E004D00401B389AB96C5D00401E7
:100F2000AE5104E0AE5104015F1929E10401B39907
:100F3000AB960401AE5103E00401B39702D0040163
:100F4000B387AEC4B7F4B0C4B8F40401B051006EB6
:100F500000040401B96F600E0401B825006E016A37
:100F6000000E012200C0E9FF01C0EAFFAEC4EFFF9E
:100F7000B82BB851800A02E10401B86B95D0040186
:100F8000B399AB8691D0AECFAEF40401B3A921D012
:100F90005FC400F0016A008EAEC402F0036A025022
:100FA000001803E10350011801E011D09D9AAB989D
:100FB00094900401B25104E1AD6A4DEC19F007D0F0
:100FC00000C4ADFF010E0401B46F9D886DD0AB86E7
:100FD0006BD00401AE510401B7270401B8510401DC
:100FE000B9191BE10401B7510CE1B8C4B0F4040114
:100FF000B3B712D09D9AAB989490AD6A4DEC19F0AE
:101000000BD00401B385B3B707D09D9AAB989490E9
:10101000010EAD6E4DEC19F047D00401B85104013A
:10102000B11908E10401B1510401B01903E04DEC1C
:1010300019F03AD0B0C400F0016A004A012AE56A0A
:10104000800EE56E0150E56E0050E56EF1EC0FF09C
:10105000006E040EE12600500401AF6F0401B819C0
:101060000FE1AEC400F01F0E00140401B96F006E52
:10107000020E0024B96F0401B0510401B927B99FD1
:10108000B8C400F00401B82B016A600E0026000EFF
:10109000012200C0E9FF01C0EAFFAEC4EFFFB85172
:1010A000800A02E10401B86BE4CF03F0E4CF02F060
:1010B000E4CF01F0E4CF00F01200D9CFE5FFE1CF9B
:1010C000D9FF00C0E5FF01C0E5FF02C0E5FF03C096
:1010D000E5FF04C0E5FF05C0E5FF06C0E5FF07C06A
:1010E000E5FF020EDBCF00F0030EDBCF01F0040EB4
:1010F000DBCF02F0050EDBCF03F0060EDBCF04F0F2
:10110000070EDBCF05F0080EDBCF06F0090EDBCFB4
:1011100007F000500401736F0150746F0250756F37
:101120000350766F04500401776F0550786F0650B6
:10113000796F07507A6F0401735104017903F4CF7A
:1011400001F0F3CF00F0005004017D6F01507E6F7D
:101150000401735104017703F4CF01F0F3CF00F0E1
:10116000005004017B6F01507C6F04017651040133
:101170007703F3CF00F004017E51002600507E6F0C
:101180000401755104017803F3CF01F001500026EA
:10119000005004017E6F0401755104017703F4CF00
:1011A00001F0F3CF00F004017D5100267E510122B1
:1011B00000507D6F01507E6F04017451040178036B
:1011C000F4CF03F0F3CF02F00250002603500122C7
:1011D000005004017D6F01507E6F040174510401C1
:1011E0007903F3CF00F000500401966F04017451AD
:1011F00004017703F4CF01F0F3CF00F000500401B5
:10120000946F0150956F0401735104017A03F3CF79
:1012100000F0005004019A6F040173510401780337
:10122000F4CF01F0F3CF00F000500401986F0150AB
:10123000996F0401936B0401976B040193510401AE
:101240007B25006E0401945104017C21016E040190
:10125000955104017D21026E0401965104017E2105
:10126000036E00507B6F01507C6F02507D6F035006
:101270007E6F0401975104017B25006E0401985193
:1012800004017C21016E0401995104017D21026E4B
:1012900004019A5104017E21036E03C0E9FF02C0DC
:1012A000F4FF01C0F3FF0050E4CF07F0E4CF06F0F5
:1012B000E4CF05F0E4CF04F0E4CF03F0E4CF02F094
:1012C000E4CF01F0E4CF00F0E4CFD9FF1200D9CF92
:1012D000E5FFE1CFD9FF00C0E5FF01C0E5FF02C097
:1012E000E5FF03C0E5FF04C0E5FF05C0E5FF06C05C
:1012F000E5FF07C0E5FF08C0E5FF09C0E5FF0AC03C
:10130000E5FF0BC0E5FF0CC0E5FF0DC0E5FF0EC01B
:10131000E5FF0FC0E5FF020EDBCF00F0030EDBCFD1
:1013200001F0040EDBCF02F0050EDBCF03F0060E5A
:10133000DBCF04F0070EDBCF05F0080EDBCF06F0A5
:10134000200E076E086A06C009F00A6A0B6A0C6A6A
:10135000E56AE56AE56A0950E56E0350E56E0250FC
:10136000E56E0150E56E0050E56E08EC0BF00D6E79
:10137000080EE126300E0D263A0E0D5C05E30D50E9
:101380000E6E270E0E240D6EFF0E07260822390E54
:1013900007240E6E040E08200F6E0EC0E9FF0FC06A
:1013A000EAFF0DC0EFFF0C50E56E0B50E56E0A50E2
:1013B000E56E0950E56E0350E56E0250E56E015092
:1013C000E56E0050E56EA5EC0BF0006EF3CF01F07A
:1013D000F4CF02F0E9CF03F0080EE126005001102F
:1013E00002100310D8A4AFD707C000F008C001F066
:1013F00004C002F005C003F000C004F001C005F015
:10140000004A012A390E0426040E052204C0E9FF11
:1014100005C0EAFFEFCF04F002C0E9FF03C0EAFF16
:1014200004C0EFFF024A032A000E015C02E1200E15
:10143000005CE2E302C0E9FF03C0EAFF000EEF6ACE
:10144000E4CF0FF0E4CF0EF0E4CF0DF0E4CF0CF0DA
:10145000E4CF0BF0E4CF0AF0E4CF09F0E4CF08F0DA
:10146000E4CF07F0E4CF06F0E4CF05F0E4CF04F0DA
:10147000E4CF03F0E4CF02F0E4CF01F0E4CF00F0DA
:10148000E4CFD9FF1200D9CFE5FFE1CFD9FF00C0EB
:10149000E5FF01C0E5FF02C0E5FF03C0E5FF04C0B2
:1014A000E5FF05C0E5FF06C0E5FF07C0E5FF08C092
:1014B000E5FF020EDBCF00F0030EDBCF01F0040EE0
:1014C000DBCF02F004019C519D11D8B445D00050EF
:1014D000020DF450046EF3CF03F0230E0326040E26
:1014E00004220150FF08056EFF0E0254E56AE56A0A
:1014F000E56E0550E56EE56AE56A5D0EE56EC00EC7
:10150000E56E5DEC08F0056EF3CF06F0F4CF07F062
:10151000E9CF08F0080EE126E56AE56AE568E568C6
:101520000850E56E0750E56E0650E56E0550E56E15
:10153000A5EC0BF0056EF3CF06F0080EE126280EA1
:101540000526230E062203C0E9FF04C0EAFF05C0FA
:10155000EEFF06C0EFFF45D00050020DF450036EC1
:10156000F3CF00F0230E0026040E03220150FF08E3
:10157000016EFF0E0256E56AE56A0250E56E015003
:10158000E56EE56AE56A790EE56E180EE56E5DECCE
:1015900008F0016EF3CF02F0F4CF04F0E9CF05F0CC
:1015A000080EE126E56AE56AE568E5680550E56E3E
:1015B0000450E56E0250E56E0150E56EA5EC0BF0AF
:1015C000016EF3CF02F0080EE126400E01261F0E39
:1015D000022200C0E9FF03C0EAFF01C0EEFF02C023
:1015E000EFFF04019B85E4CF08F0E4CF07F0E4CFE0
:1015F00006F0E4CF05F0E4CF04F0E4CF03F0E4CF4D
:1016000002F0E4CF01F0E4CF00F0E4CFD9FF120004
:10161000D9CFE5FFE1CFD9FF00C0E5FF01C0E5FF6D
:1016200002C0E5FF03C0E5FF04C0E5FF05C0E5FF1C
:1016300006C0E5FF07C0E5FF08C0E5FF09C0E5FFFC
:101640000AC0E5FF020EDBCF00F0030EDBCF01F096
:10165000040EDBCF02F0050EDBCF03F0060EDBCF6E
:1016600004F0070EDBCF05F0080EDBCF06F0090E05
:10167000DBCF07F0086A045005100610071005E1DB
:10168000E968F468F368E86847D0096A0750800B96
:10169000E8440A6E0A501BE104500426053606365B
:1016A00007360750035C08E10650025C05E105506F
:1016B000015C02E10450005C06E2D8900732063279
:1016C0000532043204D0092A09C008F0DFD70750D8
:1016D000035C08E10650025C05E10550015C02E193
:1016E0000450005C08E30450005E0550015A0650A7
:1016F000025A0750035AD890073206320532043294
:1017000008C009F008060950E2E103C0E9FF02C081
:10171000F4FF01C0F3FF0050E4CF0AF0E4CF09F07A
:10172000E4CF08F0E4CF07F0E4CF06F0E4CF05F013
:10173000E4CF04F0E4CF03F0E4CF02F0E4CF01F013
:10174000E4CF00F0E4CFD9FF1200D9CFE5FFE1CF1D
:10175000D9FF00C0E5FF01C0E5FF02C0E5FF03C0FF
:10176000E5FF04C0E5FF05C0E5FF06C0E5FF07C0D3
:10177000E5FF08C0E5FF09C0E5FF0AC0E5FF0BC0B3
:10178000E5FF0CC0E5FF0DC0E5FF020EDBCF00F06A
:10179000030EDBCF01F0040EDBCF02F0050EDBCF32
:1017A00003F0060EDBCF04F0070EDBCF05F0080ECA
:1017B000DBCF06F0090EDBCF07F0086A096A0A6A78
:1017C0000B6A200E0C6E0350800BE8440D6E005027
:1017D00000260136023603360850082609360A3636
:1017E0000B360D50D8A4088007500B5C08E106505A
:1017F0000A5C05E10550095C02E10450085C09E35C
:101800000450085E0550095A06500A5A07500B5AF0
:1018100000800C040D6E0DC00CF00D50D4E103C01F
:10182000E9FF02C0F4FF01C0F3FF0050E4CF0DF068
:10183000E4CF0CF0E4CF0BF0E4CF0AF0E4CF09F0F2
:10184000E4CF08F0E4CF07F0E4CF06F0E4CF05F0F2
:10185000E4CF04F0E4CF03F0E4CF02F0E4CF01F0F2
:10186000E4CF00F0E4CFD9FF120000C0E5FF01C0D3
:10187000E5FF03C0E5FF04C0E5FF05C0E5FF06C0C6
:10188000E5FF07C0E5FF08C0E5FF09C0E5FF0AC0A6
:10189000E5FF0BC0E5FFA7C400F0A8C401F00401F8
:1018A000A73F01D0A82B0050E56E3FEC19F0E6529F
:1018B000076E046A056A066AA7C400F0A8C401F0AE
:1018C0000401A73F01D0A82B0050E56E3FEC19F0B2
:1018D000E6520B6A0A6E086A0850041205120A5092
:1018E00006120B500712A7C400F0A8C401F00401AF
:1018F000A73F01D0A82B0050E56E3FEC19F0E6524F
:10190000036E006A03C001F0E86A03BEFF0E086EB2
:10191000096E0050041201500512085006120950B9
:101920000712A7C400F0A8C401F00401A73F01D02A
:10193000A82B0050E56E3FEC19F0E652016A041244
:10194000015005120612071207C0E9FF06C0F4FF96
:1019500005C0F3FF0450E4CF0BF0E4CF0AF0E4CF6E
:1019600009F0E4CF08F0E4CF07F0E4CF06F0E4CFCD
:1019700005F0E4CF04F0E4CF03F0E4CF01F0E4CFCE
:1019800000F0120000C0E5FF01C0E5FF02C0E5FF66
:1019900003C0E5FF0401B1510401B01901E163D0B6
:1019A000B1C400F0002A009E016A600E0026000EFD
:1019B000012200C0E9FF01C0EAFFEFCFBBF41F0E18
:1019C0000401BB17B1C4BAF4BB510401BA27BA5120
:1019D000006E020E0024BA6FBA9FADEC16F0006ED6
:1019E000005003E1006A002A01D0006AADEC16F055
:1019F0000401BB6FBBC401F0800E0116BBC402F032
:101A00001F0E021602C003F002C0BBF4035003E134
:101A1000B0C4B1F43BD000501EE0015022E0ADEC68
:101A200016F0006E0401BB51026E0204BB6F005041
:101A3000420A17E000504E0A03E115EC14F011D0F1
:101A40000050460A03E181EC19F00BD00050490A1E
:101A500008E1FF0006D0B1C4BCF40150D8B4A8EC32
:101A600019F0BAC4B1F404015B5104015C1906E039
:101A70000401B25103E1DBEC0DF008D094B006D0C4
:101A80000401B25103E1ACB24DEC19F0E4CF03F024
:101A9000E4CF02F0E4CF01F0E4CF00F01200D9CFA0
:101AA000E5FFE1CFD9FF00C0E5FF01C0E5FF02C0BF
:101AB000E5FF03C0E5FF04C0E5FF05C0E5FF06C084
:101AC000E5FF07C0E5FF020EDBCF00F0030EDBCF22
:101AD00001F0040EDBCF02F0050EDBCF03F002C0F5
:101AE00006F00650046E800A33E100C0E9FF01C031
:101AF000F3FF0250EAEC17F0056EF3CF06F0F4CFD7
:101B000007F003C0E5FF05C0E9FF06C0F3FF07507B
:101B10008CEC19F000C0E9FF01C0F3FF0250EAECC1
:101B200017F0056EF3CF06F0F4CF07F0052A02E3B5
:101B3000064A072A05C0E5FF06C0F4FF07C0F6FF06
:101B400000C0E9FF01C0F3FF025030EC19F020D0D3
:101B500004C000F000AA1CD0007A0050046E04E11A
:101B60000350C9EC19F014D00450010A04E10350E9
:101B700002EC00F00DD004500F0A04E1035029ECF0
:101B800016F006D004500E0A03E10350E2EC19F0FF
:101B9000E4CF07F0E4CF06F0E4CF05F0E4CF04F0A3
:101BA000E4CF03F0E4CF02F0E4CF01F0E4CF00F0A3
:101BB000E4CFD9FF120000C0E5FF01C0E5FF02C07D
:101BC000E5FF03C0E5FFACA277D090EC17F0006E04
:101BD000005005E104015C6B04015B6B6DD05CC4DB
:101BE00001F00050012690EC17F0026E0006025042
:101BF000230A1FE1010E005CD8A05CD090EC17F026
:101C0000036E690A03E1F8EC15F054D00350720A30
:101C100003E14DEC19F04ED00350730A01E04AD0B5
:101C20009480AB869D8A9D98AE50AE50AB98AB88A1
:101C300041D00250430A05E00250420A01E03AD086
:101C400001D0008E0401B46B00C0B5F40050040153
:101C5000006F0401B42B04015C51011814E090ECF6
:101C600017F0006E0401B527000E0401B425026EC2
:101C7000036A040E032202C0E9FF03C0EAFF00C0AA
:101C8000EFFFB42BE8D7000E0401B425006E026A02
:101C9000040E02220401B51D036E032A00C0E9FFF1
:101CA00002C0EAFF03C0EFFF0401B42BB4C4B2F4D6
:101CB00004017F6B01C05CF4E4CF03F0E4CF02F0D9
:101CC000E4CF01F0E4CF00F01200D9CFE5FFE1CF7F
:101CD000D9FF00C0E5FF01C0E5FF02C0E5FF03C07A
:101CE000E5FF04C0E5FF05C0E5FF06C0E5FF020E05
:101CF000DBCF00F0030EDBCF01F0040EDBCF02F0F0
:101D0000050EDBCF03F003C004F0056A0350D8B41E
:101D100053D000C0E9FF01C0F3FF02501FEC19F0DF
:101D2000066E430A03E1010E056E038E0406002AC7
:101D300002E3014A022A9D9AAB9894909D989EA82E
:101D4000FED7AC80AD6A00009EA8FED7AC9003C061
:101D5000ADFF00009EA8FED7055005E0420EAD6E17
:101D60000324056E05D0620EAD6E620E0324056E6F
:101D700004C003F0035015E000009EA8FED700C089
:101D8000E9FF01C0F3FF02501FEC19F0046E04C01C
:101D9000ADFF045005260306002A02E3014A022A89
:101DA000E9D700009EA8FED7051CAD6EAD2A000045
:101DB0009EA8FED74DEC19F0E4CF06F0E4CF05F075
:101DC000E4CF04F0E4CF03F0E4CF02F0E4CF01F07D
:101DD000E4CF00F0E4CFD9FF120000C0E5FF01C05E
:101DE000E5FF02C0E5FF03C0E5FF05C0E5FF040114
:101DF0009B6B0F014E6B0F014E8B4E837F824E917A
:101E00007E927D82006A0050020DF450026EF3CF84
:101E100001F0230E0126040E022201C0E9FF02C0D8
:101E2000EAFFEE68EF68810E0024016E026A040E7C
:101E3000022201C0E9FF02C0EAFF00C0EFFF002A52
:101E4000080E005CE0E39384810E006E0F0E016EBD
:101E50000F0E036E380E0026035001220F0E036E84
:101E6000800E005E0350015A810E026E0F0E036E4B
:101E70000F0E056E380E0226055003220F0E056E5A
:101E8000800E025E0550035A02C0E9FF03C0EAFF5C
:101E9000EFCF02F0029400C0E9FF01C0EAFF02C0E8
:101EA000EFFFF188F08EF092F0888A908A928A98FB
:101EB0008A9A899A899C8992899E93909392939801
:101EC000939A929A929C9292929EE4CF05F0E4CFDC
:101ED00003F0E4CF02F0E4CF01F0E4CF00F0120011
:101EE000D9CFE5FFE1CFD9FF00C0E5FF01C0E5FF95
:101EF00002C0E5FF03C0E5FF04C0E5FF05C0E5FF44
:101F000006C0E5FF07C0E5FF020EDBCF00F0030EC1
:101F1000DBCF01F0040EDBCF02F0050EDBCF03F0C8
:101F20005CC45DF404015B5104015D5F5D51046EAE
:101F300004045D6F03C004F0056A030E0426D8B0E4
:101F4000052A5DC406F0076A0750800FF36E05503E
:101F5000800FF35C02E10450065C02E2E8682ED0D8
:101F6000020E035C02E2E86A29D003060350E56E24
:101F700013EC15F0E652046A0350045C14E20450BA
:101F80000024056EE86A0120066EE86A022005C09A
:101F9000E9FF06C0F3FF1FEC19F0042AE56E13EC0D
:101FA00015F0E652E9D75CC45DF404015B5104010D
:101FB0005D5F5D51006E00045D6FE86AE4CF07F07D
:101FC000E4CF06F0E4CF05F0E4CF04F0E4CF03F073
:101FD000E4CF02F0E4CF01F0E4CF00F0E4CFD9FF8A
:101FE0001200D9CFE5FFE1CFD9FF00C0E5FF01C066
:101FF000E5FF02C0E5FF03C0E5FF04C0E5FF05C043
:10200000E5FF06C0E5FF020EDBCF00F0030EDBCFDD
:1020100001F0040EDBCF02F0050EDBCF03F0D88019
:1020200001AED890046A0436045007E0011C066E25
:10203000001C056E054A062A04D000C005F001C048
:1020400006F0D88003AED89007E3031C016E021C93
:10205000006E004A012A04D002C000F003C001F063
:102060000150E56E0050E56E0650E56E0550E56ED8
:1020700094EC11F0006EF3CF01F0040EE126045051
:102080000AE0011C036E001C026E024A032A03C010
:10209000F3FF025003D001C0F3FF0050E4CF06F07D
:1020A000E4CF05F0E4CF04F0E4CF03F0E4CF02F096
:1020B000E4CF01F0E4CF00F0E4CFD9FF1200D9CF94
:1020C000E5FFE1CFD9FF00C0E5FF01C0E5FF02C099
:1020D000E5FF03C0E5FF04C0E5FF05C0E5FF020E14
:1020E000DBCF00F0030EDBCF01F0040EDBCF02F0FC
:1020F000050EDBCF03F0A7C404F0A8C405F004016B
:10210000A73F01D0A82B0350E56E0450E56E83EC89
:1021100016F0E652E652A7C404F0A8C405F0040184
:10212000A73F01D0A82B0250056EE56E0450E56E66
:1021300083EC16F0E652E652A7C404F0A8C405F0FA
:102140000401A73F01D0A82B0150E56E0450E56EB5
:1021500083EC16F0E652E652A7C404F0A8C405F0DA
:102160000401A73F01D0A82B0050E56E0450E56E96
:1021700083EC16F0E652E652E4CF05F0E4CF04F02B
:10218000E4CF03F0E4CF02F0E4CF01F0E4CF00F0BD
:10219000E4CFD9FF1200D9CFE5FFE1CFD9FF00C0CE
:1021A000E5FF01C0E5FF02C0E5FF03C0E5FF04C095
:1021B000E5FF05C0E5FF06C0E5FF020EDBCF00F03E
:1021C000030EDBCF01F0040EDBCF02F00401375128
:1021D00019E135EC0CF0036EF3CF04F0F4CF05F009
:1021E000E9CF06F003C0E5FF04C0F4FF05C0F6FF29
:1021F00006C0F7FF00C0E9FF01C0F3FF02500EEC7C
:1022000019F01ED004013751010A1AE100C0E9FF9C
:1022100001C0F3FF025070EC17F0006EF3CF01F035
:10222000F4CF02F0E9CF03F00350E56E0250E56E03
:102230000150E56E0050E56E5FEC10F0040EE126F3
:10224000E4CF06F0E4CF05F0E4CF04F0E4CF03F0F0
:10225000E4CF02F0E4CF01F0E4CF00F0E4CFD9FF07
:102260001200D9CFE5FFE1CFD9FF00C0E5FF01C0E3
:10227000E5FF02C0E5FF03C0E5FF04C0E5FF05C0C0
:10228000E5FF06C0E5FF020EDBCF00F0030EDBCF5B
:1022900001F0040EDBCF02F0050EDBCF03F0060EDB
:1022A000DBCF04F0070EDBCF05F0080EDBCF06F026
:1022B000D88003AED89015E306500A0A12E104C094
:1022C000E9FF05C0EAFF2D0EEF6E044A052A031E42
:1022D000021E011E006C05E1012A03E1022AD8B4A6
:1022E000032A0650E56E0550E56E0450E56E035076
:1022F000E56E0250E56E0150E56E0050E56E67EC4C
:1023000009F0070EE126E4CF06F0E4CF05F0E4CFB4
:1023100004F0E4CF03F0E4CF02F0E4CF01F0E4CF27
:1023200000F0E4CFD9FF1200D9CFE5FFE1CFD9FF0C
:1023300000C0E5FF01C0E5FF02C0E5FF03C0E5FF07
:1023400004C0E5FF05C0E5FF06C0E5FF020EDBCFD8
:1023500000F0030EDBCF01F0040EDBCF02F0050E20
:10236000DBCF03F0046A056A0350800BE844066E75
:10237000065011E10250022603360350015C02E1CF
:102380000250005C04E2D8900332023204D0052AE5
:1023900005C004F0E9D70350015C02E10250005C83
:1023A00004E30250005E0350015AD8900332023217
:1023B00004C005F004060550EEE101C0F3FF005033
:1023C000E4CF06F0E4CF05F0E4CF04F0E4CF03F06F
:1023D000E4CF02F0E4CF01F0E4CF00F0E4CFD9FF86
:1023E000120000C0E5FF01C0E5FF02C0E5FF420E9C
:1023F00029EC16F0006A810E0024016E026A040EB8
:10240000022201C0E9FF02C0EAFFEFCF01F0015054
:1024100029EC16F0002A080E005CEDE3006A230E9A
:102420000024016E026A0F0E022201C0E9FF02C001
:10243000EAFFEFCF01F0015029EC16F0002A080E58
:10244000005CEDE3006A0050016E080E0126026A8E
:1024500001BE0268230E01260F0E022201C0E9FF11
:1024600002C0EAFFEFCF01F0015029EC16F0002A7C
:10247000080E005CE8E304019B5129EC16F00A0EFB
:1024800029EC16F0E4CF02F0E4CF01F0E4CF00F045
:102490001200D8CFE5FFE0CFE5FFE56EF3CFE5FF13
:1024A000F4CFE5FFE9CFE5FFEACFE5FFFACFE5FF9F
:1024B000FBCFE5FF00C0E5FF01C0E5FF0401595176
:1024C0000F01356F04015A510F01366FD650336F2B
:1024D000D750346FF2A417D059C400F05AC401F099
:1024E0000050010F0401596F000E01205A6FF29441
:1024F00059510F01356F04015A510F01366FD650F3
:10250000336FD750346FD3EC19F0E4CF01F0E4CF40
:1025100000F0E4CFFBFFE4CFFAFFE4CFEAFFE4CF23
:10252000E9FFE4CFF4FFE4CFF3FFE450E4CFE0FFB2
:10253000E4CFD8FF100000C0E5FF01C0E5FF02C0F6
:10254000E5FF03C0E5FFB1C400F0016ABCC402F0BE
:10255000036A0250005E0350015AE56A800EE56E80
:102560000150E56E0050E56EF1EC0FF0006E040EC8
:10257000E1260006BCC401F0430E29EC16F0200E43
:1025800029EC16F0005020E0600E0124026E036A70
:10259000000E032202C0E9FF03C0EAFFEFCF02F002
:1025A000E56A0250E56E000EE56E320EE56EB20E83
:1025B000E56E57EC14F0050EE126012A0150800A61
:1025C00001E1016A0006DED7E4CF03F0E4CF02F0B8
:1025D000E4CF01F0E4CF00F01200D9CFE5FFE1CF66
:1025E000D9FF00C0E5FF01C0E5FF02C0E5FF03C061
:1025F000E5FF04C0E5FF020EDBCF00F0030EDBCFEA
:1026000001F0040EDBCF02F00401375111E1C4ECFC
:1026100015F0036EF3CF04F003C0E5FF04C0F4FF30
:1026200000C0E9FF01C0F3FF025069EC19F016D0B9
:1026300004013751010A12E100C0E9FF01C0F3FFB4
:102640000250A9EC18F0006EF3CF01F00150E56ED6
:102650000050E56ED6EC14F0E652E652E4CF04F0FA
:10266000E4CF03F0E4CF02F0E4CF01F0E4CF00F0D8
:10267000E4CFD9FF12007A0EF66E330EF76E000E1D
:10268000F86E0900F550056E0900F550066E04E17C
:10269000056702D088EF13F00900F550006E0900BD
:1026A000F550016E0900F550026E09000900F55061
:1026B000E96E0900F550EA6E090009000900F550BD
:1026C000036E0900F550046E09000900F6CF07F00B
:1026D000F7CF08F0F8CF09F000C0F6FF01C0F7FF10
:1026E00002C0F8FF035002E1045007E00900F55072
:1026F000EE6E0306F8E20406F9D707C0F6FF08C03D
:10270000F7FF09C0F8FF050601E2060647EF13F0E0
:10271000120000C0E5FF01C0E5FF02C0E5FF03C0F5
:10272000E5FFC2EC0CF00EEC04F059EC16F0006E74
:10273000F3CF01F0F4CF02F0E9CF03F004013351FD
:10274000005E3451015A3551025A3651035A039EE4
:102750003F0E035C08E1FF0E025C05E1FF0E015C29
:1027600002E1FF0E005C14E259EC16F0F3CF01F029
:10277000F4CF02F0E9CF03F0200F0401336F4E0EC7
:102780000120346F000E0220356F000E0320366FDB
:10279000E4CF03F0E4CF02F0E4CF01F0E4CF00F0A7
:1027A000120000C0E5FF01C0E5FF02C0E5FF04C064
:1027B000E5FFADEC16F0006E080E005C15E2ADEC26
:1027C00016F0016A026EADEC16F0046A01260450A0
:1027D00002220250E56E0150E56E0050E56E43ECBA
:1027E0000AF0030EE12618D00050080A15E1ADECFE
:1027F00016F0D880E866D890006A00360050D8807D
:10280000E866D890006A0036016A00BE0168005090
:1028100004019C6F01509D6FE4CF04F0E4CF02F0FF
:10282000E4CF01F0E4CF00F0120000C0E5FF01C0EA
:10283000E5FF02C0E5FFADEC16F0006EADEC16F062
:10284000016ED00E00260A0E005C05E30050026EF9
:10285000F90E0224006ED00E01260A0E015C05E37B
:102860000150026EF90E0224016E080E005C03E2B4
:10287000100E015CD8B014D00038F00B0124006EAB
:10288000016A8AEC15F0026E025002E0010E016E40
:102890000150010A05E00050E56E1FEC18F0E65209
:1028A000E4CF02F0E4CF01F0E4CF00F01200D9CF82
:1028B000E5FFE1CFD9FF00C0E5FF01C0E5FF02C0A1
:1028C000E5FF020ED924006E000EDA20016E800EA4
:1028D000026E030E0026000E012202220250E56E57
:1028E0000150E56E0050E56E040EDBCFE5FF030EF0
:1028F000DBCFE5FF020EDBCFE5FF0401A051E56E63
:102900009F51E56E9E51E56E0EEC00F0006EF3CF28
:1029100001F0090EE12601C0F3FF0050E4CF02F000
:10292000E4CF01F0E4CF00F0E4CFD9FF1200D9CF1B
:10293000E5FFE1CFD9FF00C0E5FF01C0E5FF02C020
:10294000E5FF03C0E5FF020EDBCF00F0030EDBCF97
:1029500001F0040EDBCF02F0040137510DE17DECF4
:1029600018F0036E03C0E5FF00C0E9FF01C0F3FFEC
:1029700002508CEC19F00FD004013751010A0BE121
:1029800000C0E9FF01C0F3FF02501FEC19F0E56E33
:1029900025EC17F0E652E4CF03F0E4CF02F0E4CFE9
:1029A00001F0E4CF00F0E4CFD9FF1200D9CFE5FF6A
:1029B000E1CFD9FF00C0E5FF01C0E5FF02C0E5FFA0
:1029C00003C0E5FF020EDBCF00F0030EDBCF01F00A
:1029D000A7C402F0A8C403F00401A73F01D0A82BAC
:1029E0000150E56E0250E56E83EC16F0E652E652B9
:1029F000A7C402F0A8C403F00401A73F01D0A82B8C
:102A00000050E56E0250E56E83EC16F0E652E65299
:102A1000E4CF03F0E4CF02F0E4CF01F0E4CF00F024
:102A2000E4CFD9FF1200D9CFE5FFE1CFD9FF00C035
:102A3000E5FF01C0E5FF02C0E5FF03C0E5FF04C0FC
:102A4000E5FF020EDBCF00F05BC401F0026A014A31
:102A5000022A5CC403F0046A0150031803E1025027
:102A6000041801E001D00ED0000E04015B25016EB8
:102A7000026A010E022201C0E9FF02C0EAFF00C0A3
:102A8000EFFF5B2BE4CF04F0E4CF03F0E4CF02F0E0
:102A9000E4CF01F0E4CF00F0E4CFD9FF1200D9CFAA
:102AA000E5FFE1CFD9FF00C0E5FF01C0E5FF02C0AF
:102AB000E5FF03C0E5FF020EDBCF00F0016ABCC4F6
:102AC00002F0036A0250002603500122E56A800EDC
:102AD000E56E0150E56E0050E56EF1EC0FF0006E12
:102AE000F3CF01F0040EE126600E0026000E012255
:102AF00000C0E9FF01C0EAFFEFCF00F00050E4CFD3
:102B000003F0E4CF02F0E4CF01F0E4CF00F0E4CF33
:102B1000D9FF120000C0E5FF01C0E5FF02C0E5FFDC
:102B2000010E006EADEC16F0016E01C002F0015016
:102B300023E00050E56E3FEC19F0016EE6520150C3
:102B400010E10A0E005C0BE20A0E006EE56E3FEC2F
:102B500019F0016EE652015004E1E8680ED0E86811
:102B60000CD00150021802E0E86807D0002A1B0EC2
:102B7000005CD8E3E86801D0E86AE4CF02F0E4CF73
:102B800001F0E4CF00F0120000C0E5FF01C0E5FF56
:102B900002C0E5FF03C0E5FFA7C400F0A8C401F030
:102BA0000401A73F01D0A82B0050E56E3FEC19F0BF
:102BB000E652036E026AA7C400F0A8C401F0040143
:102BC000A73F01D0A82B0050E56E3FEC19F0E6526C
:102BD000016A02120150031203C0F3FF0250E4CF56
:102BE00003F0E4CF02F0E4CF01F0E4CF00F01200F4
:102BF00004015B6B04015C6B04015D6994808B9044
:102C00009480B06A3F0EAF6EB886AC8AAC84AC8C50
:102C1000AC90AB8CAB8E0401B36B0401AD6B0401C3
:102C2000B06B0401B16B0401B26B000EE56A3FECBE
:102C300019F004015F6FE6529F989F9A010E0401FC
:102C40005E6F04019E6B9F6B2F0EA06F4DEC19F011
:102C5000120000C0E5FF01C0E5FF02C0E5FF006E05
:102C6000000E04016025016E026A0F0E022201C0EF
:102C7000E9FF02C0EAFF00C0EFFF220E605DD8A0AE
:102C8000602B00500A0A0EE104016051E56E800ECF
:102C9000E56E0F0EE56E000EE56E70EC0FF0040EA3
:102CA000E126606BE4CF02F0E4CF01F0E4CF00F066
:102CB00012000401595104018C6F04015A5104019E
:102CC0008D6FD6508A6FD7508B6F8C510401591974
:102CD00005E104018D5104015A190CE00401595118
:102CE00004018C6F04015A5104018D6FD6508A6F14
:102CF000D7508B6F8DC4E9FF8CC4F4FF8BC4F3FFF6
:102D000004018A511200D9CFE5FFE1CFD9FF00C0FD
:102D1000E5FF01C0E5FF020EDBCF00F0030EDBCFC5
:102D200001F0F29EF29C01C0A8FF00C0A9FFA69E80
:102D3000A69CA684550EA76EAA0EA76EA682F28E3A
:102D4000F28CA694A6A202D00000FCD7E4CF01F03A
:102D5000E4CF00F0E4CFD9FF120000C0E5FF01C0CE
:102D6000E5FF0401B1510401BA1905E00401B151B4
:102D70000401B01902E1E86A15D0B1C400F0040101
:102D8000B12B016A600E0026000E012200C0E9FF8F
:102D900001C0EAFFEFCF00F0B151800A02E1040167
:102DA000B16B0050E4CF01F0E4CF00F01200D8CFB7
:102DB000E5FFE0CFE5FFE56EF3CFE5FFF4CFE5FFFC
:102DC000E9CFE5FFEACFE5FFFACFE5FFFBCFE5FF6F
:102DD0003CEC07F0D0EC19F0E4CFFBFFE4CFFAFFB6
:102DE000E4CFEAFFE4CFE9FFE4CFF4FFE4CFF3FF61
:102DF000E450E4CFE0FFE4CFD8FF100000C0E5FFCF
:102E0000CDEC19F00401896B806B8983006A89B36A
:102E1000002A0050010BE844F46E8051FD0BF410C1
:102E2000806FD58ED59CD59AD588D596D594D582E8
:102E3000D580F28AF184D08EF28EF28CBA80FF0EA9
:102E4000BB68BA84E4CF00F01200D9CFE5FFE1CF30
:102E5000D9FF00C0E5FF01C0E5FF02C0E5FF020E9B
:102E6000DBCF00F0A7C401F0A8C402F00401A73F23
:102E700001D0A82B0050E56E0150E56E83EC16F0F2
:102E8000E652E652E4CF02F0E4CF01F0E4CF00F0E6
:102E9000E4CFD9FF120001C0E5FF02C0E5FF03C087
:102EA000E5FFC4EC19F0EDEC0EF059EC16F0F3CFA1
:102EB00001F0F4CF02F0E9CF03F0200F0401336FEB
:102EC0004E0E0120346F000E0220356F000E0320DD
:102ED000366FE4CF03F0E4CF02F0E4CF01F012004C
:102EE000E8AE0AD0F3CFEAFFEE50EECFF3FFEECF1D
:102EF000F4FFEECFE9FF1200E8BCE9EF19F0E9CFEB
:102F0000F6FFF3CFF7FFF86E0900F5500900F5CF93
:102F1000F3FF0900F5CFF4FF0900F5CFE9FF120038
:102F200000C0E5FF01C0E5FF04015B5104015C192D
:102F300002E1E86A0FD0000E04015C25006E016A10
:102F4000010E012200C0E9FF01C0EAFFEFCF00F04F
:102F50005C2B0050E4CF01F0E4CF00F01200F2CF80
:102F6000EAFFF29EA69EA69CA684E9CFA9FFF3CF16
:102F7000AAFFE4CFA8FF97EC19F0F4CFA8FF97ECD5
:102F800019F0F6CFA8FF97EC19F0F7CFA8FF97EC50
:102F900019F0A694EABEF28E1200F2CFF6FFF29E6E
:102FA000A69EA69CE9CFA9FFF3CFAAFFA680A850B2
:102FB000A94AAA2AA680A8CFF3FFA94AAA2AA680CE
:102FC000A8CFF4FFA94AAA2AA680A8CFEAFFF6BE96
:102FD000F28E1200E8AE08D0F3CFEAFFEE50EECF4B
:102FE000F3FFEECFF4FF1200E8BCF1EF19F0E9CFE8
:102FF000F6FFF3CFF7FFF86E0900F5500900F5CFA3
:10300000F3FF0900F5CFF4FF1200F2CFEAFFF29EC2
:10301000A69EA69CA684E9CFA9FFF3CFAAFFE4CF82
:10302000A8FF97EC19F0F4CFA8FF97EC19F0F6CFB2
:10303000A8FF97EC19F0A694EABEF28E1200D9CF41
:10304000E5FFE1CFD9FF00C0E5FF020EDBCF00F0C6
:1030500000C05FF40050E56E000EE56A83EC16F0E8
:10306000E652E652E4CF00F0E4CFD9FF1200F2CFEF
:10307000F6FFF29EA69EA69CE9CFA9FFF3CFAAFF7A
:10308000A680A850A94AAA2AA680A8CFF3FFA94AD9
:10309000AA2AA680A8CFF4FFF6BEF28E120000C0C6
:1030A000E5FF01C0E5FF600E0401B125006E016A75
:1030B000000E012200C0E9FF01C0EAFFEFCF00F0DF
:1030C0000050E4CF01F0E4CF00F01200D9CFE5FFCB
:1030D000E1CFD9FF00C0E5FF020EDBCF00F0610EAB
:1030E000005C05E37B0E005C02E2010E01D0E86AA1
:1030F000E4CF00F0E4CFD9FF120000C0E5FF01C02B
:10310000E5FFA7C400F0A8C401F00401A73F01D067
:10311000A82B0050E56E3FEC19F0E652E4CF01F029
:10312000E4CF00F01200D9CFE5FFE1CFD9FF00C016
:10313000E5FF020EDBCF00F000C05EF4005004E1BA
:103140004DEC19F09D9A9D98E4CF00F0E4CFD9FFA3
:103150001200E8AE06D0F3CFEAFFEE50EECFF3FF59
:103160001200E8BCE7EF19F0E9CFF6FFF3CFF7FF65
:10317000F86E0900F5500900F5CFF3FF1200F2CF09
:10318000EAFFF29EA69EA69CA684E9CFA9FFF3CFF4
:10319000AAFFE4CFA8FF97EC19F0F4CFA8FF97ECB3
:1031A00019F0A694EABEF28E120012EEFFF022EEA3
:1031B000FFF0F86AA68EA69CE9680E0EEA6E00681B
:1031C000000EED6A0050FDE13BEC13F006EC00F060
:1031D000FFD7F2CFF6FFF29EA69EA69CE9CFA9FFED
:1031E000F3CFAAFFA680A850A94AAA2AA680A8CFF2
:1031F000F3FFF6BEF28E1200F2CFEAFFF29EA69E19
:10320000A69CA684E9CFA9FFF3CFAAFFE4CFA8FF2D
:1032100097EC19F0A694EABEF28E1200E8AE0BD03D
:10322000F3CFEAFFE4CFEEFFF4CFEEFFF6CFEEFFF1
:10323000F7CFEEFF1200E8BCEBEF19F01200E8AE9A
:1032400004D0F3CFEAFFEE501200E8BCE5EF19F02E
:10325000E9CFF6FFF3CFF7FFF86E0900F550120043
:10326000E8AE09D0F3CFEAFFE4CFEEFFF4CFEEFFF4
:10327000F6CFEEFF1200E8BCF3EF19F01200D9CF41
:10328000E5FFE1CFD9FF020EDBCFA9FFA69CA69EEA
:10329000A680A850E4CFD9FF1200ACA2FED794803C
:1032A000AE500000AE50AB98AB88AB869D8A9D981F
:1032B000120025642000F2CFF6FFF29EA69EA69C87
:1032C000E9CFA9FFF3CFAAFFA680A850F6BEF28EE1
:1032D0001200E8AE07D0F3CFEAFFE4CFEEFFF4CF61
:1032E000EEFF1200E8BCEFEF19F01200700ED36E83
:1032F0009B8CFF0E9268936894689668626AF19E50
:10330000120000C0E5FF8AEC15F0006E005001E1EC
:10331000FF00E4CF00F01200E8AE05D0F3CFEAFFE3
:10332000E4CFEEFF1200E8BCEDEF19F01200550EED
:10333000A76EAA0EA76EA682A6B2FED7A94AAA2A8F
:10334000010E0401376F1C0E0401A76FA86B120059
:10335000ADEC16F0280A02E1D1EC13F012000401E2
:10336000376B1C0E0401A76FA86B12000000000051
:10337000FF00000000000000000001006C330000AE
:10338000590400000D000000FEEC16F0F8EC15F0FA
:103390001200ACA2FED7AD6E120076EC19F012004E
:1033A000F5EC19F01200DFEC19F012000401B15134
:1033B00012000401BB51120004015E511200A6EC80
:1033C00005F01200E8CF7FFF12005BEF19F0E9EF84
:1033D00018F0CDEF17F0AFEF17F0FCEF18F0BFEFDC
:0C33E00018F037EF18F005EF18F012009D
:020000040030CA
:010006008574
:00000001FF
