:020000041000EA
:1080000000200420F7800010C3800010C5800010FD
:10801000C1800010C1800010C1800010C18000101C
:10802000C1800010C1800010C1800010C780001006
:10803000C1800010C1800010C9800010CB800010EA
:10804000CD800010CD800010CD800010CD800010BC
:10805000CD800010CD800010CD800010CD800010AC
:10806000CD800010CD800010CD800010CD8000109C
:10807000CD800010CD800010CD800010CD8000108C
:10808000CD800010CD800010CD800010CD8000107C
:10809000CD800010CD800010CD800010CD8000106C
:1080A000CD800010CD800010CD800010CD8000105C
:1080B000CD800010CD800010CD800010CD8000104C
:1080C00000BE00BE00BE00BE00BE00BEEFF30580D5
:1080D000103800BEF2EB88715CEB001078EB0010FA
:1080E0003881001090A31AE71E481F49086006C88F
:1080F00081F3088810471D480068002801D01948FE
:10810000F3E70DA40ECC002902D000F012F8F9E735
:108110001749184A002000E001C19142FCD11649DC
:108120008847164988471649884700BEFDE701C9B8
:1081300001C29A42FBD3704778EB0010C0000020C8
:1081400014050020CCEF00100000042000000420E3
:10815000CCEF0010001004200010042000000000EC
:10816000704700000000000008ED00E0000000D0B3
:1081700018050020141A0020F1C8001091DB00102F
:10818000E9C80010F8B5C04606480749091A8B101F
:10819000C90FC91810B5491003D0044B002B00D0EB
:1081A000984710BD140500201405002000000000B1
:1081B000054B10B5002B03D00449054800E000BF73
:1081C000FFF7E2FF10BDC04600000000540F002082
:1081D00070E60010F8B5CD684746CE462A008B6899
:1081E00080B50E684F6898467A40734013435A42F0
:1081F000534148228B544023CB5C0C00002B2CD0E5
:10820000012B05D000212D48C0BCB946B046F8BDB1
:10821000BD4244DD0123A2699340D022120653617E
:1082200001220023B6185F410123D022E069120623
:1082300083405168266067600B423AD1536161699F
:1082400020690029E0DC01D11828DDD8192200239B
:108250001920002122616361D6E70B6A0021181CF6
:10826000994602F061FE0028CCD1B04523D0002110
:10827000484602F06FFE0028CCD10021484602F0AB
:108280005BFE0028BED00123A2699340D0221206D3
:10829000936101225242D317B6185F41C4E7BD4231
:1082A00001D1B045B6D8AF42EDDCABD14645EAD8F6
:1082B000A8E79361C3E7BD42D9D1A3E71027000027
:1082C00010B5022000F012FCD02304221B065A62D3
:1082D0009A6110BDF0B5C64600B52D4C2D4BE16B33
:1082E0005A6AA06B82B0914200D9B8E09B6A83427F
:1082F00000D2D7E101F01AFC0023274A8018594127
:108300000B008021020009068B4202D30122234B7D
:108310005242E3634023A263E35C002B40D0012B75
:1083200000D09CE02268A368D01AC11740184840CA
:108330009A4200D193E002F017FE616A02F0C5FD97
:10834000051CA06A02F010FE011C281C02F0A9FD09
:10835000666C43005B08051C311C181C984602F033
:10836000EBFD002800D1D2E10021281C02F0F2FD33
:10837000002800D1FEE12662760073089846E06A84
:1083800002F0B0F9060040460F0002F057FE56E03A
:10839000C80600200040054010270000FFFFFF7FB7
:1083A000E36A206861689846DB17424601F0EEFEFA
:1083B0001900100002F034FE051C404602F0D4FD06
:1083C000011C281C02F06DFD02F038FE0022D64B85
:1083D00002F0F1F800900191019B02005B00590846
:1083E0000B00276B02F0F0F802F0F0F9391C02F0F4
:1083F0006CFDFE21890502F051FD0021051C381C91
:10840000666A02F0A7FD002804D0281C391C02F07F
:1084100042FD051C291C301C02F057FD0021206282
:10842000051C02F081FD002800D078E168004008BA
:1084300002F004FE060040460F0002F053F902006D
:108440000B003000390002F0E6F802000B000020BB
:10845000B64902F0C2F802F08DF920616161B44DB5
:10846000B44BE9695A6AA869914200D984E09B6AD1
:10847000834200D212E101F059FB0023AE4A80187A
:1084800059410B008021020009068B4202D30122D0
:10849000AA4B52422E68AA61EB61311C686802F057
:1084A000FAFCA96802F011FD311C02F0F7FC296901
:1084B000286002F00AFD0021071C02F03DFD0028A3
:1084C00000D019E1FE21381C890502F043FD002689
:1084D000002800D1F3E0E9684B081F2900D9EAE041
:1084E00007221A4093009B18954A9B0094466344C8
:1084F000C90700D4DDE0934936041A6872400A4087
:10850000802149018C4663441A608F4B186802F041
:1085100095FDA268236800900191206A9A4200D1DB
:10852000E1E04000400802F089FD884B0600186831
:108530000F0002F083FD02000B003000390002F052
:108540006AF80022824B02F03FF8009A019B02F089
:1085500062F802F03BF90021061C02F0EDFC002855
:1085600000D0BDE0FE21301C890502F0F3FC00289C
:1085700001D0FE26B6056E60764E6E4B71685A6A63
:10858000306891422AD89B6A834200D277E0012169
:10859000714A13784B40137000D179E0D0238022C8
:1085A0001B0692045A616D4B1F6801F0BFFAFA2254
:1085B00000230090019192003800002102F04EFC4F
:1085C000009A019B801859410B0080210200090686
:1085D0008B4202D30122594B52420CC6604E554B7E
:1085E00071685A6A3068914245D89B6A83425DD36C
:1085F00001F09CFA0023504A801859410B00802159
:10860000020009068B4202D301224C4B52420CC697
:1086100004F020FB4823E05C0130C0B204F022FBF0
:10862000A2682368206A9A4268D04E4902F04DFC45
:1086300002F0EEFC80B204F021FB4A49286802F007
:1086400044FC02F0E5FC80B204F018FB206861688D
:1086500002F0E6FC051CE06A02F086FC011C281C06
:1086600002F01FFC404902F030FC02F09FFC04F0D5
:1086700015FB04F02BFB02B080BCB846F0BD914264
:10868000ACD00121344A13784B40137000D085E7F9
:10869000D02380221B0692049A6184E7914200D085
:1086A000E9E669E7914200D024E6D8E691429FD1FD
:1086B000E1E72E4921E703221A40083212E7381C6D
:1086C00002F0BCFC02000B000020214901F073FF06
:1086D0000022274B01F09FFF02F040F886B2FAE635
:1086E00000266E6048E7E26863689A4200D018E7A7
:1086F000002102F0EAFB14E71C4EECE6E268636836
:108700009A4200D091E7002102F0DFFB8DE70021C3
:108710002562281C02F008FC002800D12FE6002367
:10872000054A226163619AE60000E03F80842E41A1
:10873000A80600200040054010270000FFFFFF7F33
:108740000C0005400000FFFFB80E0020B40E002012
:108750000000F03F18050020041A0020100400203B
:108760002005002000401C460000C842FFFF00001A
:10877000E0FFEF4080231B06F318760023627308A6
:108780009846FCE5F8B504F00DFA352822D86F4B71
:1087900080001B589F46EFF3108572B66C4C002189
:1087A000206A02F0D7FBE66AF71732003B00002888
:1087B00000D1B9E02068616801F0E8FC01220023E3
:1087C0008018594132003B0002F048FBA060E16094
:1087D00085F31088F8BD04F009FA01F083FF002248
:1087E0005C4B01F0FAFE01F0F1FF5B4C2061F1E718
:1087F00004F0D8F98300594A1B185B001360E9E7BD
:1088000004F0DEF901F06EFF0022524B01F0E5FEAC
:1088100001F0DCFF402300224D4C6062E254D9E7B6
:1088200004F0FCF9EFF3108272B60021484B186097
:10883000C0175860596200204021585482F31088B4
:10884000C8E704F0AFF9D02304221B06002869D141
:108850005A61BFE704F0B4F901F044FF00223D4B38
:1088600001F0BBFE01F0B2FF3D49041C02F064FBC5
:10887000002867D1FE21201C890502F06BFB00282F
:1088800001D0FE24A405324B1C63A3E7EFF310854F
:1088900072B62F4C0021206A02F054FB22686368F4
:1088A00000284AD001204042C11712184B41A26053
:1088B000E36085F310888DE704F082F901F012FF80
:1088C0000022244B01F089FE01F080FF0021041CEE
:1088D00002F032FB002837D1FE21201C890502F06E
:1088E00039FB002801D0FE24A4051B4B9C6071E7D6
:1088F00004F066F901F0F6FE00221A4B01F06DFE5D
:1089000001F064FF184C206064E704F059F901F0AD
:10891000E9FE00220F4B01F060FE01F057FF134CFF
:10892000206057E79A6155E72068616801F02EFCE6
:1089300032003B0002F092FA48E7012000211218B1
:108940004B41B4E7064C9EE70024CEE770E60010EA
:10895000C80600200088C340A8060020100400209C
:10896000000080BF00408F40B40E0020B80E0020F1
:1089700010B50378452B00D010BD411C014805F00F
:10898000B9F8F9E748E70010F0B50022C646002321
:10899000324C00B522606360A260E3600023304A7D
:1089A000C8212261636100220123A261E3610023E7
:1089B00023626362236300234032A354294A0120C7
:1089C000626448228901A062E16284B00020D0255F
:1089D000A35400F08BF801232D0601206B6200F0F8
:1089E00085F82669676902236B6200F0A5FE804660
:1089F00001F09CF832003B0012184B41802109061F
:108A00008B4202D30122184B52420125174902958D
:108A100000914046019400F093FE0022144B042183
:108A20001A605A60134A08209A600822DA60FE220F
:108A300092051A6100F02CF80F4B104A1A66104B81
:108A4000104A1B689D43104B1D60104B1B681B0494
:108A50001B0C136004B080BCB846F0BDC8060020F3
:108A600010270000CDCC4C3DFFFFFF7FD5810010CB
:108A7000A8060020CDCCCC3D00000540FFFF000043
:108A8000500005405C100540501005405C0005405A
:108A9000094A83009A1810B5146840225440803265
:108AA0002240064CC000A44663441A60044B9C4616
:108AB0006044416010BDC04604C0014004D0014084
:108AC00000400140074B8000C3181B68C90092009A
:108AD0000A435A400C231340034A944660440360FF
:108AE0007047C04604C0014004D001400123D02299
:108AF0008340120693629361094A83009A181168B1
:108B00004022514080320A400649C0008C466344EE
:108B10001A60054B9C460523604443607047C0467D
:108B200004C0014004D00140004001400FB400B532
:108B3000084883B004F012F8049B002B07D005A965
:108B40001800019103F0B6FE034804F007F8012075
:108B500003F0C8FE50E7001060E70010EFF310804C
:108B600072B6034A1368002BFCD0BFF35F8F7047C7
:108B70002C0100D0BFF35F8F0022024B1A6080F3FC
:108B8000108870472C0100D070B5EFF3108C72B6CE
:108B90000D4D2B68002BFCD0BFF35F8F0724CB0853
:108BA000C618C05C01230C40A3401C0004400342D3
:108BB00007D118433070BFF35F8F2C608CF310889F
:108BC00070BD1000FFF7B2FF2C0100D0F8B547468A
:108BD000CE46884680B5EFF3108C72B6214D2C68D6
:108BE000002CFCD0BFF35F8F9A422CD8D408072703
:108BF000055D061901241740BC402C421FD00721F7
:108C00000127894609E0D408055D06194C4639005C
:108C10001440A1400C00294211D001329342F2D2FB
:108C200001204042BFF35F8F00220E4B1A608CF38D
:108C3000108800280FDBC0BCB946B046F8BD2543FC
:108C400010003570EEE7BFF35F8F00232B608CF3CD
:108C50001088012040424346002BECD00898FFF7D3
:108C600065FFC0462C0100D030B5EFF3108C72B612
:108C70000A4C2368002BFCD0BFF35F8F072301222F
:108C80000B409A40CD08435D93434355BFF35F8F3C
:108C9000002323608CF3108830BDC0462C0100D027
:108CA000044A1078431CDBB2172B00D91023137031
:108CB0007047C0461404002010B5064B064C82B025
:108CC0000100009318221F232000FFF77FFF02B04E
:108CD00010BDC04664E700104C0A00200021044B80
:108CE000044ABFF35F8F02C39342FAD17047C04674
:108CF000000100D0800100D0054B064A1360064AEF
:108D0000136053609360D360136153619361704744
:108D10008080808000E400E004E400E01F2318402D
:108D20001E3B8340002905D0C021044A490053500E
:108D300013607047802201498B50FAE700E100E0A0
:108D400001228240034B1B6813405A1E9341D8B244
:108D50007047C04600E100E070B50D00EFF31086EB
:108D600072B60F4A1368002BFCD0BFF35F8F0D4B18
:108D700010309B6884001B590B4A934203D09D42DC
:108D800001D001F0D1F8074B9B681D51BFF35F8FF5
:108D9000BFF35F8F0022024B1A6086F3108870BD0C
:108DA000240100D000ED00E0CD800010EFF3108131
:108DB00072B60E4B1A68002AFCD0BFF35F8F0C4AC4
:108DC0001030926880008058BFF35F8F00221A60D5
:108DD00081F31088074B984206D02F23064A821A47
:108DE00093429B41184070470020FCE7240100D0CB
:108DF00000ED00E0CD80001018040020F0B55746CB
:108E00004E46DE464546E0B585B0060000911700A7
:108E1000EFF3108B72B66A4A1368002BFCD0BFF3D5
:108E20005F8F0025674B5D579A46002D00DAA9E059
:108E30006B00654C01935B199B009846A146C144A9
:108E40004B4652469B7910361370604BB6009B68B8
:108E500099590B1B2F2B33D95D4B994200D0ACE0B5
:108E6000019B42469C465B4B6544AD0063535A4BA5
:108E70000232A218043B9B1A1B05584A5B0D651968
:108E800013436B80564B0121AB80FF23AB71009BDA
:108E9000EF71AB604B460B4319004C4B9B689951EB
:108EA000BFF35F8FBFF35F8F0022454B1A608BF3D8
:108EB000108805B0F0BCBB46B246A946A046F0BD3E
:108EC00001200A008243D3798C46BB4231D8454603
:108ED000130044491B1B5B415943090D3D4B635330
:108EE0003D4B02356519043B5B1B1B053B4D5B0D80
:108EF0002B43AA464D466B800425AC465546E044BC
:108F0000131F44441B1B1B055B0D1D434B469971EE
:108F100000999D8099604946DF71334B014313608E
:108F2000BBE75800C01880002018C179B9422FD97A
:108F300002000623D356002BF3DA02932B4B614633
:108F40000393131D9A4604235B429C46E14450461A
:108F50004B461B1A1B055B0D9C46204B9571984692
:108F60006346404603439380019B5A199200039B3A
:108F7000A418A380029B1C4AA371009B2260E77186
:108F8000A3608AE700F0D0FF002553465D574FE706
:108F9000908802934005131D9A46031561469C462E
:108FA0004046D444634604302018181AE0230005D4
:108FB000400D1B0218430390C5E700F0B5FF4FE7D3
:108FC000240100D0071A00201804002000ED00E062
:108FD000CD80001000A1FFFF4804002000E0FFFF4B
:108FE00001BDFFFFAAAA00000148804701BD0000A3
:108FF000F0B5DE4657464E464546E0B50C0083B018
:10900000EFF3108872B6634A1368002BFCD0BFF3ED
:109010005F8F614B61499A68030010339F00D559F7
:1090200000938D4243D0A54254D05D4EAA1B2F2AF7
:109030003DD85C4B9C461B689A4601231A00994612
:109040008240534613401F2201934B4602409340F7
:109050009A468022634650469850BFF35F8FEFF3E5
:1090600005839B46002B37D0009B5B4501D000F069
:109070005BFF2A004B469A439068844208D177E010
:109080004B005B189B00F3189868844236D01A0096
:10909000062151560029F3DA844255D0019B002B5A
:1090A00027D0C02251463F4B5200995019603A4B8D
:1090B0009B68DD51BFF35F8FBFF35F8F0022354B9D
:1090C0001A6088F3108803B0F0BCBB46B246A946CC
:1090D000A046F0BD0D00EAE72A004B469A4390688F
:1090E0008442D5D106201056130000280ADA0D005C
:1090F00032E0802351462B4AD150D8E7062018563B
:10910000002822DB42001118890074188946A168E2
:109110009960E179D971062161569971002925DBA1
:10912000A488F11A640524154C440919E0240905A2
:10913000490D24022143998013181B4A9B00117882
:10914000F31899711070A9E713005946002914D13A
:10915000FF3191711549918013490A789A71144A27
:109160009B1B5B415A43120D0A7097E71149E2E7D6
:109170000620105613000028C4DA0F4A0F49D21AED
:10918000083A5002400D014399800D4952080A43A4
:10919000DA8083E7240100D000ED00E0CD800010EC
:1091A0001804002000E100E0071A002001BDFFFFC5
:1091B000AAAA000001BD00005204002000F0FFFF39
:1091C00000F8FFFF70B501240443EFF30581EFF3CE
:1091D000108C72B6214A1368002BFCD0BFF35F8F4E
:1091E0001F4B05001F4AED1A6D416A43120D1E4DBB
:1091F0008900AE6852B27658A6421CD00621595654
:1092000091421CD012215956914222D01E2159560A
:10921000914220D02A2159560324914210D0134B59
:1092200019781A708171BFF35F8F00220B4B1A609F
:109230008CF3108870BDAB680D4C5C50EFE70024D8
:109240006100091989005B18FF219971094999800A
:10925000E5E70124F4E70224F2E7C046240100D048
:1092600018040020AAAA000000ED00E0071A002060
:10927000CD80001001BDFFFF70B504000E00150089
:10928000FFF70EFD0100200000F006F8A680E58043
:10929000BFF35F8F70BDC046024B9C46614489009E
:1092A000016070474000003470B5114C114DAC4264
:1092B0000FD2FF262368002B0CD0FFF7F1FC010032
:1092C0002000FFF7E9FFA680BFF35F8F0834AC42B0
:1092D000F0D370BDFFF7E4FC01002000FFF7DCFFD6
:1092E0002671BFF35F8F0834AC42E3D3F1E7C04689
:1092F000BC040020CC04002010B50400FFF7D0FC13
:1093000001002000FFF7C8FFFF232371BFF35F8F29
:1093100010BDC04610B504000120FFF7CDFC034B83
:10932000C3189B002360BFF35F8F10BD4000003463
:109330000A4B1968EFF3108072B60A68002AFCD055
:10934000BFF35F8F1B68BFF35F8F00221A6080F34B
:10935000108840BF002000217047C046E411002063
:10936000F0B5DE4657464E464546E0B583B0EFF3CE
:10937000058203231340B54A990052580091904644
:1093800001229A409346B24B1A60B24B01935B465E
:10939000B1484363434608229B5E9946002B3ADA64
:1093A00043469B881BB2002B00DB9DE043469B7924
:1093B000002B00D0E1E0434608241C5F002C20DB9A
:1093C00043465A6963001B19DB00D3189D68DC68AB
:1093D0006B1C00D103E1A048009984466144826A75
:1093E0000B69AE1A9B1A9E4213D35A46036A1A425D
:1093F0000FD0994800F092FB8C4202DCC7D1854225
:10940000C5D940BF03B0F0BCBB46B246A946A04692
:10941000F0BD0D61EDE7424652695B0092464B4458
:10942000DB009A4453469E68DF6800F077FB8F426A
:10943000B6DC00D1F8E0002F00DAD9E052465346FE
:1094400054691B69019A934200D1CCE041465246CF
:109450000820085E52880004210010439847040049
:109460000D0023002B4300D1C2E0002D00DBDFE024
:1094700030003900001BA94153469860D960002292
:109480009A5E002A00DA8BE743465D6953009C1818
:10949000E4002C19A768E4688C4200DD80E702D163
:1094A000874200D97CE74646328108360DE08C427F
:1094B00000D1C6E01E000023F25E002A0ADB530042
:1094C0009C18E4002C19A768E4689B18DB00EB18D3
:1094D0008C42ECDD53461A804B46338043469B88D2
:1094E0001BB2002B00DA61E743461A69EFF31081E3
:1094F00072B61368002BFCD0BFF35F8F43469E8883
:10950000012342465B42938036B21369BFF35F8FFB
:1095100000221A6081F31088002E00DA46E74346E5
:109520005D69083342469C467700BF19FF00EF197A
:10953000BB68604698460823D15E9246FC680029C5
:1095400007DA0EE0A24246D018000023C15E0029CF
:1095500006DB4B005B18DB00EB18DA68A242F1DD9A
:10956000524606800023FE5E3980002EDCDA9046EB
:1095700043469B79002B00D11DE70023424693719F
:10958000434646460821595E08364B1C00D138E751
:1095900047468946556902E006004B1C18D04B002F
:1095A0005B18DB00E8180A008C46E95E43881BB2B2
:1095B000002BF1DA01235B42DC178360C4604A456B
:1095C00003D031803B8903803A81E1464B1CE6D1D0
:1095D000B8464C46F2E69A684245B5D9C0E7631CE6
:1095E00000D0F8E605E7200023699847002825D138
:1095F000534642461B8813811269EFF3108372B6FB
:1096000011680029FCD0BFF35F8F42465146528853
:109610000A804246494651801269BFF35F8F00219C
:10962000116083F31088BBE6864200D803E7B7E6F3
:10963000094800F073FA001969411DE7656824685C
:109640000FE7874200D835E744E7C046780F00208F
:109650003C700540619300100040054070B52E4CF1
:109660002569002D04D00A212C48FFF715FE70BD96
:109670002B4E0321300000F047FAE660FFF710FBA5
:10968000284B03229C46D02322701B061B68012115
:109690006370254B6044A3600F238000206102208B
:1096A000638063694942A18019800231198647317C
:1096B0001D83585218315A5275325C3999521832FA
:1096C00001319952183201319952183201319952AF
:1096D000083518329D520231183299521832013130
:1096E0009952183201319952183201319952183277
:1096F000013199521832013199520C4B0C49DC60FE
:1097000001303562FFF728FB01210320FFF706FB3C
:10971000084B1D60A7E7C04660040020E41100204C
:109720000040054040000034FFFF1000780F00208B
:1097300061930010386005400048704760040020C5
:10974000F8B51F0008AB1B7804001600002B08D1E9
:1097500000F0ECF932003B00121A8B41002B00DACA
:1097600053E02269EFF3108072B61368002BFCD02F
:10977000BFF35F8F0223E15E63694A005218D20093
:109780009B18002937DB1A8862802269BFF35F8F3C
:109790000025156080F31088069A9E60DF601A61CC
:1097A000079A5A615A8801325204520C101C002A3E
:1097B0001FD082B25880080410432669EFF3108747
:1097C00072B63268002AFCD0BFF35F8FA2881A807D
:1097D000A1802369BFF35F8F00221A6087F310888E
:1097E0000B4923788C4601329A40E36863441A603F
:1097F000F8BD0120DDE72369BFF35F8F00221A6007
:1098000080F3108801204042F2E70020F0E7C046D4
:109810003C20000070B501000469EFF3108C72B6B3
:1098200020680028FCD0BFF35F8F02200D5E4C69DA
:1098300068004019C0002418002D37DB20884880BC
:109840000869BFF35F8F002606608CF31088E36021
:1098500063880498013320615B0405985B0CA26067
:1098600060611A1C002B1FD093B228046280184339
:109870000A69EFF3108C72B61368002BFCD0BFF3AB
:109880005F8F8B8823808D800B69BFF35F8F0022F1
:109890001A608CF310880B7801329A40CB68084923
:1098A0008C4663441A6070BD0122DDE70B69BFF38B
:1098B0005F8F00221A608CF3108801204042F2E78B
:1098C0003C20000010B543890A1493421ADD53006E
:1098D0009B184269DB00D3180469EFF3108C72B651
:1098E0002268002AFCD0BFF35F8F5A88090494B223
:1098F000090C8A4208D00369BFF35F8F00221A6007
:109900008CF31088002010BD8022120214435C806A
:10991000012302698371BFF35F8F002111608CF313
:109920001088044902788C469340C2680120624442
:109930001360E8E73C200000F0B504000D000626A7
:109940007642F717C64636196F4100B582B08F428E
:1099500014D811D000F0EAF832003B00121A8B4103
:10996000002B17DC002B47D02000290000F0E8F87E
:1099700002B080BCB846F0BD8642EBD9002200237D
:1099800016001F0000F0D2F832003B00121A8B4183
:10999000002BE7DD00F0CAF832003B00121A8B41C1
:1099A000002B0ADB00230193154B3200009315486E
:1099B0003B00FFF72FFF0028D6DB00239C46B04674
:1099C000114A124E736A9F4204D8B16A8845CBD9B6
:1099D0009F42C9D11168EFF3108072B60B68002B5B
:1099E000FCD0BFF35F8F1368BFF35F8F61461960D0
:1099F00080F3108820BFE5E7002AB5D0CAE7C0464B
:109A00003193001060040020E41100200040054064
:109A1000F0B5D6464F464646C0B504000D0082B0AC
:109A2000EFF305878946002F0ED0344900204B6A9A
:109A3000AB4203D38A6A0130A24226D302B0E0BC13
:109A4000BA46B146A846F0BD2D4B9846DB689A460B
:109A5000434650461E7800F061F80B005146020064
:109A60000436B600715820008E1A2900801A9941D8
:109A70008F4211DC0ED020BF204A0020536A4B4594
:109A8000DCD3926A0130A242D8D25B1B5A1E9341AA
:109A9000D8B2D3E78642EED900F048F822002B0076
:109AA000121A8B41002B1ADB00230193154B220065
:109AB000009340462B00FFF7ADFE011E0FDD0F4B5C
:109AC0005A6A4A4517D39B6AA34212D34046FFF70E
:109AD000F9FE0A4A0020536A4B45AFD3D1E7074A43
:109AE0000020536A4B45A9D3926A0120A242A5D215
:109AF000CBE74A45EAD120BFE8E7C0460040054031
:109B0000600400203193001010B5024A0248FFF7AC
:109B10003BF810BD80E70010500A00200300416AA6
:109B20000A00986A596A8A42FAD17047034B596A07
:109B30000A00986A596A9142FAD17047004005407C
:109B4000064A536A9942FCD807D1044B02E05A6A8C
:109B5000914202D19A6A8242F9D37047004005408F
:109B6000F8B5DE464E4657464546E0B58B460500FD
:109B70000A991800160000F0E3FA0A9B6C001F0215
:109B8000324B64199C46A4006444636881469F423A
:109B900000D967602B1FDBB29846012B30D9C02358
:109BA00080229B01E31812011A60294BAD0059591C
:109BB0009A4600291BD17301E026226853401E40BB
:109BC000802342465B01E3181E60012A30D98023BE
:109BD00080229B01E31812011A6053464A466760CF
:109BE0005A51F0BCBB46B246A946A046F8BD5869DA
:109BF00000F0A6FA013043001B18033BFDD2DAE760
:109C00005B46012BCBD1C02303229B01E3181A60D2
:109C1000023AA3681A42FCD07301E0262268AD0024
:109C200053401E4080230A4A5B019246E3181E609F
:109C30005A462168514003220A401A6001225B46BD
:109C40009A40A3681A42FCD0C1E7C0460080004099
:109C50005C0A0020F0B546464F46D646C0B51F0008
:109C6000344B44009C462418A4006444636888462E
:109C70001600FF2B02D880235B006360031FDBB25A
:109C80009A46012B30D9C02380229B01E318120190
:109C90001A60294B85005959994600291BD1730137
:109CA000E026226853401E40802352465B01E318A1
:109CB0001E60012A30D9802380229B01E318120103
:109CC0001A6080235B0063604B465F51E0BCBA467C
:109CD000B146A846F0BD586900F032FA01304300A1
:109CE0001B18033BFDD2DAE74346012BCBD1C0233F
:109CF00003229B01E3181A60023AA3681A42FCD0BF
:109D00007301E0262268850053401E4080230A4AE2
:109D10005B019146E3181E604246216851400322D0
:109D20000A401A60012342469340A2681342FCD0C5
:109D3000C1E7C046008000405C0A0020014B800063
:109D4000C05870475C0A0020F8B5040021481E0086
:109D500017000D0000F0F4F90100380000F0F0F9F0
:109D6000069B36041B031E432368002B20DB1A4B83
:109D70001A49E3185A1E93418022920194465B428D
:109D80001B0B174A1B0363441360164A13601F0022
:109D90000A689743FBD1144B2560E2182123A06089
:109DA00013602368002BFCDA0823E6601360F8BD1B
:109DB0003F2322681340AB42D9D1A3681B051B0D7A
:109DC0008342D4D1EE22E368D2021340B342CED113
:109DD000EDE7C046001BB7000040FDBF08C00040D3
:109DE00000E0004000F000400430000010B5802486
:109DF0001C4BE4051C6000281AD001231A4C1843A0
:109E00001A4BDC611A4C44401C62596298628021F2
:109E1000144BC9051960174817490860E021C904A7
:109E20001960002A07D18022144B12061A6010BD57
:109E30000E4BD861EBE753019B1A9B009A188023C5
:109E400012015B049A4209D213000D490B60074BC3
:109E50005A608022094BD2051A60E8E7094B1A00C4
:109E6000F3E7C04600B00540D3C007B0008005400E
:109E70002D3FF84FFCFF01000820014000A00540E5
:109E8000000F0020FFFFFF008023024A9B000B43CE
:109E9000D362704700800540142310B50100188874
:109EA00004331B88984710BD162310B5010018888D
:109EB00002331B88984710BDF8B54746CE4680B59B
:109EC0000F1E19D0142399460433040000250126DF
:109ED00098464B461888434621681B88984701C41A
:109EE000431E9841013540420640AF42F1D1300057
:109EF000C0BCB946B046F8BD0126F8E7AA23064A19
:109F00001B0113608D235B00D3600449044B19606F
:109F10005368002BFCDA70470040024000B0FA00A2
:109F2000006002407047C04610B50148FEF7FEFDD4
:109F3000A4E7001070B5074D074EB54209D20024C2
:109F4000013E761BB60808CD984723000134B34282
:109F5000F9D170BDCC04002008050020054B064A4D
:109F600006491A60064A074B1A6010000B689843AE
:109F7000FBD1704700E00040BFCDFBFE08C00040B1
:109F8000FE7F3C0000F00040044BDB6C002B03D153
:109F90008022034BD2021A607047C0460000115065
:109FA0004C201150044A054B1A60054A1368DB0126
:109FB0008033FBD17047C046FFFFFF0100F0004037
:109FC00008C000404022034B9A675A671A67DA6656
:109FD0007047C04600F0014010B5FEF77FFE10BD8F
:109FE00070B5044D044CA968C022200001F0CCF8E3
:109FF000AC6070BD00ED00E000000020002310B553
:10A00000294C82B0A367FFF779FF0122274B1A6022
:10A01000636C012BFCD10322254B1A60224A936BFF
:10A02000012BFCD1013300930121224A2248043341
:10A03000FFF78AFE052301210093204A2048FFF7FD
:10A0400083FE0022022104201E4BFFF703FE0022A4
:10A05000012105201C4BFFF7FDFD002200210720F8
:10A060001A4BFFF7F7FD002200210820174BFFF7DE
:10A07000F1FD8023DB000093002200210920134B17
:10A08000FFF76EFD0022104B00210620FFF7E2FDD6
:10A090000420FFF753FE0E4900F052F801000020A3
:10A0A000FFF7F2FE02B010BD008000403CB000405F
:10A0B00030B00040002F685900800240008C864775
:10A0C00000C00240001BB70040597307006CDC025F
:10A0D00040420F0001480421014B18478004002032
:10A0E000B99E0010014B9B681847000080040020B7
:10A0F000124A936F9B0815D29066D166002905D04D
:10A10000FFE7FFE7FFE7516F106F704704B580214D
:10A110000906C2175140002800D0C84304F080FA55
:10A12000002104BDF0B5146E556E576F166FFFF722
:10A13000E3FF1466556657671667F0BD000000D050
:10A14000114A936F9B0813D210665166002905D0FF
:10A15000FFE7FFE7FFE7516F106F704704B5002876
:10A1600001D00020C04304F05BFA002104BDC046CA
:10A17000F0B5146E556E576F166FFFF7E5FF146656
:10A18000556657671667F0BD000000D094464A4AEE
:10A19000926F9208624601D228E0C046F0B5464E62
:10A1A000346E756E776F366F00F020F89446424A31
:10A1B00014665566576716676246F0BD94463E4A78
:10A1C000926F9208624601D254E0C046F0B53A4E12
:10A1D000346E756E776F366F00F04CF89446364AE1
:10A1E00014665566576716676246F0BD002B24DB80
:10A1F00011D000293EDA00B5C943404200D10131F7
:10A2000000F038F8C943404200D10131DB435242EB
:10A2100000D1013300BD002AEBD1002801D1002973
:10A2200005D00020C90FC90701D1C043410800B5BE
:10A2300004F0E6F90022002300BD00B500290ADB86
:10A24000DB43524200D1013300F014F8C9434042CD
:10A2500000D1013100BDC943404200D10131DB438F
:10A26000524200D1013300F005F8DB43524200D1E5
:10A27000013300BD002923D1002B18D1002A0CD0B6
:10A28000BC460D4F38667A6600210023FFE7FFE7E2
:10A29000FFE77A6F386F67467047002801D007489C
:10A2A000010000B504F0ACF90022002300BD02005B
:10A2B0000B00002000217047000000D0FFFFFFFFCF
:10A2C000002B00D0BFE0130C28D1002AE7D080B4C7
:10A2D000114F39667A66FFE7FFE730B4040C7B6FF5
:10A2E000396F1B0423433B667A66FFE7FFE7FFE70E
:10A2F000C04684B27B6F3D6F1B0423433B667A6686
:10A30000FFE7FFE7C04600232C042D0C7A6F386F5F
:10A3100000196941B0BC7047000000D0F0B5944608
:10A320000025140E01D112020835140F01D11201BB
:10A330000435940F01D192000235D40F01D152009F
:10A340000135D40B0134254F7C66254C3C660E0C40
:10A3500093B2FFE7FFE7FFE73C6F6643360C7703F6
:10A36000BE467343DF0B5B04C01AB941130C734341
:10A37000DB18C91ACE086643360CB64493B2734351
:10A380001F0F1B01C01AB941130C73431F0B1B0590
:10A39000C01AB941860D8F023E436643360C092D23
:10A3A00024DB520A7243801A7703460A6643360C4E
:10A3B00016235B1BDE40DF40BF1964466643821BE9
:10A3C0007046043506330100D940A840C01900D3B7
:10A3D0000131A24206D20023F0BD0000000000D0EF
:10A3E000FFFFFFFF121B0130F3D3F1E709277F1BAB
:10A3F000FE406446A2B27243801A00D20139220C98
:10A400007243130C1204821A99410B0070460435F2
:10A4100013370100F940A840801900D30131002B07
:10A4200002D1A2420AD2F0BD013000D30131121B89
:10A43000FAD2013BF8D1A24200D2F0BD013000D3E4
:10A440000131121BF7E7F0B51C0C00D080E00CB412
:10A4500000251C0A04D11B02160E334312020835D4
:10A460001C0B04D11B01160F3343120104359C0B46
:10A4700004D19B00960F334392000235DC0B02D1CE
:10A4800092185B4101351C00971864410134464F16
:10A490007C66464C3C660E0CFFE7FFE7FFE7C046D4
:10A4A0003C6F6643360C7703BE4697B27743C01BBA
:10A4B00000D20139C01B00D201399FB27743C91BBA
:10A4C000C91B170C77437E04FF0B801BB941CE08D4
:10A4D0006643360C0C2D33DBB644120B1F053A4392
:10A4E0001B0B97B27743C01B00D201399FB2774351
:10A4F000C91B170C77433E043F0C801BB941860DE6
:10A500008F023E43664329277F1BFE400C3D774662
:10A51000AF40BF1930BCA2B2ABB272437343801AD2
:10A520009941220C7243130C1204801A99410200C3
:10A530000B000137001BA941F9D2781E0021F0BDA4
:10A540000C277F1BFE4077467F0BAF40FF19E0E7EB
:10A5500000245D1C07D0144F7D663966FFE7FFE7D6
:10A56000FFE7FFE73C6F95B29EB265436643401B31
:10A57000B141150C1E0C6543664336042F0C3E4357
:10A580002D04401BB141994204D202000B0020006F
:10A590000021F0BD01D19042F7D3801A99410134D6
:10A5A0009942F2D3F6E70000000000D0FFFFFFFF62
:10A5B00048404140484018B41B4B5B68FC4601933F
:10A5C00008BD04DFBBA8001018B4174B1B68FC467D
:10A5D000019308BD00DFC5A800109446134A926F8E
:10A5E000920809D2624618B40F4BDB68FC4601930F
:10A5F00008BD0CDF7DAB00100C4AF0B5146E556E33
:10A60000576F166F6246FFF7EEFF084A14665566ED
:10A6100057671667F0BD18B4034B9B68FC4601935F
:10A6200008BD08DF21AA001040070020000000D06C
:10A63000FFB550404240504059404B40594000E027
:10A64000FFB5154F4C00640D03D0BC4204D10C0380
:10A6500014D80020090D09055C00640D03D0BC422C
:10A6600004D11C030AD800221B0D1B0501264B40F8
:10A6700009D44B4003D58B4200D18242FFBD9942A1
:10A68000FCD19042FFBD0B43DB1803431343F5D0CD
:10A69000C9434918FFBD0000FF07000000B5FFF7E0
:10A6A000CFFF804100BDC04600B5FFF7C1FF01D913
:10A6B000002000BD012000BD00B5FFF7B9FF8041BB
:10A6C00000BD012040054A00121804D85A00121893
:10A6D00001D80020704701207047000000210028A9
:10A6E00005D17047C1174840401AFAD0C90713B5C1
:10A6F000064B1B6898470CBC441CA2401005120B6B
:10A700000349091B09051943114310BDE01100203D
:10A710001F04000010B54C00620D8023D218DB002E
:10A72000D21A5B057E2A10DD9E3A13DACC17090394
:10A73000490819435242D140640001341532202A9D
:10A7400005DAD0400843604310BD002010BD084624
:10A75000604310BDC80FC018013810BD18B4044BB9
:10A760005B6AFC46019308BD24DF2DAD001000009C
:10A7700040070020C94211D300B549004908002212
:10A7800000F018F8002904D4002240428A41114602
:10A7900000BD80210906002000BD000018B4044B54
:10A7A000DB6EFC46019308BD6CDF3BAD0010000082
:10A7B0004007002018B4044B9B6FFC46019308BD72
:10A7C00078DF57AD001000004007002018B4044B9C
:10A7D000DB6FFC46019308BD7CDFC5AD00100000B7
:10A7E00040070020132370B51D78012D19D014DD0A
:10A7F0001F48FFF759FB06001E48FFF755FB1E4C8C
:10A8000080223100200000F0BFFC022D2DD01B481B
:10A81000FFF742FB1A4B186070BD1A4B164CA3642D
:10A82000F5E7184B144C23606360A360E360236179
:10A830006361A361E36123626362A362E3622363F2
:10A840006363A363E36323646364A364E3642365D2
:10A850006365A365E36523666366A366E3662367B2
:10A860006367A367E367A364D1E7064BA364CEE7FE
:10A870005344000053460000400700204C330000C2
:10A88000E011002089A8001007B5604601880A0A77
:10A890000230DF2AFAD1C9B2820804D30288408884
:10A8A0000004104300E00068014A5050039007BDC7
:10A8B000400700200FB403BC0CBCF0B50124E40732
:10A8C000634000E0F0B50C0DCF0F661E3605891B06
:10A8D000640503D3C943404200D30131640D03D062
:10A8E000661CF60A07D0E41B00207F00791C89074C
:10A8F0008912803C24031D0DDF0F6E1E36059B1B45
:10A900006D0503D3DB43524200D301336D0D03D0F9
:10A910006E1CF60A07D0ED1B00227F007B1C9B07F4
:10A920009B12803D2D032F1B661B58D4A446202E5E
:10A9300046DA20371400BC401D00BD40F2403341D0
:10A940002A4380185941CB0F05D0C943C043002288
:10A9500064425041514162464D0D28D10D0D07D141
:10A9600000281FD0241940414941013A0D0DF9D06A
:10A97000640006D3013000D30131002C01D140081E
:10A980004000013A0BD4941CE40A04D1120511448E
:10A99000DB071944F0BDD907204B194300E0D90764
:10A9A0000020F0BD0029DDD1002CDBD1F0BD01324B
:10A9B000C6074008CD0728434908002EE1D0D9E753
:10A9C0003C2E29DA203E40371400BC4000D0012440
:10A9D000F24014431A00BB401C43D317ACE7AC460B
:10A9E000202F08DA20360400B4400D00B540F840AE
:10A9F00039412843A5E73C2F0CDA203F40360400BC
:10AA0000B44000D00124F84004430800B1400C4396
:10AA1000C117EAE710001900002494E70000F07F56
:10AA2000F0B50C0D661E3605891BE60A6405640D3B
:10AA300002D0651CED0A04D0002001210905803CEC
:10AA40002403A4461C0D671E3F05DB1BE70A6405B3
:10AA5000640D02D0651CED0A04D0002201231B0501
:10AA6000803C24037740644497B484B296B2744324
:10AA7000070C7E43150C6F4380B26843361802D32F
:10AA8000012000043F183004350C00197D41844634
:10AA900088B29AB250430C0C62431F0C7C438EB2B6
:10AAA0007E43921902D301263604A4191604170C0A
:10AAB0003618674101BC81B29AB25143040C62431B
:10AAC0001B0C5C4380B25843121802D301200004CF
:10AAD00024181004130C401863412D185E41002007
:10AAE000474106BC88B293B258430C0C6343120C26
:10AAF000544389B251435B1802D3012109046418FD
:10AB000019041A0C091862416D185641002047417A
:10AB100018BCF902720D1143F0026A0D1043ED02E8
:10AB20000A0D03D16D1940414941013B124E9B1B57
:10AB30007600B3420ED26D0007D30130002671417A
:10AB40006646354301D1400840001B05C918E4079B
:10AB50002144F0BD0BDA013306D1013004D10131BB
:10AB60004F0D01D04908F2E7E1070020F0BD0136A2
:10AB700031050020EBE70000FF030000F0B51C0DDD
:10AB8000671E3F05DB1BE70A6405640D02D0661CE7
:10AB9000F60A04D0002201231B05803C2403D025A3
:10ABA0002D060026F6432E661E096E66CE0FF61998
:10ABB000B44649004F0D02D07E1CF60A03D0002097
:10ABC0000021403F3F033E1BB600B444013F7F05D8
:10ABD000C91B49082E6F013676089C02950D254346
:10ABE0007543ED137543AD1301356D10F603761BF8
:10ABF0000CB4CC02450D2C43A2B2B3B25A43270C7D
:10AC00007B43350C6F43A4B26C431B1902D3012460
:10AC100024043F191C041D0CA4187D4124196D4106
:10AC2000009A91B2ACB26143170C7C432B0C5F438A
:10AC300092B25A43A41802D301221204BF1822046C
:10AC4000230C52187B41019C6C431B19520ED901F5
:10AC50000A434401A01A81B2B2B2514303145A43C9
:10AC6000360C734387B27743D617D21900277E413B
:10AC700036049B191704160C7F185E417316ED18E5
:10AC8000F301002680337541A90F06D16400690ADB
:10AC9000E8055B0A184309D22FE00422944480336C
:10ACA0007541A90AA8059B0A184326D3404149418A
:10ACB0002404009A019B0D005543641B4343E41A8E
:10ACC00095B286B27543170C7E43030C5F4392B274
:10ACD0005A43B61802D301221204BF183204330CAF
:10ACE00052197B4152429C41002C02D40022013077
:10ACF00051414008CA071043490802B06246D707CD
:10AD00009210084BD218084B9A4203D212058918A8
:10AD1000C919F0BD0020002A01DC3900F0BD013363
:10AD20001905F5E7FD030000FE070000002200B54D
:10AD3000203200F010F8080000BD002200B500F03D
:10AD40000CF8CA179A4200D100BDD8430121C907A7
:10AD5000414000BD00220B150AD410B5944600F006
:10AD60005FF81414013400DA0021CB17144C20478B
:10AD70000020002170476244343A0CD40C2A07DAD0
:10AD800004009140904052422032D440214310BDF3
:10AD9000D843D94310BD203207D40C4694405242C8
:10ADA00020321141D040204310BD0800C917203285
:10ADB00003D452422032104110BD1800190010BDBA
:10ADC00077AD00104A00520D144BD21A13DDFF2A42
:10ADD0001EDAD205CB0FDB071A43C300400F09036D
:10ADE000490A084310435B0001D301D0013070478A
:10ADF0004308FBD2704702D0C80FC00770470A0350
:10AE000012130132F8D1420F072AF5D1012200E0D6
:10AE1000FF22C80F00028018C005704780030000A1
:10AE20000A0DCC0F531E1B05C91A520503D3C94383
:10AE3000404200D30131520D03D0531CDB0A07D02E
:10AE4000121B00206400611C89078912803A1203DA
:10AE5000014BD21A70470000FF03000051434343E7
:10AE6000C9188C46110C83B24B4310B4040C6143D7
:10AE700092B280B2504362431C041B0C001910BCF8
:10AE800059411304120CC01851416144704700002D
:10AE90004840414048400E4B5B6818470C4B1B68CC
:10AEA00018470C4A936F9B0802D2094BDB6818477E
:10AEB000F0B5146E556E576F166FFFF7F6FF054A23
:10AEC0001466556657671667F0BD014B9B681847B7
:10AED00040080020000000D007B5484041404840ED
:10AEE00001E0C04607B54200120E03D0FF2A03D18D
:10AEF000420218D8C00DC0054A00120E03D0FF2A26
:10AF000003D14A020FD8C90DC9050122414005D419
:10AF1000414001D5814207BD884207BD0143491820
:10AF200001D0C043001807BD00B5FFF7DBFF01D01B
:10AF3000002000BD012000BD00B5FFF7D3FF804118
:10AF400000BDC04600B5FFF7C7FF01D9002000BD16
:10AF5000012000BD00B5FFF7BFFF804100BD491AC9
:10AF6000002807D108467047C10FC90700D54042E5
:10AF7000002817D0F44603B40B4B1B68984706BC57
:10AF800081409E384042803107D20B0607D04900ED
:10AF9000490AC0051043084360470130F8E7490AF1
:10AFA0008902F5E770470000E011002041000A0E19
:10AFB00080231B067E2A0BDD9E3A0BDAC117400266
:10AFC000400818435242D04049000131484370477D
:10AFD00000207047C00FC01801387047C0420DD321
:10AFE00000B540004008002100F012F8002801D40C
:10AFF000404200BD8020000600BD0000034BDB691D
:10B00000FC4618471CDF25B1001000004008002056
:10B01000014B5B6A1847000040080020054A1047B2
:10B02000C2179142FAD0044BDB6DFC4618475CDF37
:10B03000F3B0001069AF001040080020034BDB6F35
:10B04000FC4618477CDF3DB100100000400800209E
:10B05000132310B512481C78FEF726FF0100012CBF
:10B060000AD003DD80220F4800F08EF80E48FEF76C
:10B0700013FF0E4B186010BD0A4C5422200000F044
:10B0800083F80B4B6365A365E36523666366A3667C
:10B09000E36623676367A367E3672362E361E5E72A
:10B0A00053460000400800204C330000E01100200F
:10B0B000B5B0001007B5604601880A0A0230DF2AE1
:10B0C000FAD1C9B2820804D3028840880004104330
:10B0D00000E00068014A5050039007BD400800207E
:10B0E000002230B5002906D5CD0705434808013AAE
:10B0F00010E0002230B505000D430FD0CD170C161F
:10B10000AC4205D1C901440E2143C0010732F6E724
:10B110000500080052423D320149884730BD000019
:10B12000EF2900000021C2158032803201D0024A8E
:10B130001047002070470000CD2A0000C30FDB0736
:10B1400041000A0E07D0FF2A08D00909054A8918CC
:10B150001943400770471900002070470249C91879
:10B16000FAE70000000000380000F07F01480421E9
:10B17000014B184790040020B99E0010014B1B683A
:10B180001847000090040020014B5B68184700003E
:10B19000900400209A4200D2885470477047C046FD
:10B1A000F8B55746DE464E464546E0B599460A9BF9
:10B1B00007009A460D9B884693460B9C9B073BD104
:10B1C0000C9B9C423DD21E1B0B9415000C005E4450
:10B1D0002A004B46013521002020B847B542F7D15F
:10B1E000A0460B9C002C20D0454636195346321BF6
:10B1F000013C185D29004B46B847002CF6D12B00C6
:10B20000350098460D9B9B070FD55B46EC1A0C9BAF
:10B21000A3420AD9464698462A004B4631002020D0
:10B220000134B84701354445F6D32800F0BCBB468D
:10B23000B246A946A046F8BD16001500002CD3D191
:10B24000E0E71600002CCFD11500EEE7F0B54F4631
:10B250004646D646C0B584B098460EAB1B78944699
:10B260009946129B0D9C109F119E9A0725D4002E83
:10B2700065D1BC4221D201221A409246202C00D135
:10B28000E9E00C9A551E302202E0202C00D17BE030
:10B2900001342A55A742F8D85246002A0DD0B442AC
:10B2A0000BD20C9A551E3022202C02D171E0202C9A
:10B2B0002DD001342A55B442F9D1DA063CD55A05CD
:10B2C0002ED4002C28D10F9A102A00D1B6E0022AE1
:10B2D00000D1BCE030220C9C227001244A46002A96
:10B2E00065D15A0700D499E02B220C9D2A550134D0
:10B2F00003930C9B62460093029643460194FFF72A
:10B300004FFF04B0E0BCBA46B146A846F0BD2024C9
:10B31000DA06EDD55A0503D4A74266D0B44264D00C
:10B320000F9A102A71D0022A57D0202CE0D0220088
:10B33000013430250C9FBD54202CD9D0CEE70122FA
:10B3400015001D40AA461A4236D04A46002A4AD164
:10B350000C321A4247D1BC42A1D2202C91D1202ECE
:10B3600017D82024DA06C3D55A051BD4202F01D0C4
:10B37000202ED5D11F220F9D102D6FD0022DD8D198
:10B3800062250C9FBD54D0E75246002A79D0202E6A
:10B39000BDD92024DA06ABD55A0503D4202FE9D035
:10B3A000202EE7D00F9A102AA2D12024A0E72D2228
:10B3B0000C9D2A5501349BE7BC4200D37DE7202C2D
:10B3C00000D05EE7DA06F0D55A05EED4202F62D021
:10B3D000202EEAD134001F22CDE7202C00D187E7B0
:10B3E00022000134CCE7013EB5E7621E012CC2D138
:10B3F0000F9A102A00D06AE79A063BD558220C9C77
:10B400002270283A6270022468E79A060ED4202C33
:10B41000CBD078220C9D2A55013486E71A0700D438
:10B4200066E720220C9D2A55013461E7202CBCD010
:10B4300058250C9A12191570013476E79A0608D52A
:10B4400058220C9C227030226270022446E760323F
:10B45000F7E77822F5E7002A83D1B3E7A21E013C83
:10B460009D0603D478250C9FBD5460E758250C9F9A
:10B47000BD545CE778220C9C2270483A627002242A
:10B480002CE7DA0600D433E75A058BD4202F00D0FE
:10B4900044E71F226FE73C001F226CE710B500282D
:10B4A00000D110BD01F00EFBFBE7C046F0B55746DA
:10B4B0004E464546DE46E0B599B0824689469046FE
:10B4C0000893229A239B10001900FFF7FAF800282E
:10B4D00000D0CDE0229823990122D94B5242FFF7A8
:10B4E000EBF8002800D0C3E0229823990122D54B25
:10B4F0005242FFF7D3F8002800D0B9E022982399F0
:10B5000000220023FFF7CAF8002800D0F1E1229EB4
:10B51000239F8023269ADB001A400D92269A1A4216
:10B5200001D1062324938023269A1B011A403B0055
:10B5300093460996334300D0B3E0002A00D0C2E11D
:10B54000002300240A930B94002304250993259BD0
:10B550000024AB4200D95C1B0223269A1A400C92AD
:10B56000269A134203D06B426B415B421C40099BFD
:10B57000002B07D00A9A0B9B30003900FFF72DF8FB
:10B5800006000F002298239900220023FFF786F877
:10B59000002803D0802109067B181F00269AAA4B99
:10B5A000009601971340089E0493249B03940293F2
:10B5B000424633004946504600F0AAF90400002DE7
:10B5C00067D02020269A4946024013005A42534130
:10B5D0005B42621C18400A92330022004530D0477B
:10B5E000099A6F1ED317D4185C40D30F9B460025D1
:10B5F00001E0202D13D008AA94461F2320006344A5
:10B600000A2101355E19FEF79BFD303131702000B3
:10B610000A21FEF795FD26000400092EE9D805232E
:10B620000693002304930A3303935B46089E029318
:10B6300010AB0A9A0093494633005046059701958E
:10B64000FFF704FE0C9A0400002A22D04246851A15
:10B65000259AAA421DD9B0465746160022004346F5
:10B66000494620200135B8470134AE42F6D810E0F3
:10B67000269B42460493259B49460393249B5046B0
:10B680000293229B239C00930194089B00F040F9B5
:10B690000400200019B0F0BCBB46B246A946A04643
:10B6A000F0BD6A4B78009C46400D6044FFF71AF8E5
:10B6B000674A684BFEF7AFFF674A684BFEF784FFA7
:10B6C000674A3B031B0B1A4304000D000998110045
:10B6D000644B0022FEF76FFF634A644BFEF79BFF4B
:10B6E00002000B0020002900FEF76EFFFFF712F8A2
:10B6F0000990FEF7F7FF5E4A5E4B04000D00FEF76F
:10B700008AFF00225C4BFEF75FFFFFF703F85B4AFE
:10B710005B4B29000C902000FEF77DFF04000C9885
:10B720000D00FEF7DFFF574A574BFEF774FF02008C
:10B730000B0020002900FEF73EFF04000D00020070
:10B740000B000A940B95FEF766FF04000D000A98A3
:10B750000B9902000B00FEF737FF00220E900F91AD
:10B760004A4B20002900FEF738FF0022484BFEF725
:10B770002BFF02000B0020002900FEF72EFF002205
:10B78000444BFEF721FF02000B0020002900FEF7CA
:10B7900024FF0A9A0B9B0D0080210400C90500209C
:10B7A000FEF709FF02000B0020002900FEF70CFF46
:10B7B00002000B000E980F99FEF70FFF0022284B96
:10B7C000FEF702FF344B0C9C9C4664442305002288
:10B7D000FEF721FF04000D0002000B0030003900CD
:10B7E0000A940B95FEF75AFF00285DD123002A002A
:10B7F000C625099963318D42AD4159466D420435E4
:10B80000002900D1A3E6134363D030003900234A56
:10B81000234BFEF749FF002807D0002230003900F3
:10B82000204BFEF73BFF002853D1249B002B00D177
:10B830008DE60D9B5A1E9341249AD31A249386E6D3
:10B84000FFFFEF7FFFFFEFFFFFF7FFFF01FCFFFFB1
:10B85000FB799F501344D33FB3C8608B288AC63FFF
:10B860000000F03F0000F83F61436F63A787D23FBD
:10B8700071A379094F930A400000E03F1655B5BB0C
:10B88000B16B0240EF39FAFE422EE63F00002C4039
:10B890000000244000001840FF0300002D431CEB73
:10B8A000E2361A3F80842E41099B0022013B099316
:10B8B0002000164B2900FEF790FE0A00010003004D
:10B8C0000A910B9294E7002300240A930B9400231F
:10B8D0000993249A099B9A4214DDD31A013B2493BD
:10B8E0008023269ADB001A43002300252692099321
:10B8F0002DE6802212069446229B1E00239B634461
:10B900001F0006E600232493EAE7C0460000244017
:10B91000F0B54546DE464E465746E0B595B08B46F7
:10B92000904699461E9A1F9B0A9019001000209D70
:10B93000FEF7C7FE002800D0B0E11E981F99012233
:10B94000C74B5242FEF7AAFE002800D037E11E98EE
:10B950001F990122C34B5242FEF7AEFE002800D0D1
:10B96000A7E01E981F990022BF4BFEF7A5FE0028F6
:10B9700000D088E01E981F990022BC4BFEF78EFE77
:10B98000002800D07FE01E981F9900220023FEF7B8
:10B9900085FE002800D0FAE000230B938023229C30
:10B9A000229ADB001C401A4200D102E1092D00D886
:10B9B0007CE106A98C462C00172200233021093C8B
:10B9C00062440133D154EF1A202B00D132E1A3425B
:10B9D000F7D10022A44B069207931E981F99FEF7F9
:10B9E00099FE0500FEF77EFE02000B001E981F99CF
:10B9F000FEF7E1FD069A079BFEF70DFE0890099100
:10BA0000FEF7ACFE0600FEF769FE02000B00089888
:10BA10000999FEF7D0FD0022954B08900991FEF799
:10BA20004BFE002800D1D2E001363000FEF756FE72
:10BA3000069A079BFEF738FE002801D00026013544
:10BA4000AA46002F00D098E02800FEF74BFE020027
:10BA50000B001E981F99FEF7AEFD854B00220600D5
:10BA60000F00FEF71BFE0CAB9A46002845D10022C2
:10BA7000300039007E4BFEF71FFE00283DD1EB075A
:10BA80003BD5013539E0229B42460493219B594620
:10BA900003930A981E9B1F9C0295009301944B46AA
:10BAA000FFF704FD15B0F0BCBB46B246A946A04660
:10BAB000F0BD229B5B0767D403226E4B2299019253
:10BAC000039121990291009342464B4659460A98A8
:10BAD000FFF766FBE6E706AA9446172328006344AF
:10BAE0000A2101341E19FEF703FB303128003170A2
:10BAF0000A21FEF7FDFA051E76D0202CEBD1032398
:10BB0000229A1340012B1DD1219B002B1AD00B9B95
:10BB1000002B00D0BBE0229A0C33134200D0B6E0D9
:10BB2000219BA34200D887E006AB9C461722302316
:10BB3000624404E02199013413558C4259D0202CE1
:10BB4000F8D12024229B01940393219B0293534616
:10BB5000B9E706AA944617230A216344300001344A
:10BB60001D19FEF7EDFA3031297030000A21013F2E
:10BB7000FEF7E6FA092E46D90600202CE9D15546F3
:10BB80000CAB20249A46B8E704223B4B96E71E9A5A
:10BB90001F9B00200021FEF70EFD01230B93802345
:10BBA000229C229ADB001E901F911C401A4200D05A
:10BBB000FCE60022314B0627069207930DE7229BF5
:10BBC0000393219B0293042301932D4B7BE70022D7
:10BBD00008980999264BFEF761FD002800D02FE751
:10BBE000002E4FD101362BE70323229A1340012B5D
:10BBF00066D0202CA6D00B9B002B1FD02D235246A5
:10BC0000135501349EE75546202CB9D030233A19FC
:10BC1000002F08D0172006A9013409180B55202C35
:10BC2000AED09442F6D10CAB9A462E235246135511
:10BC3000013462E72024CCE6202C83D0229B5B07D2
:10BC400008D4229B1B0700D47CE7202352461355BF
:10BC5000013477E72B2352461355013472E7C0466F
:10BC6000FFFFEFFFFFFFEF7F65CDCD4165CDCDC17C
:10BC70000000E03FF8E70010F0E7001080842E415C
:10BC800000E80010F30700D4DAE60136D8E6219B7D
:10BC9000013B2193A34200D946E7AAE7229B0393E5
:10BCA000219B029303230193074B0CE7074BEA0008
:10BCB0009B185C681B682F000693079400248CE691
:10BCC000219B002B95D022E7FCE7001090EA0010A2
:10BCD000F0B55746DE464E464546E0B5A5B01F00D6
:10BCE0002E9B91460D93CA4ACA4B82468B461A60D8
:10BCF000002900D129E2002338789846002800D195
:10BD00002BE2C54B44460C93C44B55464E460E930E
:10BD10000AE0631C9846220033005946A84744466F
:10BD20003878002800D187E001372528F1D1082391
:10BD30009A46043B9946023B9846013B00229C46AA
:10BD40000B943878791C0300203BDBB2102B03D80E
:10BD50000C9C9B00E3589F460300303B0B9C0B92CE
:10BD6000092B3AD9002398462A2800D1DDE0002388
:10BD70009A462E284BD00300683BDBB2122B1ED80C
:10BD80000E9A9B00D3589F4663460F001A43D8E78C
:10BD900043460F001A43D4E74B460F001A43D0E73F
:10BDA00010230F001A43CCE753460F001A43C8E78D
:10BDB00080235B000B9A78781A430B9201310F00B5
:10BDC00067284FD82428A4D90300253BDBB2422B97
:10BDD0009FD893499B00CB589F46002398460B9BC6
:10BDE00047469C4600E00131BB00DB195B001F1891
:10BDF0000878303F0300303B092BF4D963460B939E
:10BE00000023B8469A460F0001312E28B3D1802076
:10BE10000B9AC00002430B9230225242944678782B
:10BE20000B0084446246092A00D8AAE12A2800D1DE
:10BE3000B9E10F0001319EE7A046AA46B146C845C8
:10BE400003D301235B424B4498464B464246594636
:10BE50000020D047200025B0F0BCBB46B246A94622
:10BE6000A046F0BD01006939C9B20F2900D950E7D9
:10BE700001238B409C466B4B994663464A461340D0
:10BE80000F9362464B461A4200D068E10A2956D009
:10BE9000072900D03DE70D9B02CB9846002900D032
:10BEA00092E10B9B10211A008A43100011310843C4
:10BEB000814680201A00C0000240110003421CD1BC
:10BEC00014AB9C461F220F2362440D959C4615001F
:10BED0000F9B0B9402E0202B0CD0110064460C4009
:10BEE00020003730092C00D807380133E8540A09FC
:10BEF0000F29F0D80B9C0D9D0F934B4608220693FB
:10BF00005346059208320392002204930F9B02923B
:10BF100001931CAB22000093594633002800FFF721
:10BF200095F9434604000D93FAE60D9B04CB904629
:10BF3000002A79DB78780D930F00013117E70D9B0C
:10BF400002CB14930B789C4618005346002B00D16B
:10BF500034E1002815D05346013B013399460D9436
:10BF60000B9C89444A460B00A14601E0934203D052
:10BF70005C780133002CF9D14A465B1A0D9C0B9278
:10BF80000F938023DB0099460B9A13400D934B4689
:10BF90001A4204D00F9B534501D953460F930223F5
:10BFA00099460B9A13400B934B46134200D1F5E18F
:10BFB0006346002B00D1D6E10D9B002B00D182E11E
:10BFC0000B1BD14631009A463B00A1442E005F4630
:10BFD0004D4622009B46894609E04B463900541CD9
:10BFE000B0475346185D002800D192E122009542E7
:10BFF000F3D14B465A46A946BB46350017001E00F2
:10C000004C460B9B002B00D0ADE1149B0D9387E6B3
:10C01000D1BC0010BC0E0020F4E8001038E900107C
:10C0200084E90010419000000B9A283802430B92DB
:10C0300042465242787890460F000D93013196E6C1
:10C0400078786C2800D15DE180230B9A5B001A435D
:10C050000B920131B3E680239B00ABE67878682829
:10C0600000D148E180230B9A01311A430B92A6E6D6
:10C07000672800D1B2E0472800D11AE1452800D155
:10C080001CE10B9A0721049242460D9B0392073351
:10C0900052468B43190002920CC92800009201936A
:10C0A0000D91220033005946FFF700FA040037E6ED
:10C0B000462800D18DE00B9A0721049242460D9B41
:10C0C0000392073352468B43190002920CC9280091
:10C0D000009201930D91220033005946FFF718FC9E
:10C0E00004001DE6631C98462200330059462520B3
:10C0F000A847444614E60D9B04330F93631C9946EE
:10C100000B9B9A0700D40AE10D9B22001878594630
:10C110003300A84743464444012B00D86FE1B046A2
:10C120002E0025004C46B9465F46220043460134A6
:10C1300039002020B047AC42F7D12C00BB46350077
:10C140004F4646460F9B0D93EAE5D64B38789A4604
:10C1500000239846002800D0D3E500246FE66F281E
:10C1600042D000D8FDE11023782800D19BE00B9A43
:10C170009A430B920A239C46002314930A330F938D
:10C1800038E057460B9AB900C919490001330F1816
:10C190001878303F010030390929F4D9BA460B929A
:10C1A0001F00591CE7E50D9BB87804CB0237D1433B
:10C1B000C9170A4092460D93791CDCE5002800D18E
:10C1C000DFE602235B42C8E621200B9A0243914638
:10C1D00076E620230B9A1A430B926CE780230B9A86
:10C1E0001B011A430B924CE708239C46002314932F
:10C1F00008330F930B9880230200DB001A401100D4
:10C200000200184200D080E00C239A4310008023E3
:10C2100002009B001A400B92184200D0F1E08023EC
:10C2200002005B001A4091460D9A043214921842A3
:10C2300000D0C3E2430600D5D7E0030600D421E3D3
:10C240000D9B1B880993002B00D02DE110339843E0
:10C25000002900D128E1002399464346059353461F
:10C2600004930F9B06900393002302934B46019384
:10C270001CAB22000093594633002800FEF7E6FF6E
:10C280000400C2E6582809D0622800D0E3E2022365
:10C290009C460023149302330F93ABE720230B9AA1
:10C2A0001A430B92103B9C460023149310330F93B8
:10C2B000A0E780230B9A1B011A430B9220230B9AB1
:10C2C0001A430B92DDE60B1B9A460F9B99463B00E7
:10C2D00037005E469B4622003B003100A84753468C
:10C2E0000134185D0028F6D14B460F935B46B346E8
:10C2F0003E001F0085E6C0230B9AB8781A430B92C4
:10C30000F91C5CE5C0239B00F6E70D239A4310005F
:10C310007DE75B463500BB464E461F0071E643464F
:10C32000012B66D9631E434432002E001D003B00E2
:10C33000A2465F4691469B4622004B460134390097
:10C340002020B047AC42F7D15B463500BB464E4695
:10C35000A14654461F000D9B4A46187859463300A3
:10C360004444A847EEE60F9BA146984500D84CE60A
:10C370004444E41AB0462E0025004C46B9465F46B8
:10C3800022004346013439002020B047AC42F7D1A7
:10C390002C00BB4635004F46464636E60F98804592
:10C3A00000D873E24346E218131A32002E001D0033
:10C3B0003B0091465F469B460F9122004B4601345D
:10C3C00039002020B047AC42F7D15B46BB461F0086
:10C3D00043460F9901330F930B7835009C464E4628
:10C3E0006046002800D0E7E50FE60D9B1B78099317
:10C3F00029E70D9B2200187859463300A8474C4680
:10C40000A0E60D9AFA3BFF3B07329A430133994667
:10C4100091444B460D931368526815921A4306D106
:10C420001032904300220992002900D083E061225B
:10C43000810600D54122D2B20A9214AA91460A9AE4
:10C4400000210A3A0B9242461792524618925A46D7
:10C45000B24609911E001F31149B4944BB461694F5
:10C460001A950024674698468946159D19901B9297
:10C470000AE03032D2B24B4601341A55A8454CD0AE
:10C48000202C4CD006000D003A000023300029007B
:10C49000FDF794FED2B2092AEBD90B9B9C4662446D
:10C4A000D2B2E8E79DB100106123820600D5412396
:10C4B000DBB20A3B0B93434614A91F228C4615930B
:10C4C00053466244B2460D9417974C468046A9469F
:10C4D0001700099D0F9E169308E03033DBB201343C
:10C4E0003B55B5420ED3202C0CD00500310028005E
:10C4F000FDF726FECBB20929EFD90B9A9446634487
:10C50000DBB2ECE7159B40469846169B4D465646D7
:10C51000A1469A460D9C179F9FE6B742B0D9179B3C
:10C5200056469846189B5F469A461B9B09949B4625
:10C53000169C19981A9D43460593534604930F9BE6
:10C540000690039300230293099B01931CAB2200E6
:10C550000093594633002800FEF778FE0400FFF7E9
:10C56000DFFB10230B9A9A430F92692800D091E1C8
:10C570000B9980230A00DB001A4010000A001942C0
:10C5800003D0112118008A430F920F9A80231100C3
:10C590009B0019408C461A425BD1802311005B003E
:10C5A000194089460D9904310B911A4200D0B2E02E
:10C5B00013005B0600D4EDE00D9B1B781A00D90F29
:10C5C0000D91002B00D1A3E0100014AA944642461E
:10C5D0001F23159252466344A846BA464D4614940A
:10C5E000B14604001F00169201E0202D0FD020005C
:10C5F0000A21FDF7A5FD01357E193031317020008B
:10C600000A21FDF79DFD26000400092EEDD8159B9B
:10C610004E46A94645469846169B57469A46149C50
:10C620000F9B069343460593534604930A230393B3
:10C630000D9B02934B4601931CAB2200009359467D
:10C6400033002800FEF702FE0B9B04000D93FFF75A
:10C6500067FB07220D9B07339343013294469C44AA
:10C6600062460D920CCBD90F0B911100194300D1EA
:10C670009BE0D91713911291514010911399594091
:10C68000119110981199129A139B801A9941109048
:10C69000119114AA94464246002315925246994697
:10C6A000169232001F336344A8464E46BA4614948D
:10C6B0001F00109C119D914601E0202E10D02000FB
:10C6C00029000A220023FDF779FD013630322B00C4
:10C6D000BA550D0022000400002BEED1092AECD837
:10C6E000159B10941195454698464B46169AB146AF
:10C6F00057461E009246149C0F9B06934346059393
:10C70000534604930A2303930B9B02934B461CE767
:10C71000002885D159E70D9B1B68DA0F1100002B0B
:10C7200000D1A6E0DA179818504014AA91461F23AA
:10C7300042464B44A8460D94169704006546B14600
:10C740001F001491159201E0202D0FD020000A2126
:10C75000FDF7F6FC01357E193031317020000A21D9
:10C76000FDF7EEFC26000400092EEDD8159BAC4623
:10C7700045469846149B4E4619000D9C169F0F9BEC
:10C780000291069343460593534604930A23039369
:10C79000634650E713001B066ED50D9B00229B5E7F
:10C7A000D9175A184A4092B209E70023994600283F
:10C7B000A2D100220023109211936AE70D9B1B68FF
:10C7C0009946002B03D110339843002938D16123B7
:10C7D000820600D54123DBB20A3B0D9343461693F4
:10C7E000534614A91F228C4617932B0062444D46D2
:10C7F000B246159418978046170099460B9C0F9ED9
:10C8000008E03033DBB201343B55B5420ED3202C67
:10C810000CD0050031002800FDF792FCCBB20929AD
:10C82000EFD90D9A94466344DBB2ECE7169B404681
:10C830009846179B56464D469A460B94189F159C52
:10C8400043460593534604930F9B0690039300239E
:10C8500002930B9B0BE50B9980230A00DB001A4027
:10C8600010000A00194200D08BE610239A430F9261
:10C870008BE6002883D158E70D9B1B68D9175A18FF
:10C880004A409CE60D9B1B680993DCE403000133DE
:10C890000F93A5E50B926DE410B5054C82B00093A3
:10C8A00013000A0001002000FFF712FA02B010BDC9
:10C8B00095B1001010B5094A0300146884B0002C2B
:10C8C00008D0012200910648524203A9A047012046
:10C8D00004B010BD00F042F90020F9E7BC0E0020C2
:10C8E0009DB4001000BEFDE710B5FFF7FBFFC0468A
:10C8F00070B5FDF71FFB074D074EB54209D2002466
:10C90000013E761BB60808CD984723000134B34298
:10C91000F9D170BD0805002014050020030010B5F2
:10C92000080011001B68984710BDC046F0B5C64608
:10C9300000B5437D07000D001600002B38D0002AFB
:10C940002EDD00216A1E90466A5C037D4C1C00208F
:10C950000A2A0CD0A64216D043461B5D21000D3B8F
:10C960005A4253416A5CDBB24C1C0A2AF2D1002BBA
:10C97000F0D1884217DB022110483B689847A64255
:10C9800007D02000E8E7864203DD311A3B6828180B
:10C990009847AD19013D2B780D3B5A4253413B75E9
:10C9A00080BCB846F0BD091A3B6828189847E2E7F2
:10C9B0000368110028009847F2E7C046E0EA00103B
:10C9C000F0B5DE4657464E464546E0B585B0170001
:10C9D0001C0006000D00FDF7A9F80023314A1218CB
:10C9E0004B41802109068B4202D301222E4B524239
:10C9F0002E4908008A4601F02BFE01906B1C03D1E2
:10CA0000300001F0BDFD0500002C26D0284B9846D3
:10CA1000284B1C68002C15D0002F21D1264F02E096
:10CA20002469002C0ED02368002BF9D03B68002B22
:10CA300001D09C42F4D120002A003100C047246973
:10CA4000002CF0D1019B002B28D1280005B0F0BCB0
:10CA5000BB46B246A946A046F0BD184B9846D7E75C
:10CA6000154B994602ABDF1D0A239B4602E0246961
:10CA7000002CE7D02368002BF9D04B461B68002B15
:10CA800001D0A342F3D12A0031002000C0475B4609
:10CA90000122390020003B70C047E8E7504601F012
:10CAA000A7FDD2E740420F00FFFFFF7FC404002034
:10CAB0002DC90010940A0020980E00201DC90010F6
:10CAC00000207047F0B5CE46474680B583B06B4630
:10CAD0000600DD1D2870FDF729F800231A4A1218F8
:10CAE0004B41802109068B4202D30122174B52424F
:10CAF00017490800884601F0ABFD164B81461C68BB
:10CB0000002C14D0144F02E02469002C0FD02368AD
:10CB1000002BF9D03B68002B01D09C42F4D12000BF
:10CB200001222900FFF702FF2469002CEFD14B46B8
:10CB3000002B05D1300003B0C0BCB946B046F0BDF3
:10CB4000404601F055FDF5E740420F00FFFFFF7F33
:10CB5000C4040020940A0020980E002070B5040040
:10CB600001F00EFD01230100050001222000FFF766
:10CB700027FF084B1C68002C06D06368002B05D0EB
:10CB800098472469002CF8D1280070BD2469002C36
:10CB9000F3D1F9E7940A0020014B1860197170472E
:10CBA0009C0E0020054B1879002806D01A68013821
:10CBB00011781871080001321A6070479C0E00202D
:10CBC00010B5094A1379012B0BD91168023B48783B
:10CBD0000C78000220430231C0BA1160DBB213713D
:10CBE00010BD00230020FAE79C0E002010B50A4A71
:10CBF0001379012B0CD91168023B48780C7800029C
:10CC0000204340BA023180B21160DBB2137110BD13
:10CC100000230020FAE7C0469C0E002010B50C4A05
:10CC20001379032B11D91168043B48780C78000262
:10CC300020438C78DBB224040443C8780431000616
:10CC4000204300BA1160137110BD00230020FAE7E1
:10CC50009C0E002040220021014B99547047C04691
:10CC6000880F0020402110B5034A535C3F2B02D8A7
:10CC70005C1C5454D05410BD880F0020402110B5C6
:10CC8000054A535C3E2B06D8040AD4549C1C01333D
:10CC9000DBB25454D05410BD880F0020402130B571
:10CCA000094A535C3C2B0ED80416D4545C1CE4B2E5
:10CCB000051415559C1CE4B2051215551C1D0333B3
:10CCC000DBB25454D05430BD880F0020402310B53F
:10CCD0000248C15C00F0F0FE10BDC046880F002085
:10CCE000F8B505001E480C000860290017001E005A
:10CCF00000F066F8002806D11A482900206000F0EC
:10CD00005FF8002827D02900206800F0A1F8002152
:10CD10003060206800F038F8069B40B23860002B85
:10CD200014D0104B22689A4212D00A250924200000
:10CD3000FCF73CF8002807D02800FCF737F800285B
:10CD400001D0002003E02C00069B1C600120F8BDF0
:10CD500008250724EBE701235B4200203360F6E758
:10CD60000000305000002050054B10B59C46604438
:10CD7000000D800041180348FBF776FF10BDC04648
:10CD80000000E0AF540A002010B50A4B0A4AC4184C
:10CD9000240DA40082B0009208482200E31CFBF797
:10CDA00015FF844202DC001B02B010BD012040428E
:10CDB000FAE7C0460000E0AF08E80010540A00207F
:10CDC00070B50D000400FBF7C9FE1F4A1F4B9446C7
:10CDD00001226444240DA400E65805212C79202367
:10CDE000A2406956013A1B1B002913DB002499421B
:10CDF0000CDC13008B401E4208D1AB79002B05D10F
:10CE00008A401400344063425C41E4B2FBF7B2FE56
:10CE1000200070BD002B0BDB110099400E4205D1A4
:10CE20000DE014009C401900264203D0013BF8D2CB
:10CE30000024EBE7AB79002BE2D00024E6E7AC79E5
:10CE400063425C41E4B2E1E70000E0AF4409002046
:10CE5000F0B55746DE464E4645468846E0B583B0B7
:10CE600006000524FBF77AFE434684461C571879D2
:10CE7000364B374AF3181B0D9B009246D7580122B8
:10CE80008240013A002C42DB2021091A8C423BDC13
:10CE90001100A14025000F4236D14146096889465C
:10CEA0004146897900294DD1AA4093463A423FD163
:10CEB0008021890100228846002816D06146A446B8
:10CEC00034004E469946030001915100705A404586
:10CED00000D2401951191231890001320851934290
:10CEE000F3D8019B64469C464B465A46174352462C
:10CEF000D7506046FBF73EFE200003B0F0BCBB46B7
:10CF0000B246A946A046F0BD01246442F1E72024C0
:10CF1000241A0DD41100A14025008B46394205D1B9
:10CF200009E01100A14025000F42B6D0013CF8D223
:10CF300009246442DDE742461268914642469279EE
:10CF4000002AB5D014246442D3E7C0460000E0AF05
:10CF50004409002070B501250B7904009D40013D76
:10CF60009540FBF7FBFD054B0549E3181B0D9B00A6
:10CF70005A58AA435A50FBF7FDFD70BD0000E0AFC0
:10CF800044090020F0B5DE4657464E464546E0B51A
:10CF90001600DC22924685B01C004B0002935B1801
:10CFA000DB00C518AA445246834628001268CC30DC
:10CFB000009202682B0001921B4A80209446800256
:10CFC00063441860002C1DD08023DB0499460123A4
:10CFD000D83598462B00E02755469A463F020391E4
:10CFE0002000FDF77FF84A46430113432B603300CE
:10CFF0004246C340134052463B431360631E1C40ED
:10D00000EED10399029B5B18DB005B441A00009988
:10D01000DC321160019ACC331A6005B0F0BCBB461B
:10D02000B246A946A046F0BDCC300000F0B5DE46C1
:10D0300057464E464546E0B51600DC22924685B07E
:10D040001C004B0002935B18DB00C518AA44524633
:10D05000834628001268CC30009202682B000192AF
:10D060001B4A80209446800263441860002C1CD028
:10D070008023DB0499460123D83598462B0055467A
:10D080009A46144F03912000FDF72CF84A464301BD
:10D0900013432B6033004246C340134052463B4388
:10D0A0001360631E1C40EED10399029B5B18DB00EA
:10D0B0005B441A000099DC321160019ACC331A608B
:10D0C00005B0F0BCBB46B246A946A046F0BDC0467E
:10D0D000CC30000080E00000F0B54E464546DE460C
:10D0E0005746E0B583B089460CA984460D781F2ABF
:10D0F00045D84946490088464944C9004618370082
:10D100003400DC373868CC34834620683100019025
:10D110001C4880248246A40251440C6069424D415F
:10D120001E216D428D4318498A465544052B0CD962
:10D13000A0201F214005D836540104430532053B89
:10D140003C600A403560052BF6D852019B0613431C
:10D1500042464A44D20062441000DC3213600300AD
:10D16000D8331D605B461360019BCC300360002008
:10D1700003B0F0BCBB46B246A946A046F0BD0520B0
:10D180004042F5E7CC3000009FE00000F0B50125FB
:10D190008D400468AC430460002B2ED04D006C1809
:10D1A000E400041926001F68C83637609F680436FB
:10D1B00077605F68DB68DC34376023606B18184D7C
:10D1C000DB00AC468025C41864442D06256025602C
:10D1D000144C0D1D8C40846001242600AE40802537
:10D1E00008318C401F21AD014519C0180A40D830C4
:10D1F0002E602C6002600020F0BD4D006C18E40031
:10D20000041926008027C8367F023760C0273F03F5
:10D21000B760F82704367F02DC3437602360CDE73F
:10D22000D010000001010101F0B557464E464546B9
:10D23000DE46C24AE0B51368C14F013313600822CD
:10D2400094463868073A84446446A240BD4EBE4DB9
:10D25000336887B0596811423CD1BC4AB146904608
:10D260002E004546BA4A01970292BA4A0392BA4A38
:10D2700004922A6801322A6082009A18176A009282
:10D2800010229246196BFC0D0A40934652460A4200
:10D2900000D087E0FF2C46D95A463270AC4A12784B
:10D2A000511CFF318C4200D19BE0802149008C420F
:10D2B00000D196E08132FF32944200D0A3E00122F7
:10D2C000644632700122A24059681142D1D0350023
:10D2D0004E46019F01239946A04BA8462C781D007D
:10D2E00018E033683C689A465A6823004946103370
:10D2F00099400A4210D100F0A5FD53460434A40021
:10D30000E0502C78013CE4B22C70002C00D195E068
:10D3100043461C78032CE4D007B0F0BCBB46B246B1
:10D32000A946A046F0BD3178022911D033D8002992
:10D3300069D0029A12788032944200D1D1E05A46E4
:10D34000327001226446A2405968114291D0BEE772
:10D35000039AE4B211786118C9B21170049A059168
:10D3600011788A4601218846C2445146C9B21170DB
:10D37000022979D07A4F3F780337B94200D186E04D
:10D38000200000F0B3FD019A4B4610680822944635
:10D390001B688444D5E70429D1D1002C6DD000222C
:10D3A0003270CEE76F4A440011682218D4001C196D
:10D3B0002700D83739600199CC3488462168002984
:10D3C000FCDB414601916849D200884680219A18C9
:10D3D000424409061160116010221A630022327063
:10D3E000AFE700F05BFD0028CDD0022301223370AF
:10D3F000594B1A70574B1C70013CFF3C6242544120
:10D400005A4B1C70BFE7574A440011682218D400D9
:10D410001C192700D83739600199CC348846216817
:10D420000029FCDB414601914F49D200884680210A
:10D430009A18424409061160116082E74A463B6827
:10D4400045460433DBB29A401300494A1268510042
:10D45000891832688900521846498C466244136024
:10D4600000F012FD2C7057E73F213D4A214011701A
:10D47000414A7900C90F117063E700F005FD019A78
:10D480004B461068082294461B68844487E75A4636
:10D49000364C3270059A2778002A00D1A6E0002F7A
:10D4A00000D04EE7304A8027904644002418E4001C
:10D4B000191941443F061C190F600F6027002F49BE
:10D4C000D8370968009A39600199CC3488462168B8
:10D4D0000029FCDB414601910021116101311161FC
:10D4E0002FE700F081FC1D4B071E187048D1019FEB
:10D4F0004B4638681B68440021181B4CC900A446E1
:10D5000080245A1862442406146014601B4A591877
:10D5100014680A00B846D8321460CC310A68002A70
:10D52000FCDB42460021019282009A1811611161D0
:10D53000082294463170844403E7C046A40E0020BC
:10D54000E8110020700F0020121A0020AC0E0020FD
:10D55000A00400200E1A00200D1A0020131A00202B
:10D56000111A0020580A0020D01000000F1A0020C5
:10D57000A80E00202C310000101A0020B00E002050
:10D580000323019A337010684B4644002118314C34
:10D59000314AA04680241B681268C90094465A1874
:10D5A000424424065918146014600C002B4AD834E5
:10D5B0001268CC312260019A90460A68002AFCDB8E
:10D5C0004246011D8C0001927A1EE250CAB201212E
:10D5D00091406246224C52006244A44692009A183E
:10D5E00062441160082294468444AAE61D4B390027
:10D5F000187800F095FC1C4B1C49186803685B6A9E
:10D6000098472378002B00D0BDE6019F4B46386831
:10D610001B68440021180F4CC900A44680245A18E6
:10D6200062442406146014600C4A591814680A00F5
:10D63000B846D8321460CC310A68002AFCDB424676
:10D640000021019282009A1811611161082294460A
:10D65000844476E6D0100000A80E0020B00E002012
:10D660002C210000101A0020840A0020A4040020AD
:10D67000F0B54E464546DE4657461F22E0B5A04B64
:10D68000A04E9C6A9D6A996A9B6AA40A6D098BB038
:10D6900014401540DB0B0A4030000392059300F064
:10D6A000C9FD002800D128E1974B30001E60336887
:10D6B0009649DB699847964B964E9946964B4A4653
:10D6C0009B46964B59469A46009395483300FFF780
:10D6D00007FB002800D10DE15B461F684B461B6825
:10D6E0003268984680235B0204920693931C1032A2
:10D6F0001203DB0113438B4A41461340C022D2057B
:10D7000013430793C0231B0308938023DB0509936E
:10D7100000232200009338000133FFF7DDFC824B29
:10D720002000FE18360D0636F6B23100FBF7B0F9D0
:10D73000200000220121FBF7C5F9099B7B4A0399D0
:10D740001340E20313430993794A079B24061340CD
:10D750002343089A0793774B05981A408023DB02EE
:10D760001343089301231A001C008A40AC40144361
:10D77000034200D09FE02300002241463800FFF71B
:10D7800001FC2300002241463800FFF74FFC310026
:10D790002800FBF77DF9039C31002000FBF778F9A6
:10D7A000002201212800FBF78DF900220121200031
:10D7B000FBF788F9089A604B60491A4080231B03E5
:10D7C00013431F220893099B052093432B430B40CF
:10D7D000AD025B492B430B40039949010B43594967
:10D7E0000B408221C9040B43049909931131564B14
:10D7F0000A401A60554B564A1A60FCF79FFAFDF72B
:10D80000AEFB5449FDF74DFBEC218905FDF746FBC6
:10D81000051CFDF7FDFB84B20020002C0ED020007B
:10D82000FDF79DFB011C281CFDF735FB8721C90571
:10D83000FDF74BFBFDF7ECFBC0B2000224040443F0
:10D84000069401244146049A06AB3800FFF79EFC7B
:10D85000414623008B403A683F4913433B6053469F
:10D8600080221868FBF7CAFA534601211868FBF7B3
:10D8700055FA534619685B461A682B4BD318581E45
:10D8800083415B000733C91A344B200019604B46B3
:10D890001B7898404B005B189B00D218304B9C467D
:10D8A000304B624410601C700BB0F0BCBB46B246FB
:10D8B000A946A046F0BD230041463800FFF762FBB1
:10D8C0002300002241463800FFF7B0FB310028005A
:10D8D000FBF7DEF8039C31002000FBF7D9F82800A5
:10D8E00000220121FBF7EEF8012200212000FBF7C6
:10D8F000E9F85FE71C48FBF719F91C48FBF716F934
:10D900000080054018070020840A0020A40400209D
:10D91000E81100206C0F0020700F0020740F002011
:10D92000E4EA0010FFFFFF9F0000E0AFFF7FF0FF81
:10D93000FFFFFFE0FFFF0AFEFFFFF5C1FF830FFCC3
:10D940001FFCFFFFFFFFFFE3B00E0020580A00207E
:10D9500040E000000024F44929D20010A80E002065
:10D960002C210000081A002044E800102CE80010C8
:10D97000F8B5012528001E4E1E4C31681E4F0B1DA8
:10D98000DBB298401D4B1B685A00D21823689200E6
:10D990009B181B4A9446FF220A4029009140634489
:10D9A0001860386819600021FBF7B8F93868154924
:10D9B000FBF71EFB32682068954003681249AB43B1
:10D9C0000360124B1A68FFF7C5FA31682068FFF749
:10D9D000CBF90F4C0F49206803681B6A98472068F1
:10D9E00003685B6B984700220B4B1A70F8BDC0466A
:10D9F000E8110020700F0020740F0020A80E0020F6
:10DA00002C31000029D20010E4EA00106C0F002035
:10DA1000840A0020A4040020081A00208022054B5C
:10DA2000D20510B500211A6000200022FCF7DEF9B3
:10DA3000FEE7C04600B00540F8B5037806001C00BC
:10DA4000303CE4B20F004278092C01D9373BDCB2FC
:10DA50001500303DEDB2092D22D8072C1FD800F05B
:10DA60005DFCBA1E0100B01C00F050FD002816D16C
:10DA70000F4B240128191A78C0B282420FD01870B7
:10DA800000F050FC0B4C2378002B01D0FFF770FF07
:10DA900000F056FC2378002B01D1FFF7E9FDF8BD1B
:10DAA000072CFCD8373AD5B20F2DF8D8D7E7C046A7
:10DAB000A0040020081A0020F8B504000F0000F0B0
:10DAC0001BF9061E14D07D1EEDB2002F0DD02700CD
:10DAD00065191F37EDB202E00134BC4205D0207851
